:0400000068EF00F0B5
:0600080001827CEF15F0FF
:100018000180D8CF9AF0E8CF9BF0E0CF9CF0FACFE0
:100028009DF0FBCF9EF0E1CF9FF0E2CFA0F0D9CFBB
:10003800A1F0DACFA2F0F3CFA3F0F4CFA4F000013F
:10004800A66B000EA56F3EEF00F0A551020DF35010
:10005800BB0FD96EDA6A02D83BEF00F00500FA6EE2
:10006800DE50FD6EDE50FE6EFF6AFA50120000018F
:10007800A54BA62BD651976F986B9751A55DA651A6
:10008800800A996F9851800A9959D8A04EEF00F0CC
:1000980050EF00F029EF00F0A4C0F4FFA3C0F3FF75
:1000A800A2C0DAFFA1C0D9FFA0C0E2FF9FC0E1FF54
:1000B8009EC0FBFF9DC0FAFF9CC0E0FF9BC0E8FF0D
:0C00C8009AC0D8FF01901000D0EF1EF08D
:101000000054696D653A20252E32643A25322E321D
:10101000643A25322E32640A0D456E746572656439
:1010200020737472696E673A2025730A0D00486553
:101030006C6C6F2121210A0D54696D653A20256C75
:10104000640A0D456E74657220737472696E673A36
:10105000200A0D004144433A2025642025642025C0
:10106000640A0D00286E756C6C29000087C1D9FFD9
:1010700088C1DAFFDFCFF6FF100EF76E0800F550DB
:10108000250AD8A446EF08F048EF08F0BFEF09F0B2
:1010900087C1D9FF88C1DAFFDF2A0101356B000E55
:1010A000346F34C138F13669376987C15DF188C161
:1010B0005EF189C15FF18AC160F11CEC1AF05DC17B
:1010C00034F15EC135F1010135BF6BEF08F069EF16
:1010D00008F070EF08F03881346D351FD8B0352B2B
:1010E00087C1D9FF88C1DAFFDFCFF6FF100EF76E98
:1010F0000800F5502E0AD8A480EF08F082EF08F01F
:1011000095EF08F087C1D9FF88C1DAFFDF2A87C1D0
:101110005DF188C15EF189C15FF18AC160F11CECAB
:101120001AF05DC136F15EC137F187C1D9FF88C1C0
:10113000DAFFDF500101936F93C1F6FF100EF76ED7
:101140000800F5CF92F1AFEF08F0932BBEEF08F057
:10115000690E926FBEEF08F0926BBEEF08F09251ED
:10116000640AD8B4A8EF08F00D0AD8B4A8EF08F0C4
:10117000050AD8B4A5EF08F0ACEF08F093C1F6FF6C
:10118000100EF76E0800F550640AD8B4CAEF08F0E4
:10119000CCEF08F011EF09F093C1F6FF100EF76ED7
:1011A0000800F550690AD8A4D8EF08F0DAEF08F083
:1011B00032EF09F011EF09F089C1D9FF8AC1DAFFD6
:1011C000DFCF8BF1020EDE26DFCF8CF1000EDD22A9
:1011D0008BC1D9FF8CC1DAFFDECF8DF1DDCF8EF16F
:1011E000000E8EBFFF0E8F6F906F1CEF09F089C14C
:1011F000D9FF8AC1DAFFDFCF8BF1040EDE26DFCF05
:101200008CF1000EDD228BC1D9FF8CC1DAFFDECF5D
:101210008DF1DECF8EF1DECF8FF1DECF90F11CEFBE
:1012200009F09251690AD8B4DCEF08F0050AD8B485
:10123000F7EF08F01CEF09F0932987C1D9FF88C1A7
:10124000DAFFDF6E85C176F186C177F18DC178F165
:101250008EC179F18FC17AF190C17BF1E1EC13F08D
:10126000D4EF09F0916B87C1D9FF88C1DAFFDFCFD6
:10127000F6FF100EF76E0800F550730AD8A443EF7E
:1012800009F045EF09F04EEF09F087C1D9FF88C199
:10129000DAFFDF2A010E916F94EF09F087C1D9FFC1
:1012A00088C1DAFFDFCFF6FF100EF76E0800F550A9
:1012B0006C0AD8A45EEF09F060EF09F094EF09F032
:1012C00087C1D9FF88C1DAFFDF508B6F010E8B27F2
:1012D0008BC1F6FF100EF76E0800F5506C0AD8A40B
:1012E00074EF09F076EF09F094EF09F087C1D9FFA8
:1012F00088C1DAFFDF508B6F020E8B278BC1F6FFA0
:10130000100EF76E0800F550730AD8A48AEF09F0A2
:101310008CEF09F094EF09F087C1D9FF88C1DAFF9B
:10132000030EDF264AEF09F09151D8B49AEF09F085
:101330009CEF09F0B8EF09F085C166F186C167F14D
:1013400089C1D9FF8AC1DAFFDFCF8BF1020EDE2619
:10135000DFCF8CF1000EDD228BC1D9FF8CC1DAFF0B
:10136000DECF68F1DDCF69F10EEC13F0D4EF09F0B8
:1013700087C1D9FF88C1DAFFDF2AD4EF09F087C11E
:10138000D9FF88C1DAFFDFCFF6FF100EF76E080035
:10139000F55001015D6F5E6B85C15FF186C160F143
:1013A000B6EC19F0B8EF09F0120001016E51D96ED8
:1013B000DA6ADE50DE10D8A4E0EF09F0E2EF09F0BF
:1013C000E4EF09F06BEF0BF06E51D96EDA6A060E9E
:1013D000D9266C51DE5C6D51DE58D8B0F2EF09F0C1
:1013E000F4EF09F0F6EF09F06BEF0BF06AC181F151
:1013F0006BC182F1846B000E836F6E51D96EDA6A15
:10140000040ED926DECF6FF1DDCF70F16E51D96EAB
:10141000DA6A060ED926DECF71F1DDCF72F16F5197
:10142000715D856F70517259866F886B000E876F82
:10143000870E5D6F010E5E6F6EC15FF101EC17F0FC
:101440006CC17FF16DC180F101016C51855D6D5101
:101450008659D8B02EEF0AF030EF0AF08CEF0AF080
:101460006E51D96EDA6A080ED926DECF6FF1DDCF64
:1014700070F16E51D96EDA6A040ED926DECF71F1A1
:10148000DDCF72F16F517103F3CF73F1F4CF74F1CB
:101490007203F350742770517103F35074276E5127
:1014A000D96EDA6ADECF75F1DDCF76F1735175252D
:1014B0005D6F745176215E6F81C15FF182C160F111
:1014C0006E51D96EDA6A080ED926DECF77F1DDCFFC
:1014D00078F185517703F3CF79F1F4CF7AF178037E
:1014E000F3507A2786517703F3507A2779C161F157
:1014F0007AC162F1FBEC1EF001016E51D96EDA6A1D
:10150000040ED926DE6ADD6A85C183F186C184F1C5
:1015100085516C5F86516D5B6E51D96EDA6A080E2B
:10152000D926DECF6FF1DDCF70F16E51D96EDA6A58
:10153000040ED926DECF71F1DDCF72F16F51710348
:10154000F3CF73F1F4CF74F17203F3507427705139
:101550007103F35074276E51D96EDA6ADECF75F1DC
:10156000DDCF76F1735175255D6F745176215E6F15
:101570006E51D96EDA6A080ED926DECF77F1DDCF4B
:1015800078F183517703F3CF79F1F4CF7AF17803CF
:10159000F3507A2784517703F3507A2779518125C4
:1015A0005F6F7A518221606F6E51D96EDA6A080ED0
:1015B000D926DECF7BF1DDCF7CF16C517B03F3CFFD
:1015C0007DF1F4CF7EF17C03F3507E276D517B03D8
:1015D000F3507E277DC161F17EC162F1FBEC1EF00C
:1015E00001016E51D96EDA6A040ED9266C51DE26DD
:1015F0006D51DD226E51D96EDA6A060ED9266E5112
:10160000E16EE26A040EE126DE50E65CDE50E6584A
:10161000D8A00DEF0BF00FEF0BF021EF0BF06E5198
:10162000D96EDA6A060ED926DECF6FF1DDCF70F102
:101630006E51D96EDA6A040ED9266F51DE5E705192
:10164000DD5A6E51D96EDA6A060ED926DECF6FF1F9
:10165000DDCF70F187516F5F8851705B6F517F5D97
:1016600070518059D8A037EF0BF039EF0BF04FEFE6
:101670000BF06E51D96EDA6A040ED926DECF6FF107
:10168000DDCF70F1010E6F27000E70236E51D96E01
:10169000DA6A020ED9266FC1DEFF70C1DDFF6E511E
:1016A000D96EDA6A060ED9266E51E16EE26A020E32
:1016B000E126DE50E65CDE50E658D8A062EF0BF083
:1016C00064EF0BF06BEF0BF06E51D96EDA6A020E1D
:1016D000D926DE6ADD6A120000017151D96EDA6A1C
:1016E000DE50DE10D8A477EF0BF079EF0BF07BEF34
:1016F0000BF001EF0DF07151D96EDA6A060ED926A2
:101700006F51DE5C7051DE58D8B089EF0BF08BEF73
:101710000BF08DEF0BF001EF0DF06DC084F06EC09B
:1017200085F0876B000E866F7151D96EDA6A040EF0
:10173000D926DECF72F0DDCF73F07151D96EDA6A3F
:10174000060ED926DECF74F0DDCF75F07251745DD0
:101750008A6F735175598B6F896B000E886F880E75
:10176000606F616B71C062F077EC17F06FC082F050
:1017700070C083F000016F518A5D70518B59D8B0F1
:10178000C4EF0BF0C6EF0BF022EF0CF07151D96EE5
:10179000DA6A080ED926DECF72F0DDCF73F0715110
:1017A000D96EDA6A040ED926DECF74F0DDCF75F07B
:1017B00072517403F3CF76F0F4CF77F07503F350E2
:1017C000772773517403F35077277151D96EDA6A12
:1017D000DECF78F0DDCF79F076517825606F7751E4
:1017E0007921616F84C062F085C063F07151D96E58
:1017F000DA6A080ED926DECF7AF0DDCF7BF08A5187
:101800007A03F3CF7CF0F4CF7DF07B03F3507D2798
:101810008B517A03F3507D277CC064F07DC065F066
:1018200024EC1FF000017151D96EDA6A040ED9263A
:10183000DE6ADD6A8AC086F08BC087F08A516F5FEE
:101840008B51705B7151D96EDA6A080ED926DECFE2
:1018500072F0DDCF73F07151D96EDA6A040ED926B9
:10186000DECF74F0DDCF75F072517403F3CF76F0F4
:10187000F4CF77F07503F350772773517403F35067
:1018800077277151D96EDA6ADECF78F0DDCF79F043
:1018900076517825606F77517921616F7151D96EDA
:1018A000DA6A080ED926DECF7AF0DDCF7BF08651DA
:1018B0007A03F3CF7CF0F4CF7DF07B03F3507D27E8
:1018C00087517A03F3507D277C518425626F7D51C7
:1018D0008521636F7151D96EDA6A080ED926DECF81
:1018E0007EF0DDCF7FF06F517E03F3CF80F0F4CF39
:1018F00081F07F03F350812770517E03F3508127DD
:1019000080C064F081C065F024EC1FF000017151CB
:10191000D96EDA6A040ED9266F51DE267051DD22A7
:101920007151D96EDA6A060ED9267151E16EE26AFA
:10193000040EE126DE50E65CDE50E658D8A0A3EFA8
:101940000CF0A5EF0CF0B7EF0CF07151D96EDA6A1C
:10195000060ED926DECF72F0DDCF73F07151D96E4D
:10196000DA6A040ED9267251DE5E7351DD5A715166
:10197000D96EDA6A060ED926DECF72F0DDCF73F0AB
:101980008851725F8951735B7251825D73518359C3
:10199000D8A0CDEF0CF0CFEF0CF0E5EF0CF07151CB
:1019A000D96EDA6A040ED926DECF72F0DDCF73F07D
:1019B000010E7227000E73237151D96EDA6A020E7E
:1019C000D92672C0DEFF73C0DDFF7151D96EDA6AAD
:1019D000060ED9267151E16EE26A020EE126DE5052
:1019E000E65CDE50E658D8A0F8EF0CF0FAEF0CF009
:1019F00001EF0DF07151D96EDA6A020ED926DE6A56
:101A0000DD6A12001350D96EDA6ADE50DE10D8A4F7
:101A10000CEF0DF00EEF0DF010EF0DF093EF0EF058
:101A20001350D96EDA6A060ED9261150DE5C1250B8
:101A3000DE58D8B01EEF0DF020EF0DF022EF0DF0C4
:101A400093EF0EF00FC026F010C027F0296A000EA9
:101A5000286E1350D96EDA6A040ED926DECF14F040
:101A6000DDCF15F01350D96EDA6A060ED926DECF17
:101A700016F0DDCF17F01450165C2C6E1550175869
:101A80002D6E2B6A000E2A6E2A0E026E036A13C098
:101A900004F0EDEC17F011C024F012C025F0115045
:101AA0002C5C12502D58D8B058EF0DF05AEF0DF0B5
:101AB000B5EF0DF01350D96EDA6A080ED926DECFD5
:101AC00014F0DDCF15F01350D96EDA6A040ED92662
:101AD000DECF16F0DDCF17F014501602F3CF18F05A
:101AE000F4CF19F01702F350192615501602F350CF
:101AF00019261350D96EDA6ADECF1AF0DDCF1BF04B
:101B000018501A24026E19501B20036E26C004F0D0
:101B100027C005F01350D96EDA6A080ED926DECF39
:101B20001CF0DDCF1DF02C501C02F3CF1EF0F4CFC3
:101B30001FF01D02F3501F262D501C02F3501F26CC
:101B40001EC006F01FC007F04DEC1FF01350D96EF9
:101B5000DA6A040ED926DE6ADD6A2CC028F02DC0B0
:101B600029F02C50115E2D50125A1350D96EDA6A9A
:101B7000080ED926DECF14F0DDCF15F01350D96E44
:101B8000DA6A040ED926DECF16F0DDCF17F0145036
:101B90001602F3CF18F0F4CF19F01702F3501926FC
:101BA00015501602F35019261350D96EDA6ADECF9B
:101BB0001AF0DDCF1BF018501A24026E19501B20AA
:101BC000036E1350D96EDA6A080ED926DECF1CF0E8
:101BD000DDCF1DF028501C02F3CF1EF0F4CF1FF014
:101BE0001D02F3501F2629501C02F3501F261E50C1
:101BF0002624046E1F502720056E1350D96EDA6A12
:101C0000080ED926DECF20F0DDCF21F011502002C2
:101C1000F3CF22F0F4CF23F02102F3502326125009
:101C20002002F350232622C006F023C007F04DEC1B
:101C30001FF01350D96EDA6A040ED9261150DE2631
:101C40001250DD221350D96EDA6A060ED9261350CF
:101C5000E16EE26A040EE126DE50E65CDE50E658F4
:101C6000D8A035EF0EF037EF0EF049EF0EF013501D
:101C7000D96EDA6A060ED926DECF14F0DDCF15F064
:101C80001350D96EDA6A040ED9261450DE5E155050
:101C9000DD5A1350D96EDA6A060ED926DECF14F05B
:101CA000DDCF15F02A50145E2B50155A1450245CC9
:101CB00015502558D8A05FEF0EF061EF0EF077EFCA
:101CC0000EF01350D96EDA6A040ED926DECF14F066
:101CD000DDCF15F0010E1426000E15221350D96E1B
:101CE000DA6A020ED92614C0DEFF15C0DDFF1350DC
:101CF000D96EDA6A060ED9261350E16EE26A020E38
:101D0000E126DE50E65CDE50E658D8A08AEF0EF001
:101D10008CEF0EF093EF0EF01350D96EDA6A020ECC
:101D2000D926DE6ADD6A120001016A516B11D8A45E
:101D30009CEF0EF09EEF0EF0A1EF0EF0020EC2EF40
:101D40000FF06E51D96EDA6A060ED9266C51DE5C40
:101D50006D51DE58D8B0AFEF0EF0B1EF0EF0B4EF2A
:101D60000EF0030EC2EF0FF06E51D96EDA6A020E5A
:101D7000D9266E51E16EE26A040EE126DE50E618C5
:101D800007E1DE50E618D8A4C8EF0EF0CAEF0EF057
:101D9000CDEF0EF0040EC2EF0FF0846B000E836FD8
:101DA000830E5D6F010E5E6F6EC15FF101EC17F087
:101DB00001016C51835D6D518459D8B0E2EF0EF092
:101DC000E4EF0EF0E8EF0EF083C16CF184C16DF129
:101DD0007E6B000E7D6F6E51D96EDA6A020ED926C7
:101DE000DECF6FF1DDCF70F16E51D96EDA6A060E7B
:101DF000D926DECF71F1DDCF72F16F51715D816F48
:101E000070517259826F6E51D96EDA6A020ED926FC
:101E1000DECF7FF1DDCF80F16C51815D6D51825954
:101E2000D8B015EF0FF017EF0FF066EF0FF06AC1A3
:101E30005DF16BC15EF16E51D96EDA6A080ED9267A
:101E4000DECF6FF1DDCF70F17F516F03F3CF71F112
:101E5000F4CF72F17003F350722780516F03F35087
:101E600072276E51D96EDA6ADECF73F1DDCF74F16D
:101E7000715173255F6F72517421606F6E51D96E0D
:101E8000DA6A080ED926DECF75F1DDCF76F1815101
:101E90007503F3CF77F1F4CF78F17603F350782719
:101EA00082517503F350782777C161F178C162F1EF
:101EB000FBEC1EF00101806B000E7F6F81C17DF194
:101EC00082C17EF181516C5F82516D5B6E51D96E22
:101ED000DA6A080ED926DECF6FF1DDCF70F17D51C1
:101EE0006F03F3CF71F1F4CF72F17003F3507227E7
:101EF0007E516F03F350722771516A255D6F7251E5
:101F00006B215E6F6E51D96EDA6A080ED926DECF6C
:101F100073F1DDCF74F17F517303F3CF75F1F4CF1B
:101F200076F17403F350762780517303F3507627CC
:101F30006E51D96EDA6ADECF77F1DDCF78F1755167
:101F400077255F6F76517821606F6E51D96EDA6AAE
:101F5000080ED926DECF79F1DDCF7AF16C51790305
:101F6000F3CF7BF1F4CF7CF17A03F3507C276D51F2
:101F70007903F3507C277BC161F17CC162F1FBECFA
:101F80001EF0000E120000016D516E11D8A4CBEFAF
:101F90000FF0CDEF0FF0D0EF0FF0020EF0EF10F0DA
:101FA0007151D96EDA6A060ED9266F51DE5C705116
:101FB000DE58D8B0DEEF0FF0E0EF0FF0E3EF0FF0F8
:101FC000030EF0EF10F07151D96EDA6A020ED926C5
:101FD0007151E16EE26A040EE126DE50E61807E177
:101FE000DE50E618D8A4F7EF0FF0F9EF0FF0FCEF92
:101FF0000FF0040EF0EF10F0876B000E866F860E68
:10200000606F616B71C062F077EC17F000016F5187
:10201000865D70518759D8B010EF10F012EF10F0B4
:1020200016EF10F086C06FF087C070F0816B000E65
:10203000806F7151D96EDA6A020ED926DECF72F046
:10204000DDCF73F07151D96EDA6A060ED926DECF74
:1020500074F0DDCF75F07251745D846F73517559F2
:10206000856F7151D96EDA6A020ED926DECF82F001
:10207000DDCF83F06F51845D70518559D8B043EF47
:1020800010F045EF10F094EF10F06DC060F06EC0EE
:1020900061F07151D96EDA6A080ED926DECF72F07E
:1020A000DDCF73F082517203F3CF74F0F4CF75F08B
:1020B0007303F350752783517203F35075277151E1
:1020C000D96EDA6ADECF76F0DDCF77F074517625FF
:1020D000626F75517721636F7151D96EDA6A080E9C
:1020E000D926DECF78F0DDCF79F084517803F3CFB5
:1020F0007AF0F4CF7BF07903F3507B278551780396
:10210000F3507B277AC064F07BC065F024EC1FF0AD
:102110000001836B000E826F84C080F085C081F067
:1021200084516F5F8551705B7151D96EDA6A080E08
:10213000D926DECF72F0DDCF73F080517203F3CF7A
:1021400074F0F4CF75F07303F35075278151720367
:10215000F350752774516D25606F75516E21616F55
:102160007151D96EDA6A080ED926DECF76F0DDCF4E
:1021700077F082517603F3CF78F0F4CF79F07703DC
:10218000F350792783517603F35079277151D96E33
:10219000DA6ADECF7AF0DDCF7BF078517A25626F94
:1021A00079517B21636F7151D96EDA6A080ED92695
:1021B000DECF7CF0DDCF7DF06F517C03F3CF7EF07E
:1021C000F4CF7FF07D03F3507F2770517C03F350F1
:1021D0007F277EC064F07FC065F024EC1FF0000E06
:1021E00012000F501010D8A4F8EF10F0FAEF10F012
:1021F000FDEF10F0020E1BEF12F01350D96EDA6AE9
:10220000060ED9261150DE5C1250DE58D8B00BEF06
:1022100011F00DEF11F010EF11F0030E1BEF12F0A3
:102220001350D96EDA6A020ED9261350E16EE26AB3
:10223000040EE126DE50E61807E1DE50E618D8A4C9
:1022400024EF11F026EF11F029EF11F0040E1BEF2F
:1022500012F0296A000E286E280E026E036A13C05F
:1022600004F0EDEC17F01150285C12502958D8B04A
:102270003CEF11F03EEF11F042EF11F028C011F0E9
:1022800029C012F0236A000E226E1350D96EDA6A4A
:10229000020ED926DECF14F0DDCF15F01350D96E23
:1022A000DA6A060ED926DECF16F0DDCF17F014500D
:1022B000165C266E15501758276E1350D96EDA6AC1
:1022C000020ED926DECF24F0DDCF25F01150265C9A
:1022D00012502758D8B06FEF11F071EF11F0BFEF27
:1022E00011F00FC002F010C003F01350D96EDA6A7B
:1022F000080ED926DECF14F0DDCF15F024501402DD
:10230000F3CF16F0F4CF17F01502F350172625502F
:102310001402F35017261350D96EDA6ADECF18F084
:10232000DDCF19F016501824046E17501920056ED1
:102330001350D96EDA6A080ED926DECF1AF0DDCF37
:102340001BF026501A02F3CF1CF0F4CF1DF01B0235
:10235000F3501D2627501A02F3501D261CC006F00C
:102360001DC007F04DEC1FF0256A000E246E26C03C
:1023700022F027C023F02650115E2750125A135026
:10238000D96EDA6A080ED926DECF14F0DDCF15F04B
:1023900022501402F3CF16F0F4CF17F01502F350C9
:1023A000172623501402F350172616500F24026EDE
:1023B00017501020036E1350D96EDA6A080ED92612
:1023C000DECF18F0DDCF19F024501802F3CF1AF049
:1023D000F4CF1BF01902F3501B2625501802F350BE
:1023E0001B261350D96EDA6ADECF1CF0DDCF1DF04C
:1023F0001A501C24046E1B501D20056E1350D96EFC
:10240000DA6A080ED926DECF1EF0DDCF1FF011509C
:102410001E02F3CF20F0F4CF21F01F02F35021264B
:1024200012501E02F350212620C006F021C007F0F2
:102430004DEC1FF0000E1200FDEC20F00EEC1EF033
:102440009598A60E01015D6F3A0E5E6FB1EC20F01B
:10245000EEEC20F0010E0201CA6FC86B010EC96FCD
:10246000CC6BCD6BCE6BC80E01015D6F020E5E6F43
:10247000C3EC1CF00FEC1DF0C9EC20F0640E010160
:102480009A6F020E9B6F2E0E9C6F06EC21F05DC1C1
:102490009DF15EC19EF15FC19FF160C1A0F19BEC17
:1024A0001FF0640E0101916F020E926F946B320E59
:1024B000936F80EC1BF00F0E01015D6F000E5E6FDD
:1024C000000E5F6F000E606FA3EC1EF0C80E0101DE
:1024D0005D6F020E5E6FD3EC1BF0640E01019A6F0C
:1024E000020E9B6F540E9C6F000EDEEC20F05DC15F
:1024F0009DF15EC19EF1010EDEEC20F05DC19FF109
:102500005EC1A0F1020EDEEC20F05DC1A1F15EC162
:10251000A2F19BEC1FF0640E0101916F020E926F0D
:10252000946B640E936F80EC1BF0000E0101916FB1
:10253000020E926F946B320E936F966B050E956F31
:10254000B2EC14F0010192BFAEEF12F0925108E12B
:102550009105D8A0AEEF12F0B0EF12F0FFEF12F03D
:10256000640E9A6F020E9B6F010E9C6FCCC2B2F18B
:102570000F0EB217CCC2B3F1B33B0F0EB3170F0E51
:10258000B317B3510A0DB251F3249D6F000EF4201E
:102590009E6FCDC2B4F10F0EB417CDC2B5F1B53BED
:1025A0000F0EB5170F0EB517B5510A0DB451F32420
:1025B0009F6F000EF420A06FCEC2B6F10F0EB617BB
:1025C000CEC2B7F1B73B0F0EB7170F0EB717B75103
:1025D0000A0DB651F324A16F000EF420A26F000E75
:1025E000A36F020EA46F9BEC1FF0640E0101916FAC
:1025F000020E926F946B640E936F80EC1BF0F40EDE
:1026000001015D6F010E5E6F000E5F6F000E606F67
:10261000A3EC1EF066EF12F068EF00F068C170F1F5
:1026200069C171F1010170517111D8A41AEF13F051
:102630001CEF13F022EF13F0640E706F7051D8A4EA
:10264000100E716F736B000E726F2AEF13F00101A1
:10265000724B732B725170256A6F735171216B6FBE
:102660006AC1F6FF6BC1F7FFF86A0F0EF76403D07B
:102670000800F55005D0F6CFE1FFF7CFE2FFE750B5
:102680000009D8A446EF13F048EF13F027EF13F03A
:10269000010137BF4EEF13F050EF13F063EF13F06B
:1026A0007251365D3751800A6A6F7351800A6A59D8
:1026B000D8B05DEF13F05FEF13F063EF13F036C1A6
:1026C00072F137C173F172C16CF173C16DF134C134
:1026D0006EF135C16FF138B170EF13F072EF13F096
:1026E000AFEF13F080EF13F05E6B200E5D6F66C1ED
:1026F0005FF167C160F1B6EC19F00101724B732B09
:102700006E51725D7351800A6A6F6F51800A6A5907
:10271000D8A08DEF13F08FEF13F074EF13F0AFEF3D
:1027200013F070C1F6FF71C1F7FFF86A0F0EF7647E
:1027300003D00800F55005D0F6CFE1FFF7CFE2FF58
:10274000E75001016A6F6A515D6F5E6B66C15FF1B0
:1027500067C160F1B6EC19F00101704B712B6C0789
:10276000D8A06D076C2906E16D29D8A4BAEF13F043
:10277000BCEF13F091EF13F038A1C1EF13F0C3EFEA
:1027800013F0E0EF13F0D1EF13F05E6B200E5D6FEE
:1027900066C15FF167C160F1B6EC19F00101724BDF
:1027A000732B6E51725D7351800A6A6F6F51800A8C
:1027B0006A59D8A0DEEF13F0E0EF13F0C5EF13F085
:1027C000120001017BBFE7EF13F0EAEF13F0010EF7
:1027D000EBEF13F0000E826F37BFF3EF13F0F1EF62
:1027E00013F0F8EF13F0816B010E806FFCEF13F024
:1027F00036C180F137C181F134C17EF135C17FF13D
:102800008251D8B406EF14F008EF14F01DEF14F065
:102810007E07D8A07F078251D8A411EF14F013EFE0
:1028200014F018EF14F07D6B2B0E7C6F1BEF14F07F
:102830007D6B2D0E7C6F7CC182F1846B1F0E836FCC
:102840005A6B68EF14F08307D8A084073B0E8325EA
:10285000D96E010E8421DA6E78C15DF179C15EF125
:102860007AC15FF17BC160F10A0E616F000E626F89
:10287000000E636F000E646F8BEC16F05DC167F1A4
:102880005EC168F146EC20F001016751300FDF6E48
:102890008007D8A081077E07D8A07F0778C15DF1A7
:1028A00079C15EF17AC15FF17BC160F10A0E616F9F
:1028B000000E626F000E636F000E646F05EC16F081
:1028C0005DC178F15EC179F15FC17AF160C17BF1E0
:1028D000010184BF74EF14F0845108E18305D8A08E
:1028E00074EF14F076EF14F08EEF14F07851791144
:1028F0007A117B11D8A47FEF14F081EF14F023EF4D
:1029000014F081BF8EEF14F0815106E18005D8B03C
:102910008CEF14F08EEF14F023EF14F08251D8B442
:1029200094EF14F096EF14F0A1EF14F08307D8A001
:1029300084073B0E8325D96E010E8421DA6E82C195
:10294000DFFF76C16DF177C16EF13B0E83256F6FAE
:10295000010E8421706F7EC171F17FC172F174EC40
:102960001CF01200550E01015D6F5E6BE10E5F6F92
:1029700001EC17F0555001019325976F56509421A3
:10298000986F985109E1C90E975DD8A0CAEF14F06D
:10299000CCEF14F0D0EF14F0916992697BEF15F051
:1029A00055505610D8B4D7EF14F0D9EF14F077EF94
:1029B00015F05550511809E156505218D8B4E3EFAC
:1029C00014F0E5EF14F021EF15F09351555C94519C
:1029D0005658D8A0EEEF14F0F0EF14F00DEF15F00C
:1029E00091C185F192C186F193C187F194C188F1BB
:1029F000E10E896F62EC18F0526A000E516E01010F
:102A000093519125D96E94519221DA6EDF6A93C168
:102A100091F194C192F17BEF15F055C051F056C081
:102A200052F006EC21F05DC147F05EC148F05FC195
:102A300049F060C14AF00101926B000E916F7BEF8B
:102A400015F006EC21F0475001015D5D976F48508D
:102A50005E59986F49505F59996F4A5060599A6F03
:102A600095519B6F96519C6F9D6B9E6B97519B5D93
:102A700098519C5999519D599A519E59D8B043EFFC
:102A800015F045EF15F077EF15F05550935D565062
:102A90009459D8A04EEF15F050EF15F056EF15F001
:102AA00055C055F056C056F05AEF15F093C155F089
:102AB00094C156F091C185F192C186F155C087F15C
:102AC00056C088F1E10E896F62EC18F05550010193
:102AD0009125D96E56509221DA6EDF6A526A000E45
:102AE000516E55C091F156C092F17BEF15F0FF0E7B
:102AF000926FFE0E916F1200FACF3CF0FBCF3DF0CB
:102B0000E1CF3EF0E2CF3FF0D9CF40F0DACF41F055
:102B1000F3CF42F0F4CF43F0F2AA91EF15F093EF28
:102B200015F0C8EF15F0F2A498EF15F09AEF15F034
:102B3000C8EF15F001013A51D62639C1D7FF010E71
:102B40000001CF27000ED023D123D223466ABEEF47
:102B500015F04650020D200EF324D96E010EF4201C
:102B6000DA6E02D8BDEF15F00500FA6EDE50FD6E8C
:102B7000DE50FE6EFF6AFA501200462A5350465C41
:102B8000D8A0C5EF15F0C7EF15F0A9EF15F0F29436
:102B9000456A000E446EE1EF15F04450020DF3500B
:102BA000A70FD96EDA6A02D8DFEF15F00500FA6ECA
:102BB000DE50FD6EDE50FE6EFF6AFA501200444A8F
:102BC000452A5450396E3A6A3950445C4550800A5F
:102BD0003B6E3A50800A3B58D8A0F1EF15F0F3EF66
:102BE00015F0CDEF15F043C0F4FF42C0F3FF41C034
:102BF000DAFF40C0D9FF3FC0E2FF3EC0E1FF3DC069
:102C0000FBFF3CC0FAFF019211000101666B64BF3B
:102C10000EEF16F00CEF16F018EF16F0641F631F9E
:102C2000621F616D000E622363236423010E666FD1
:102C300060BF1FEF16F01DEF16F029EF16F0601FB2
:102C40005F1F5E1F5D6D000E5E235F236023010E1C
:102C5000661B000E676F000E686F000E696F000E36
:102C60006A6F6151621163116411D8B43AEF16F0C2
:102C70003CEF16F072EF16F0010E656F46EF16F09E
:102C8000D8906137623763376437652B64AF4BEF99
:102C900016F04DEF16F040EF16F0D8906737683712
:102CA00069376A3761515D5D62515E5963515F59A1
:102CB00064516059D8A05FEF16F061EF16F06AEF2B
:102CC00016F061515D5F62515E5B63515F5B645101
:102CD000605B6781D8906433633362336133652FFF
:102CE0004DEF16F06651D8B478EF16F07AEF16F083
:102CF00082EF16F06A1F691F681F676D000E682358
:102D000069236A2367C15DF168C15EF169C15FF142
:102D10006AC160F112000101666B60BF94EF16F0AA
:102D200092EF16F09EEF16F0601F5F1F5E1F5D6D45
:102D3000000E5E235F236023010E666F64BFA5EF64
:102D400016F0A3EF16F0ADEF16F0641F631F621FBD
:102D5000616D000E6223632364236151621163116C
:102D60006411D8B4B6EF16F0B8EF16F0E8EF16F02D
:102D7000010E656FC2EF16F0D89061376237633786
:102D80006437652B64AFC7EF16F0C9EF16F0BCEFE0
:102D900016F061515D5D62515E5963515F59645136
:102DA0006059D8A0D6EF16F0D8EF16F0E0EF16F085
:102DB00061515D5F62515E5B63515F5B6451605B5B
:102DC000D8906433633362336133652FC9EF16F0F3
:102DD0006651D8B4EEEF16F0F0EF16F0F8EF16F0FB
:102DE000601F5F1F5E1F5D6D000E5E235F2360230B
:102DF0005DC15DF15EC15EF15FC15FF160C160F117
:102E0000120001015F51D96EDA6ADE50DE10D8A4DB
:102E10000CEF17F00EEF17F010EF17F076EF17F03A
:102E20005F51D96EDA6A020ED9265F51E16EE26A0D
:102E3000040EE126DE50E65CDE50E658D8B023EF03
:102E400017F025EF17F056EF17F05F51D96EDA6AD9
:102E5000040ED926DECF60F1DDCF61F15F51D96E6E
:102E6000DA6A020ED926DECF62F1DDCF63F15F515F
:102E7000D96EDA6A060ED926DECF64F1DDCF65F1B0
:102E80006251645D666F63516559676F6051662575
:102E9000686F61516721696F5DC1D9FF5EC1DAFF5B
:102EA00068C1DEFF69C1DDFF76EF17F05F51D96EB3
:102EB000DA6A020ED926DECF60F1DDCF61F15F5113
:102EC000D96EDA6A040ED926DECF62F1DDCF63F166
:102ED0006051625D646F61516359656F5DC1D9FF77
:102EE0005EC1DAFF64C1DEFF65C1DDFF12000001D3
:102EF0006251D96EDA6ADE50DE10D8A482EF17F084
:102F000084EF17F086EF17F0ECEF17F06251D96EEF
:102F1000DA6A020ED9266251E16EE26A040EE126F7
:102F2000DE50E65CDE50E658D8B099EF17F09BEF24
:102F300017F0CCEF17F06251D96EDA6A040ED92679
:102F4000DECF63F0DDCF64F06251D96EDA6A020E33
:102F5000D926DECF65F0DDCF66F06251D96EDA6A30
:102F6000060ED926DECF67F0DDCF68F06551675DCC
:102F7000696F665168596A6F635169256B6F645157
:102F80006A216C6F60C0D9FF61C0DAFF6BC0DEFFE1
:102F90006CC0DDFFECEF17F06251D96EDA6A020EF9
:102FA000D926DECF63F0DDCF64F06251D96EDA6AE4
:102FB000040ED926DECF65F0DDCF66F06351655D86
:102FC000676F64516659686F60C0D9FF61C0DAFFEE
:102FD00067C0DEFF68C0DDFF12000450D96EDA6AF8
:102FE000DE50DE10D8A4F7EF17F0F9EF17F0FBEF83
:102FF00017F061EF18F00450D96EDA6A020ED92684
:103000000450E16EE26A040EE126DE50E65CDE501A
:10301000E658D8B00EEF18F010EF18F041EF18F0A6
:103020000450D96EDA6A040ED926DECF05F0DDCF62
:1030300006F00450D96EDA6A020ED926DECF07F008
:10304000DDCF08F00450D96EDA6A060ED926DECF3D
:1030500009F0DDCF0AF00750095C0B6E08500A58E2
:103060000C6E05500B240D6E06500C200E6E02C027
:10307000D9FF03C0DAFF0DC0DEFF0EC0DDFF61EF38
:1030800018F00450D96EDA6A020ED926DECF05F0A8
:10309000DDCF06F00450D96EDA6A040ED926DECFF1
:1030A00007F0DDCF08F00550075C096E06500858A0
:1030B0000A6E02C0D9FF03C0DAFF09C0DEFF0AC0F2
:1030C000DDFF120001018951D96EDA6ADE50DE108F
:1030D000D8A46DEF18F06FEF18F071EF18F0D4EF7F
:1030E00018F0906B000E8F6F8F0E5D6F010E5E6F8C
:1030F00089C15FF101EC17F0010187518F5D8851A3
:103100009059D8B086EF18F088EF18F08CEF18F0CF
:103110008FC187F190C188F185C16AF186C16BF1D9
:1031200087C16CF188C16DF189C16EF194EC0EF02C
:1031300001018E6F8E51D8B4A0EF18F0A2EF18F0F5
:10314000A4EF18F0D4EF18F08951D96EDA6A020EA4
:10315000D9268751DE268851DD228951D96EDA6A57
:10316000060ED9268951E16EE26A020EE126DE5092
:10317000E65CDE50E658D8A0C0EF18F0C2EF18F0B9
:10318000D4EF18F08951D96EDA6A060ED926DECF4F
:103190008AF1DDCF8BF18951D96EDA6A020ED92618
:1031A0008A51DE5E8B51DD5A120000018C51D96EBE
:1031B000DA6ADE50DE10D8A4E0EF18F0E2EF18F083
:1031C000E4EF18F046EF19F0936B000E926F920E39
:1031D000606F616B8CC062F077EC17F000018A5170
:1031E000925D8B519359D8B0F8EF18F0FAEF18F0C0
:1031F000FEEF18F092C08AF093C08BF088C06DF09B
:1032000089C06EF08AC06FF08BC070F08CC071F016
:10321000C3EC0FF00001916F9151D8B412EF19F087
:1032200014EF19F016EF19F046EF19F08C51D96E22
:10323000DA6A020ED9268A51DE268B51DD228C51A4
:10324000D96EDA6A060ED9268C51E16EE26A020E58
:10325000E126DE50E65CDE50E658D8A032EF19F0E9
:1032600034EF19F046EF19F08C51D96EDA6A060E78
:10327000D926DECF8DF0DDCF8EF08C51D96EDA6A93
:10328000020ED9268D51DE5E8E51DD5A12002E506F
:10329000D96EDA6ADE50DE10D8A451EF19F053EF80
:1032A00019F055EF19F0B5EF19F0356A000E346ECC
:1032B000340E026E036A2EC004F0EDEC17F02C50B1
:1032C000345C2D503558D8B068EF19F06AEF19F01A
:1032D0006EEF19F034C02CF035C02DF02AC00FF07D
:1032E0002BC010F02CC011F02DC012F02EC013F026
:1032F000F1EC10F0336E3350D8B481EF19F083EF56
:1033000019F085EF19F0B5EF19F02E50D96EDA6A81
:10331000020ED9262C50DE262D50DD222E50D96EDD
:10332000DA6A060ED9262E50E16EE26A020EE12616
:10333000DE50E65CDE50E658D8A0A1EF19F0A3EF0E
:1033400019F0B5EF19F02E50D96EDA6A060ED926AB
:10335000DECF2FF0DDCF30F02E50D96EDA6A020EBC
:10336000D9262F50DE5E3050DD5A120001015F5128
:103370006011D8B4BEEF19F0C0EF19F0C9EF19F021
:103380005F516011D8A4C7EF19F0C9EF19F0CEEF63
:1033900019F05D511FEC21F01BEF1AF020EE09F03F
:1033A0005F51D9266051DA22DE50DE10D8B4DBEF4F
:1033B00019F0DDEF19F0F8EF19F020EE09F05F5188
:1033C000D9266051DA2210EE02F05F51E1266051F9
:1033D000E222DE50E65CE650800A656FDE50800A2D
:1033E0006559D8B0F6EF19F0F8EF19F01BEF1AF0A5
:1033F00020EE02F05F51D9266051DA22DECF61F172
:10340000DDCF62F15FC1D9FF60C1DAFFDECF63F1CA
:10341000DDCF64F161516325D96E62516421DA6EAA
:103420005DC1DFFF20EE02F05F51D9266051DA2244
:10343000DE2A000EDD2212000101656B000E646FB2
:103440005DC1D9FF5EC1DAFFDFCFF6FF100EF76E68
:103450000800F5502A0AD8A430EF1AF032EF1AF01B
:1034600061EF1AF05DC1D9FF5EC1DAFFDF2A5FC1EB
:10347000D9FF60C1DAFFDFCF61F1020EDE26DFCFB8
:1034800062F1000EDD2261C1D9FF62C1DAFFDECF39
:1034900064F1DDCF65F175EF1AF00A0E6403F3CF26
:1034A00061F1F4CF62F16503F35062276351612546
:1034B000646F000E6221656F5DC1D9FF5EC1DAFFE6
:1034C000DF2A5DC1D9FF5EC1DAFFDFCFF6FF100E44
:1034D000F76E0800F550D00F636F090E636573EF48
:1034E0001AF075EF1AF04DEF1AF064C15DF165C185
:1034F0005EF11200D59ED59CD550F80B0309D56E10
:10350000D59AD596020E01016D6F000E6E6F000EFA
:103510006F6F000E706F726B000E716F97EF1AF085
:10352000D8906D376E376F377037714B722BD5501F
:10353000070B6A6F6B6B6A51715D7251800A6C6F19
:103540006B51800A6C59D8A0A8EF1AF0AAEF1AF0B4
:1035500090EF1AF0E00E5D6F2E0E5E6F000E5F6F43
:10356000000E606F6DC161F16EC162F16FC163F1F8
:1035700070C164F12DEC1BF001015D510108736F06
:10358000000E5E55746F010E5F55756F000E60552D
:10359000766F73C13AF174C139F13AC1D6FF39C1BE
:1035A000D7FFF28EF28CF28AF294D58E120001A22D
:1035B000DCEF1AF024EF1CF09DACE1EF1AF0E3EF22
:1035C0001AF02CEF1BF09EACE8EF1AF0EAEF1AF0BD
:1035D0002CEF1BF09E9CC350C4CF60F00001616BC8
:1035E00060C061F0606B6013000E61134F50D30F29
:1035F000D96EDA6ADF50626F6251020D000EF32459
:10360000D96E010EF420DA6E60C0DEFF61C0DDFF0E
:103610004F4A502A50BE16EF1BF0505009E1030EDE
:103620004F5CD8A016EF1BF018EF1BF01EEF1BF03D
:103630009D9C506A000E4F6E2CEF1BF04F50D30F25
:10364000D96EDA6ADF50606F60476047C250601918
:10365000C30B6019C26EC2821200000E0101656FB9
:10366000000E666F000E676F000E686F6151621189
:1036700063116411D8B43FEF1BF041EF1BF077EFFB
:103680001BF0010E696F4BEF1BF0D890613762376A
:1036900063376437692B64AF50EF1BF052EF1BF0B8
:1036A00045EF1BF0D890653766376737683761514B
:1036B0005D5D62515E5963515F5964516059D8A094
:1036C00064EF1BF066EF1BF06FEF1BF061515D5F65
:1036D00062515E5B63515F5B6451605B6581D89052
:1036E0006433633362336133692F52EF1BF065C17A
:1036F0005DF166C15EF167C15FF168C160F1120002
:103700005B0E01015D6F010E5E6FD70E5F6F01EC06
:1037100017F0010193515B25956F94515C21966FD1
:10372000010E9527000E9623965109E1C90E955D6D
:10373000D8A09DEF1BF09FEF1BF0A1EF1BF0D2EF85
:103740001BF091C15DF192C15EF193C15FF194C133
:1037500060F173EC1EF05DC197F15EC198F191C10B
:103760006AF192C16BF197C16CF198C16DF1D70EFE
:1037700001016E6FD5EC09F09EA8C1EF1BF0C3EFFD
:103780001BF0D2EF1BF0990E0101856F010E866FC1
:10379000886B010E876FD70E896F62EC18F099C1A4
:1037A000AEFF9D8812000F013FB9D9EF1BF0DBEF90
:1037B0001BF0D3EF1BF0F29E18EC21F00F013F83BA
:1037C0003F815DC1D9FF5EC1DAFF98CFDFFF010104
:1037D00020EE07F05D51D9265E51DA2299CFDFFF46
:1037E00020EE02F05D51D9265E51DA2298CFDFFF3C
:1037F00020EE01F05D51D9265E51DA2299CFDFFF2C
:1038000020EE04F05D51D9265E51DA2298CFDFFF19
:1038100020EE03F05D51D9265E51DA2299CFDFFF09
:1038200020EE06F05D51D9265E51DA2298CFDFFFF7
:1038300020EE05F05D51D9265E51DA2299CFDFFFE7
:103840000F013F9BF28E12009DAC29EF1CF02BEF75
:103850001CF073EF1CF09EAC30EF1CF032EF1CF04C
:1038600073EF1CF09E9CC350C4CF02F0036A02C0E9
:1038700003F0026A0212000E03124F50D30FD96EEA
:10388000DA6ADF50046E0450020D000EF324D96E84
:10389000010EF420DA6E02C0DEFF03C0DDFF4F4AE6
:1038A000502A50BE5DEF1CF0505009E1030E4F5CF2
:1038B000D8A05DEF1CF05FEF1CF065EF1CF09D9C45
:1038C000506A000E4F6E73EF1CF04F50D30FD96E3D
:1038D000DA6ADF50026E02460246C2500218C30B7B
:1038E0000218C26EC2821200010138A17AEF1CF0E8
:1038F0007CEF1CF086EF1CF06FC166F170C167F1C0
:103900006DC168F16EC169F1BFEC1FF0010172BFBA
:103910008EEF1CF08CEF1CF091EF1CF0726B000E20
:10392000716F756B000E746FA2EF1CF05E6B200E52
:103930005D6F6DC15FF16EC160F1B6EC19F0010110
:10394000744B752B7151745D7551800A736F725190
:10395000800A7359D8A0AFEF1CF0B1EF1CF096EFBE
:103960001CF038B1B6EF1CF0B8EF1CF0C2EF1CF041
:103970006FC166F170C167F16DC168F16EC169F127
:10398000BFEC1FF01200F29E18EC21F00F013F9FD8
:103990003F953F833F815DC1D9FF5EC1DAFFDF50B4
:1039A000986E010120EE07F05D51D9265E51DA22B2
:1039B000DF50996E20EE02F05D51D9265E51DA2279
:1039C000DF50986E20EE01F05D51D9265E51DA226B
:1039D000DF50996E20EE04F05D51D9265E51DA2257
:1039E000DF50986E20EE03F05D51D9265E51DA2249
:1039F000DF50996E20EE06F05D51D9265E51DA2235
:103A0000DF50986E20EE05F05D51D9265E51DA2226
:103A1000DF50996E0F013F8F3F9BF28E1200010124
:103A2000616B000E606F0F0148691F0E496F000146
:103A3000D36B0101604B612B92800F014891010112
:103A40006051D30FD96EDA6A010EDF6E604B612BC5
:103A500092820F01489301016051D30FD96EDA6A47
:103A6000020EDF6E604B612B92840F0148953F0E72
:103A7000C216C18EC150F80B0609C16E380EC112B4
:103A80009F9CAE0E01015D6F350E5E6F000E5F6F85
:103A900097EC1DF02E0E01015D6F410E5E6FB1ECD3
:103AA00020F0C28012000FEC21F04B50025C066E39
:103AB0004C500358076E4D500458086E4E50055830
:103AC000096E09500810071009E10B0E065CD8A01A
:103AD0006CEF1DF06EEF1DF096EF1DF08C980FEC63
:103AE00021F04B50025C066E4C500358076E4D504F
:103AF0000458086E4E500558096E095008100BE125
:103B0000E90E065C030E0758D8A089EF1DF08BEF75
:103B10001DF096EF1DF08C880FEC21F002C04BF0E9
:103B200003C04CF004C04DF005C04EF0120001017E
:103B30005F51D8A49EEF1DF0A0EF1DF0B8EF1DF06F
:103B4000090E0001D665A7EF1DF0A9EF1DF0ABEF40
:103B50001DF0D5EF1DF0D651020DF350BB0FD96EFD
:103B6000DA6A5DC1DEFF5EC1DDFFD62BD5EF1DF049
:103B70005F05D8A4BEEF1DF0C0EF1DF0D5EF1DF01E
:103B8000090E5464C6EF1DF0C8EF1DF0CAEF1DF01A
:103B9000D5EF1DF05450020DF350A70FD96EDA6A1D
:103BA0005DC1DEFF5EC1DDFF542A120001A2DBEF22
:103BB0001DF042EF1EF09DA8E0EF1DF0E2EF1DF0BA
:103BC0000DEF1EF09EA8E7EF1DF0E9EF1DF00DEFE1
:103BD0001EF00001966B000E956F950E606F616B85
:103BE000D70E626F77EC17F0000195519611D8B49B
:103BF000FCEF1DF0FEEF1DF00CEF1EF0940E886F31
:103C0000896B8B6B010E8A6FD70E8C6FD5EC18F019
:103C100094C0AEFF0DEF1EF09D98120061EC20F0F5
:103C20000A0E01015D6F400E5E6F000E5F6F97EC34
:103C30001DF0AC0E01015D6F3B0E5E6F000E5F6FFD
:103C400097EC1DF09D8A000E0101606F030E616FFD
:103C5000636BC80E626F656B010E646FE10E666F79
:103C6000E2EC1FF0000E0101606F040E616F636BE8
:103C7000C80E626F656B010E646FD70E666FE2EC63
:103C80001FF012009DA847EF1EF049EF1EF072EFE3
:103C90001EF09EA84EEF1EF050EF1EF072EF1EF0C9
:103CA000386A000E376E370E026E036AD70E046E46
:103CB000EDEC17F037503810D8B461EF1EF063EF19
:103CC0001EF071EF1EF0360E2A6E2B6A2D6A010E61
:103CD0002C6ED70E2E6E47EC19F036C0AEFF72EF89
:103CE0001EF09D9812000101626B000E616F93EF50
:103CF0001EF061515D25D96E62515E21DA6EDF5092
:103D0000D8B485EF1EF087EF1EF089EF1EF091EF1B
:103D10001EF0614B622B61C15DF162C15EF1A2EFE9
:103D20001EF0614B622B5F51615D60516259D8A0FA
:103D30009CEF1EF09EEF1EF079EF1EF05FC15DF16B
:103D400060C15EF11200CFC065F1D0C066F1D1C094
:103D500067F1D2C068F1010165510001CF5D010139
:103D6000616F66510001D0590101626F6751000116
:103D7000D1590101636F68510001D2590101646F8B
:103D80005D51615D5E5162595F5163596051645983
:103D9000D8A0CDEF1EF0CFEF1EF0ABEF1EF012005B
:103DA00004EE00F0C80EEE6AE806FDE103EE00F056
:103DB000C80EEE6AE806FDE102EEC8F0080EEE6AF3
:103DC000E806FDE101EE00F05D0EEE6AE806FDE1B9
:103DD00000EEA7F0440EEE6AE806FDE100EE47F0C3
:103DE000100EEE6AE806FDE101900192000EF86EF9
:103DF00000011CEF12F05FC166F160C167F15DC1A7
:103E000064F15EC165F115EF1FF066C1D9FF67C1AE
:103E1000DAFFDF50636F664B672B64C1D9FF65C162
:103E2000DAFF63C1DFFF644B652B01016107D8A096
:103E30006207612906E16229D8A421EF1FF023EF70
:103E40001FF005EF1FF0120062C068F063C069F058
:103E500060C066F061C067F03EEF1FF068C0D9FF38
:103E600069C0DAFFDF506A6F684B692B66C0D9FF03
:103E700067C0DAFF6AC0DFFF664B672B000164078B
:103E8000D8A06507642906E16529D8A44AEF1FF088
:103E90004CEF1FF02EEF1FF0120004C00AF005C017
:103EA0000BF002C008F003C009F067EF1FF00AC072
:103EB000D9FF0BC0DAFFDF500C6E0A4A0B2A08C08C
:103EC000D9FF09C0DAFF0CC0DFFF084A092A06063D
:103ED000D8A00706062806E10728D8A472EF1FF02D
:103EE00074EF1FF057EF1FF0120096C199F188EFA1
:103EF0001FF094C185F195C186F1990E0101876F7C
:103F0000010E886F97C189F198C18AF136EC08F0EB
:103F100099C1F6FF100EF76E0800F5500009D8A4FD
:103F200094EF1FF096EF1FF079EF1FF00101956BF2
:103F3000000E946F12009D0E0101A56F010EA66F79
:103F40009AC1A7F19BC1A8F1AA6B000EA96FB16B32
:103F5000000EB06FA70E946F010E956F9CC196F185
:103F6000A50E976F010E986F75EC1FF00101A95116
:103F70009A25D96EAA519B21DA6EDF6A12000101DF
:103F80006C6B000E6B6FD1EF1FF06AC15DF15E6B61
:103F900068C15FF169C160F1B6EC19F001016B4BCA
:103FA0006C2B6B516625D96E6C516721DA6EDF5030
:103FB0006A6F6A51D8A4DFEF1FF0E1EF1FF0C5EF81
:103FC0001FF0120001016651D96EDA6A060ED92679
:103FD00062C1DEFF63C1DDFF6651D96EDA6A080E89
:103FE000D92664C1DEFF65C1DDFF6651D96EDA6A8C
:103FF00060C1DEFF61C1DDFF66C15DF126EC20F02E
:1040000001016651D96EDA6A120001A20AEF20F0AE
:104010007CEF20F09DAA0FEF20F011EF20F025EFAC
:1040200020F09EAA16EF20F018EF20F025EF20F0E8
:10403000AFCF8CF08C0E00016D6F6E6B706B010E4C
:104040006F6FE10E716F6CEC0BF0120001015D51AE
:10405000D96EDA6ADE50DE10D8A431EF20F033EFEB
:1040600020F035EF20F045EF20F05D51D96EDA6A8F
:10407000020ED926DE6ADD6A5D51E16EE26A040E47
:10408000E126DECFE6FFDDCFE5FF1200010168BFCC
:104090004CEF20F04EEF20F054EF20F067C167F1B5
:1040A00068C168F160EF20F067C169F168C16AF129
:1040B000691F6A1F694B6A2B69C167F16AC168F1A0
:1040C0001200AC9EAD9A948E949CAC9CAC9AAD8E32
:1040D000AD9CAD98AD847E907E9A7E987E867F6AF8
:1040E000330EB06EAD8AAC889D989D8A9F9A9F983A
:1040F0009E9A9E98AC8E12009DAA81EF20F083EFCD
:1041000020F096EF20F09EAA88EF20F08AEF20F0B2
:1041100096EF20F0AFCF2EF02E0E0F6E106A126ABF
:10412000010E116EE10E136E02EC0DF012004F50F5
:104130005010D8A49EEF20F0A0EF20F0B0EF20F0B8
:104140004F50D30FD96EDA6ADF50026E0246024634
:10415000C2500218C30B0218C26E9E9C9D8CC28274
:104160001200090E5364B7EF20F0B9EF20F0BBEF57
:1041700020F0C8EF20F05350020D200EF324D96E2A
:10418000010EF420DA6E5DC1DEFF5EC1DDFF532A51
:104190001200506A000E4F6E4F50D30FD96EDA6A7C
:1041A000DF5001015D6F5D475D47C2505D19C30B74
:1041B0005D19C26E9E9C9D8CC282120001015F6FD0
:1041C00001015F51020D000EF324D96E010EF4209F
:1041D000DA6EDECF5DF1DDCF5EF112009480948265
:1041E000CD86320E01015D6F000E5E6F000E5F6FB7
:1041F000000E606FA3EC1EF012009B8CD08E0F019E
:1042000048691F0E496F7AEC1AF01200CFC05DF1B9
:10421000D0C05EF1D1C05FF1D2C060F11200CFC05A
:1042200002F0D0C003F0D1C004F0D2C005F01200FB
:104230000F01550EA76EAA0EA76E3F8B120012003B
:08FFF800AEF74DFFF3F9FFF134
:00000001FF
