:0400000068EF00F0B5
:06000800018202EF16F078
:100018000180D8CF9AF0E8CF9BF0E0CF9CF0FACFE0
:100028009DF0FBCF9EF0E1CF9FF0E2CFA0F0D9CFBB
:10003800A1F0DACFA2F0F3CFA3F0F4CFA4F000013F
:10004800A66B000EA56F3EEF00F0A551020DF35010
:10005800BB0FD96EDA6A02D83BEF00F00500FA6EE2
:10006800DE50FD6EDE50FE6EFF6AFA50120000018F
:10007800A54BA62BD651976F986B9751A55DA651A6
:10008800800A996F9851800A9959D8A04EEF00F0CC
:1000980050EF00F029EF00F0A4C0F4FFA3C0F3FF75
:1000A800A2C0DAFFA1C0D9FFA0C0E2FF9FC0E1FF54
:1000B8009EC0FBFF9DC0FAFF9CC0E0FF9BC0E8FF0D
:0C00C8009AC0D8FF01901000C0EF1EF09D
:101000000054696D653A20252E32643A25322E321D
:10101000643A25322E32640A0D456E746572656439
:1010200020737472696E673A2025730A0D00486553
:101030006C6C6F2121210A0D54696D653A20256C75
:10104000640A0D456E74657220737472696E673A36
:10105000200A0D004144433A2025642025642025C0
:10106000640A0D00286E756C6C2900002AC1D9FF36
:101070002BC1DAFFDFCFF6FF100EF76E0800F55038
:10108000250AD8A446EF08F048EF08F0BFEF09F0B2
:101090002AC1D9FF2BC1DAFFDF2A01017C6B000EC8
:1010A0007B6F7BC181F17D697E692AC100F12BC113
:1010B00001F12CC102F12DC103F172EC1AF000C153
:1010C0007BF101C17CF101017CBF6BEF08F069EF9E
:1010D00008F070EF08F081817B6D7C1FD8B07C2B0D
:1010E0002AC1D9FF2BC1DAFFDFCFF6FF100EF76E52
:1010F0000800F5502E0AD8A480EF08F082EF08F01F
:1011000095EF08F02AC1D9FF2BC1DAFFDF2A2AC1E7
:1011100000F12BC101F12CC102F12DC103F172ECE0
:101120001AF000C17DF101C17EF12AC1D9FF2BC1A6
:10113000DAFFDF500101366F36C1F6FF100EF76E91
:101140000800F5CF35F1AFEF08F0362BBEEF08F011
:10115000690E356FBEEF08F0356BBEEF08F0355104
:10116000640AD8B4A8EF08F00D0AD8B4A8EF08F0C4
:10117000050AD8B4A5EF08F0ACEF08F036C1F6FFC9
:10118000100EF76E0800F550640AD8B4CAEF08F0E4
:10119000CCEF08F011EF09F036C1F6FF100EF76E34
:1011A0000800F550690AD8A4D8EF08F0DAEF08F083
:1011B00032EF09F011EF09F02CC1D9FF2DC1DAFF90
:1011C000DFCF2EF1020EDE26DFCF2FF1000EDD2263
:1011D0002EC1D9FF2FC1DAFFDECF30F1DDCF31F1E3
:1011E000000E31BFFF0E326F336F1CEF09F02CC1C0
:1011F000D9FF2DC1DAFFDFCF2EF1040EDE26DFCFBF
:101200002FF1000EDD222EC1D9FF2FC1DAFFDECF74
:1012100030F1DECF31F1DECF32F1DECF33F11CEF32
:1012200009F03551690AD8B4DCEF08F0050AD8B4E2
:10123000F7EF08F01CEF09F036292AC1D9FF2BC1BE
:10124000DAFFDF6E28C119F129C11AF130C11BF193
:1012500031C11CF132C11DF133C11EF1E1EC13F0BB
:10126000D4EF09F0346B2AC1D9FF2BC1DAFFDFCFED
:10127000F6FF100EF76E0800F550730AD8A443EF7E
:1012800009F045EF09F04EEF09F02AC1D9FF2BC153
:10129000DAFFDF2A010E346F94EF09F02AC1D9FF7B
:1012A0002BC1DAFFDFCFF6FF100EF76E0800F55006
:1012B0006C0AD8A45EEF09F060EF09F094EF09F032
:1012C0002AC1D9FF2BC1DAFFDF502E6F010E2E2766
:1012D0002EC1F6FF100EF76E0800F5506C0AD8A468
:1012E00074EF09F076EF09F094EF09F02AC1D9FF05
:1012F0002BC1DAFFDF502E6F020E2E272EC1F6FF14
:10130000100EF76E0800F550730AD8A48AEF09F0A2
:101310008CEF09F094EF09F02AC1D9FF2BC1DAFF55
:10132000030EDF264AEF09F03451D8B49AEF09F0E2
:101330009CEF09F0B8EF09F028C109F129C10AF1C1
:101340002CC1D9FF2DC1DAFFDFCF2EF1020EDE2630
:10135000DFCF2FF1000EDD222EC1D9FF2FC1DAFF22
:10136000DECF0BF1DDCF0CF10EEC13F0D4EF09F072
:101370002AC1D9FF2BC1DAFFDF2AD4EF09F02AC135
:10138000D9FF2BC1DAFFDFCFF6FF100EF76E080092
:10139000F5500101006F016B28C102F129C103F171
:1013A000ABEC19F0B8EF09F0120001011151D96E40
:1013B000DA6ADE50DE10D8A4E0EF09F0E2EF09F0BF
:1013C000E4EF09F06BEF0BF01151D96EDA6A060EFB
:1013D000D9260F51DE5C1051DE58D8B0F2EF09F07B
:1013E000F4EF09F0F6EF09F06BEF0BF00DC124F10B
:1013F0000EC125F1276B000E266F1151D96EDA6AE6
:10140000040ED926DECF12F1DDCF13F11151D96EC2
:10141000DA6A060ED926DECF14F1DDCF15F11251AE
:10142000145D286F13511559296F2B6B000E2A6F0D
:101430002A0E006F010E016F11C102F1F6EC16F0D9
:101440000FC122F110C123F101010F51285D10518C
:101450002959D8B02EEF0AF030EF0AF08CEF0AF0DD
:101460001151D96EDA6A080ED926DECF12F1DDCF1E
:1014700013F11151D96EDA6A040ED926DECF14F1B8
:10148000DDCF15F112511403F3CF16F1F4CF17F19C
:101490001503F350172713511403F3501727115155
:1014A000D96EDA6ADECF18F1DDCF19F116511825A1
:1014B000006F17511921016F24C102F125C103F1F9
:1014C0001151D96EDA6A080ED926DECF1AF1DDCFB6
:1014D0001BF128511A03F3CF1CF1F4CF1DF11B03AC
:1014E000F3501D2729511A03F3501D271CC104F185
:1014F0001DC105F1EBEC1EF001011151D96EDA6A44
:10150000040ED926DE6ADD6A28C126F129C127F139
:1015100028510F5F2951105B1151D96EDA6A080EFC
:10152000D926DECF12F1DDCF13F11151D96EDA6A6F
:10153000040ED926DECF14F1DDCF15F112511403BC
:10154000F3CF16F1F4CF17F11503F350172713510A
:101550001403F35017271151D96EDA6ADECF18F150
:10156000DDCF19F116511825006F17511921016FA0
:101570001151D96EDA6A080ED926DECF1AF1DDCF05
:101580001BF126511A03F3CF1CF1F4CF1DF11B03FD
:10159000F3501D2727511A03F3501D271C512425F2
:1015A000026F1D512521036F1151D96EDA6A080EA1
:1015B000D926DECF1EF1DDCF1FF10F511E03F3CF71
:1015C00020F1F4CF21F11F03F350212710511E0306
:1015D000F350212720C104F121C105F1EBEC1EF0ED
:1015E00001011151D96EDA6A040ED9260F51DE2697
:1015F0001051DD221151D96EDA6A060ED926115129
:10160000E16EE26A040EE126DE50E65CDE50E6584A
:10161000D8A00DEF0BF00FEF0BF021EF0BF01151F5
:10162000D96EDA6A060ED926DECF12F1DDCF13F1BC
:101630001151D96EDA6A040ED9261251DE5E1351A9
:10164000DD5A1151D96EDA6A060ED926DECF12F1B3
:10165000DDCF13F12A51125F2B51135B1251225D22
:1016600013512359D8A037EF0BF039EF0BF04FEFA0
:101670000BF01151D96EDA6A040ED926DECF12F1C1
:10168000DDCF13F1010E1227000E13231151D96E75
:10169000DA6A020ED92612C1DEFF13C1DDFF115135
:1016A000D96EDA6A060ED9261151E16EE26A020E8F
:1016B000E126DE50E65CDE50E658D8A062EF0BF083
:1016C00064EF0BF06BEF0BF01151D96EDA6A020E7A
:1016D000D926DE6ADD6A120000017151D96EDA6A1C
:1016E000DE50DE10D8A477EF0BF079EF0BF07BEF34
:1016F0000BF001EF0DF07151D96EDA6A060ED926A2
:101700006F51DE5C7051DE58D8B089EF0BF08BEF73
:101710000BF08DEF0BF001EF0DF06DC084F06EC09B
:1017200085F0876B000E866F7151D96EDA6A040EF0
:10173000D926DECF72F0DDCF73F07151D96EDA6A3F
:10174000060ED926DECF74F0DDCF75F07251745DD0
:101750008A6F735175598B6F896B000E886F880E75
:10176000606F616B71C062F06CEC17F06FC082F05B
:1017700070C083F000016F518A5D70518B59D8B0F1
:10178000C4EF0BF0C6EF0BF022EF0CF07151D96EE5
:10179000DA6A080ED926DECF72F0DDCF73F0715110
:1017A000D96EDA6A040ED926DECF74F0DDCF75F07B
:1017B00072517403F3CF76F0F4CF77F07503F350E2
:1017C000772773517403F35077277151D96EDA6A12
:1017D000DECF78F0DDCF79F076517825606F7751E4
:1017E0007921616F84C062F085C063F07151D96E58
:1017F000DA6A080ED926DECF7AF0DDCF7BF08A5187
:101800007A03F3CF7CF0F4CF7DF07B03F3507D2798
:101810008B517A03F3507D277CC064F07DC065F066
:1018200014EC1FF000017151D96EDA6A040ED9264A
:10183000DE6ADD6A8AC086F08BC087F08A516F5FEE
:101840008B51705B7151D96EDA6A080ED926DECFE2
:1018500072F0DDCF73F07151D96EDA6A040ED926B9
:10186000DECF74F0DDCF75F072517403F3CF76F0F4
:10187000F4CF77F07503F350772773517403F35067
:1018800077277151D96EDA6ADECF78F0DDCF79F043
:1018900076517825606F77517921616F7151D96EDA
:1018A000DA6A080ED926DECF7AF0DDCF7BF08651DA
:1018B0007A03F3CF7CF0F4CF7DF07B03F3507D27E8
:1018C00087517A03F3507D277C518425626F7D51C7
:1018D0008521636F7151D96EDA6A080ED926DECF81
:1018E0007EF0DDCF7FF06F517E03F3CF80F0F4CF39
:1018F00081F07F03F350812770517E03F3508127DD
:1019000080C064F081C065F014EC1FF000017151DB
:10191000D96EDA6A040ED9266F51DE267051DD22A7
:101920007151D96EDA6A060ED9267151E16EE26AFA
:10193000040EE126DE50E65CDE50E658D8A0A3EFA8
:101940000CF0A5EF0CF0B7EF0CF07151D96EDA6A1C
:10195000060ED926DECF72F0DDCF73F07151D96E4D
:10196000DA6A040ED9267251DE5E7351DD5A715166
:10197000D96EDA6A060ED926DECF72F0DDCF73F0AB
:101980008851725F8951735B7251825D73518359C3
:10199000D8A0CDEF0CF0CFEF0CF0E5EF0CF07151CB
:1019A000D96EDA6A040ED926DECF72F0DDCF73F07D
:1019B000010E7227000E73237151D96EDA6A020E7E
:1019C000D92672C0DEFF73C0DDFF7151D96EDA6AAD
:1019D000060ED9267151E16EE26A020EE126DE5052
:1019E000E65CDE50E658D8A0F8EF0CF0FAEF0CF009
:1019F00001EF0DF07151D96EDA6A020ED926DE6A56
:101A0000DD6A12001350D96EDA6ADE50DE10D8A4F7
:101A10000CEF0DF00EEF0DF010EF0DF093EF0EF058
:101A20001350D96EDA6A060ED9261150DE5C1250B8
:101A3000DE58D8B01EEF0DF020EF0DF022EF0DF0C4
:101A400093EF0EF00FC026F010C027F0296A000EA9
:101A5000286E1350D96EDA6A040ED926DECF14F040
:101A6000DDCF15F01350D96EDA6A060ED926DECF17
:101A700016F0DDCF17F01450165C2C6E1550175869
:101A80002D6E2B6A000E2A6E2A0E026E036A13C098
:101A900004F0E2EC17F011C024F012C025F0115050
:101AA0002C5C12502D58D8B058EF0DF05AEF0DF0B5
:101AB000B5EF0DF01350D96EDA6A080ED926DECFD5
:101AC00014F0DDCF15F01350D96EDA6A040ED92662
:101AD000DECF16F0DDCF17F014501602F3CF18F05A
:101AE000F4CF19F01702F350192615501602F350CF
:101AF00019261350D96EDA6ADECF1AF0DDCF1BF04B
:101B000018501A24026E19501B20036E26C004F0D0
:101B100027C005F01350D96EDA6A080ED926DECF39
:101B20001CF0DDCF1DF02C501C02F3CF1EF0F4CFC3
:101B30001FF01D02F3501F262D501C02F3501F26CC
:101B40001EC006F01FC007F03DEC1FF01350D96E09
:101B5000DA6A040ED926DE6ADD6A2CC028F02DC0B0
:101B600029F02C50115E2D50125A1350D96EDA6A9A
:101B7000080ED926DECF14F0DDCF15F01350D96E44
:101B8000DA6A040ED926DECF16F0DDCF17F0145036
:101B90001602F3CF18F0F4CF19F01702F3501926FC
:101BA00015501602F35019261350D96EDA6ADECF9B
:101BB0001AF0DDCF1BF018501A24026E19501B20AA
:101BC000036E1350D96EDA6A080ED926DECF1CF0E8
:101BD000DDCF1DF028501C02F3CF1EF0F4CF1FF014
:101BE0001D02F3501F2629501C02F3501F261E50C1
:101BF0002624046E1F502720056E1350D96EDA6A12
:101C0000080ED926DECF20F0DDCF21F011502002C2
:101C1000F3CF22F0F4CF23F02102F3502326125009
:101C20002002F350232622C006F023C007F03DEC2B
:101C30001FF01350D96EDA6A040ED9261150DE2631
:101C40001250DD221350D96EDA6A060ED9261350CF
:101C5000E16EE26A040EE126DE50E65CDE50E658F4
:101C6000D8A035EF0EF037EF0EF049EF0EF013501D
:101C7000D96EDA6A060ED926DECF14F0DDCF15F064
:101C80001350D96EDA6A040ED9261450DE5E155050
:101C9000DD5A1350D96EDA6A060ED926DECF14F05B
:101CA000DDCF15F02A50145E2B50155A1450245CC9
:101CB00015502558D8A05FEF0EF061EF0EF077EFCA
:101CC0000EF01350D96EDA6A040ED926DECF14F066
:101CD000DDCF15F0010E1426000E15221350D96E1B
:101CE000DA6A020ED92614C0DEFF15C0DDFF1350DC
:101CF000D96EDA6A060ED9261350E16EE26A020E38
:101D0000E126DE50E65CDE50E658D8A08AEF0EF001
:101D10008CEF0EF093EF0EF01350D96EDA6A020ECC
:101D2000D926DE6ADD6A120001010D510E11D8A418
:101D30009CEF0EF09EEF0EF0A1EF0EF0020EC2EF40
:101D40000FF01151D96EDA6A060ED9260F51DE5CFA
:101D50001051DE58D8B0AFEF0EF0B1EF0EF0B4EF87
:101D60000EF0030EC2EF0FF01151D96EDA6A020EB7
:101D7000D9261151E16EE26A040EE126DE50E61822
:101D800007E1DE50E618D8A4C8EF0EF0CAEF0EF057
:101D9000CDEF0EF0040EC2EF0FF0276B000E266F92
:101DA000260E006F010E016F11C102F1F6EC16F064
:101DB00001010F51265D10512759D8B0E2EF0EF006
:101DC000E4EF0EF0E8EF0EF026C10FF127C110F19D
:101DD000216B000E206F1151D96EDA6A020ED926DE
:101DE000DECF12F1DDCF13F11151D96EDA6A060E92
:101DF000D926DECF14F1DDCF15F11251145D246F19
:101E000013511559256F1151D96EDA6A020ED92670
:101E1000DECF22F1DDCF23F10F51245D1051255982
:101E2000D8B015EF0FF017EF0FF066EF0FF00DC100
:101E300000F10EC101F11151D96EDA6A080ED926EE
:101E4000DECF12F1DDCF13F122511203F3CF14F1E3
:101E5000F4CF15F11303F350152723511203F35058
:101E600015271151D96EDA6ADECF16F1DDCF17F1E1
:101E700014511625026F15511721036F1151D96E98
:101E8000DA6A080ED926DECF18F1DDCF19F1245118
:101E90001803F3CF1AF1F4CF1BF11903F3501B27EA
:101EA00025511803F3501B271AC104F11BC105F17A
:101EB000EBEC1EF00101236B000E226F24C120F118
:101EC00025C121F124510F5F2551105B1151D96EAD
:101ED000DA6A080ED926DECF12F1DDCF13F12051D8
:101EE0001203F3CF14F1F4CF15F11303F3501527B8
:101EF00021511203F350152714510D25006F155170
:101F00000E21016F1151D96EDA6A080ED926DECF83
:101F100016F1DDCF17F122511603F3CF18F1F4CFEC
:101F200019F11703F350192723511603F3501927FA
:101F30001151D96EDA6ADECF1AF1DDCF1BF11851DB
:101F40001A25026F19511B21036F1151D96EDA6ADC
:101F5000080ED926DECF1CF1DDCF1DF10F511C0379
:101F6000F3CF1EF1F4CF1FF11D03F3501F271051C3
:101F70001C03F3501F271EC104F11FC105F1EBEC38
:101F80001EF0000E120000016D516E11D8A4CBEFAF
:101F90000FF0CDEF0FF0D0EF0FF0020EF0EF10F0DA
:101FA0007151D96EDA6A060ED9266F51DE5C705116
:101FB000DE58D8B0DEEF0FF0E0EF0FF0E3EF0FF0F8
:101FC000030EF0EF10F07151D96EDA6A020ED926C5
:101FD0007151E16EE26A040EE126DE50E61807E177
:101FE000DE50E618D8A4F7EF0FF0F9EF0FF0FCEF92
:101FF0000FF0040EF0EF10F0876B000E866F860E68
:10200000606F616B71C062F06CEC17F000016F5192
:10201000865D70518759D8B010EF10F012EF10F0B4
:1020200016EF10F086C06FF087C070F0816B000E65
:10203000806F7151D96EDA6A020ED926DECF72F046
:10204000DDCF73F07151D96EDA6A060ED926DECF74
:1020500074F0DDCF75F07251745D846F73517559F2
:10206000856F7151D96EDA6A020ED926DECF82F001
:10207000DDCF83F06F51845D70518559D8B043EF47
:1020800010F045EF10F094EF10F06DC060F06EC0EE
:1020900061F07151D96EDA6A080ED926DECF72F07E
:1020A000DDCF73F082517203F3CF74F0F4CF75F08B
:1020B0007303F350752783517203F35075277151E1
:1020C000D96EDA6ADECF76F0DDCF77F074517625FF
:1020D000626F75517721636F7151D96EDA6A080E9C
:1020E000D926DECF78F0DDCF79F084517803F3CFB5
:1020F0007AF0F4CF7BF07903F3507B278551780396
:10210000F3507B277AC064F07BC065F014EC1FF0BD
:102110000001836B000E826F84C080F085C081F067
:1021200084516F5F8551705B7151D96EDA6A080E08
:10213000D926DECF72F0DDCF73F080517203F3CF7A
:1021400074F0F4CF75F07303F35075278151720367
:10215000F350752774516D25606F75516E21616F55
:102160007151D96EDA6A080ED926DECF76F0DDCF4E
:1021700077F082517603F3CF78F0F4CF79F07703DC
:10218000F350792783517603F35079277151D96E33
:10219000DA6ADECF7AF0DDCF7BF078517A25626F94
:1021A00079517B21636F7151D96EDA6A080ED92695
:1021B000DECF7CF0DDCF7DF06F517C03F3CF7EF07E
:1021C000F4CF7FF07D03F3507F2770517C03F350F1
:1021D0007F277EC064F07FC065F014EC1FF0000E16
:1021E00012000F501010D8A4F8EF10F0FAEF10F012
:1021F000FDEF10F0020E1BEF12F01350D96EDA6AE9
:10220000060ED9261150DE5C1250DE58D8B00BEF06
:1022100011F00DEF11F010EF11F0030E1BEF12F0A3
:102220001350D96EDA6A020ED9261350E16EE26AB3
:10223000040EE126DE50E61807E1DE50E618D8A4C9
:1022400024EF11F026EF11F029EF11F0040E1BEF2F
:1022500012F0296A000E286E280E026E036A13C05F
:1022600004F0E2EC17F01150285C12502958D8B055
:102270003CEF11F03EEF11F042EF11F028C011F0E9
:1022800029C012F0236A000E226E1350D96EDA6A4A
:10229000020ED926DECF14F0DDCF15F01350D96E23
:1022A000DA6A060ED926DECF16F0DDCF17F014500D
:1022B000165C266E15501758276E1350D96EDA6AC1
:1022C000020ED926DECF24F0DDCF25F01150265C9A
:1022D00012502758D8B06FEF11F071EF11F0BFEF27
:1022E00011F00FC002F010C003F01350D96EDA6A7B
:1022F000080ED926DECF14F0DDCF15F024501402DD
:10230000F3CF16F0F4CF17F01502F350172625502F
:102310001402F35017261350D96EDA6ADECF18F084
:10232000DDCF19F016501824046E17501920056ED1
:102330001350D96EDA6A080ED926DECF1AF0DDCF37
:102340001BF026501A02F3CF1CF0F4CF1DF01B0235
:10235000F3501D2627501A02F3501D261CC006F00C
:102360001DC007F03DEC1FF0256A000E246E26C04C
:1023700022F027C023F02650115E2750125A135026
:10238000D96EDA6A080ED926DECF14F0DDCF15F04B
:1023900022501402F3CF16F0F4CF17F01502F350C9
:1023A000172623501402F350172616500F24026EDE
:1023B00017501020036E1350D96EDA6A080ED92612
:1023C000DECF18F0DDCF19F024501802F3CF1AF049
:1023D000F4CF1BF01902F3501B2625501802F350BE
:1023E0001B261350D96EDA6ADECF1CF0DDCF1DF04C
:1023F0001A501C24046E1B501D20056E1350D96EFC
:10240000DA6A080ED926DECF1EF0DDCF1FF011509C
:102410001E02F3CF20F0F4CF21F01F02F35021264B
:1024200012501E02F350212620C006F021C007F0F2
:102430003DEC1FF0000E1200D6EC20F00C0E010156
:102440000D6F3A0E0E6F11EC1AF0FEEC1DF0AEECB3
:1024500020F0010E0201CA6FC86B010EC96FCC6B70
:10246000CD6BCE6BC80E0101006F020E016FBAEC8E
:102470001CF089EC1DF087EC20F09598640E0101AA
:102480003D6F020E3E6F2E0E3F6FBDEC20F000C17F
:1024900040F101C141F102C142F103C143F18BECB2
:1024A0001FF0640E0101346F020E356F376B320E70
:1024B000366F25EC1BF00F0E0101006F000E016F4F
:1024C000000E026F000E036F93EC1EF0C80E0101A8
:1024D000006F020E016FCBEC1BF0640E01013D6F2B
:1024E000020E3E6F540E3F6F000E9EEC20F000C1B6
:1024F00040F101C141F1010E9EEC20F000C142F11A
:1025000001C143F1020E9EEC20F000C144F101C173
:1025100045F18BEC1FF0640E0101346F020E356F34
:10252000376B640E366F25EC1BF0000E0101346F23
:10253000020E356F376B320E366F396B050E386F02
:10254000B2EC14F0010135BFAEEF12F0355108E1E5
:102550003405D8A0AEEF12F0B0EF12F0FFEF12F09A
:10256000640E3D6F020E3E6F010E3F6FCCC255F1FF
:102570000F0E5517CCC256F1563B0F0E56170F0EC5
:10258000561756510A0D5551F324406F000EF42092
:10259000416FCDC257F10F0E5717CDC258F1583BBE
:1025A0000F0E58170F0E581758510A0D5751F32494
:1025B000426F000EF420436FCEC259F10F0E59172F
:1025C000CEC25AF15A3B0F0E5A170F0E5A175A51D4
:1025D0000A0D5951F324446F000EF420456F000E8C
:1025E000466F020E476F8BEC1FF0640E0101346FD3
:1025F000020E356F376B640E366F25EC1BF0F40E50
:102600000101006F010E016F000E026F000E036FDB
:1026100093EC1EF066EF12F068EF00F00BC113F1BF
:102620000CC114F1010113511411D8A41AEF13F0C5
:102630001CEF13F022EF13F0640E136F1351D8A4A4
:10264000100E146F166B000E156F2AEF13F00101B8
:10265000154B162B155113250D6F165114210E6FA6
:102660000DC1F6FF0EC1F7FFF86A0F0EF76403D035
:102670000800F55005D0F6CFE1FFF7CFE2FFE750B5
:102680000009D8A446EF13F048EF13F027EF13F03A
:1026900001017EBF4EEF13F050EF13F063EF13F024
:1026A00015517D5D7E51800A0D6F1651800A0D59BE
:1026B000D8B05DEF13F05FEF13F063EF13F07DC15F
:1026C00015F17EC116F115C10FF116C110F17BC1D4
:1026D00011F17CC112F181B170EF13F072EF13F0C0
:1026E000AFEF13F080EF13F0016B200E006F09C104
:1026F00002F10AC103F1ABEC19F00101154B162BE5
:102700001151155D1651800A0D6F1251800A0D5935
:10271000D8A08DEF13F08FEF13F074EF13F0AFEF3D
:1027200013F013C1F6FF14C1F7FFF86A0F0EF76438
:1027300003D00800F55005D0F6CFE1FFF7CFE2FF58
:10274000E75001010D6F0D51006F016B09C102F1DE
:102750000AC103F1ABEC19F00101134B142B0F0765
:10276000D8A010070F2906E11029D8A4BAEF13F05A
:10277000BCEF13F091EF13F081A1C1EF13F0C3EFA1
:1027800013F0E0EF13F0D1EF13F0016B200E006FA8
:1027900009C102F10AC103F1ABEC19F00101154BBB
:1027A000162B1151155D1651800A0D6F1251800ABA
:1027B0000D59D8A0DEEF13F0E0EF13F0C5EF13F0E2
:1027C000120001011EBFE7EF13F0EAEF13F0010E54
:1027D000EBEF13F0000E256F7EBFF3EF13F0F1EF78
:1027E00013F0F8EF13F0246B010E236FFCEF13F0DE
:1027F0007DC123F17EC124F17BC121F17CC122F195
:102800002551D8B406EF14F008EF14F01DEF14F0C2
:102810002107D8A022072551D8A411EF14F013EFF7
:1028200014F018EF14F0206B2B0E1F6F1BEF14F039
:10283000206B2D0E1F6F1FC125F1276B1F0E266FFA
:10284000A36B68EF14F02607D8A02707840E26256F
:10285000D96E010E2721DA6E1BC100F11CC101F1F6
:102860001DC102F11EC103F10A0E046F000E056FB7
:10287000000E066F000E076F80EC16F000C10AF123
:1028800001C10BF136EC20F001010A51300FDF6E6F
:102890002307D8A024072107D8A022071BC100F1D5
:1028A0001CC101F11DC102F11EC103F10A0E046F2A
:1028B000000E056F000E066F000E076F7CEC15F022
:1028C00000C11BF101C11CF102C11DF103C11EF1C8
:1028D000010127BF74EF14F0275108E12605D8A0A5
:1028E00074EF14F076EF14F08EEF14F01B511C11FE
:1028F0001D111E11D8A47FEF14F081EF14F023EF07
:1029000014F024BF8EEF14F0245106E12305D8B053
:102910008CEF14F08EEF14F023EF14F02551D8B49F
:1029200094EF14F096EF14F0A1EF14F02607D8A05E
:102930002707840E2625D96E010E2721DA6E25C1C0
:10294000DFFF19C110F11AC111F1840E2625126F93
:10295000010E2721136F21C114F122C115F11CECC6
:102960001CF01200540E0101006F016BE10E026FAA
:10297000F6EC16F05450010136253A6F55503721C8
:102980003B6F3B5109E1C90E3A5DD8A0CAEF14F084
:10299000CCEF14F0D0EF14F0346935697BEF15F00B
:1029A00054505510D8B4D7EF14F0D9EF14F077EF96
:1029B00015F05450501809E155505118D8B4E3EFB0
:1029C00014F0E5EF14F021EF15F03651545C375157
:1029D0005558D8A0EEEF14F0F0EF14F00DEF15F00D
:1029E00034C128F135C129F136C12AF137C12BF1A3
:1029F000E10E2C6F57EC18F0516A000E506E010179
:102A000036513425D96E37513521DA6EDF6A36C139
:102A100034F137C135F17BEF15F054C050F055C09B
:102A200051F0BDEC20F000C146F001C147F002C1F9
:102A300048F003C149F00101356B000E346F7BEFA4
:102A400015F0BDEC20F046500101005D3A6F475093
:102A500001593B6F485002593C6F495003593D6F33
:102A600038513E6F39513F6F406B416B3A513E5D7B
:102A70003B513F593C5140593D514159D8B043EF2A
:102A800015F045EF15F077EF15F05450365D5550C1
:102A90003759D8A04EEF15F050EF15F056EF15F05E
:102AA00054C054F055C055F05AEF15F036C154F0EB
:102AB00037C155F034C128F135C129F154C02AF18C
:102AC00055C02BF1E10E2C6F57EC18F0545001015A
:102AD0003425D96E55503521DA6EDF6A516A000E01
:102AE000506E54C034F155C035F17BEF15F0FF0E38
:102AF000356FFE0E346F12000101096B07BF85EFC1
:102B000015F083EF15F08FEF15F0071F061F051F57
:102B1000046D000E052306230723010E096F03BF72
:102B200096EF15F094EF15F0A0EF15F0031F021FBC
:102B3000011F006D000E012302230323010E091B58
:102B4000000E0A6F000E0B6F000E0C6F000E0D6F63
:102B50000451051106110711D8B4B1EF15F0B3EF08
:102B600015F0E9EF15F0010E086FBDEF15F0D890E4
:102B70000437053706370737082B07AFC2EF15F0C4
:102B8000C4EF15F0B7EF15F0D8900A370B370C37B4
:102B90000D370451005D0551015906510259075185
:102BA0000359D8A0D6EF15F0D8EF15F0E1EF15F0E6
:102BB0000451005F0551015B0651025B0751035B45
:102BC0000A81D8900733063305330433082FC4EF46
:102BD00015F00951D8B4EFEF15F0F1EF15F0F9EF5A
:102BE00015F00D1F0C1F0B1F0A6D000E0B230C237D
:102BF0000D230AC100F10BC101F10CC102F10DC19D
:102C000003F11200FACF3CF0FBCF3DF0E1CF3EF0F4
:102C1000E2CF3FF0D9CF40F0DACF41F0F3CF42F02E
:102C2000F4CF43F0F2AA17EF16F019EF16F043EFC6
:102C300016F0F2A41EEF16F020EF16F043EF16F098
:102C400001018351D62682C1D7FF010E0001CF2793
:102C5000000ED023D123D22301017F518011D8B49B
:102C600034EF16F036EF16F042EF16F002D842EFCE
:102C700016F00500FA6E7F51FD6E8051FE6EFF6A00
:102C8000FA501200F294456A000E446E5CEF16F0A2
:102C90004450020DF350A70FD96EDA6A02D85AEFEA
:102CA00016F00500FA6EDE50FD6EDE50FE6EFF6A15
:102CB000FA501200444A452A5350396E3A6A395044
:102CC000445C4550800A3B6E3A50800A3B58D8A07D
:102CD0006CEF16F06EEF16F048EF16F043C0F4FFFD
:102CE00042C0F3FF41C0DAFF40C0D9FF3FC0E2FF5E
:102CF0003EC0E1FF3DC0FBFF3CC0FAFF0192110066
:102D00000101096B03BF89EF16F087EF16F093EF0F
:102D100016F0031F021F011F006D000E0123022386
:102D20000323010E096F07BF9AEF16F098EF16F014
:102D3000A2EF16F0071F061F051F046D000E0523E6
:102D4000062307230451051106110711D8B4ABEF70
:102D500016F0ADEF16F0DDEF16F0010E086FB7EFCD
:102D600016F0D8900437053706370737082B07AF1A
:102D7000BCEF16F0BEEF16F0B1EF16F00451005D97
:102D8000055101590651025907510359D8A0CBEFFB
:102D900016F0CDEF16F0D5EF16F00451005F055197
:102DA000015B0651025B0751035BD8900733063382
:102DB00005330433082FBEEF16F00951D8B4E3EF02
:102DC00016F0E5EF16F0EDEF16F0031F021F011FDE
:102DD000006D000E01230223032300C100F101C195
:102DE00001F102C102F103C103F11200010102511C
:102DF000D96EDA6ADE50DE10D8A401EF17F003EFC7
:102E000017F005EF17F06BEF17F00251D96EDA6A81
:102E1000020ED9260251E16EE26A040EE126DE506E
:102E2000E65CDE50E658D8B018EF17F01AEF17F04E
:102E30004BEF17F00251D96EDA6A040ED926DECFB5
:102E400003F1DDCF04F10251D96EDA6A020ED92600
:102E5000DECF05F1DDCF06F10251D96EDA6A060E3A
:102E6000D926DECF07F1DDCF08F10551075D096FE7
:102E7000065108590A6F035109250B6F04510A21A5
:102E80000C6F00C1D9FF01C1DAFF0BC1DEFF0CC11D
:102E9000DDFF6BEF17F00251D96EDA6A020ED92608
:102EA000DECF03F1DDCF04F10251D96EDA6A040EF0
:102EB000D926DECF05F1DDCF06F10351055D076FA1
:102EC00004510659086F00C1D9FF01C1DAFF07C1DB
:102ED000DEFF08C1DDFF120000016251D96EDA6A1F
:102EE000DE50DE10D8A477EF17F079EF17F07BEF04
:102EF00017F0E1EF17F06251D96EDA6A020ED926A7
:102F00006251E16EE26A040EE126DE50E65CDE50BC
:102F1000E658D8B08EEF17F090EF17F0C1EF17F02A
:102F20006251D96EDA6A040ED926DECF63F0DDCFA6
:102F300064F06251D96EDA6A020ED926DECF65F0EE
:102F4000DDCF66F06251D96EDA6A060ED926DECF81
:102F500067F0DDCF68F06551675D696F665168594C
:102F60006A6F635169256B6F64516A216C6F60C031
:102F7000D9FF61C0DAFF6BC0DEFF6CC0DDFFE1EF9F
:102F800017F06251D96EDA6A020ED926DECF63F0ED
:102F9000DDCF64F06251D96EDA6A040ED926DECF35
:102FA00065F0DDCF66F06351655D676F645166590A
:102FB000686F60C0D9FF61C0DAFF67C0DEFF68C01C
:102FC000DDFF12000450D96EDA6ADE50DE10D8A49C
:102FD000ECEF17F0EEEF17F0F0EF17F056EF18F0F8
:102FE0000450D96EDA6A020ED9260450E16EE26A04
:102FF000040EE126DE50E65CDE50E658D8B003EF62
:1030000018F005EF18F036EF18F00450D96EDA6AB0
:10301000040ED926DECF05F0DDCF06F00450D96EC0
:10302000DA6A020ED926DECF07F0DDCF08F00450B1
:10303000D96EDA6A060ED926DECF09F0DDCF0AF0A6
:103040000750095C0B6E08500A580C6E05500B2493
:103050000D6E06500C200E6E02C0D9FF03C0DAFFC1
:103060000DC0DEFF0EC0DDFF56EF18F00450D96E24
:10307000DA6A020ED926DECF05F0DDCF06F0045065
:10308000D96EDA6A040ED926DECF07F0DDCF08F05C
:103090000550075C096E065008580A6E02C0D9FF39
:1030A00003C0DAFF09C0DEFF0AC0DDFF1200010124
:1030B0002C51D96EDA6ADE50DE10D8A462EF18F017
:1030C00064EF18F066EF18F0C9EF18F0336B000EDC
:1030D000326F320E006F010E016F2CC102F1F6EC5F
:1030E00016F001012A51325D2B513359D8B07BEFD4
:1030F00018F07DEF18F081EF18F032C12AF133C1DA
:103100002BF128C10DF129C10EF12AC10FF12BC1FC
:1031100010F12CC111F194EC0EF00101316F31511D
:10312000D8B495EF18F097EF18F099EF18F0C9EFB1
:1031300018F02C51D96EDA6A020ED9262A51DE26F1
:103140002B51DD222C51D96EDA6A060ED9262C516C
:10315000E16EE26A020EE126DE50E65CDE50E658E1
:10316000D8A0B5EF18F0B7EF18F0C9EF18F02C5150
:10317000D96EDA6A060ED926DECF2DF1DDCF2EF11B
:103180002C51D96EDA6A020ED9262D51DE5E2E51EF
:10319000DD5A120000018C51D96EDA6ADE50DE1061
:1031A000D8A4D5EF18F0D7EF18F0D9EF18F03BEF0F
:1031B00019F0936B000E926F920E606F616B8CC072
:1031C00062F06CEC17F000018A51925D8B519359BB
:1031D000D8B0EDEF18F0EFEF18F0F3EF18F092C061
:1031E0008AF093C08BF088C06DF089C06EF08AC001
:1031F0006FF08BC070F08CC071F0C3EC0FF0000169
:10320000916F9151D8B407EF19F009EF19F00BEF56
:1032100019F03BEF19F08C51D96EDA6A020ED926FB
:103220008A51DE268B51DD228C51D96EDA6A060E68
:10323000D9268C51E16EE26A020EE126DE50E65C90
:10324000DE50E658D8A027EF19F029EF19F03BEF30
:1032500019F08C51D96EDA6A060ED926DECF8DF0C0
:10326000DDCF8EF08C51D96EDA6A020ED9268D51DF
:10327000DE5E8E51DD5A12002E50D96EDA6ADE50B3
:10328000DE10D8A446EF19F048EF19F04AEF19F014
:10329000AAEF19F0356A000E346E340E026E036A1E
:1032A0002EC004F0E2EC17F02C50345C2D50355851
:1032B000D8B05DEF19F05FEF19F063EF19F034C08B
:1032C0002CF035C02DF02AC00FF02BC010F02CC010
:1032D00011F02DC012F02EC013F0F1EC10F0336E8F
:1032E0003350D8B476EF19F078EF19F07AEF19F07F
:1032F000AAEF19F02E50D96EDA6A020ED9262C5098
:10330000DE262D50DD222E50D96EDA6A060ED92621
:103310002E50E16EE26A020EE126DE50E65CDE50DF
:10332000E658D8A096EF19F098EF19F0AAEF19F027
:103330002E50D96EDA6A060ED926DECF2FF0DDCFF9
:1033400030F02E50D96EDA6A020ED9262F50DE5E8A
:103350003050DD5A1200010102510311D8B4B3EF0D
:1033600019F0B5EF19F0BEEF19F002510311D8A40E
:10337000BCEF19F0BEEF19F0C3EF19F00051DDEC0E
:1033800020F010EF1AF020EE09F00251D926035177
:10339000DA22DE50DE10D8B4D0EF19F0D2EF19F0F7
:1033A000EDEF19F020EE09F00251D9260351DA228F
:1033B00010EE02F00251E1260351E222DE50E65CFB
:1033C000E650800A086FDE50800A0859D8B0EBEF4B
:1033D00019F0EDEF19F010EF1AF020EE02F00251A3
:1033E000D9260351DA22DECF04F1DDCF05F102C187
:1033F000D9FF03C1DAFFDECF06F1DDCF07F10451BB
:103400000625D96E05510721DA6E00C1DFFF20EED7
:1034100002F00251D9260351DA22DE2A000EDD2203
:103420001200D59ED59CD550F80B0309D56ED59AC0
:10343000D596020E0101126F000E136F000E146F6D
:10344000000E156F176B000E166F2EEF1AF0D89046
:103450001237133714371537164B172BD550070B68
:103460000F6F106B0F51165D1751800A116F1051BD
:10347000800A1159D8A03FEF1AF041EF1AF027EF58
:103480001AF0E00E006F2E0E016F000E026F000E9C
:10349000036F12C104F113C105F114C106F115C186
:1034A00007F178EC1BF0010100510108186F000EC4
:1034B0000155196F010E02551A6F000E03551B6F4F
:1034C00018C183F119C182F183C1D6FF82C1D7FF30
:1034D0000DC17FF10EC180F1F28EF28CF28AF2946E
:1034E000D58E12000101086B000E076F00C1D9FFD5
:1034F00001C1DAFFDFCFF6FF100EF76E0800F550BE
:103500002A0AD8A486EF1AF088EF1AF0B7EF1AF05B
:1035100000C1D9FF01C1DAFFDF2A02C1D9FF03C10F
:10352000DAFFDFCF04F1020EDE26DFCF05F1000E59
:10353000DD2204C1D9FF05C1DAFFDECF07F1DDCFFF
:1035400008F1CBEF1AF00A0E0703F3CF04F1F4CF22
:1035500005F10803F350052706510425076F000EF7
:103560000521086F00C1D9FF01C1DAFFDF2A00C1C0
:10357000D9FF01C1DAFFDFCFF6FF100EF76E0800AA
:10358000F550D00F066F090E0665C9EF1AF0CBEFA4
:103590001AF0A3EF1AF007C100F108C101F11200FF
:1035A00001A2D5EF1AF06BEF1CF000009DACDBEF31
:1035B0001AF0DDEF1AF023EF1BF09EACE2EF1AF0E9
:1035C000E4EF1AF023EF1BF09E9CC350C4CF60F0D1
:1035D0000001616B60C061F0606B6013000E6113ED
:1035E0004E50D30FD96EDA6ADF50626F6251020D0E
:1035F0005B0EF324D96E010EF420DA6E60C0DEFF9C
:1036000061C0DDFF4E4A4F2A4FBE10EF1BF04F50F6
:1036100009E1030E4E5CD8A010EF1BF012EF1BF077
:1036200015EF1BF04F6A000E4E6E4E50D30FD96E41
:10363000DA6ADF50606F60476047C2506019C30BA1
:103640006019C26EC28200001200A40E0101006F58
:10365000010E016FD70E026FF6EC16F00101365124
:10366000A425386F3751A521396F010E3827000E78
:103670003923395109E1C90E385DD8A042EF1BF05A
:1036800044EF1BF046EF1BF077EF1BF034C100F165
:1036900035C101F136C102F137C103F163EC1EF00F
:1036A00000C13AF101C13BF134C10DF135C10EF158
:1036B0003AC10FF13BC110F1D70E0101116FD5ECEA
:1036C00009F09EA866EF1BF068EF1BF077EF1BF088
:1036D0003C0E0101286F010E296F2B6B010E2A6F22
:1036E000D70E2C6F57EC18F03CC1AEFF9D8812002E
:1036F000000E0101086F000E096F000E0A6F000E28
:103700000B6F0451051106110711D8B48AEF1BF095
:103710008CEF1BF0C2EF1BF0010E0C6F96EF1BF04D
:10372000D89004370537063707370C2B07AF9BEFC8
:103730001BF09DEF1BF090EF1BF0D8900837093776
:103740000A370B370451005D0551015906510259E2
:1037500007510359D8A0AFEF1BF0B1EF1BF0BAEF40
:103760001BF00451005F0551015B0651025B0751DC
:10377000035B0881D89007330633053304330C2FDD
:103780009DEF1BF008C100F109C101F10AC102F16E
:103790000BC103F112000F013FB9D1EF1BF0D3EFC2
:1037A0001BF0CBEF1BF0F29ECFEC20F00F013F831C
:1037B0003F8100C1D9FF01C1DAFF98CFDFFF0101CE
:1037C00020EE07F00051D9260151DA2299CFDFFF10
:1037D00020EE02F00051D9260151DA2298CFDFFF06
:1037E00020EE01F00051D9260151DA2299CFDFFFF6
:1037F00020EE04F00051D9260151DA2298CFDFFFE4
:1038000020EE03F00051D9260151DA2299CFDFFFD3
:1038100020EE06F00051D9260151DA2298CFDFFFC1
:1038200020EE05F00051D9260151DA2299CFDFFFB1
:103830000F013F9BF28E1200010181A122EF1CF0CB
:1038400024EF1CF02EEF1CF012C109F113C10AF194
:1038500010C10BF111C10CF1AFEC1FF0010115BF4C
:1038600036EF1CF034EF1CF039EF1CF0156B000E36
:10387000146F186B000E176F4AEF1CF0016B200ECF
:10388000006F10C102F111C103F1ABEC19F001019D
:10389000174B182B1451175D1851800A166F1551CC
:1038A000800A1659D8A057EF1CF059EF1CF03EEFD4
:1038B0001CF081B15EEF1CF060EF1CF06AEF1CF0B1
:1038C00012C109F113C10AF110C10BF111C10CF1C0
:1038D000AFEC1FF0120000009DAC71EF1CF073EF15
:1038E0001CF0B8EF1CF09EAC78EF1CF07AEF1CF0E7
:1038F000B8EF1CF09E9CC350C4CF02F0036A02C014
:1039000003F0026A0212000E03124E50D30FD96E5A
:10391000DA6ADF50046E0450020D5B0EF324D96E98
:10392000010EF420DA6E02C0DEFF03C0DDFF4E4A56
:103930004F2A4FBEA5EF1CF04F5009E1030E4E5C1D
:10394000D8A0A5EF1CF0A7EF1CF0AAEF1CF04F6A5F
:10395000000E4E6E4E50D30FD96EDA6ADF50026EF3
:1039600002460246C2500218C30B0218C26EC2823F
:1039700000001200F29ECFEC20F00F013F9F3F9518
:103980003F833F8100C1D9FF01C1DAFFDF50986E4C
:10399000010120EE07F00051D9260151DA22DF5053
:1039A000996E20EE02F00051D9260151DA22DF5043
:1039B000986E20EE01F00051D9260151DA22DF5035
:1039C000996E20EE04F00051D9260151DA22DF5021
:1039D000986E20EE03F00051D9260151DA22DF5013
:1039E000996E20EE06F00051D9260151DA22DF50FF
:1039F000986E20EE05F00051D9260151DA22DF50F1
:103A0000996E0F013F8F3F9BF28E1200C6EC20F0A3
:103A10004A50025C066E4B500358076E4C500458D7
:103A2000086E4D500558096E09500810071009E13D
:103A30000B0E065CD8A01FEF1DF021EF1DF049EF23
:103A40001DF08C98C6EC20F04A50025C066E4B507C
:103A50000358076E4C500458086E4D500558096EB7
:103A6000095008100BE1E90E065C030E0758D8A0B8
:103A70003CEF1DF03EEF1DF049EF1DF08C88C6ECC9
:103A800020F002C04AF003C04BF004C04CF005C067
:103A90004DF0120001010251D8A451EF1DF053EF77
:103AA0001DF06BEF1DF0090E0001D6655AEF1DF0F9
:103AB0005CEF1DF05EEF1DF088EF1DF0D651020D9A
:103AC000F350BB0FD96EDA6A00C1DEFF01C1DDFF22
:103AD000D62B88EF1DF00205D8A471EF1DF073EF0F
:103AE0001DF088EF1DF0090E536479EF1DF07BEF98
:103AF0001DF07DEF1DF088EF1DF05350020DF350C7
:103B0000A70FD96EDA6A00C1DEFF01C1DDFF532ABB
:103B100012000101046B000E036F0F0148691F0EB4
:103B2000496F0001D36B0101034B042B92800F01FD
:103B3000489101010351D30FD96EDA6A010EDF6E8D
:103B4000034B042B92820F01489301010351D30FC1
:103B5000D96EDA6A020EDF6E034B042B92840F01DA
:103B600048953F0EC216C18EC150F80B0609C16EB2
:103B7000380EC1129F9CA00E0101006F350E016F1F
:103B8000000E026F4AEC1DF0C280120001A2CBEFC2
:103B90001DF032EF1EF09DA8D0EF1DF0D2EF1DF00A
:103BA000FDEF1DF09EA8D7EF1DF0D9EF1DF0FDEF42
:103BB0001DF00001966B000E956F950E606F616BA6
:103BC000D70E626F6CEC17F0000195519611D8B4C6
:103BD000ECEF1DF0EEEF1DF0FCEF1DF0940E886F82
:103BE000896B8B6B010E8A6FD70E8C6FCAEC18F045
:103BF00094C0AEFFFDEF1DF09D98120051EC20F037
:103C0000EA0E0101006F3F0E016F000E026F4AECD9
:103C10001DF08C0E0101006F3B0E016F000E026F54
:103C20004AEC1DF09D8A000E0101036F030E046F24
:103C3000066BC80E056F086B010E076FE10E096F6A
:103C4000D2EC1FF0000E0101036F040E046F066B2F
:103C5000C80E056F086B010E076FD70E096FD2EC07
:103C60001FF012009DA837EF1EF039EF1EF062EF33
:103C70001EF09EA83EEF1EF040EF1EF062EF1EF019
:103C8000386A000E376E370E026E036AD70E046E66
:103C9000E2EC17F037503810D8B451EF1EF053EF64
:103CA0001EF061EF1EF0360E2A6E2B6A2D6A010E91
:103CB0002C6ED70E2E6E3CEC19F036C0AEFF62EFC4
:103CC0001EF09D9812000101056B000E046F83EF3A
:103CD0001EF004510025D96E05510121DA6EDF5026
:103CE000D8B475EF1EF077EF1EF079EF1EF081EF7C
:103CF0001EF0044B052B04C100F105C101F192EF48
:103D00001EF0044B052B0251045D03510559D8A048
:103D10008CEF1EF08EEF1EF069EF1EF002C100F175
:103D200003C101F11200CFC008F1D0C009F1D1C028
:103D30000AF1D2C00BF1010108510001CF5D010170
:103D4000046F09510001D0590101056F0A510001AA
:103D5000D1590101066F0B510001D2590101076FC2
:103D60000051045D0151055902510659035107598B
:103D7000D8A0BDEF1EF0BFEF1EF09BEF1EF01200AB
:103D800004EE00F0C80EEE6AE806FDE103EE00F076
:103D9000C80EEE6AE806FDE102EEC8F0080EEE6A13
:103DA000E806FDE101EE5BF04B0EEE6AE806FDE190
:103DB00000EEA7F0440EEE6AE806FDE100EE46F0E4
:103DC000100EEE6AE806FDE101900192000EF86E19
:103DD00000011CEF12F002C109F103C10AF100C198
:103DE00007F101C108F105EF1FF009C1D9FF0AC1B0
:103DF000DAFFDF50066F094B0A2B07C1D9FF08C154
:103E0000DAFF06C1DFFF074B082B01010407D8A02A
:103E10000507042906E10529D8A411EF1FF013EFC7
:103E20001FF0F5EF1EF0120062C068F063C069F089
:103E300060C066F061C067F02EEF1FF068C0D9FF68
:103E400069C0DAFFDF506A6F684B692B66C0D9FF23
:103E500067C0DAFF6AC0DFFF664B672B00016407AB
:103E6000D8A06507642906E16529D8A43AEF1FF0B8
:103E70003CEF1FF01EEF1FF0120004C00AF005C057
:103E80000BF002C008F003C009F057EF1FF00AC0A2
:103E9000D9FF0BC0DAFFDF500C6E0A4A0B2A08C0AC
:103EA000D9FF09C0DAFF0CC0DFFF084A092A06065D
:103EB000D8A00706062806E10728D8A462EF1FF05D
:103EC00064EF1FF047EF1FF0120039C13CF178EFAB
:103ED0001FF037C128F138C129F13C0E01012A6FCA
:103EE000010E2B6F3AC12CF13BC12DF136EC08F0DD
:103EF0003CC1F6FF100EF76E0800F5500009D8A47B
:103F000084EF1FF086EF1FF069EF1FF00101386B9F
:103F1000000E376F1200400E0101486F010E496F0D
:103F20003DC14AF13EC14BF14D6B000E4C6F546BDD
:103F3000000E536F4A0E376F010E386F3FC139F1D3
:103F4000480E3A6F010E3B6F65EC1FF001014C51BA
:103F50003D25D96E4D513E21DA6EDF6A1200010116
:103F60000F6B000E0E6FC1EF1FF00DC100F1016B62
:103F70000BC102F10CC103F1ABEC19F001010E4BC6
:103F80000F2B0E510925D96E0F510A21DA6EDF5021
:103F90000D6F0D51D8A4CFEF1FF0D1EF1FF0B5EF8B
:103FA0001FF0120001010951D96EDA6A060ED926F6
:103FB00005C1DEFF06C1DDFF0951D96EDA6A080EC0
:103FC000D92607C1DEFF08C1DDFF0951D96EDA6AC3
:103FD00003C1DEFF04C1DDFF09C100F116EC20F0D2
:103FE00001010951D96EDA6A120001A2FAEF1FF03D
:103FF0006CEF20F09DAAFFEF1FF001EF20F015EF0E
:1040000020F09EAA06EF20F008EF20F015EF20F038
:10401000AFCF8CF08C0E00016D6F6E6B706B010E6C
:104020006F6FE10E716F6CEC0BF01200010100512B
:10403000D96EDA6ADE50DE10D8A421EF20F023EF2B
:1040400020F025EF20F035EF20F00051D96EDA6A2C
:10405000020ED926DE6ADD6A0051E16EE26A040EC4
:10406000E126DECFE6FFDDCFE5FF120001010BBF49
:104070003CEF20F03EEF20F044EF20F00AC10AF1BF
:104080000BC10BF150EF20F00AC10CF10BC10DF187
:104090000C1F0D1F0C4B0D2B0CC10AF10DC10BF1A8
:1040A0001200AC9EAD9A948E949CAC9CAC9AAD8E52
:1040B000AD9CAD98AD847E907E9A7E987E867F6A18
:1040C000330EB06EAD8AAC889D989D8A9F9A9F985A
:1040D0009E9A9E98AC8E12009DAA71EF20F073EF0D
:1040E00020F086EF20F09EAA78EF20F07AEF20F003
:1040F00086EF20F0AFCF2EF02E0E0F6E106A126AF0
:10410000010E116EE10E136E02EC0DF012004F6AFB
:10411000000E4E6E4E50D30FD96EDA6ADF50010199
:10412000006F00470047C2500019C30B0019C26E50
:104130009E9C9D8C010E526EC28212000101026F84
:1041400001010251020D5B0EF324D96E010EF42021
:10415000DA6EDECF00F1DDCF01F11200948094829F
:10416000CD86320E0101006F000E016F000E026F4E
:10417000000E036F93EC1EF01200CFC000F1D0C010
:1041800001F1D1C002F1D2C003F11200CFC002F0A0
:10419000D0C003F0D1C004F0D2C005F012000F016E
:1041A000550EA76EAA0EA76E3F8B12009B8CD08E69
:0C41B0000F0148691F0E496F1200120039
:08FFF800AEF74DFFF3F9FFF134
:00000001FF
