:0400000082EF00F09B
:06000800018249EF15F032
:100018000180D8CF60F0E8CF61F0E0CF62F0FACF8E
:1000280063F0FBCF64F0E1CF65F0E2CF66F0D9CFA3
:1000380067F0DACF68F0F3CF69F0F4CF6AF09DAAE1
:1000480028EF00F02AEF00F047EF00F09EAA2FEF0C
:1000580000F031EF00F047EF00F09E9A4E504F103D
:10006800D8B439EF00F03BEF00F047EF00F002D8CA
:1000780047EF00F00500FA6E4E50FD6E4F50FE6ED1
:10008800FF6AFA5012009DA84CEF00F04EEF00F006
:100098006AEF00F09EA853EF00F055EF00F06AEF0A
:1000A80000F04C504D10D8B45CEF00F05EEF00F05B
:1000B8006AEF00F002D86AEF00F00500FA6E4C50C3
:1000C800FD6E4D50FE6EFF6AFA5012006AC0F4FFD2
:1000D80069C0F3FF68C0DAFF67C0D9FF66C0E2FFF6
:1000E80065C0E1FF64C0FBFF63C0FAFF62C0E0FFC8
:1000F80061C0E8FF60C0D8FF01901000FCEF16F067
:10100000000A0D48656C6C6F2121210A0D54696D31
:10101000653A20256C640A0D456E74657220737400
:1010200072696E673A200A0D0A0D0048656C6C6F94
:101030002121210A0D54696D653A20256C640A0D41
:10104000456E74657220737472696E673A200A0D7A
:101050000054696D653A20256C640A0D456E74650F
:1010600072656420737472696E673A2025730A0D85
:10107000000000017A51D96EDA6ADFCFF6FF100E58
:10108000F76E0800F550250AD8A449EF08F04BEF99
:1010900008F0F8EF09F07A51D96EDA6ADF2AD16BDD
:1010A000000ED06FD0C0D6F0D269D3697A51D96E14
:1010B000DA6ADF50856F85C0F6FF100EF76E080004
:1010C000F5CF86F06EEF08F0852B7DEF08F0690E06
:1010D000866F7DEF08F0866B7DEF08F08651640A1D
:1010E000D8B467EF08F00D0AD8B467EF08F0050A26
:1010F000D8B464EF08F06BEF08F085C0F6FF100E6F
:10110000F76E0800F550640AD8B489EF08F08BEF49
:1011100008F0C2EF08F085C0F6FF100EF76E080069
:10112000F550690AD8A497EF08F099EF08F060EF3E
:1011300009F0C2EF08F07BC0D9FF7CC0DAFFDF50B6
:10114000DF2ADF2AD96EDA6ADECF81F0DDCF82F0C6
:10115000000E82BFFF0E836F846FCDEF08F07BC05F
:10116000D9FF7CC0DAFF040EDF26DF5CD96EDA6AB5
:10117000DECF81F0DECF82F0DECF83F0DECF84F0F1
:10118000CDEF08F08651690AD8B49BEF08F0050A44
:10119000D8B4AFEF08F0CDEF08F07A51D96EDA6A23
:1011A0008529DF6E200E866F84BFD9EF08F0DCEF53
:1011B00008F0010EDDEF08F0000E806F8607865103
:1011C000AC0FD96EDA6A81C06BF082C06CF083C05C
:1011D0006DF084C06EF00A0E6F6F000E706F000E1F
:1011E000716F000E726F67EC11F06BC075F06CC020
:1011F00076F039EC17F000017551300FDF6E81C0C9
:101200006BF082C06CF083C06DF084C06EF00A0E8B
:101210006F6F000E706F000E716F000E726FE1EC59
:1012200010F06BC081F06CC082F06DC083F06EC0B6
:1012300084F000018151821183118411D8B423EF0D
:1012400009F025EF09F02DEF09F08651D8A42BEF16
:1012500009F02DEF09F0DEEF08F08651D8B433EF36
:1012600009F035EF09F055EF09F08051D8B43BEFA4
:1012700009F03DEF09F055EF09F086078651AC0FF4
:10128000D96EDA6A2D0EDF6E55EF09F08651AC0F7C
:10129000D96EDA6ADF507D6F7D516B6F6C6B79C0F0
:1012A0006DF004EC14F00001862B200E8619D8A4F2
:1012B0005CEF09F05EEF09F046EF09F009EF0AF084
:1012C000806B7A51D96EDA6ADFCFF6FF100EF76EB7
:1012D0000800F550730AD8A470EF09F072EF09F016
:1012E0007AEF09F07A51D96EDA6ADF2A010E806F3F
:1012F000BCEF09F07A51D96EDA6ADFCFF6FF100E33
:10130000F76E0800F5506C0AD8A489EF09F08BEF4E
:1013100009F0BCEF09F07A51D96EDA6ADF507D6FBF
:10132000010E7D277DC0F6FF100EF76E0800F55008
:101330006C0AD8A49EEF09F0A0EF09F0BCEF09F009
:101340007A51D96EDA6ADF507D6F020E7D277DC03B
:10135000F6FF100EF76E0800F550730AD8A4B3EF2D
:1013600009F0B5EF09F0BCEF09F07A51D96EDA6AED
:10137000030EDF2676EF09F08051D8B4C2EF09F0F2
:10138000C4EF09F0F1EF09F07BC0D9FF7CC0DAFFB0
:10139000020EDF26DF5CD96EDA6ADECF7EF0DECFAA
:1013A0007FF0E3EF09F07EC0D9FF7FC0DAFFDF50A6
:1013B0007D6F7D516B6F6C6B79C06DF004EC14F038
:1013C00000017E4B7F2B7EC0D9FF7FC0DAFFDF504C
:1013D000D8A4EDEF09F0EFEF09F0D3EF09F009EF32
:1013E0000AF000017A51D96EDA6ADF2A09EF0AF0B1
:1013F0007A51D96EDA6ADFCFF6FF100EF76E080069
:10140000F5506B6F6C6B79C06DF004EC14F0F1EF7C
:1014100009F0120000017B51D96EDA6ADE50DE104D
:10142000D8A415EF0AF017EF0AF019EF0AF09EEFB3
:101430000BF07B51D96EDA6A060ED9267951DE5C43
:101440007A51DE58D8B027EF0AF029EF0AF02BEFD7
:101450000AF09EEF0BF077C08EF078C08FF0916BA2
:10146000000E906F7B51D96EDA6A040ED926DECF5A
:101470007CF0DDCF7DF07B51D96EDA6A060ED9267D
:10148000DECF7EF0DDCF7FF07C517E5D926F7D51AF
:101490007F59936F956B000E946F940E6B6F7BC0AA
:1014A0006CF0DDEC11F079C08CF07AC08DF00001A9
:1014B0007951925D7A519359D8B061EF0AF063EF98
:1014C0000AF0BFEF0AF07B51D96EDA6A080ED9260E
:1014D000DECF7CF0DDCF7DF07B51D96EDA6A040E71
:1014E000D926DECF7EF0DDCF7FF07C517E03F3CFB7
:1014F00080F0F4CF81F07F03F35081277D517E038C
:10150000F35081277B51D96EDA6ADECF82F0DDCFCE
:1015100083F0805182256B6F815183216C6F8EC067
:101520006DF08FC06EF07B51D96EDA6A080ED92645
:10153000DECF84F0DDCF85F092518403F3CF86F0C7
:10154000F4CF87F08503F350872793518403F3503A
:10155000872786C06FF087C070F0DDEC15F00001C2
:101560007B51D96EDA6A040ED926DE6ADD6A92C032
:1015700090F093C091F09251795F93517A5B7B51D7
:10158000D96EDA6A080ED926DECF7CF0DDCF7DF089
:101590007B51D96EDA6A040ED926DECF7EF0DDCF1C
:1015A0007FF07C517E03F3CF80F0F4CF81F07F0396
:1015B000F35081277D517E03F35081277B51D96EF3
:1015C000DA6ADECF82F0DDCF83F0805182256B6F47
:1015D000815183216C6F7B51D96EDA6A080ED9264E
:1015E000DECF84F0DDCF85F090518403F3CF86F019
:1015F000F4CF87F08503F350872791518403F3508C
:10160000872786518E256D6F87518F216E6F7B5195
:10161000D96EDA6A080ED926DECF88F0DDCF89F0E0
:1016200079518803F3CF8AF0F4CF8BF08903F3501C
:101630008B277A518803F3508B278AC06FF08BC0B9
:1016400070F0DDEC15F000017B51D96EDA6A040E02
:10165000D9267951DE267A51DD227B51D96EDA6A9C
:10166000060ED9267B51E16EE26A040EE126DE50B9
:10167000E65CDE50E658D8A040EF0BF042EF0BF0EE
:1016800054EF0BF07B51D96EDA6A060ED926DECF05
:101690007CF0DDCF7DF07B51D96EDA6A040ED9265D
:1016A0007C51DE5E7D51DD5A7B51D96EDA6A060EC1
:1016B000D926DECF7CF0DDCF7DF094517C5F955153
:1016C0007D5B7C518C5D7D518D59D8A06AEF0BF00C
:1016D0006CEF0BF082EF0BF07B51D96EDA6A040EDF
:1016E000D926DECF7CF0DDCF7DF0010E7C27000E09
:1016F0007D237B51D96EDA6A020ED9267CC0DEFFCB
:101700007DC0DDFF7B51D96EDA6A060ED9267B518A
:10171000E16EE26A020EE126DE50E65CDE50E6583B
:10172000D8A095EF0BF097EF0BF09EEF0BF07B51ED
:10173000D96EDA6A020ED926DE6ADD6A12001C5002
:10174000D96EDA6ADE50DE10D8A4A9EF0BF0ABEF49
:101750000BF0ADEF0BF02FEF0DF01C50D96EDA6AE5
:10176000060ED9261A50DE5C1B50DE58D8B0BBEFEF
:101770000BF0BDEF0BF0BFEF0BF02FEF0DF018C02B
:101780002FF019C030F0326A000E316E1C50D96E45
:10179000DA6A040ED926DECF1DF0DDCF1EF01C5014
:1017A000D96EDA6A060ED926DECF1FF0DDCF20F023
:1017B0001D501F5C356E1E502058366E346A000E68
:1017C000336E330E0C6E1CC00DF051EC12F01AC0CB
:1017D0002DF01BC02EF01A50355C1B503658D8B077
:1017E000F4EF0BF0F6EF0BF051EF0CF01C50D96E4C
:1017F000DA6A080ED926DECF1DF0DDCF1EF01C50B0
:10180000D96EDA6A040ED926DECF1FF0DDCF20F0C4
:101810001D501F02F3CF21F0F4CF22F02002F3502D
:1018200022261E501F02F35022261C50D96EDA6A5F
:10183000DECF23F0DDCF24F0215023240C6E225084
:1018400024200D6E2FC00EF030C00FF01C50D96E4A
:10185000DA6A080ED926DECF25F0DDCF26F0355026
:101860002502F3CF27F0F4CF28F02602F3502826E4
:1018700036502502F350282627C010F028C011F05A
:1018800006EC16F01C50D96EDA6A040ED926DE6A10
:10189000DD6A35C031F036C032F035501A5E365050
:1018A0001B5A1C50D96EDA6A080ED926DECF1DF0FD
:1018B000DDCF1EF01C50D96EDA6A040ED926DECFB9
:1018C0001FF0DDCF20F01D501F02F3CF21F0F4CF29
:1018D00022F02002F35022261E501F02F35022262F
:1018E0001C50D96EDA6ADECF23F0DDCF24F0215010
:1018F00023240C6E225024200D6E1C50D96EDA6AFF
:10190000080ED926DECF25F0DDCF26F03150250296
:10191000F3CF27F0F4CF28F02602F35028263250D8
:101920002502F350282627502F240E6E28503020F1
:101930000F6E1C50D96EDA6A080ED926DECF29F058
:10194000DDCF2AF01A502902F3CF2BF0F4CF2CF080
:101950002A02F3502C261B502902F3502C262BC0B0
:1019600010F02CC011F006EC16F01C50D96EDA6A9B
:10197000040ED9261A50DE261B50DD221C50D96ECB
:10198000DA6A060ED9261C50E16EE26A040EE126E0
:10199000DE50E65CDE50E658D8A0D1EF0CF0D3EF75
:1019A0000CF0E5EF0CF01C50D96EDA6A060ED92661
:1019B000DECF1DF0DDCF1EF01C50D96EDA6A040EAA
:1019C000D9261D50DE5E1E50DD5A1C50D96EDA6AD3
:1019D000060ED926DECF1DF0DDCF1EF033501D5E82
:1019E00034501E5A1D502D5C1E502E58D8A0FBEFAF
:1019F0000CF0FDEF0CF013EF0DF01C50D96EDA6A0D
:101A0000040ED926DECF1DF0DDCF1EF0010E1D26FF
:101A1000000E1E221C50D96EDA6A020ED9261DC095
:101A2000DEFF1EC0DDFF1C50D96EDA6A060ED92615
:101A30001C50E16EE26A020EE126DE50E65CDE50EA
:101A4000E658D8A026EF0DF028EF0DF02FEF0DF09F
:101A50001C50D96EDA6A020ED926DE6ADD6A1200DF
:101A6000000177517811D8A438EF0DF03AEF0DF05E
:101A70003DEF0DF0020E5CEF0EF07B51D96EDA6A8D
:101A8000060ED9267951DE5C7A51DE58D8B04BEF7C
:101A90000DF04DEF0DF050EF0DF0030E5CEF0EF07A
:101AA0007B51D96EDA6A020ED9267B51E16EE26A69
:101AB000040EE126DE50E61807E1DE50E618D8A451
:101AC00064EF0DF066EF0DF069EF0DF0040E5CEFC2
:101AD0000EF0916B000E906F900E6B6F7BC06CF0F0
:101AE000DDEC11F000017951905D7A519159D8B037
:101AF0007CEF0DF07EEF0DF082EF0DF090C079F0ED
:101B000091C07AF08B6B000E8A6F7B51D96EDA6AC6
:101B1000020ED926DECF7CF0DDCF7DF07B51D96E71
:101B2000DA6A060ED926DECF7EF0DDCF7FF07C515B
:101B30007E5D8E6F7D517F598F6F7B51D96EDA6AD2
:101B4000020ED926DECF8CF0DDCF8DF079518E5D7F
:101B50007A518F59D8B0AFEF0DF0B1EF0DF000EF23
:101B60000EF077C06BF078C06CF07B51D96EDA6AFA
:101B7000080ED926DECF7CF0DDCF7DF08C517C03C2
:101B8000F3CF7EF0F4CF7FF07D03F3507F278D51AC
:101B90007C03F3507F277B51D96EDA6ADECF80F069
:101BA000DDCF81F07E5180256D6F7F5181216E6F79
:101BB0007B51D96EDA6A080ED926DECF82F0DDCFEE
:101BC00083F08E518203F3CF84F0F4CF85F083034A
:101BD000F35085278F518203F350852784C06FF01F
:101BE00085C070F0DDEC15F000018D6B000E8C6F80
:101BF0008EC08AF08FC08BF08E51795F8F517A5BE7
:101C00007B51D96EDA6A080ED926DECF7CF0DDCFA3
:101C10007DF08A517C03F3CF7EF0F4CF7FF07D031B
:101C2000F3507F278B517C03F3507F277E5177251C
:101C30006B6F7F5178216C6F7B51D96EDA6A080E19
:101C4000D926DECF80F0DDCF81F08C518003F3CF39
:101C500082F0F4CF83F08103F35083278D5180030A
:101C6000F35083277B51D96EDA6ADECF84F0DDCF63
:101C700085F0825184256D6F835185216E6F7B5174
:101C8000D96EDA6A080ED926DECF86F0DDCF87F06E
:101C900079518603F3CF88F0F4CF89F08703F350AE
:101CA00089277A518603F350892788C06FF089C04D
:101CB00070F0DDEC15F0000E120018501910D8A4C9
:101CC00064EF0EF066EF0EF069EF0EF0020E86EF95
:101CD0000FF01C50D96EDA6A060ED9261A50DE5C57
:101CE0001B50DE58D8B077EF0EF079EF0EF07CEF96
:101CF0000EF0030E86EF0FF01C50D96EDA6A020E5A
:101D0000D9261C50E16EE26A040EE126DE50E61888
:101D100007E1DE50E618D8A490EF0EF092EF0EF037
:101D200095EF0EF0040E86EF0FF0306A000E2F6E66
:101D30002F0E0C6E1CC00DF051EC12F01A502F5CDF
:101D40001B503058D8B0A7EF0EF0A9EF0EF0ADEF52
:101D50000EF02FC01AF030C01BF02C6A000E2B6E54
:101D60001C50D96EDA6A020ED926DECF1DF0DDCF07
:101D70001EF01C50D96EDA6A060ED926DECF1FF08F
:101D8000DDCF20F01D501F5C316E1E502058326E8A
:101D90001C50D96EDA6A020ED926DECF2DF0DDCFC7
:101DA0002EF01A50315C1B503258D8B0DAEF0EF0DA
:101DB000DCEF0EF02AEF0FF018C00CF019C00DF098
:101DC0001C50D96EDA6A080ED926DECF1DF0DDCFA1
:101DD0001EF02D501D02F3CF1FF0F4CF20F01E0295
:101DE000F35020262E501D02F35020261C50D96E91
:101DF000DA6ADECF21F0DDCF22F01F5021240E6EF3
:101E0000205022200F6E1C50D96EDA6A080ED92697
:101E1000DECF23F0DDCF24F031502302F3CF25F0C5
:101E2000F4CF26F02402F350262632502302F3503A
:101E3000262625C010F026C011F006EC16F02E6AFA
:101E4000000E2D6E31C02BF032C02CF031501A5ED6
:101E500032501B5A1C50D96EDA6A080ED926DECFD2
:101E60001DF0DDCF1EF02B501D02F3CF1FF0F4CF7D
:101E700020F01E02F35020262C501D02F350202685
:101E80001F5018240C6E205019200D6E1C50D96E56
:101E9000DA6A080ED926DECF21F0DDCF22F02D50F0
:101EA0002102F3CF23F0F4CF24F02202F3502426B2
:101EB0002E502102F35024261C50D96EDA6ADECF50
:101EC00025F0DDCF26F0235025240E6E2450262049
:101ED0000F6E1C50D96EDA6A080ED926DECF27F0B5
:101EE000DDCF28F01A502702F3CF29F0F4CF2AF0E3
:101EF0002802F3502A261B502702F3502A2629C015
:101F000010F02AC011F006EC16F0000E1200500E70
:101F100000016B6FE30E6C6FDDEC11F050500001AF
:101F2000A025A46F5150A121A56FA55109E1C90EAB
:101F3000A45DD8A09EEF0FF0A0EF0FF0A4EF0FF07C
:101F40009E699F694FEF10F050505110D8B4ABEF1D
:101F50000FF0ADEF0FF04BEF10F050504A1809E1C1
:101F600051504B18D8B4B7EF0FF0B9EF0FF0F5EFB1
:101F70000FF0A051505CA1515158D8A0C2EF0FF002
:101F8000C4EF0FF0E1EF0FF09EC092F09FC093F00E
:101F9000A0C094F0A1C095F0E30E966FC4EC12F0CF
:101FA0004B6A000E4A6E0001A0519E25D96EA151C8
:101FB0009F21DA6EDF6AA0C09EF0A1C09FF04FEFB4
:101FC00010F050C04AF051C04BF061EC17F06BC0FC
:101FD00042F06CC043F06DC044F06EC045F00001AB
:101FE0009F6B000E9E6F4FEF10F061EC17F04250A8
:101FF00000016B5DA46F43506C59A56F44506D593F
:10200000A66F45506E59A76FA251A86FA351A96F33
:10201000AA6BAB6BA451A85DA551A959A651AA59A9
:10202000A751AB59D8B017EF10F019EF10F04BEFE4
:1020300010F05050A05D5150A159D8A022EF10F0DF
:1020400024EF10F02AEF10F050C050F051C051F0C2
:102050002EEF10F0A0C050F0A1C051F09EC092F041
:102060009FC093F050C094F051C095F0E30E966F6E
:10207000C4EC12F0505000019E25D96E51509F21A2
:10208000DA6EDF6A4B6A000E4A6E50C09EF051C095
:102090009FF04FEF10F0FF0E9F6FFE0E9E6F12002D
:1020A00073EC17F00A0E0001786F2A0E796FA3EC1B
:1020B00013F0B2EC15F09598640E00018B6F010ED1
:1020C0008C6F2B0E8D6F61EC17F06BC08EF06CC0B7
:1020D0008FF06DC090F06EC091F01BEC17F0640EA5
:1020E00000019E6F010E9F6FA16B320EA06FB5ECC9
:1020F00014F00F0E00016B6F000E6C6F000E6D6F11
:10210000000E6E6F2EEC16F0000E00019E6F010E99
:102110009F6FA16B320EA06FA36B050EA26F87ECB1
:102120000FF000019FBF9DEF10F09F5108E19E0549
:10213000D8A09DEF10F09FEF10F084EF10F0640E28
:102140008B6F010E8C6F510E8D6F61EC17F06BC0B1
:102150008EF06CC08FF06DC090F06EC091F0000EEC
:102160000001926F010E936F1BEC17F0640E0001DB
:102170009E6F010E9F6FA16B640EA06FB5EC14F003
:10218000640E00018B6F010E8C6F010E8D6F61EC80
:1021900017F06BC08EF06CC08FF06DC090F06EC009
:1021A00091F01BEC17F0640E00019E6F010E9F6F03
:1021B000A16B640EA06FB5EC14F084EF10F082EF09
:1021C00000F00001746B72BFEAEF10F0E8EF10F05E
:1021D000F4EF10F0721F711F701F6F6D000E7023EF
:1021E00071237223010E746F6EBFFBEF10F0F9EFD5
:1021F00010F005EF11F06E1F6D1F6C1F6B6D000E60
:102200006C236D236E23010E741B000E756F000E80
:10221000766F000E776F000E786F6F51701171112D
:102220007211D8B416EF11F018EF11F04EEF11F053
:10223000010E736F22EF11F0D8906F37703771373E
:102240007237732B72AF27EF11F029EF11F01CEFEB
:1022500011F0D89075377637773778376F516B5DD7
:1022600070516C5971516D5972516E59D8A03BEF34
:1022700011F03DEF11F046EF11F06F516B5F7051AF
:102280006C5B71516D5B72516E5B7581D89072336E
:10229000713370336F33732F29EF11F07451D8B449
:1022A00054EF11F056EF11F05EEF11F0781F771F29
:1022B000761F756D000E76237723782375C06BF03B
:1022C00076C06CF077C06DF078C06EF0120000013F
:1022D000746B6EBF70EF11F06EEF11F07AEF11F0CA
:1022E0006E1F6D1F6C1F6B6D000E6C236D236E23B4
:1022F000010E746F72BF81EF11F07FEF11F089EF63
:1023000011F0721F711F701F6F6D000E702371230B
:1023100072236F51701171117211D8B492EF11F0D4
:1023200094EF11F0C4EF11F0010E736F9EEF11F0F6
:10233000D8906F37703771377237732B72AFA3EF46
:1023400011F0A5EF11F098EF11F06F516B5D705126
:102350006C5971516D5972516E59D8A0B2EF11F08C
:10236000B4EF11F0BCEF11F06F516B5F70516C5B0B
:1023700071516D5B72516E5BD890723371337033F3
:102380006F33732FA5EF11F07451D8B4CAEF11F069
:10239000CCEF11F0D4EF11F06E1F6D1F6C1F6B6D41
:1023A000000E6C236D236E236BC06BF06CC06CF061
:1023B0006DC06DF06EC06EF0120000016C51D96EF0
:1023C000DA6ADE50DE10D8A4E8EF11F0EAEF11F07F
:1023D000ECEF11F050EF12F06C51D96EDA6A020E88
:1023E000D9266C51E16EE26A040EE126DE50E65C0D
:1023F000DE50E658D8B0FFEF11F001EF12F031EFE8
:1024000012F06C51D96EDA6A040ED926DECF6DF067
:10241000DDCF6EF06C51D96EDA6A020ED926DECFAE
:102420006FF0DDCF70F06C51D96EDA6A060ED926E6
:10243000DECF71F0DDCF72F06F51715D736F70514F
:102440007259746F6D517325756F6E517421766F6B
:102450006B51D96EDA6A75C0DEFF76C0DDFF50EFD2
:1024600012F06C51D96EDA6A020ED926DECF6DF009
:10247000DDCF6EF06C51D96EDA6A040ED926DECF4C
:102480006FF0DDCF70F06D516F5D716F6E517059EF
:10249000726F6B51D96EDA6A71C0DEFF72C0DDFFF8
:1024A00012000D50D96EDA6ADE50DE10D8A45BEF50
:1024B00012F05DEF12F05FEF12F0C3EF12F00D506B
:1024C000D96EDA6A020ED9260D50E16EE26A040E68
:1024D000E126DE50E65CDE50E658D8B072EF12F02E
:1024E00074EF12F0A4EF12F00D50D96EDA6A040EF8
:1024F000D926DECF0EF0DDCF0FF00D50D96EDA6A9F
:10250000020ED926DECF10F0DDCF11F00D50D96EBE
:10251000DA6A060ED926DECF12F0DDCF13F01050A6
:10252000125C146E11501358156E0E501424166E52
:102530000F501520176E0C50D96EDA6A16C0DEFFE8
:1025400017C0DDFFC3EF12F00D50D96EDA6A020E2C
:10255000D926DECF0EF0DDCF0FF00D50D96EDA6A3E
:10256000040ED926DECF10F0DDCF11F00E50105C36
:10257000126E0F501158136E0C50D96EDA6A12C0D9
:10258000DEFF13C0DDFF120000019651D96EDA6A3A
:10259000DE50DE10D8A4CFEF12F0D1EF12F0D3EF5F
:1025A00012F034EF13F09D6B000E9C6F9C0E6B6F5E
:1025B00096C06CF0DDEC11F0000194519C5D9551DA
:1025C0009D59D8B0E6EF12F0E8EF12F0ECEF12F000
:1025D0009CC094F09DC095F092C077F093C078F0C5
:1025E00094C079F095C07AF096C07BF030EC0DF095
:1025F00000019B6F9B51D8B400EF13F002EF13F072
:1026000004EF13F034EF13F09651D96EDA6A020E2C
:10261000D9269451DE269551DD229651D96EDA6A7B
:10262000060ED9269651E16EE26A020EE126DE50D0
:10263000E65CDE50E658D8A020EF13F022EF13F04E
:1026400034EF13F09651D96EDA6A060ED926DECF32
:1026500097F0DDCF98F09651D96EDA6A020ED9263E
:102660009751DE5E9851DD5A12003750D96EDA6A02
:10267000DE50DE10D8A43FEF13F041EF13F043EF2C
:1026800013F0A2EF13F03E6A000E3D6E3D0E0C6E8D
:1026900037C00DF051EC12F035503D5C36503E58CD
:1026A000D8B055EF13F057EF13F05BEF13F03DC0C8
:1026B00035F03EC036F033C018F034C019F035C0E4
:1026C0001AF036C01BF037C01CF05DEC0EF03C6E0B
:1026D0003C50D8B46EEF13F070EF13F072EF13F0BC
:1026E000A2EF13F03750D96EDA6A020ED9263550B0
:1026F000DE263650DD223750D96EDA6A060ED9262C
:102700003750E16EE26A020EE126DE50E65CDE50F2
:10271000E658D8A08EEF13F090EF13F0A2EF13F06D
:102720003750D96EDA6A060ED926DECF38F0DDCF03
:1027300039F03750D96EDA6A020ED9263850DE5E8B
:102740003950DD5A1200D59ED59CD550F80B03099F
:10275000D56ED59AD596020E00017D6F000E7E6F64
:10276000000E7F6F000E806F826B000E816FC0EFD6
:1027700013F0D8907D377E377F378037814B822B9F
:10278000D550070B7A6F7B6B7A51815D8251800A3D
:102790007C6F7B51800A7C59D8A0D1EF13F0D3EF26
:1027A00013F0B9EF13F0E00E6B6F2E0E6C6F000E8E
:1027B0006D6F000E6E6F7DC06FF07EC070F07FC0D9
:1027C00071F080C072F062EC14F000016B510108EE
:1027D000836F000E6C55846F010E6D55856F000E72
:1027E0006E55866F83C0D8F084C0D7F0D8C0D6FFAE
:1027F000D7C0D7FF78C0D4F079C0D5F0F28EF28C74
:10280000F28AF294D58E120000016D51D8B40BEF0C
:1028100014F00DEF14F015EF14F06D51D8A413EF70
:1028200014F015EF14F01AEF14F06B5176EC17F06A
:1028300061EF14F06D51D96EDA6A090ED926DE50B7
:10284000DE10D8B426EF14F028EF14F041EF14F0A6
:102850006D51D96EDA6A090ED9266D51E16EE26AC0
:10286000020EE126DE50E65CE650800A726FDE5012
:10287000800A7259D8B03FEF14F041EF14F061EFC5
:1028800014F06D51D96EDA6A020ED926DECF6EF0E1
:10289000DDCF6FF06D51D96EDA6ADECF70F0DDCF2B
:1028A00071F06E517025D96E6F517121DA6E6BC067
:1028B000DFFF6D51D96EDA6A020ED926DE2A000ECC
:1028C000DD221200000E0001736F000E746F000E07
:1028D000756F000E766F6F51701171117211D8B44F
:1028E00074EF14F076EF14F0ACEF14F0010E776F84
:1028F00080EF14F0D8906F37703771377237772BBD
:1029000072AF85EF14F087EF14F07AEF14F0D890DF
:1029100073377437753776376F516B5D70516C59FB
:1029200071516D5972516E59D8A099EF14F09BEF07
:1029300014F0A4EF14F06F516B5F70516C5B715128
:102940006D5B72516E5B7381D890723371337033EB
:102950006F33772F87EF14F073C06BF074C06CF097
:1029600075C06DF076C06EF01200ED0E00016B6F59
:10297000D90E6C6FDDEC11F00001A051ED25A26FB6
:10298000A151EE21A36F010EA227000EA323A35194
:1029900009E1C90EA25DD8A0D0EF14F0D2EF14F077
:1029A000D4EF14F004EF15F09EC06BF09FC06CF0F4
:1029B000A0C06DF0A1C06EF082EC15F06BC0A4F069
:1029C0006CC0A5F09EC077F09FC078F0A4C079F0ED
:1029D000A5C07AF0D90E00017B6F0AEC0AF09EA820
:1029E000F4EF14F0F6EF14F004EF15F0A60E00016A
:1029F000926F936B956B010E946FD90E966FC4EC2A
:102A000012F0A6C0AEFF9D8812006AEC17F0465087
:102A1000025C066E47500358076E48500458086E13
:102A200049500558096E09500810071009E10B0EAE
:102A3000065CD8A01EEF15F020EF15F048EF15F05A
:102A40008C986AEC17F04650025C066E47500358AB
:102A5000076E48500458086E49500558096E0950D1
:102A600008100BE1E90E065C030E0758D8A03BEFF7
:102A700015F03DEF15F048EF15F08C886AEC17F073
:102A800002C046F003C047F004C048F005C049F05A
:102A90001200FACF0AF0FBCF0BF0F2AA52EF15F0BA
:102AA00054EF15F07CEF15F0F2A459EF15F05BEF41
:102AB00015F07CEF15F00001D851D626D7C0D7FF0E
:102AC000010ECC27000ECD23CE23CF23D451D51118
:102AD000D8B46DEF15F06FEF15F07BEF15F002D85D
:102AE0007BEF15F00500FA6ED451FD6ED551FE6EE8
:102AF000FF6AFA501200F2940BC0FBFF0AC0FAFF03
:102B0000019211000001706B000E6F6FA2EF15F0C3
:102B10006F516B25D96E70516C21DA6EDF50D8B4CD
:102B200094EF15F096EF15F098EF15F0A0EF15F073
:102B30006F4B702B6FC06BF070C06CF0B1EF15F085
:102B40006F4B702B6D516F5D6E517059D8A0ABEF0C
:102B500015F0ADEF15F088EF15F06DC06BF06EC09D
:102B60006CF01200A80E00016B6F2E0E6C6F320E0F
:102B70006D6F2D0E6E6F53EC16F09D8A000E0001E6
:102B80006E6F020E6F6F716BC80E706F736B010EFC
:102B9000726FE30E746F76EC16F0000E00016E6F2C
:102BA000030E6F6F716BC80E706F736B010E726FD7
:102BB000D90E746F76EC16F012006DC073F06EC013
:102BC00074F06BC071F06CC072F0F7EF15F073C069
:102BD000D9FF74C0DAFFDF50756F734B742B71C06F
:102BE000D9FF72C0DAFF75C0DFFF714B722B000195
:102BF0006F07D8A070076F2906E17029D8A403EFEA
:102C000016F005EF16F0E7EF15F012000EC014F005
:102C10000FC015F00CC012F00DC013F020EF16F02D
:102C200014C0D9FF15C0DAFFDF50166E144A152AFA
:102C300012C0D9FF13C0DAFF16C0DFFF124A132AF1
:102C40001006D8A01106102806E11128D8A42BEFF1
:102C500016F02DEF16F010EF16F01200CCC073F046
:102C6000CDC074F0CEC075F0CFC076F000017351C6
:102C7000CC5D6F6F7451CD59706F7551CE59716FB6
:102C80007651CF59726F6B516F5D6C5170596D51A8
:102C900071596E517259D8A050EF16F052EF16F0DC
:102CA00036EF16F01200AC9EAD9A948E949CAC9CBC
:102CB000AC9AAD8EAD9CAD98AD847E907E9A7E9898
:102CC0007E867F6A330EB06EAD8AAC886BC04EF0E4
:102CD0006CC04FF06DC04CF06EC04DF09D989D8A59
:102CE0009F9A9F989E9A9E98AC8E120000017451F4
:102CF000D96EDA6A060ED92670C0DEFF71C0DDFF1C
:102D00007451D96EDA6A080ED92672C0DEFF73C01C
:102D1000DDFF7451D96EDA6A6EC0DEFF6FC0DDFF71
:102D200074C06BF0DCEC16F000017451D96EDA6AF5
:102D30001200416A000E406E400E0C6ED90E0D6EF0
:102D400051EC12F040504110D8B4A9EF16F0ABEF9F
:102D500016F0B9EF16F03F0E336E346A366A010E84
:102D6000356ED90E376E35EC13F03FC0AEFFBAEFBB
:102D700016F09D98120088C08AF0C9EF16F087C03F
:102D800079F08A0E00017A6F89C07BF07C6B39EC98
:102D900008F08AC0F6FF100EF76E0800F550000923
:102DA000D8A4D5EF16F0D7EF16F0BFEF16F000015C
:102DB000886B000E876F120000016B51D96EDA6AC2
:102DC000DE50DE10D8A4E7EF16F0E9EF16F0EBEFD7
:102DD00016F0FBEF16F06B51D96EDA6A020ED926A7
:102DE000DE6ADD6A6B51E16EE26A040EE126DECF37
:102DF000E6FFDDCFE5FF120003EE00F0C80EEE6A3D
:102E0000E806FDE102EE00F0C80EEE6AE806FDE11C
:102E100000EEACF0430EEE6AE806FDE100EE42F093
:102E2000100EEE6AE806FDE101900192000EF86EC8
:102E3000000150EF10F08E0E0001946F8BC095F0E2
:102E40008CC096F0986B000E976F9F6B000E9E6F74
:102E5000950E876F8DC088F0940E896FBBEC16F0CD
:102E6000000197518B25D96E98518C21DA6EDF6A5B
:102E70001200000176BF3FEF17F041EF17F047EF68
:102E800017F075C075F076C076F053EF17F075C087
:102E900077F076C078F0771F781F774B782B77C064
:102EA00075F078C076F01200AFCF37F0370E186E9D
:102EB000196A1B6A010E1A6EE30E1C6E9FEC0BF072
:102EC0001200CCC06BF0CDC06CF0CEC06DF0CFC0A6
:102ED0006EF01200CCC002F0CDC003F0CEC004F002
:0E2EE000CFC005F012009B8CD08E12001200A5
:08FFF800AEF755FFF3F9FFF12C
:00000001FF
