:0400000083EF00F09A
:06000800018232EF3CF022
:100018000180D8CF87F0E8CF88F0E0CF89F0E1CF32
:100028008AF0E2CF8BF0D9CF8CF0DACF8DF0F3CF16
:100038008EF0F4CF8FF0F6CF90F0F7CF91F0F8CFA5
:1000480092F0F5CF93F09DAA2CEF00F02EEF00F080
:1000580037EF00F09EAA33EF00F035EF00F037EFEE
:1000680000F061EC3DF09DA83CEF00F03EEF00F0A1
:1000780047EF00F09EA843EF00F045EF00F047EF90
:1000880000F003EC40F09DAC4CEF00F04EEF00F0B8
:1000980057EF00F09EAC53EF00F055EF00F057EF2C
:1000A80000F095EC3FF0A0A85CEF00F05EEF00F0E8
:1000B80067EF00F0A1A863EF00F065EF00F067EFCD
:1000C80000F070EC2FF093C0F5FF92C0F8FF91C0DC
:1000D800F7FF90C0F6FF8FC0F4FF8EC0F3FF8DC00E
:1000E800DAFF8CC0D9FF8BC0E2FF8AC0E1FF89C06C
:1000F800E0FF88C0E8FF87C0D8FF01901000A5EF97
:100108003DF04FC1D9FF50C1DAFFDECFF6FFDDCF9A
:10011800F7FF0800F550250AD8A495EF00F097EFEF
:1001280000F07EEF09F04FC1D9FF50C1DAFFDE2A97
:10013800000EDD220001BF6B000EBE6FBEC0CAF00C
:10014800C069C1690101616BE9EF00F00001CA8172
:100158004FC1D9FF50C1DAFFDE2A000EDD22E9EFD8
:1001680000F00001CA83ACEF00F00001CA85ACEFD3
:1001780000F00001CA87ACEF00F00001CA89ACEFBB
:1001880000F0010E616FE9EF00F04FC1D9FF50C1D7
:10019800DAFFDECFF6FFDDCFF7FF0800F550200AC3
:1001A800D8B4BDEF00F0030AD8B4C1EF00F0080AD4
:1001B800D8B4B9EF00F0060AD8B4AAEF00F01D0AC7
:1001C800D8B4B5EF00F0C5EF00F001016151D8B423
:1001D800F0EF00F0F2EF00F0C9EF00F00001CAA163
:1001E800F8EF00F0FAEF00F0FBEF00F0CA934FC110
:1001F80094F050C195F051C196F052C197F0B2EC0D
:1002080039F094C0BEF095C0BFF00001BFBF11EF38
:1002180001F00FEF01F016EF01F0CA81BE6DBF1FAC
:10022800D8B0BF2B4FC1D9FF50C1DAFFDECFF6FFE0
:10023800DDCFF7FF0800F5502E0AD8A426EF01F00D
:1002480028EF01F03DEF01F04FC1D9FF50C1DAFFAF
:10025800DE2A000EDD224FC194F050C195F051C145
:1002680096F052C197F0B2EC39F094C0C0F095C046
:10027800C1F04FC1D9FF50C1DAFFDECFF6FFDDCFA5
:10028800F7FF0800F550630AD8A44DEF01F04FEFCF
:1002980001F077EF01F04FC1D9FF50C1DAFFDE2A34
:1002A800000EDD2251C1D9FF52C1DAFFDFCF53F171
:1002B800020EDE26DFCF54F1000EDD2253C1D9FF36
:1002C80054C1DAFFDF500101626F4DC19DF04EC18C
:1002D8009EF062C19FF0ADEC37F09DC04DF19EC01D
:1002E8004EF19AEF09F04FC1D9FF50C1DAFFDECFC6
:1002F8006BF1DDCF6CF16BC1F6FF6CC1F7FF080045
:10030800F5CF62F1B9EF01F06B4B6C2B6BC1F6FFC7
:100318006CC1F7FF0800F550680AD8A496EF01F001
:1003280098EF01F0EDEF01F0480E626F6B4B6C2B0C
:10033800EDEF01F06B4B6C2B6BC1F6FF6CC1F7FF57
:100348000800F5506C0AD8A4ACEF01F0AEEF01F04C
:10035800EDEF01F04C0E626F9AEF01F0690E626FDB
:10036800EDEF01F0626BEDEF01F001016251580A07
:10037800D8B4B2EF01F03C0AD8B4B2EF01F00C0ADD
:10038800D8B488EF01F0010AD8B4B2EF01F0030A3B
:10039800D8B49AEF01F0060AD8B49EEF01F0020A29
:1003A800D8B4B2EF01F0010AD8B4B2EF01F01B0AD9
:1003B800D8B49AEF01F0010AD8B4B2EF01F00D0AEF
:1003C800D8B4B2EF01F0020AD8B49AEF01F0B6EF50
:1003D80001F06BC1F6FF6CC1F7FF0800F550640A25
:1003E800D8B4F9EF01F0FBEF01F045EF03F06BC172
:1003F800F6FF6CC1F7FF0800F550690AD8A407EFAB
:1004080002F009EF02F092EF03F045EF03F051C15B
:10041800D9FF52C1DAFFDFCF53F1020EDE26DFCF5C
:1004280054F1000EDD2253C1D9FF54C1DAFFDECFEB
:1004380063F1DDCF64F1000E64BFFF0E656F666F78
:10044800676F686F696F6A6F68EF03F051C1D9FF12
:1004580052C1DAFFDFCF53F1020EDE26DFCF54F1AF
:10046800000EDD2253C1D9FF54C1DAFFDECF63F19C
:10047800DDCF64F1000E64BFFF0E656F666F676FB6
:10048800686F696F6A6F68EF03F051C1D9FF52C195
:10049800DAFFDFCF53F1020EDE26DFCF54F1000E74
:1004A800DD2253C1D9FF54C1DAFFDF50636F000E5C
:1004B80063BFFF0E646F656F666F676F686F696F04
:1004C8006A6F68EF03F051C1D9FF52C1DAFFDFCF7D
:1004D80053F1040EDE26DFCF54F1000EDD2253C1A6
:1004E800D9FF54C1DAFFDECF55F1DECF56F1DECFAA
:1004F80057F1DECF58F155C159F156C15AF157C1DC
:100508005BF158C15CF15D6B5CBF5D695DC15EF11B
:100518005DC15FF15DC160F159C163F15AC164F118
:100528005BC165F15CC166F15DC167F15EC168F1EF
:100538005FC169F160C16AF168EF03F051C1D9FF89
:1005480052C1DAFFDFCF53F1080EDE26DFCF54F1B8
:10055800000EDD2253C1D9FF54C1DAFFDECF55F1B9
:10056800DECF56F1DECF57F1DECF58F1DECF59F1AD
:10057800DECF5AF1DECF5BF1DECF5CF155C163F11E
:1005880056C164F157C165F158C166F159C167F1A7
:100598005AC168F15BC169F15CC16AF168EF03F0A7
:1005A80051C1D9FF52C1DAFFDFCF53F1020EDE2667
:1005B800DFCF54F1000EDD2253C1D9FF54C1DAFF59
:1005C800DECF63F1DDCF64F1000E64BFFF0E656F0F
:1005D800666F676F686F696F6A6F68EF03F051C184
:1005E800D9FF52C1DAFFDFCF53F1080EDE26DFCF85
:1005F80054F1000EDD2253C1D9FF54C1DAFFDECF1A
:1006080055F1DECF56F1DECF57F1DECF58F1DECF10
:1006180059F1DECF5AF1DECF5BF1DECF5CF155C187
:1006280063F156C164F157C165F158C166F159C10A
:1006380067F15AC168F15BC169F15CC16AF168EFA1
:1006480003F051C1D9FF52C1DAFFDFCF53F1020ED7
:10065800DE26DFCF54F1000EDD2253C1D9FF54C18D
:10066800DAFFDECF55F1DDCF56F155C163F156C142
:1006780064F1656B666B676B686B696B6A6B68EFD7
:1006880003F06251480AD8B449EF02F0040AD8B41A
:10069800A2EF02F0240AD8B42AEF02F0010AD8B473
:1006A8000BEF02F0030AD8B4F3EF02F0060AD8B44D
:1006B80067EF02F0180AD8B4D4EF02F00E0AD8B4E3
:1006C80025EF03F068EF03F0010E6B25536F000E62
:1006D8006C21546F4FC1D9FF50C1DAFF53C1DEFFFF
:1006E80054C1DDFF4DC100F14EC101F163C102F1FA
:1006F80064C103F165C104F166C105F167C106F182
:1007080068C107F169C108F16AC109F119EC24F05F
:1007180000C14DF101C14EF19AEF09F06BC1F6FF2E
:100728006CC1F7FF0800F550780AD8B49EEF03F0C3
:10073800A0EF03F0F2EF04F06BC1F6FF6CC1F7FF16
:100748000800F550580AD8B4ACEF03F0AEEF03F048
:10075800F2EF04F06BC1F6FF6CC1F7FF0800F5502B
:100768006F0AD8B4BAEF03F0BCEF03F0F2EF04F06D
:100778006BC1F6FF6CC1F7FF0800F550750AD8A4E5
:10078800C8EF03F0CAEF03F098EF05F0F2EF04F0BA
:1007980051C1D9FF52C1DAFFDFCF53F1020EDE2675
:1007A800DFCF54F1000EDD2253C1D9FF54C1DAFF67
:1007B800DECF55F1DDCF56F155C163F156C164F175
:1007C800656B666B676B686B696B6A6B15EF05F039
:1007D80051C1D9FF52C1DAFFDFCF53F1020EDE2635
:1007E800DFCF54F1000EDD2253C1D9FF54C1DAFF27
:1007F800DECF55F1DDCF56F155C163F156C164F135
:10080800656B666B676B686B696B6A6B15EF05F0F8
:1008180051C1D9FF52C1DAFFDFCF53F1020EDE26F4
:10082800DFCF54F1000EDD2253C1D9FF54C1DAFFE6
:10083800DF50556F5551636F646B656B666B676B03
:10084800686B696B6A6B15EF05F051C1D9FF52C12E
:10085800DAFFDFCF53F1040EDE26DFCF54F1000EAE
:10086800DD2253C1D9FF54C1DAFFDECF55F1DECF07
:1008780056F1DECF57F1DECF58F15551636F56511F
:10088800646F5751656F5851666F676B686B696B1A
:100898006A6B15EF05F051C1D9FF52C1DAFFDFCFFE
:1008A80053F1080EDE26DFCF54F1000EDD2253C1CE
:1008B800D9FF54C1DAFFDECF55F1DECF56F1DECFD6
:1008C80057F1DECF58F1DECF59F1DECF5AF1DECF46
:1008D8005BF1DECF5CF155C163F156C164F157C1DC
:1008E80065F158C166F159C167F15AC168F15BC138
:1008F80069F15CC16AF115EF05F051C1D9FF52C128
:10090800DAFFDFCF53F1020EDE26DFCF54F1000EFF
:10091800DD2253C1D9FF54C1DAFFDECF63F1DDCF49
:1009280064F1000E64BFFF0E656F666F676F686FD6
:10093800696F6A6F15EF05F051C1D9FF52C1DAFF2F
:10094800DFCF53F1080EDE26DFCF54F1000EDD2293
:1009580053C1D9FF54C1DAFFDECF55F1DECF56F1CE
:10096800DECF57F1DECF58F1DECF59F1DECF5AF1A5
:10097800DECF5BF1DECF5CF155C163F156C164F1A6
:1009880057C165F158C166F159C167F15AC168F19B
:100998005BC169F15CC16AF115EF05F051C1D9FF7E
:1009A80052C1DAFFDFCF53F1020EDE26DFCF54F15A
:1009B800000EDD2253C1D9FF54C1DAFFDECF55F155
:1009C800DDCF56F155C163F156C164F1656B666BB5
:1009D800676B686B696B6A6B15EF05F06251480AC3
:1009E800D8B40CEF04F0040AD8B44FEF04F0240A8A
:1009F800D8B4ECEF03F0010AD8B4CCEF03F0030A43
:100A0800D8B4A0EF04F0060AD8B429EF04F0180A05
:100A1800D8B481EF04F00E0AD8B4D2EF04F015EF81
:100A280005F0010E6B25536F000E6C21546F4FC1FA
:100A3800D9FF50C1DAFF53C1DEFF54C1DDFF80EF9B
:100A480005F04DC100F14EC101F163C102F164C16D
:100A580003F165C104F166C105F167C106F168C11A
:100A680007F169C108F16AC109F137EC2CF000C13E
:100A78004DF101C14EF19AEF09F04DC100F14EC19F
:100A880001F163C102F164C103F165C104F166C1FA
:100A980005F167C106F168C107F169C108F16AC1CA
:100AA80009F149EC2BF000C14DF101C14EF19AEF6B
:100AB80009F04DC100F14EC101F163C102F164C1F9
:100AC80003F165C104F166C105F167C106F168C1AA
:100AD80007F169C108F16AC109F16BC1F6FF6CC180
:100AE800F7FF0800F5CF0AF1AEEC26F000C14DF192
:100AF80001C14EF19AEF09F06BC1F6FF6CC1F7FF27
:100B08000800F550580AD8B45DEF05F0370AD8B494
:100B180025EF05F01A0AD8B441EF05F00D0AD8B44C
:100B28005DEF05F098EF05F06BC1F6FF6CC1F7FFBC
:100B38000800F5506E0AD8A4A4EF05F0A6EF05F05A
:100B48000BEF07F0D5EF06F051C1D9FF52C1DAFF1C
:100B5800DFCF53F1020EDE26DFCF54F1000EDD2287
:100B680053C1D9FF54C1DAFFDECF55F1DDCF56F1BD
:100B780055C1D9FF56C1DAFFA5C1DEFFA6C1DDFF09
:100B8800F8EF06F051C1D9FF52C1DAFFDFCF53F1B8
:100B9800020EDE26DFCF54F1000EDD2253C1D9FF4D
:100BA80054C1DAFFDECF55F1DDCF56F155C1D9FF7B
:100BB80056C1DAFFA5C1DEFFA6C1DDFFF8EF06F0DA
:100BC80051C1D9FF52C1DAFFDFCF53F1020EDE2641
:100BD800DFCF54F1000EDD2253C1D9FF54C1DAFF33
:100BE800DECF55F1DDCF56F155C1D9FF56C1DAFF39
:100BF800A5C1DFFFF8EF06F0A5C153F1A6C154F176
:100C0800000E54BFFF0E556F566F51C1D9FF52C128
:100C1800DAFFDFCF57F1020EDE26DFCF58F1000EE4
:100C2800DD2257C1D9FF58C1DAFFDECF59F1DDCF38
:100C38005AF159C1D9FF5AC1DAFF53C1DEFF54C175
:100C4800DEFF55C1DEFF56C1DEFFF8EF06F0A5C195
:100C580053F1A6C154F1000E54BFFF0E556F566FE5
:100C6800576F586F596F5A6F51C1D9FF52C1DAFF88
:100C7800DFCF5BF1020EDE26DFCF5CF1000EDD2256
:100C88005BC1D9FF5CC1DAFFDECF5DF1DDCF5EF17C
:100C98005DC1D9FF5EC1DAFF53C1DEFF54C1DEFF7B
:100CA80055C1DEFF56C1DEFF57C1DEFF58C1DEFF6A
:100CB80059C1DEFF5AC1DEFFF8EF06F051C1D9FF76
:100CC80052C1DAFFDFCF53F1020EDE26DFCF54F137
:100CD800000EDD2253C1D9FF54C1DAFFDECF55F132
:100CE800DDCF56F155C1D9FF56C1DAFFA5C1DEFFE8
:100CF800A6C1DDFFF8EF06F0A5C153F1A6C154F176
:100D0800000E54BFFF0E556F566F576F586F596FCF
:100D18005A6F51C1D9FF52C1DAFFDFCF5BF1020E22
:100D2800DE26DFCF5CF1000EDD225BC1D9FF5CC19E
:100D3800DAFFDECF5DF1DDCF5EF15DC1D9FF5EC1C7
:100D4800DAFF53C1DEFF54C1DEFF55C1DEFF56C1D5
:100D5800DEFF57C1DEFF58C1DEFF59C1DEFF5AC1B1
:100D6800DEFFF8EF06F051C1D9FF52C1DAFFDFCF3D
:100D780053F1020EDE26DFCF54F1000EDD2253C1FF
:100D8800D9FF54C1DAFFDECF55F1DDCF56F155C199
:100D9800D9FF56C1DAFFA5C1DEFFA6C1DDFFF8EF16
:100DA80006F06251480AD8B4E4EF05F0040AD8B452
:100DB8002BEF06F0240AD8B4C6EF05F0010AD8B420
:100DC800A8EF05F0030AD8B480EF06F0060AD8B4F5
:100DD80000EF06F0180AD8B462EF06F00E0AD8B48D
:100DE800B7EF06F0F8EF06F0010E6B25536F000E13
:100DF8006C21546F4FC1D9FF50C1DAFF53C1DEFFD8
:100E080054C1DDFF4E6B000E4D6F9AEF09F04FC1D4
:100E1800D9FF50C1DAFFDECFF6FFDDCFF7FF0800BC
:100E2800F550700AD8A41BEF07F01DEF07F050EF3C
:100E380007F04FC1D9FF50C1DAFFDE2A000EDD22CC
:100E48004DC100F14EC101F151C1D9FF52C1DAFFC4
:100E5800DFCF53F1020EDE26DFCF54F1000EDD2284
:100E680053C1D9FF54C1DAFFDECF55F1DDCF56F1BA
:100E780055C102F156C103F1046B056B066B076B94
:100E8800086B096B780E0A6FAEEC26F000C14DF1C5
:100E980001C14EF19AEF09F0616B4FC1D9FF50C102
:100EA800DAFFDECFF6FFDDCFF7FF0800F550730A53
:100EB800D8A461EF07F063EF07F06EEF07F04FC1BA
:100EC800D9FF50C1DAFFDE2A000EDD22010E616F64
:100ED800BEEF07F04FC1D9FF50C1DAFFDECFF6FFF2
:100EE800DDCFF7FF0800F5506C0AD8A47EEF07F0B5
:100EF80080EF07F0BEEF07F04FC1D9FF50C1DAFF0E
:100F0800DECF53F1DDCF54F1010E5327000E5423E9
:100F180053C1F6FF54C1F7FF0800F5506C0AD8A476
:100F280098EF07F09AEF07F0BEEF07F04FC1D9FF2F
:100F380050C1DAFFDECF53F1DDCF54F1020E532753
:100F4800000E542353C1F6FF54C1F7FF0800F550B3
:100F5800730AD8A4B2EF07F0B4EF07F0BEEF07F0BA
:100F6800030E4FC1D9FF50C1DAFFDE26000EDD2285
:100F78006AEF07F06151D8B4C4EF07F0C6EF07F085
:100F8800E6EF07F04DC19DF04EC19EF051C1D9FF6B
:100F980052C1DAFFDFCF53F1020EDE26DFCF54F164
:100FA800000EDD2253C1D9FF54C1DAFFDECF9FF016
:100FB800DDCFA0F025EC2DF09DC04DF19EC04EF187
:100FC8009AEF09F04FC1D9FF50C1DAFFDECF6BF1BC
:100FD800DDCF6CF16BC1F6FF6CC1F7FF0800F5CFF0
:100FE80062F102EF08F06B4B6C2B2DEF08F06C0EE2
:100FF800626F2DEF08F0626B2DEF08F06251410A25
:10100800D8B4FBEF07F0040AD8B4FBEF07F0030AE3
:10101800D8B4FBEF07F0010AD8B4FBEF07F00B0ACE
:10102800D8B4F7EF07F02D0AD8B4FBEF07F0040A9D
:10103800D8B4FBEF07F0030AD8B4FBEF07F0010AB6
:10104800D8B4FBEF07F00B0AD8B4F7EF07F0FFEFBF
:1010580007F06BC1F6FF6CC1F7FF0800F550610A95
:10106800D8B439EF08F03BEF08F0D3EF08F06BC1C4
:10107800F6FF6CC1F7FF0800F550410AD8B447EFF6
:1010880008F049EF08F0D3EF08F06BC1F6FF6CC128
:10109800F7FF0800F550650AD8B455EF08F057EF88
:1010A80008F0D3EF08F06BC1F6FF6CC1F7FF08003A
:1010B800F550450AD8B463EF08F065EF08F0D3EFB0
:1010C80008F06BC1F6FF6CC1F7FF0800F550660A1F
:1010D800D8B471EF08F073EF08F0D3EF08F06BC1E4
:1010E800F6FF6CC1F7FF0800F550460AD8B47FEF49
:1010F80008F081EF08F0D3EF08F06BC1F6FF6CC180
:10110800F7FF0800F550670AD8B48DEF08F08FEFA5
:1011180008F0D3EF08F06BC1F6FF6CC1F7FF0800C9
:10112800F550470AD8A49BEF08F09DEF08F04CEF64
:1011380009F0D3EF08F051C1D9FF52C1DAFFDFCF70
:1011480053F1040EDE26DFCF54F1000EDD2253C129
:10115800D9FF54C1DAFFDECF63F1DECF64F1DECF11
:1011680065F1DECF66F1DEEF08F051C1D9FF52C15B
:10117800DAFFDFCF53F1040EDE26DFCF54F1000E85
:10118800DD2253C1D9FF54C1DAFFDECF63F1DECFD0
:1011980064F1DECF65F1DECF66F1DEEF08F0625173
:1011A8004C0AD8B4B9EF08F0200AD8B49FEF08F079
:1011B800DEEF08F0010E6B25536F000E6C21546FA3
:1011C8004FC1D9FF50C1DAFF53C1DEFF54C1DDFF63
:1011D80024EF09F04DC110F14EC111F163C112F1B4
:1011E80064C113F165C114F166C115F16BC1F6FF55
:1011F8006CC1F7FF0800F5CF16F1C5EC10F010C16F
:101208004DF111C14EF19AEF09F04DC110F14EC1E7
:1012180011F163C112F164C113F165C114F166C122
:1012280015F16BC1F6FF6CC1F7FF0800F5CF16F199
:101238009BEC09F010C14DF111C14EF19AEF09F084
:101248006BC1F6FF6CC1F7FF0800F550410AD8B42E
:10125800EEEF08F0040AD8B409EF09F0030AD8B48D
:1012680009EF09F0010AD8B409EF09F0260AD8B441
:10127800EEEF08F0040AD8B409EF09F0030AD8B46D
:1012880009EF09F0010AD8B409EF09F04CEF09F0A9
:101298004FC1D9FF50C1DAFFDECFF6FFDDCFF7FF30
:1012A8000800F550250AD8A45CEF09F05EEF09F0B4
:1012B80075EF09F04FC1D9FF50C1DAFFDE2A000EE1
:1012C800DD220001956B250E946F4DC196F04EC13D
:1012D80097F081EC38F001014E6B010E4D6F9AEFDB
:1012E80009F04FC1D9FF50C1DAFFDE2A000EDD2216
:1012F80006EF07F04FC1D9FF50C1DAFFDECFF6FF86
:10130800DDCFF7FF0800F5500001946F956B4DC1D4
:1013180096F04EC197F081EC38F04FC1D9FF50C11B
:10132800DAFFDE2A000EDD226FEF09F0120001015C
:101338003E6B12C13FF113C140F114C141F115C117
:1013480042F142BFACEF09F0AAEF09F0C0EF09F093
:10135800010E3E6F3FC194F040C195F041C196F037
:1013680042C197F0CDEC42F094C03FF195C040F1F6
:1013780096C041F197C042F101014C6B000E4B6FD2
:10138800BEC034F1BFC035F13E51D8A4CEEF09F04C
:10139800D0EF09F0D8EF09F00001CAA5D6EF09F09F
:1013A800D8EF09F0EDEF09F001013E51D8A4DFEFC5
:1013B80009F0E1EF09F0E6EF09F01B6B2B0E1A6F4D
:1013C800E9EF09F01B6B2D0E1A6F1AC13EF1F7EF0A
:1013D80009F0CAA7F2EF09F0F4EF09F0F7EF09F006
:1013E800200E01013E6F3FC194F040C195F041C10C
:1013F80096F042C197F0DEEC34F0000194059511A7
:10140800D8A409EF0AF00BEF0AF062EF0AF0010125
:101418003E51D8B412EF0AF014EF0AF01CEF0AF0AC
:101428003EC140F23407D8A035074C6B010E4B6F14
:1014380016C117F1BF0E17271A0E176126EF0AF00B
:1014480028EF0AF039EF0AF0400E4B250001946F9F
:10145800020E01014C210001956FE60E966FFF0EFA
:10146800976F93EC42F048EF0AF0400E4B250001CD
:10147800946F020E01014C210001956FEE0E966FDC
:10148800FF0E976F93EC42F00101FD0E3427FF0E1B
:10149800352310C1A4F011C1A5F0400E0001A66FBC
:1014A800020EA76F34C1A8F035C1A9F075EC3AF067
:1014B800A4C010F1A5C011F1C4EF10F03FC194F021
:1014C80040C195F041C196F042C197F0DEEC34F08E
:1014D800000194519511D8A474EF0AF076EF0AF040
:1014E800B5EF0AF001013E51D8B47DEF0AF07FEF65
:1014F8000AF087EF0AF03EC140F23407D8A035075A
:101508004C6B010E4B6F16C117F1BF0E17271A0E41
:10151800176191EF0AF093EF0AF0A4EF0AF0400E7A
:101528004B250001946F020E01014C210001956FBB
:10153800EA0E966FFF0E976F93EC42F048EF0AF0B1
:10154800400E4B250001946F020E01014C21000151
:10155800956FF20E966FFF0E976F93EC42F048EF7F
:101568000AF0000E0101476F000E486F800E496FA8
:101578003F0E4A6F446B000E436F3FC194F040C169
:1015880095F041C196F042C197F0000E0001986FA6
:10159800000E996F000E9A6F000E9B6FDCEC3BF00B
:1015A8000001D8B0DAEF0AF0DCEF0AF0D6EF0BF062
:1015B800E9EF0AF030C147F131C148F132C149F1D0
:1015C80033C14AF10101434B442B47C194F048C150
:1015D80095F049C196F04AC197F0000E0001986F46
:1015E800000E996F200E9A6F410E9B6FA8EC19F0B0
:1015F80094C030F195C031F196C032F197C033F103
:10160800010130513F5D0001946F01013151405992
:101618000001956F0101325141590001966F010196
:10162800335142590001976F92EC40F0000197BF87
:1016380029EF0BF097519611951109E1020E945D6F
:10164800D8A029EF0BF02BEF0BF0DEEF0AF030C13A
:1016580000F131C101F132C102F133C103F13FC1DF
:1016680004F140C105F141C106F142C107F1B7ECEF
:1016780030F00101D8A043EF0BF045EF0BF0DEEF9F
:101688000AF047513F5D0001946F010148514059EC
:101698000001956F0101495141590001966F0101FF
:1016A8004A5142590001976F92EC40F0000197BFF0
:1016B8006BEF0BF097519611951107E1020E945DAF
:1016C800D8B069EF0BF06BEF0BF0BCEF0BF047C134
:1016D8003FF148C140F149C141F14AC142F1D6EF59
:1016E8000BF047C194F048C195F049C196F04AC142
:1016F80097F0000E0001986F000E996F200E9A6FF8
:10170800410E9B6F98EC1DF094C047F195C048F1CD
:1017180096C049F197C04AF101014307D8A0440790
:1017280047513F5D0001946F010148514059000144
:10173800956F0101495141590001966F01014A51C4
:1017480042590001976F92EC40F0000197BFBAEF41
:101758000BF097519611951107E1020E945DD8B0E0
:10176800B8EF0BF0BAEF0BF0BCEF0BF06BEF0BF030
:101778003FC100F140C101F141C102F142C103F191
:1017880047C104F148C105F149C106F14AC107F151
:10179800B7EC30F00101D8A0D4EF0BF0D6EF0BF086
:1017A80075EF0BF016C117F1BF0E01011727190EBF
:1017B8001765E1EF0BF0E3EF0BF0E8EF0BF016C164
:1017C8001CF11D6BF0EF0BF0200E16C117F1186B12
:1017D80017111C6F18511D6F1CC12FF12FC12EF14D
:1017E800670E2F19D8A4FBEF0BF0FDEF0BF023EFDA
:1017F8000CF00001C051C111D8A405EF0CF007EF9F
:101808000CF00AEF0CF0C16B010EC06FC1BF17EFEF
:101818000CF0C15106E1C005D8B015EF0CF017EF78
:101828000CF01DEF0CF001012D6B060E2C6F2DEF47
:101838000CF0C0C02CF1C1C02DF12DEF0CF000014F
:10184800C1BF29EF0CF02BEF0CF017EF0CF01DEFD8
:101858000CF0670E01012F19D8A435EF0CF037EF03
:101868000CF060EF0CF044AF45EF0CF0FC0E435D5C
:10187800FF0E4459D8A043EF0CF045EF0CF05EEF93
:101888000CF0FF0E2C25176FFF0E2D21186F4351FA
:10189800175D1851800A196F4451800A1959D8A048
:1018A80058EF0CF05AEF0CF05EEF0CF0660E2E6F4E
:1018B80060EF0CF0650E2E6F2CC128F12DC129F1B7
:1018C800670E2F19D8A46BEF0CF06DEF0CF07DEFBD
:1018D8000CF0660E2E19D8A474EF0CF076EF0CF00D
:1018E8007FEF0CF044BF7DEF0CF07BEF0CF07FEF47
:1018F8000CF0284B292B660E2E19D8A486EF0CF075
:1019080088EF0CF0A7EF0CF044BF8FEF0CF08DEFD1
:101918000CF09AEF0CF0000E476F000E486F800E27
:10192800496F3F0E4A6F446B000E436F670E2F19C5
:10193800D8B4A1EF0CF0A3EF0CF0A7EF0CF04351D3
:10194800282744512923466B000E456F3FC136F1C5
:1019580040C137F141C138F142C139F147C130F1D5
:1019680048C131F149C132F14AC133F138EF0DF0C4
:1019780036C194F037C195F038C196F039C197F067
:1019880047C198F048C199F049C19AF04AC19BF003
:1019980098EC1DF094C0ADF095C0AEF096C0AFF0D5
:1019A80097C0B0F03EEC2AF0ADC03AF1AEC03BF1C2
:1019B800AFC03CF1B0C03DF13AC194F03BC195F0E5
:1019C8003CC196F03DC197F057EC32F094C02AF133
:1019D80095C02BF136C100F137C101F138C102F1D0
:1019E80039C103F13AC198F03BC199F03CC19AF072
:1019F8003DC19BF047C194F048C195F049C196F0AC
:101A08004AC197F0A8EC19F094C004F195C005F10B
:101A180096C006F197C007F185EC41F000C136F198
:101A280001C137F102C138F103C139F147C194F05E
:101A380048C195F049C196F04AC197F0000E0001DF
:101A4800986F000E996F200E9A6F410E9B6F98EC5D
:101A58001DF094C047F195C048F196C049F197C070
:101A68004AF10101454B462B2851455D4651800AF4
:101A7800176F2951800A1759D8A045EF0DF047EF85
:101A88000DF0BCEF0CF047C194F048C195F049C186
:101A980096F04AC197F0000E0001986F000E996FFA
:101AA800A00E9A6F400E9B6FA8EC19F094C03AF103
:101AB80095C03BF196C03CF197C03DF136C100F1AD
:101AC80037C101F138C102F139C103F13AC104F15A
:101AD8003BC105F13CC106F13DC107F1B7EC30F05F
:101AE8000101D8B07AEF0DF07CEF0DF086EF0DF024
:101AF800000E3A6F000E3B6F000E3C6F000E3D6FFC
:101B0800B0EF0DF036C194F037C195F038C196F0BA
:101B180039C197F03AC198F03BC199F03CC19AF0AD
:101B28003DC19BF0DCEC3BF00001D8A09EEF0DF02E
:101B3800A0EF0DF0B0EF0DF001012AB1A6EF0DF006
:101B4800A8EF0DF0B0EF0DF0000E3A6F000E3B6FEE
:101B5800000E3C6F000E3D6F3FC194F040C195F000
:101B680041C196F042C197F03AC198F03BC199F053
:101B78003CC19AF03DC19BF04CEC17F094C036F193
:101B880095C037F196C038F197C039F136C100F1E8
:101B980037C101F138C102F139C103F1000E00016A
:101BA800986F000E996F200E9A6F410E9B6F30C18F
:101BB80094F031C195F032C196F033C197F0A8EC9A
:101BC80019F094C004F195C005F196C006F197C0CC
:101BD80007F1B7EC30F00101D8A0F5EF0DF0F7EF01
:101BE8000DF020EF0EF0434B442B30C194F031C17F
:101BF80095F032C196F033C197F0000E0001986F4E
:101C0800000E996F200E9A6F410E9B6FA8EC19F089
:101C180094C030F195C031F196C032F197C033F1DC
:101C2800660E01012E19D8A41CEF0EF01EEF0EF05F
:101C380020EF0EF0284B292B30C147F131C148F174
:101C480032C149F133C14AF1650E2E19D8B42FEFCC
:101C58000EF031EF0EF037EF0EF043C126F144C11C
:101C680027F13AEF0EF0276B000E266F256B246BD9
:101C7800000E236F466B000E456F50EF0FF036C114
:101C880094F037C195F038C196F039C197F047C143
:101C980098F048C199F049C19AF04AC19BF098EC74
:101CA8001DF094C0ADF095C0AEF096C0AFF097C0EF
:101CB800B0F03EEC2AF0ADC03AF1AEC03BF1AFC097
:101CC8003CF1B0C03DF13AC194F03BC195F03CC144
:101CD80096F03DC197F057EC32F0000195BF80EFC8
:101CE8000EF0955107E10A0E945DD8B07EEF0EF024
:101CF80080EF0EF090EF0EF03AC194F03BC195F0F2
:101D08003CC196F03DC197F057EC32F094C02AF1EF
:101D180095C02BF194EF0EF001012B6B090E2A6F81
:101D280001012A512B11D8A49CEF0EF09EEF0EF062
:101D3800BBEF0EF0670E2F19D8A4A5EF0EF0A7EF92
:101D48000EF0BBEF0EF027BFAEEF0EF0ACEF0EF0CB
:101D5800BBEF0EF00001CAB9B4EF0EF0B6EF0EF00B
:101D6800BBEF0EF00101234B242B03EF0FF0010111
:101D78002551D8A4C2EF0EF0C4EF0EF0ECEF0EF030
:101D880027BFCBEF0EF0C9EF0EF0ECEF0EF0400ED0
:101D98004B25D96E020E4C21DA6E2E0EDF6E4B4BA0
:101DA8004C2B3407D8A03507010E256FECEF0EF049
:101DB800400E4B25D96E020E4C21DA6E300EDF6EC6
:101DC8004B4B4C2B3407D8A035072307D8A0240742
:101DD80023512411D8A4F3EF0EF0F5EF0EF0DCEF49
:101DE8000EF0400E4B25D96E020E4C21DA6E2A51A8
:101DF800300FDF6E4B4B4C2B3407D8A0350736C15C
:101E080000F137C101F138C102F139C103F13AC11A
:101E180098F03BC199F03CC19AF03DC19BF047C195
:101E280094F048C195F049C196F04AC197F0A8ECE2
:101E380019F094C004F195C005F196C006F197C059
:101E480007F185EC41F000C136F101C137F102C15B
:101E580038F103C139F147C194F048C195F049C13F
:101E680096F04AC197F0000E0001986F000E996F26
:101E7800200E9A6F410E9B6F98EC1DF094C047F1AD
:101E880095C048F196C049F197C04AF1010126076B
:101E9800D8A02707454B462B2851455D4651800A57
:101EA800176F2951800A1759D8B05DEF0FF05FEF0F
:101EB8000FF06DEF0FF04CBF6BEF0FF04C5109E1D5
:101EC8004B0E4B5DD8A06BEF0FF06DEF0FF043EFAB
:101ED8000EF02551D8A473EF0FF075EF0FF088EFCF
:101EE8000FF00001CAA97BEF0FF07DEF0FF088EF2C
:101EF8000FF0400E01014B25D96E020E4C21DA6E0F
:101F08002E0EDF6E4B4B4C2B0101466B4F0E456F6F
:101F1800400E4525D96E020E4621DA6EDF6A650E3F
:101F28002E19D8A49AEF0FF09CEF0FF030EF10F0B5
:101F3800226B44BFA4EF0FF0A2EF0FF0AAEF0FF04F
:101F4800010E226F436D441FD8B0442B2D6B020E37
:101F58002C6FDAEF0FF04507D8A04607400E45254D
:101F6800D96E020E4621DA6E43C194F044C195F051
:101F78000001976B0A0E966F84EC3BF000019451B8
:101F8800300FDF6E43C194F044C195F0976B0A0E91
:101F9800966F14EC3AF094C043F195C044F10101F6
:101FA8002C07D8A02D073407D8A035074351441172
:101FB800D8A4E1EF0FF0E3EF0FF0AFEF0FF02DBF74
:101FC800F0EF0FF02D5106E12C05D8B0EEEF0FF031
:101FD800F0EF0FF0AFEF0FF04507D8A046072251FA
:101FE800D8A4F9EF0FF0FBEF0FF000EF10F01F6B24
:101FF8002B0E1E6F03EF10F01F6B2D0E1E6F400E81
:102008004525D96E020E4621DA6E1EC1DFFF340760
:10201800D8A035074507D8A0460716C117F1BF0E47
:102028001727190E17651BEF10F01DEF10F022EFA0
:1020380010F0216B650E206F25EF10F0216B450E17
:10204800206F400E4525D96E020E4621DA6E20C15A
:10205800DFFF3407D8A03507400E176F020E186F40
:102068004B51175F4C51185B455117250001946F70
:102078000101465118210001956F400E966F020E1E
:10208800976F4BC198F04CC199F0BEEC40F001013C
:102098004B51455D4B6F4C5146594C6F3E51D8A43E
:1020A80058EF10F05BEF10F0010E5CEF10F0000E2F
:1020B800456F466B0001CAA364EF10F066EF10F09D
:1020C80095EF10F076EF10F04B07D8A04C07400EB4
:1020D8004B25D96E020E4C21DA6E300EDF6E3407B6
:1020E800D8A0350701013451455D4651800A176F64
:1020F8003551800A1759D8B084EF10F086EF10F0E8
:1021080095EF10F04B51455D4651800A176F4C51C1
:10211800800A1759D8A093EF10F095EF10F068EFE8
:1021280010F001013E51D8B49CEF10F09EEF10F072
:10213800A9EF10F04B07D8A04C07400E4B25D96EDD
:10214800020E4C21DA6E3EC1DFFF4551345F465125
:10215800355B10C1A4F011C1A5F0400E4B2500015C
:10216800A66F020E01014C210001A76F34C1A8F02F
:1021780035C1A9F075EC3AF0A4C010F1A5C011F171
:10218800120016C1B1F0BF0E0001B127190EB165DA
:10219800D0EF10F0D3EF10F0010ED4EF10F0000ED6
:1021A8000101166F3D6B12C139F113C13AF114C127
:1021B8003BF115C13CF13CBFE6EF10F0E4EF10F045
:1021C800FAEF10F0010E3D6F39C194F03AC195F065
:1021D8003BC196F03CC197F0CDEC42F094C039F188
:1021E80095C03AF196C03BF197C03CF10101476BAD
:1021F800000E466FBEC037F1BFC038F13D51D8A4BC
:1022080008EF11F00AEF11F012EF11F00001CAA562
:1022180010EF11F012EF11F027EF11F001013D510D
:10222800D8A419EF11F01BEF11F020EF11F01C6B7F
:102238002B0E1B6F23EF11F01C6B2D0E1B6F1BC198
:102248003DF131EF11F0CAA72CEF11F02EEF11F08C
:1022580031EF11F0200E01013D6F39C194F03AC100
:1022680095F03BC196F03CC197F0DEEC34F00001EC
:1022780094059511D8A443EF11F045EF11F098EFAC
:1022880011F001013D51D8B44CEF11F04EEF11F0AF
:1022980056EF11F03DC140F2476B010E466F37070C
:1022A800D8A038071651D8B45CEF11F05EEF11F0E2
:1022B8006FEF11F0400E46250001946F020E0101E8
:1022C80047210001956FE60E966FFF0E976F93EC0E
:1022D80042F07EEF11F0400E46250001946F020E89
:1022E800010147210001956FEE0E966FFF0E976F63
:1022F80093EC42F00101FD0E3727FF0E382310C181
:10230800A4F011C1A5F0400E0001A66F020EA76F40
:1023180037C1A8F038C1A9F075EC3AF0A4C010F1A3
:10232800A5C011F14BEF17F039C194F03AC195F0FF
:102338003BC196F03CC197F0DEEC34F000019451BB
:102348009511D8A4AAEF11F0ACEF11F0E7EF11F056
:1023580001013D51D8B4B3EF11F0B5EF11F0BDEF65
:1023680011F03DC140F2476B010E466F3707D8A008
:1023780038071651D8B4C3EF11F0C5EF11F0D6EFF6
:1023880011F0400E46250001946F020E010147210D
:102398000001956FEA0E966FFF0E976F93EC42F06F
:1023A8007EEF11F0400E46250001946F020E0101E8
:1023B80047210001956FF20E966FFF0E976F93EC11
:1023C80042F07EEF11F0000E0101406F000E416FE8
:1023D800800E426F3F0E436F2E6B000E2D6F39C17A
:1023E80094F03AC195F03BC196F03CC197F0000ECD
:1023F8000001986F000E996F000E9A6F000E9B6F88
:10240800DCEC3BF00001D8B00CEF12F00EEF12F04C
:1024180096EF12F02EEF12F040C194F041C195F002
:1024280042C196F043C197F0000E0001986F000E6C
:10243800996F000E9A6F400E9B6FA8EC19F094C02C
:1024480040F195C041F196C042F197C043F10101B6
:102458002D4B2E2B39C100F13AC101F13BC102F1DC
:102468003CC103F1000E0001986F000E996F000E39
:102478009A6F400E9B6F40C194F041C195F042C1E4
:1024880096F043C197F0A8EC19F094C004F195C0F8
:1024980005F196C006F197C007F1B7EC30F00101DD
:1024A800D8B059EF12F05BEF12F010EF12F07CEF9A
:1024B80012F040C194F041C195F042C196F043C179
:1024C80097F0000E0001986F000E996F000E9A6F3A
:1024D800400E9B6F98EC1DF094C040F195C041F1FF
:1024E80096C042F197C043F101012D07D8A02E07ED
:1024F80039C100F13AC101F13BC102F13CC103F11C
:1025080040C104F141C105F142C106F143C107F1DF
:10251800B7EC30F00101D8A094EF12F096EF12F06A
:102528005DEF12F00001C1BF9CEF12F09EEF12F0B8
:10253800A4EF12F0C0C028F1C1C029F1A8EF12F031
:102548000101296B4A0E286F010E01012825246F0D
:10255800000E2921256F456B000E446F39C12FF1FC
:102568003AC130F13BC131F13CC132F140C117F100
:1025780041C118F142C119F143C11AF140EF13F0FA
:102588002FC194F030C195F031C196F032C197F067
:1025980040C198F041C199F042C19AF043C19BF003
:1025A80098EC1DF094C0ADF095C0AEF096C0AFF0B9
:1025B80097C0B0F03EEC2AF0ADC033F1AEC034F1B4
:1025C800AFC035F1B0C036F133C194F034C195F0E5
:1025D80035C196F036C197F057EC32F094C03EF111
:1025E80095C03FF12FC100F130C101F131C102F1B5
:1025F80032C103F140C198F041C199F042C19AF04B
:1026080043C19BF033C194F034C195F035C196F0C5
:1026180036C197F0A8EC19F094C004F195C005F103
:1026280096C006F197C007F185EC41F000C12FF183
:1026380001C130F102C131F103C132F140C194F05E
:1026480041C195F042C196F043C197F0000E0001D8
:10265800986F000E996F800E9A6F410E9B6F98ECE1
:102668001DF094C040F195C041F196C042F197C069
:1026780043F10101444B452B2451445D4551800AE7
:102688000001B16F01012551800A0001B159D8A09C
:1026980050EF13F052EF13F0C4EF12F040C194F072
:1026A80041C195F042C196F043C197F0000E986F72
:1026B800000E996F000E9A6F410E9B6FA8EC19F0EF
:1026C80094C033F195C034F196C035F197C036F116
:1026D8002FC100F130C101F131C102F132C103F162
:1026E80033C104F134C105F135C106F136C107F132
:1026F800B7EC30F00101D8B084EF13F086EF13F097
:1027080090EF13F0000E336F000E346F000E356F2C
:10271800000E366FBAEF13F02FC194F030C195F068
:1027280031C196F032C197F033C198F034C199F0B5
:1027380035C19AF036C19BF0DCEC3BF00001D8A023
:10274800A8EF13F0AAEF13F0BAEF13F001013EB1AE
:10275800B0EF13F0B2EF13F0BAEF13F0000E336FCF
:10276800000E346F000E356F000E366F39C194F0CD
:102778003AC195F03BC196F03CC197F033C198F04F
:1027880034C199F035C19AF036C19BF04CEC17F082
:1027980094C02FF195C030F196C031F197C032F155
:1027A80017C140F118C141F119C142F11AC143F1F1
:1027B8000101276B000E266F2A6B2C6B000E2B6F06
:1027C800456B000E446F38EF15F02FC194F030C1FF
:1027D80095F031C196F032C197F040C198F041C1EF
:1027E80099F042C19AF043C19BF098EC1DF094C057
:1027F800ADF095C0AEF096C0AFF097C0B0F03EEC2B
:102808002AF0ADC033F1AEC034F1AFC035F1B0C07D
:1028180036F133C194F034C195F035C196F036C124
:1028280097F057EC32F094C03EF195C03FF10101AA
:102838003E513F11D8A423EF14F025EF14F039EFDF
:1028480014F027BF2CEF14F02AEF14F039EF14F02E
:102858000001CAB932EF14F034EF14F039EF14F074
:1028680001012B4B2C2BC7EF14F001012A51D8A4DE
:1028780040EF14F042EF14F06AEF14F027BF49EF6D
:1028880014F047EF14F06AEF14F0400E4625D96EA5
:10289800020E4721DA6E2E0EDF6E464B472B3707A6
:1028A800D8A03807010E2A6F6AEF14F0400E4625AB
:1028B800D96E020E4721DA6E300EDF6E464B472B7B
:1028C8003707D8A038072B07D8A02C072B512C1175
:1028D800D8A471EF14F073EF14F05AEF14F03FBF5F
:1028E8007FEF14F03F5109E10A0E3E5DD8A07FEF5B
:1028F80014F081EF14F089EF14F0570E3E253E6F67
:10290800000E3F213F6F8FEF14F0300E3E253E6FD3
:10291800000E3F213F6F1651D8B495EF14F097EF92
:1029280014F0B9EF14F03EC1B1F0200E0001B1135C
:102938009F0EB1271A0EB161A4EF14F0A6EF14F0A0
:10294800B9EF14F03EC1B1F09F0EB127190EB16571
:10295800B0EF14F0B2EF14F0B4EF14F0B9EF14F0D4
:102968005F0E01013E153E6F3F6B400E010146258B
:10297800D96E020E4721DA6E3EC1DFFF464B472B68
:102988003707D8A038072FC100F130C101F131C194
:1029980002F132C103F140C198F041C199F042C13E
:1029A8009AF043C19BF033C194F034C195F035C11E
:1029B80096F036C197F0A8EC19F094C004F195C0D0
:1029C80005F196C006F197C007F185EC41F000C10A
:1029D8002FF101C130F102C131F103C132F140C11F
:1029E80094F041C195F042C196F043C197F0000EB2
:1029F8000001986F000E996F800E9A6F410E9B6FC1
:102A080098EC1DF094C040F195C041F196C042F198
:102A180097C043F101012607D8A02707444B452B4F
:102A28000001C1BF1CEF15F01AEF15F038EF15F0D3
:102A38002FC194F030C195F031C196F032C197F0B2
:102A4800000E986F000E996F000E9A6F000E9B6F24
:102A5800DCEC3BF00001D8A034EF15F036EF15F0B0
:102A680038EF15F05AEF15F001012451445D455136
:102A7800800A0001B16F01012551800A0001B15996
:102A8800D8B049EF15F04BEF15F05AEF15F00101EA
:102A980047BF58EF15F0475109E14B0E465DD8A0E6
:102AA80058EF15F05AEF15F0E9EF13F001012A512C
:102AB800D8A461EF15F063EF15F0AAEF15F02B51CC
:102AC8002C11D8B46AEF15F06CEF15F0AAEF15F0D9
:102AD8000001C1BF78EF15F0C15108E1C005D8A0C9
:102AE80078EF15F07AEF15F0AAEF15F0010147BF5E
:102AF80089EF15F0475107E14B0E465DD8B087EFD7
:102B080015F089EF15F0AAEF15F0010E2A6F400EA7
:102B18004625D96E020E4721DA6E2E0EDF6E464B21
:102B2800472B3707D8A03807AAEF15F0400E4625DF
:102B3800D96E020E4721DA6E300EDF6E464B472BF8
:102B48003707D8A038072B07D8A02C0701012B512D
:102B58002C11D8B4B2EF15F0B4EF15F0C2EF15F0A0
:102B680047BFC0EF15F0475109E14B0E465DD8A0AD
:102B7800C0EF15F0C2EF15F09AEF15F02A51D8A45E
:102B8800C8EF15F0CAEF15F0DDEF15F00001CAA97E
:102B9800D0EF15F0D2EF15F0DDEF15F0400E010182
:102BA8004625D96E020E4721DA6E2E0EDF6E464B91
:102BB800472B400E01014625D96E020E4721DA6ED9
:102BC800DF6A456B4F0E446F400E4425D96E020EE6
:102BD8004521DA6EDF6A236B2EBFF7EF15F0F5EFAC
:102BE80015F0FDEF15F0010E236F2D6D2E1FD8B0D7
:102BF8002E2B296B010E286F2DEF16F04407D8A055
:102C08004507400E4425D96E020E4521DA6E2DC1C6
:102C180094F02EC195F00001976B0A0E966F84EC24
:102C28003BF000019451300FDF6E2DC194F02EC19E
:102C380095F0976B0A0E966F14EC3AF094C02DF14C
:102C480095C02EF101012807D8A029073707D8A079
:102C580038072D512E11D8A434EF16F036EF16F0A0
:102C680002EF16F029BF43EF16F0295106E12805B7
:102C7800D8B041EF16F043EF16F002EF16F0440714
:102C8800D8A045072351D8A44CEF16F04EEF16F004
:102C980053EF16F01E6B2B0E1D6F56EF16F01E6BC2
:102CA8002D0E1D6F400E4425D96E020E4521DA6E99
:102CB8001DC1DFFF3707D8A038074407D8A045074C
:102CC8001651D8A46AEF16F06CEF16F071EF16F0F3
:102CD800206B700E1F6F74EF16F0206B500E1F6F75
:102CE800400E4425D96E020E4521DA6E1FC1DFFF62
:102CF8003707D8A03807400E0001B16F020EB26F37
:102D0800010146510001B15F010147510001B25B69
:102D1800010144510001B125946F010145510001A1
:102D2800B221956F400E966F020E976F46C198F0CC
:102D380047C199F0BEEC40F001014651445D466F31
:102D480047514559476F3D51D8A4ADEF16F0AFEF45
:102D580016F0B4EF16F0456B020E446FB7EF16F09D
:102D6800456B030E446F0001CAA3BDEF16F0BFEF19
:102D780016F0F6EF16F0D0EF16F001014607D8A0CE
:102D88004707400E4625D96E020E4721DA6E300EEF
:102D9800DF6E3707D8A0380701013751445D455128
:102DA800800A0001B16F01013851800A0001B15950
:102DB800D8B0E1EF16F0E3EF16F0F6EF16F00101E8
:102DC8004651445D4551800A0001B16F01014751E8
:102DD800800A0001B159D8A0F4EF16F0F6EF16F00A
:102DE800C1EF16F001011651D8A4FDEF16F0FFEF60
:102DF80016F004EF17F0226B780E216F07EF17F02B
:102E0800226B580E216F4607D8A04707400E46256B
:102E1800D96E020E4721DA6E21C1DFFF4607D8A01E
:102E28004707400E4625D96E020E4721DA6E300E4E
:102E3800DF6E3D51D8B423EF17F025EF17F030EFD0
:102E480017F04607D8A04707400E4625D96E020E50
:102E58004721DA6E3DC1DFFF4451375F4551385B8A
:102E680010C1A4F011C1A5F0400E46250001A66FBF
:102E7800020E010147210001A76F37C1A8F038C130
:102E8800A9F075EC3AF0A4C010F1A5C011F1120038
:102E980000019751800BA06F97519725A26F96AFAD
:102EA80058EF17F05AEF17F05BEF17F0A281A25115
:102EB800D8B461EF17F063EF17F077EF17F0A22996
:102EC800D8A469EF17F06BEF17F073EF17F0000E47
:102ED800946F000E956F000E966F000E976F968F89
:102EE800976B7FEF17F0000E946F000E956F000E32
:102EF800966F000E976F9B51800BA16FA051A1197F
:102F0800D8B489EF17F08BEF17F08CEF17F0A08D7E
:102F18009B519B25A16F9AAF94EF17F096EF17F08E
:102F280097EF17F0A181A151D8B49DEF17F09FEF4B
:102F380017F0B3EF17F0A129D8A4A5EF17F0A7EF62
:102F480017F0AFEF17F0000E986F000E996F000E94
:102F58009A6F000E9B6F9A8F9B6BBBEF17F0000E5A
:102F6800986F000E996F000E9A6F000E9B6FA2511A
:102F7800A15DD8B0C2EF17F0C4EF17F0EBEF17F070
:102F8800A0ADC9EF17F0CBEF17F0CDEF17F0800E1B
:102F9800A01BA2C0A3F0A1C0A2F0A3C0A1F094C03E
:102FA800A3F098C094F0A3C098F095C0A3F099C07E
:102FB80095F0A3C099F096C0A3F09AC096F0A3C06C
:102FC8009AF097C0A3F09BC097F0A3C09BF0A36BA7
:102FD800A251A1C09CF09D6B9C5F000E9D5B9DBFA4
:102FE800FFEF17F09D5109E11A0E9C5DD8A0FFEF85
:102FF80017F001EF18F038EF18F094519511961169
:103008009711D8A40AEF18F00DEF18F0010E0EEF83
:1030180018F0000EA36F000E946F000E956F000E4F
:10302800966F000E976FA1C0A2F041EF18F0A3A110
:1030380020EF18F022EF18F028EF18F0D890A331FD
:103048000109A36F2AEF18F0D890A33394A12FEFAA
:1030580018F031EF18F032EF18F0A38F9735973347
:10306800963395339433A22BA151A25DD8A03FEF9C
:1030780018F041EF18F01BEF18F0A0BD46EF18F05C
:1030880048EF18F088EF18F0A251D8A44EEF18F0C6
:1030980050EF18F05AEF18F0000E946F000E956F6D
:1030A800000E966F000E976FA7EF19F098519427AE
:1030B800995195239A5196239B51972397A167EF8E
:1030C80018F069EF18F015EF19F0A3A16EEF18F0DA
:1030D80070EF18F076EF18F0D890A3310109A36FBC
:1030E80078EF18F0D890A33394A17DEF18F07FEF14
:1030F80018F080EF18F0A38F9735973396339533F0
:103108009433A22B15EF19F09851945D9951955964
:103118009A5196599751800A9C6F9B51800A9C59E5
:10312800D8B099EF18F09BEF18F0C6EF18F094514B
:10313800985D9C6F955199599D6F96519A599E6FBC
:1031480097519B599F6FFF0E9C25946FFF0E9D21F1
:10315800956FFF0E9E21966FFF0E9F21976F800E31
:10316800A01BA36DA351D8A4BCEF18F0BEEF18F0B4
:10317800CEEF18F0010E9427000E9523962397237F
:10318800CEEF18F09851945F9951955B9A51965BE0
:103198009B51975B9451951196119711D8A4D7EF2D
:1031A80018F0D9EF18F00EEF19F0A351D8A4DFEFFB
:1031B80018F0E1EF18F00EEF19F0000E946F000E02
:1031C800956F000E966F000E976FA7EF19F0D890C5
:1031D8009437953796379737A3AFF5EF18F0F7EF91
:1031E80018F0F8EF18F09481A3A1FDEF18F0FFEFA5
:1031F80018F003EF19F0D880A33705EF19F0D8902D
:10320800A337A251D8B40BEF19F00DEF19F00EEF58
:1032180019F0A20796AF13EF19F015EF19F0EBEFBD
:1032280018F0A16BA3AF1BEF19F01DEF19F035EFE4
:1032380019F0A3C09CF07F0E9C17D8B426EF19F0A4
:1032480028EF19F02CEF19F0010EA16F35EF19F0E6
:1032580094A131EF19F033EF19F035EF19F028EF99
:1032680019F0A151D8B43BEF19F03DEF19F068EF10
:1032780019F0010E9427000E95239623972397A102
:1032880048EF19F04AEF19F068EF19F094C09CF074
:1032980095C09DF096C09EF097C09FF09F359F33D4
:1032A8009E339D339C339CC094F09DC095F09EC086
:1032B80096F09FC097F0A229D8B465EF19F067EF90
:1032C80019F068EF19F0A22BA229D8B46EEF19F003
:1032D80070EF19F078EF19F0A251D8A476EF19F031
:1032E80078EF19F089EF19F0000E946F000E956FC2
:1032F800000E966F000E976FA251D8A486EF19F0B2
:1033080088EF19F089EF19F0A06BA2A18EEF19F0E0
:1033180090EF19F093EF19F0968F94EF19F0969FAC
:10332800D890A231976FA0AF9CEF19F09EEF19F0DB
:103338009FEF19F0978F94C094F095C095F096C0C0
:1033480096F097C097F0120000019751800BA06F7C
:1033580097519725A66F96AFB4EF19F0B6EF19F00D
:10336800B7EF19F0A681A651D8B4BDEF19F0BFEF99
:1033780019F0D2EF19F0A629D8A4C5EF19F0C7EFB4
:1033880019F0CFEF19F0000E946F000E956F000E34
:10339800966F000E976F968FDAEF19F0000E946F04
:1033A800000E956F000E966F000E976F9B51800B65
:1033B800A01B9B519B25A16F9AAFE5EF19F0E7EF92
:1033C80019F0E8EF19F0A181A151D8B4EEEF19F086
:1033D800F0EF19F003EF1AF0A129D8A4F6EF19F0CD
:1033E800F8EF19F000EF1AF0000E986F000E996FC1
:1033F800000E9A6F000E9B6F9A8F0BEF1AF0000E5B
:10340800986F000E996F000E9A6F000E9B6FA15176
:10341800D8B411EF1AF013EF1AF01BEF1AF0A651F7
:10342800D8A419EF1AF01BEF1AF025EF1AF0000EC6
:10343800946F000E956F000E966F000E976FBBEF9E
:103448001BF09A519403F3CFABF0F4CFACF0AB512F
:10345800A26FA36BA46BA56BAC51A76FA86BA96BEC
:10346800AA6B99519503F3CFABF0F4CFACF0AB5105
:10347800A227000EA323A423A523AC51A727000E3F
:10348800A823A923AA2398519603F3CFABF0F4CF2E
:10349800ACF0AB51A227000EA323A423A523AC5163
:1034A800A727000EA823A923AA23A4C0A5F0A3C078
:1034B800A4F0A2C0A3F0A26B98519503F3CFABF090
:1034C800F4CFACF0AB51A227AC51A323000EA42338
:1034D800000EA52399519403F3CFABF0F4CFACF0D1
:1034E800AB51A227AC51A323000EA423000EA523A1
:1034F800A4C0A5F0A3C0A4F0A2C0A3F0A26B9851E9
:103508009403F3CFABF0F4CFACF0AB51A227AC519E
:10351800A323000EA423000EA5239A519503F3CFED
:10352800ABF0F4CFACF0AB51A727AC51A823000EF9
:10353800A923000EAA2399519603F3CFABF0F4CF39
:10354800ACF0AB51A727AC51A823000EA923000E5D
:10355800AA239A519603F3CFABF0F4CFACF0AB515A
:103568009C6FAC519D6F9E6B9F6B9EC09FF09DC0E2
:103578009EF09CC09DF09C6B9C51A7279D51A82351
:103588009E51A9239F51AA23A2C09CF0A3C09DF0DD
:10359800A4C09EF0A5C09FF0190ED8EF1AF0D890DD
:1035A8009F339E339D339C33E82ED3EF1AF09C5102
:1035B800A7279D51A8239E51A9239F51AA23A4C0A0
:1035C800A5F0A3C0A4F0A2C0A3F0A26BA151A6C00D
:1035D8009CF09D6B9C27000E9D23820E9C25AB6F53
:1035E800FF0E9D21AC6F0EEF1BF0D890A737A837C0
:1035F800A937AA37A5AF03EF1BF005EF1BF006EFBD
:103608001BF0A781D890A237A337A437A537AB07FB
:10361800D8A0AC07A9AF13EF1BF015EF1BF0F9EF1B
:103628001AF0A16BA5AF1BEF1BF01DEF1BF041EFCC
:103638001BF0FF0EA2159C6FFF0EA3159D6FFF0ECA
:10364800A4159E6F7F0EA5159F6F9C519D119E110D
:103658009F11D8B432EF1BF034EF1BF038EF1BF09A
:10366800010EA16F41EF1BF0A7A13DEF1BF03FEF4B
:103678001BF041EF1BF034EF1BF0A151D8B447EF1A
:103688001BF049EF1BF06DEF1BF0010EA727000E92
:10369800A823A923AA23AAA154EF1BF056EF1BF0D5
:1036A8006DEF1BF0A7C09CF0A8C09DF0A9C09EF0CC
:1036B800AAC09FF09F359F339E339D339C339CC097
:1036C800A7F09DC0A8F09EC0A9F09FC0AAF0AB4B80
:1036D800AC2BACBF78EF1BF0AC5108E1AB29D8A0FC
:1036E80078EF1BF07AEF1BF084EF1BF0000EA76F4A
:1036F800000EA86F800EA96F7F0EAA6FB1EF1BF0A6
:10370800ACBF91EF1BF0AC5106E1AB05D8B08FEF21
:103718001BF091EF1BF09CEF1BF0000EA76F000E43
:10372800A86F000EA96F000EAA6FA06BB1EF1BF077
:10373800ABC0A6F0FF0EA717FF0EA8177F0EA9179C
:10374800000EAA17A6A1ABEF1BF0ADEF1BF0AEEF72
:103758001BF0A98FD890A631AA6FA051AA13A7C0B1
:1037680094F0A8C095F0A9C096F0AAC097F01200EE
:10377800A6C0D9FFA7C0DAFFDE50DE10D8B4C7EF65
:103788001BF0C9EF1BF097EF1DF00001A251A31128
:10379800D8A4D1EF1BF0D3EF1BF0D5EF1BF097EFB8
:1037A8001DF020EE06F0A651D926A751DA22DE50E8
:1037B800A45DDE50A559D8A0E4EF1BF0E6EF1BF09E
:1037C800E8EF1BF097EF1DF0A2C0AAF0A3C0ABF082
:1037D800AD6B000EAC6F20EE04F0A651D926A751B0
:1037E800DA22DECF00F1DDCF01F120EE06F0A6519E
:1037F800D926A751DA22DECF02F1DDCF03F101018C
:103808000051025D0001AE6F010101510359000131
:10381800AF6FB16B000EB06FB00E946F956BA6C012
:1038280096F0A7C097F060EC34F0A4C0A8F0A5C04B
:10383800A9F00001A451AE5DA551AF59D8B027EF4A
:103848001CF029EF1CF091EF1CF020EE08F0A651B7
:10385800D926A751DA22DECF00F1DDCF01F120EE23
:1038680004F0A651D926A751DA22DECF02F1DDCF26
:1038780003F1010100510203F3CF04F1F4CF05F184
:103888000303F350052701510203F3500527A6C08F
:10389800D9FFA7C0DAFFDECF06F1DDCF07F104516B
:1038A80006250001946F0101055107210001956F5C
:1038B800AAC096F0ABC097F020EE08F0A651D92622
:1038C800A751DA22DECF08F1DDCF09F1AE510101AF
:1038D8000803F3CF0AF1F4CF0BF10903F3500B27D8
:1038E8000001AF5101010803F3500B270AC198F0FA
:1038F8000BC199F0BEEC40F0000120EE04F0A65197
:10390800D926A751DA22DE6ADD6AAEC0ACF0AFC0B4
:10391800ADF0AE51A45FAF51A55B20EE08F0A65103
:10392800D926A751DA22DECF00F1DDCF01F120EE52
:1039380004F0A651D926A751DA22DECF02F1DDCF55
:1039480003F1010100510203F3CF04F1F4CF05F1B3
:103958000303F350052701510203F3500527A6C0BE
:10396800D9FFA7C0DAFFDECF06F1DDCF07F104519A
:1039780006250001946F0101055107210001956F8B
:1039880020EE08F0A651D926A751DA22DECF08F199
:10399800DDCF09F1AC5101010803F3CF0AF1F4CFEF
:1039A8000BF10903F3500B270001AD510101080386
:1039B800F3500B270A510001AA25966F01010B51FC
:1039C8000001AB21976F20EE08F0A651D926A75128
:1039D800DA22DECF0CF1DDCF0DF1A45101010C0389
:1039E800F3CF0EF1F4CF0FF10D03F3500F270001C1
:1039F800A55101010C03F3500F270EC198F00FC118
:103A080099F0BEEC40F0000120EE04F0A651D92652
:103A1800A751DA22A451DE26A551DD2220EE06F0B8
:103A2800A651D926A751DA2210EE04F0A651E126B4
:103A3800A751E222DE50E65CDE50E658D8A027EF18
:103A48001DF029EF1DF03EEF1DF020EE06F0A65107
:103A5800D926A751DA22DECF00F1DDCF01F120EE21
:103A680004F0A651D926A751DA2201010051DE5EE1
:103A78000151DD5A000120EE06F0A651D926A751C2
:103A8800DA22DECF00F1DDCF01F1B0510101005F94
:103A98000001B1510101015B00510001A85D010164
:103AA80001510001A959D8A05CEF1DF05EEF1DF08F
:103AB80078EF1DF020EE04F0A651D926A751DA229E
:103AC800DECF00F1DDCF01F1010E01010027000E6C
:103AD8000123000120EE02F0A651D926A751DA22CF
:103AE80000C1DEFF01C1DDFF20EE06F0A651D92698
:103AF800A751DA2210EE02F0A651E126A751E222E0
:103B0800DE50E65CDE50E658D8A08DEF1DF08FEF52
:103B18001DF097EF1DF020EE02F0A651D926A7510F
:103B2800DA22DE6ADD6A120000019751800BA46F69
:103B380097519725AB6F96AFA4EF1DF0A6EF1DF038
:103B4800A7EF1DF0AB81AB51D8B4ADEF1DF0AFEFCF
:103B58001DF0C3EF1DF0AB29D8A4B5EF1DF0B7EFEA
:103B68001DF0BFEF1DF0000E946F000E956F000E54
:103B7800966F000E976F968F976BCBEF1DF0000E28
:103B8800946F000E956F000E966F000E976F9B5105
:103B9800800BA41B9B519B25AC6F9AAFD6EF1DF0F1
:103BA800D8EF1DF0D9EF1DF0AC81AC51D8B4DFEFE0
:103BB8001DF0E1EF1DF0F5EF1DF0AC29D8A4E7EFFB
:103BC8001DF0E9EF1DF0F1EF1DF0000E986F000EEB
:103BD800996F000E9A6F000E9B6F9A8F9B6BFDEF8B
:103BE8001DF0000E986F000E996F000E9A6F000E70
:103BF8009B6F985199119A119B11D8A406EF1EF04A
:103C080008EF1EF020EF1EF0000E946F000E956F67
:103C1800000E966F000E976F800E96137F0E971307
:103C2800A451971394C094F095C095F096C096F05F
:103C380097C097F05FEF1FF0AB51D8A426EF1EF0A6
:103C480028EF1EF032EF1EF0000E946F000E956FF5
:103C5800000E966F000E976F5FEF1FF0AC51ABC070
:103C68009CF09D6B9C5F000E9D5B7F0E9C25A56F55
:103C7800000E9D21A66F94C0A0F095C0A1F096C03B
:103C8800A2F097C0A3F0000E946F000E956F000E7F
:103C9800966F000E976F000EA76F000EA86F000EAC
:103CA800A96F000EAA6FAC6B92EF1EF0AC51D8B49E
:103CB80060EF1EF062EF1EF079EF1EF0D890A0378B
:103CC800A137A237A337D8909437953796379737C7
:103CD800AAAF71EF1EF073EF1EF074EF1EF094811F
:103CE800D890A737A837A937AA379851A05D995116
:103CF800A1599A51A2599B51A359D8A086EF1EF0F9
:103D080088EF1EF091EF1EF0AA8D9851A05F99518F
:103D1800A15B9A51A25B9B51A35BAC2B190EAC65BE
:103D280098EF1EF09AEF1EF05AEF1EF0A051A11165
:103D3800A211A311D8B4A3EF1EF0A5EF1EF0BDEF9A
:103D48001EF0A781BDEF1EF0D890943795379637AF
:103D58009737AAAFB2EF1EF0B4EF1EF0B5EF1EF022
:103D68009481D890A737A837A937AA37A507D8A02C
:103D7800A60796AFC2EF1EF0C4EF1EF0A8EF1EF024
:103D8800AC6BAAAFCAEF1EF0CCEF1EF0F0EF1EF03E
:103D9800FF0EA7159C6FFF0EA8159D6FFF0EA915A6
:103DA8009E6F7F0EAA159F6F9C519D119E119F11AA
:103DB800D8B4E1EF1EF0E3EF1EF0E7EF1EF0010EBE
:103DC800AC6FF0EF1EF094A1ECEF1EF0EEEF1EF0DA
:103DD800F0EF1EF0E3EF1EF0AC51D8B4F6EF1EF092
:103DE800F8EF1EF01CEF1FF0010E9427000E95232C
:103DF8009623972397A103EF1FF005EF1FF01CEF01
:103E08001FF094C09CF095C09DF096C09EF097C09E
:103E18009FF09F359F339E339D339C339CC094F015
:103E28009DC095F09EC096F09FC097F0A54BA62B1D
:103E3800A6BF27EF1FF0A65108E1A529D8A027EFB4
:103E48001FF029EF1FF034EF1FF0000EA66FA569D1
:103E5800000E946F000E956F000E966F000E976F10
:103E6800A6BF41EF1FF0A65106E1A505D8B03FEF68
:103E78001FF041EF1FF04DEF1FF0A66B000EA56F6E
:103E8800000E946F000E956F000E966F000E976FE0
:103E9800A46BA5C0ABF0ABA154EF1FF056EF1FF019
:103EA80059EF1FF0968F5AEF1FF0969FD890AB31BD
:103EB800976F14EF1EF012002BC0D9FF2CC0DAFF49
:103EC800DE50DE10D8B46BEF1FF06DEF1FF01AEF65
:103ED80021F027502810D8A474EF1FF076EF1FF0B8
:103EE80078EF1FF01AEF21F020EE06F02B50D926BC
:103EF8002C50DA22DE50295CDE502A58D8A087EFF1
:103F08001FF089EF1FF08BEF1FF01AEF21F027C089
:103F180072F028C073F00001756B000E746F20EE0C
:103F280004F02B50D9262C50DA22DECF60F0DDCFFA
:103F380061F020EE06F02B50D9262C50DA22DECF85
:103F480062F0DDCF63F06051625D786F6151635953
:103F5800796F776B000E766F760E196E1A6A2BC022
:103F68001BF02CC01CF05BEC35F029C070F02AC0A7
:103F780071F029500001785D2A507959D8B0C7EFFF
:103F88001FF0C9EF1FF02AEF20F020EE08F02B50A9
:103F9800D9262C50DA22DECF60F0DDCF61F020EE9A
:103FA80004F02B50D9262C50DA22DECF62F0DDCF78
:103FB80063F060516203F3CF64F0F4CF65F06303FC
:103FC800F350652761516203F35065272BC0D9FF71
:103FD8002CC0DAFFDECF66F0DDCF67F064516625CE
:103FE800196E655167211A6E72C01BF073C01CF000
:103FF80020EE08F02B50D9262C50DA22DECF68F0BC
:10400800DDCF69F078516803F3CF6AF0F4CF6BF035
:104018006903F3506B2779516803F3506B276AC023
:104028001DF06BC01EF038EC41F020EE04F02B5070
:10403800D9262C50DA22DE6ADD6A78C074F079C09D
:1040480075F000017851295E79512A5A20EE08F05E
:104058002B50D9262C50DA22DECF60F0DDCF61F06C
:1040680020EE04F02B50D9262C50DA22DECF62F055
:10407800DDCF63F060516203F3CF64F0F4CF65F0F5
:104088006303F350652761516203F35065272BC022
:10409800D9FF2CC0DAFFDECF66F0DDCF67F06451C0
:1040A8006625196E655167211A6E20EE08F02B50AF
:1040B800D9262C50DA22DECF68F0DDCF69F07451B2
:1040C8006803F3CF6AF0F4CF6BF06903F3506B2702
:1040D80075516803F3506B276A5172251B6E6B513B
:1040E80073211C6E20EE08F02B50D9262C50DA22B2
:1040F800DECF6CF0DDCF6DF029506C03F3CF6EF09E
:10410800F4CF6FF06D03F3506F272A506C03F35010
:104118006F276EC01DF06FC01EF038EC41F020EE26
:1041280004F02B50D9262C50DA222950DE262A50AA
:10413800DD2220EE06F02B50D9262C50DA2210EE84
:1041480004F02B50E1262C50E222DE50E65CDE50D3
:10415800E658D8A0B2EF20F0B4EF20F0C9EF20F075
:1041680020EE06F02B50D9262C50DA22DECF60F054
:10417800DDCF61F020EE04F02B50D9262C50DA2246
:1041880000016051DE5E6151DD5A20EE06F02B50D1
:10419800D9262C50DA22DECF60F0DDCF61F00001A5
:1041A8007651605F7751615B6051705D6151715903
:1041B800D8A0E1EF20F0E3EF20F0FBEF20F020EEB5
:1041C80004F02B50D9262C50DA22DECF60F0DDCF58
:1041D80061F0010E6027000E612320EE02F02B50E3
:1041E800D9262C50DA2260C0DEFF61C0DDFF20EE48
:1041F80006F02B50D9262C50DA2210EE02F02B5064
:10420800E1262C50E222DE50E65CDE50E658D8A0CB
:1042180010EF21F012EF21F01AEF21F020EE02F05A
:104228002B50D9262C50DA22DE6ADD6A120010C41F
:1042380063F011C464F012C466F013C462F00401A0
:1042480017510001606F040116510001676F60C0CB
:1042580068F00401006B046B436A376A000E366E1F
:104268000001C56B000EC46F416A010E486E659867
:1042780063C060F0600E6017D8A445EF21F047EFE7
:1042880021F05BEF22F034EF22F0360E296EFF0E9C
:104298002A6E2C6A120E2B6E67C02DF068C02EF0A5
:1042A800D1EC3CF0BFEF22F0FC0E296EFE0E2A6E18
:1042B8002C6A220E2B6E67C02DF068C02EF0D1EC50
:1042C8003CF0BFEF22F00E0E296EFF0E2A6E2C6A0C
:1042D800090E2B6E67C02DF068C02EF0D1EC3CF0B3
:1042E800BFEF22F09B0E296EFE0E2A6E2C6A3F0E3F
:1042F8002B6E67C02DF068C02EF0D1EC3CF0BFEFFC
:1043080022F06651D8A48BEF21F08DEF21F09CEFBD
:1043180021F0480E296EFF0E2A6E2C6A040E2B6EB1
:1043280067C02DF068C02EF0D1EC3CF0BFEF22F052
:104338006605D8A4A2EF21F0A4EF21F0B3EF21F095
:104348001E0E296EFF0E2A6E2C6A180E2B6E67C081
:104358002DF068C02EF0D1EC3CF0BFEF22F0020E39
:104368006619D8A4BAEF21F0BCEF21F0BDEF22F016
:10437800DA0E296EFE0E2A6E2C6A220E2B6E67C08C
:104388002DF068C02EF0D1EC3CF0BFEF22F0625166
:10439800010AD8B449EF21F0030AD8B458EF21F044
:1043A800010AD8B485EF21F0220AD8B467EF21F0CA
:1043B800030AD8B476EF21F0BDEF22F066C040F0D2
:1043C80061EC43F0BFEF22F06651D8A4EEEF21F084
:1043D800F0EF21F0F6EF21F0020ECB6F0F01276B03
:1043E800E4EF21F01A0E0F01276F04010C6B0D6B1F
:1043F800200E196E040E1A6E030E1FEC43F03E6A6F
:104408003F6A030E0001CB6FE4EF21F0030ECB19D6
:10441800D8B411EF22F014EF22F0010E15EF22F0BC
:10442800000E0201346F2A6A010E296E67C02BF054
:1044380068C02CF075EC42F0BFEF22F00201346B3B
:10444800356B2A6A020E296E67C02BF068C02CF003
:1044580075EC42F0BFEF22F00201346B17EF22F047
:104468006451000AD8B422EF22F0010AD8B4E4EF6C
:1044780021F0020AD8B4E4EF21F0060AD8B4E2EF3A
:1044880021F0030AD8B4CBEF21F00E0AD8B40AEF12
:1044980022F0010AD8B4E8EF21F0030AD8B430EFCB
:1044A80022F0010AD8B4E4EF21F0BDEF22F0635105
:1044B800600B200AD8A463EF22F065EF22F0BDEF6D
:1044C80022F0A2EF22F0010E0201346F17EF22F062
:1044D800656B340E6525D96EDA6A020EDA22DF6A58
:1044E800652B070E65657BEF22F07DEF22F06DEFFF
:1044F80022F02A6A080E296E67C02BF068C02CF0DB
:1045080075EC42F0BFEF22F067516811D8B48FEF15
:1045180022F091EF22F0E4EF21F0020E436E080E34
:104528000401016F100E196E040E1A6E000E1FECB6
:1045380043F0C80E0401006FBFEF22F06451010A76
:10454800D8B46CEF22F0030AD8B430EF22F0010A95
:10455800D8B467EF22F00A0AD8B488EF22F0030A29
:10456800D8B4E4EF21F0010AD8B4E4EF21F0BDEFAC
:1045780022F04FEC43F012000001A251A311D8A47D
:10458800C8EF22F0CAEF22F0CDEF22F0020E18EFAA
:1045980024F020EE06F0A651D926A751DA22A4511C
:1045A800DE5CA551DE58D8B0DCEF22F0DEEF22F059
:1045B800E1EF22F0030E18EF24F020EE02F0A651EE
:1045C800D926A751DA2210EE04F0A651E126A75108
:1045D800E222DE50E61807E1DE50E618D8A4F7EF2D
:1045E80022F0F9EF22F0FCEF22F0040E18EF24F08D
:1045F800AF6B000EAE6FAE0E946F956BA6C096F0C3
:10460800A7C097F060EC34F00001A451AE5DA5514D
:10461800AF59D8B012EF23F014EF23F018EF23F0BE
:10462800AEC0A4F0AFC0A5F0A96B000EA86F20EE35
:1046380002F0A651D926A751DA22DECF00F1DDCF4C
:1046480001F120EE06F0A651D926A751DA22DECFD5
:1046580002F1DDCF03F101010051025D0001AC6FF1
:104668000101015103590001AD6F20EE02F0A6517E
:10467800D926A751DA22DECFAAF0DDCFABF0A451BC
:10468800AC5DA551AD59D8B04CEF23F04EEF23F0F7
:10469800A9EF23F0A2C094F0A3C095F020EE08F093
:1046A800A651D926A751DA22DECF00F1DDCF01F1DC
:1046B800AA5101010003F3CF02F1F4CF03F1010382
:1046C800F35003270001AB5101010003F350032706
:1046D800A6C0D9FFA7C0DAFFDECF04F1DDCF05F110
:1046E800025104250001966F0101035105210001C3
:1046F800976F20EE08F0A651D926A751DA22DECF0F
:1047080006F1DDCF07F1AC5101010603F3CF08F143
:10471800F4CF09F10703F35009270001AD51010156
:104728000603F350092708C198F009C199F0BEECB7
:1047380040F00001AB6B000EAA6FACC0A8F0ADC092
:10474800A9F0AC51A45FAD51A55B20EE08F0A651CD
:10475800D926A751DA22DECF00F1DDCF01F1A85129
:1047680001010003F3CF02F1F4CF03F10103F35089
:1047780003270001A95101010003F3500327025147
:104788000001A225946F010103510001A321956F37
:1047980020EE08F0A651D926A751DA22DECF04F17F
:1047A800DDCF05F1AA5101010403F3CF06F1F4CFDF
:1047B80007F10503F35007270001AB51010104037A
:1047C800F3500727A6C0D9FFA7C0DAFFDECF08F14C
:1047D800DDCF09F1065108250001966F0101075147
:1047E80009210001976F20EE08F0A651D926A7519C
:1047F800DA22DECF0AF1DDCF0BF1A45101010A0361
:10480800F3CF0CF1F4CF0DF10B03F3500D2700019A
:10481800A55101010A03F3500D270CC198F00DC1F1
:1048280099F0BEEC40F0000E1200010109BF1FEF25
:1048380024F022EF24F0010E23EF24F0000E186F6D
:104848000001C1BF2AEF24F02CEF24F02DEF24F053
:10485800CA93C1BF34EF24F032EF24F03AEF24F0CA
:104868000101156B010E146F3EEF24F0C0C014F166
:10487800C1C015F1BEC016F1BFC017F10101185132
:10488800D8A449EF24F04BEF24F053EF24F00001B3
:10489800CAA551EF24F053EF24F06BEF24F0010187
:1048A8001607D8A017071851D8A45DEF24F05FEFBA
:1048B80024F064EF24F0136B2B0E126F67EF24F0D3
:1048C800136B2D0E126F12C118F178EF24F0CAA7DE
:1048D80070EF24F072EF24F078EF24F0010116074E
:1048E800D8A01707200E186F01011A6B4F0E196F09
:1048F80002018F6B01EF25F001011907D8A01A07F3
:10490800400E1925D96E020E1A21DA6E02C194F0F2
:1049180003C195F004C196F005C197F006C198F05F
:1049280007C199F008C19AF009C19BF00A0E00016D
:104938009C6F000E9D6F000E9E6F000E9F6F000E05
:10494800A06F000EA16F000EA26F000EA36FBEEC49
:104958002EF094C00AF195C00BF196C00CF197C0E7
:104968000DF198C00EF199C00FF19AC010F19BC0DB
:1049780011F10AC1A6F00BC1A7F0EAEC42F0000160
:10498800A651300FDF6E01011407D8A015071607CE
:10499800D8A0170702C194F003C195F004C196F09E
:1049A80005C197F006C198F007C199F008C19AF0BF
:1049B80009C19BF00A0E00019C6F000E9D6F000E4E
:1049C8009E6F000E9F6F000EA06F000EA16F000E6D
:1049D800A26F000EA36FFAEC2DF094C002F195C0FF
:1049E80003F196C004F197C005F198C006F199C08B
:1049F80007F19AC008F19BC009F101011ABF0DEF38
:104A080025F01A5108E11905D8A00DEF25F00FEF90
:104A180025F040EF25F0025103110411051106118C
:104A2800071108110911D8A41CEF25F01EEF25F075
:104A380080EF24F015BF2BEF25F0155106E1140582
:104A4800D8B029EF25F02BEF25F080EF24F017BF21
:104A580036EF25F0175108E11605D8A036EF25F0F6
:104A680038EF25F040EF25F00001CAB33EEF25F0FE
:104A780040EF25F080EF24F001011851D8B447EF3A
:104A880025F049EF25F054EF25F01907D8A01A07AB
:104A9800400E1925D96E020E1A21DA6E18C1DFFFF1
:104AA80000C1A4F001C1A5F0400E19250001A66FB0
:104AB800020E01011A210001A76F16C1A8F017C143
:104AC800A9F075EC3AF0A4C000F1A5C001F11200FC
:104AD8000101296B000E286F18511911D8B477EF0E
:104AE80025F079EF25F08EEF25F01B5109E1020E34
:104AF8001A5DD8A082EF25F084EF25F08EEF25F01F
:104B08001A05010E1B59D8A08CEF25F08EEF25F061
:104B180092EF25F018691969ADEF26F0000EF2BE84
:104B2800010E276FF29E280E0001946F010E956FFB
:104B3800BB0E966F010E976F60EC34F001012751A0
:104B4800D8B4A9EF25F0ABEF25F0ACEF25F0F28E45
:104B580028512911D8A4B3EF25F0B5EF25F0BBEF04
:104B680025F0FF0E196FFE0E186FADEF26F02851D5
:104B78000001C8190BE1010129510001C919D8B474
:104B8800C8EF25F0CAEF25F034EF26F0FF0E01013B
:104B98001A251E6FFF0E1B211F6F28511E5D2951FC
:104BA8001F59D8B0DAEF25F0DCEF25F020EF26F01A
:104BB800000EF2BE010E276FF29E18C10EF119C148
:104BC8000FF1FF0E1A25106FFF0E1B21116FBB0E80
:104BD800126F010E136FD2EC31F00101266F2751CD
:104BE800D8B4F9EF25F0FBEF25F0FCEF25F0F28EB5
:104BF8002651D8B402EF26F004EF26F006EF26F08F
:104C0800B5EF25F01A5118251E6F1B5119211F6F7A
:104C1800FF0E1E25D96EFF0E1F21DA6EDF6A000116
:104C2800C96B000EC86FFF0E01011A25186FFF0E21
:104C38001B21196FADEF26F028C1C8F029C1C9F0B2
:104C480065EC3EF094C0B3F095C0B4F096C0B5F0F2
:104C580097C0B6F00101196B000E186FADEF26F082
:104C680065EC3EF00001B351945D01011E6F000137
:104C7800B451955901011F6F0001B55196590101B1
:104C8800206F0001B65197590101216F1C51226F05
:104C98001D51236F246B256B1E51225D1F51235913
:104CA8002051245921512559D8B05DEF26F05FEFE6
:104CB80026F02EEF26F0FF0E1A251E6FFF0E1B2181
:104CC8001F6F28511E5D29511F59D8B06EEF26F06D
:104CD80070EF26F076EF26F0FF0E1A25286FFF0EEC
:104CE8001B21296F000EF2BE010E276FF29E18C11C
:104CF8000EF119C10FF128C110F129C111F1BB0E34
:104D0800126F010E136FD2EC31F00101266F27519B
:104D1800D8B491EF26F093EF26F094EF26F0F28EB8
:104D28002651D8B49AEF26F09CEF26F09EEF26F095
:104D3800B5EF25F028511825D96E29511921DA6EB9
:104D4800DF6A0001C96B000EC86F28C118F129C1BC
:104D580019F112000001C1BFB4EF26F0B6EF26F03A
:104D6800B7EF26F0CA93C1BFBEEF26F0BCEF26F01E
:104D7800C4EF26F00101176B010E166FC8EF26F07D
:104D8800C0C016F1C1C017F1BEC019F1BFC01AF1F9
:104D9800010102510311041105110611071108112F
:104DA8000911D8A4DAEF26F0DDEF26F0010EDEEFC8
:104DB80026F0000E186F0001CAA9E5EF26F0E7EF0C
:104DC80026F0F4EF26F001011851D8B4EEEF26F0E2
:104DD800F0EF26F0F4EF26F0FE0E1927FF0E1A2347
:104DE800780E01010A19D8B4FCEF26F0FEEF26F080
:104DF80003EF27F0156B410E146F06EF27F0156BC4
:104E0800610E146F14C113F11D6B4F0E1C6F02015C
:104E18008F6B62EF27F001011C07D8A01D07025114
:104E28000F0B1B6F0A0E1B611CEF27F01EEF27F0FC
:104E380022EF27F0300E1B2725EF27F01351F60F2E
:104E48001B27400E1C25D96E020E1D21DA6E1BC1D0
:104E5800DFFF1607D8A017071907D8A01A0702C13D
:104E68000BF103C10CF104C10DF105C10EF106C12E
:104E78000FF107C110F108C111F109C112F1050EB6
:104E88004FEF27F0D8901233113310330F330E330E
:104E98000D330C330B33E82E46EF27F00BC102F12C
:104EA8000CC103F10DC104F10EC105F10FC106F1EA
:104EB80010C107F111C108F112C109F101011DBFAB
:104EC8006FEF27F01D5109E1020E1C5DD8A06FEFAE
:104ED80027F071EF27F0A2EF27F002510311041118
:104EE80005110611071108110911D8A47EEF27F042
:104EF80080EF27F00FEF27F017BF8DEF27F017513E
:104F080006E11605D8B08BEF27F08DEF27F00FEFED
:104F180027F01ABF98EF27F01A5108E11905D8A011
:104F280098EF27F09AEF27F0A2EF27F00001CAB315
:104F3800A0EF27F0A2EF27F00FEF27F00001CAA992
:104F4800A8EF27F0AAEF27F0D4EF27F001011851B6
:104F5800D8B4B1EF27F0B3EF27F0D4EF27F0000172
:104F6800C051C111D8B4BBEF27F0BDEF27F0D4EF83
:104F780027F001011C07D8A01D07400E1C25D96E7B
:104F8800020E1D21DA6E0AC1DFFF1C07D8A01D071B
:104F9800400E1C25D96E020E1D21DA6E300EDF6E12
:104FA80000C1A4F001C1A5F0400E01011C250001BB
:104FB800A66F020E01011D210001A76F19C1A8F0FB
:104FC8001AC1A9F075EC3AF0A4C000F1A5C001F12E
:104FD800120027502810D8A4F4EF27F0F6EF27F096
:104FE800F9EF27F0020E29EF29F020EE06F02B50FA
:104FF800D9262C50DA222950DE5C2A50DE58D8B047
:1050080008EF28F00AEF28F00DEF28F0030E29EF3B
:1050180029F020EE02F02B50D9262C50DA2210EE7F
:1050280004F02B50E1262C50E222DE50E61807E16E
:10503800DE50E618D8A423EF28F025EF28F028EF53
:1050480028F0040E29EF29F00001756B000E746F2B
:10505800740E196E1A6A2BC01BF02CC01CF05BEC86
:1050680035F029500001745D2A507559D8B03FEFCA
:1050780028F041EF28F045EF28F074C029F075C0FA
:105088002AF06F6B000E6E6F20EE02F02B50D926BF
:105098002C50DA22DECF60F0DDCF61F020EE06F092
:1050A8002B50D9262C50DA22DECF62F0DDCF63F008
:1050B8006051625D726F61516359736F20EE02F047
:1050C8002B50D9262C50DA22DECF70F0DDCF71F0CC
:1050D8002950725D2A507359D8B075EF28F077EFD0
:1050E80028F0C9EF28F027C019F028C01AF020EEE0
:1050F80008F02B50D9262C50DA22DECF60F0DDCF15
:1051080061F070516003F3CF62F0F4CF63F0610394
:10511800F350632771516003F35063272BC0D9FF05
:105128002CC0DAFFDECF64F0DDCF65F06251642574
:105138001B6E635165211C6E20EE08F02B50D9269A
:105148002C50DA22DECF66F0DDCF67F072516603AD
:10515800F3CF68F0F4CF69F06703F3506927735110
:105168006603F350692768C01DF069C01EF038EC6B
:1051780041F00001716B000E706F72C06EF073C069
:105188006FF07251295E73512A5A20EE08F02B50A5
:10519800D9262C50DA22DECF60F0DDCF61F06E51D7
:1051A8006003F3CF62F0F4CF63F06103F350632739
:1051B8006F516003F350632762512724196E6351BE
:1051C80028201A6E20EE08F02B50D9262C50DA220F
:1051D800DECF64F0DDCF65F070516403F3CF66F085
:1051E800F4CF67F06503F350672771516403F350F8
:1051F80067272BC0D9FF2CC0DAFFDECF68F0DDCFE0
:1052080069F0665168251B6E675169211C6E20EE96
:1052180008F02B50D9262C50DA22DECF6AF0DDCFE9
:105228006BF029506A03F3CF6CF0F4CF6DF06B0389
:10523800F3506D272A506A03F3506D276CC01DF098
:105248006DC01EF038EC41F0000E120060EC41F029
:105258005AEC3FF09598360E0001946F7A0E956FD0
:1052680005EC43F084EC43F0010E0101C76FC56BF8
:10527800010EC66FC86BC96BCA6BCB6BC50E00013C
:10528800946F010E956FD1EC3AF0E7EC3DF0A9EC84
:1052980041F0C7EC36F00201F66B790E01018F6F11
:1052A800FF0E906F65EC3EF094C091F195C092F1BD
:1052B80096C093F197C094F120EC30F00F0E0001E6
:1052C800A06F000EA16F000EA26F000EA36FE7EC97
:1052D80040F0C50E0001946F010E956F2BEC3BF06A
:1052E800CF0E01018F6FFF0E906F000E64EC40F03F
:1052F80094C091F195C092F1010E64EC40F094C015
:1053080093F195C094F1020E64EC40F094C095F1CD
:1053180095C096F120EC30F039EC43F00201F61913
:10532800D8B499EF29F09BEF29F0B7EF29F039ECC1
:1053380043F00201F66FF651D8A4A5EF29F0A7EFC4
:1053480029F0ADEF29F09F0EF46FFF0EF56FB1EF66
:1053580029F0B90EF46FFF0EF56FF4C28FF1F5C2A4
:1053680090F120EC30F0900E0101186F020E196FC9
:105378001B6B320E1A6F1D6B050E1C6F6CEC25F043
:10538800010119BFD0EF29F0195108E11805D8A07B
:10539800D0EF29F0D2EF29F02FEF2AF04C0E8F6FC3
:1053A800FF0E906FC9C19BF10F0E9B17C9C19CF1ED
:1053B8009C3B0F0E9C170F0E9C179C510A0D9B517E
:1053C800F324916F000EF420926FCAC19DF10F0E65
:1053D8009D17CAC19EF19E3B0F0E9E170F0E9E177A
:1053E8009E510A0D9D51F324936F000EF420946F83
:1053F800CBC19FF10F0E9F17CBC1A0F1A03B0F0EA1
:10540800A0170F0EA017A0510A0D9F51F324956FF6
:10541800000EF420966F900E976F020E986F20EC96
:1054280030F039EC43F00009D8B41DEF2AF01FEF33
:105438002AF02FEF2AF0900E0101206F020E216F43
:10544800236B320E226F82EC3CF0000E0101106FCC
:10545800280EE7EC38F0F40E0001A06F010EA16FE2
:10546800000EA26F000EA36FE7EC40F06DEF29F07D
:1054780083EF00F03CC20CF13DC20DF13EC20EF1CB
:105488003FC20FF1ADC00CF1AEC00DF1AFC00EF1CF
:10549800B0C00FF1810E0101006FFF0E016F0CC14A
:1054A80002F10DC103F10EC104F10FC105F1180E8F
:1054B80063EF2AF0D8900533043303330233E82E20
:1054C8005EEF2AF0025100250A6F000E01210B6FD2
:1054D8000BBF78EF2AF00B5109E1170E0A5DD8A02F
:1054E80078EF2AF07AEF2AF084EF2AF0ADC0ADF019
:1054F800AEC0AEF0AFC0AFF0B0C0B0F048EF2BF028
:105508000BBF89EF2AF08BEF2AF0FCEF2AF00AC1D3
:1055180000F1FF0E016FFF0E026F7F0E036F000E8A
:10552800046F00679AEF2AF0A2EF2AF004350433DB
:10553800033302330133002F95EF2AF001C106F13E
:1055480002C107F103C108F104C109F101010651C3
:105558000C15006F07510D15016F08510E15026FDC
:1055680009510F15036F0051011102110311D8A43D
:10557800C0EF2AF0C2EF2AF0C4EF2AF07AEF2AF03F
:105588000CC100F10DC101F10EC102F10FC103F10F
:10559800200ED4EF2AF0D8900333023301330033BE
:1055A800E82ECFEF2AF00051011102110311D8B4EF
:1055B800E0EF2AF0E2EF2AF0EAEF2AF006510C2792
:1055C80007510D2308510E2309510F23061D006FA3
:1055D800071D016F081D026F091D036F00510C178D
:1055E80001510D1702510E1703510F1740EF2BF001
:1055F8000CC100F10DC101F10EC102F10FC103F19F
:10560800200E0CEF2BF0D890033302330133003314
:10561800E82E07EF2BF00051011102110311D8A455
:1056280018EF2BF01AEF2BF024EF2BF0000E0C6F75
:10563800000E0D6F000E0E6F000E0F6F40EF2BF077
:10564800D8900C35006F0D35016F0E35026F0F3590
:10565800036F0051011102110311D8B436EF2BF07A
:1056680038EF2BF040EF2BF0000E0C6F000E0D6F93
:10567800800E0E6FBF0E0F6F0CC1ADF00DC1AEF0F6
:105688000EC1AFF00FC1B0F012000001C1BF4FEF63
:105698002BF051EF2BF052EF2BF0CA93C1BF59EF0B
:1056A8002BF057EF2BF05EEF2BF0AE6B010EAD6FCA
:1056B80062EF2BF0C0C0ADF0C1C0AEF0BEC0AFF01D
:1056C800BFC0B0F0B26B4F0EB16F02018F6BE6EF47
:1056D8002BF00001B107D8A0B207400EB125D96E52
:1056E800020EB221DA6E02C194F003C195F004C132
:1056F80096F005C197F006C198F007C199F008C166
:105708009AF009C19BF00A0E9C6F000E9D6F000E67
:105718009E6F000E9F6F000EA06F000EA16F000E0F
:10572800A26F000EA36F18EC38F094C00AF195C070
:105738000BF196C00CF197C00DF198C00EF199C00D
:105748000FF19AC010F19BC011F101010A51300FFD
:10575800DF6E0001AD07D8A0AE07AF07D8A0B0072D
:1057680002C194F003C195F004C196F005C197F009
:1057780006C198F007C199F008C19AF009C19BF0D9
:105788000A0E9C6F000E9D6F000E9E6F000E9F6F9D
:10579800000EA06F000EA16F000EA26F000EA36F87
:1057A800D8EC35F094C002F195C003F196C004F12D
:1057B80097C005F198C006F199C007F19AC008F1A1
:1057C8009BC009F10001B151B211D8B4EEEF2BF032
:1057D800F0EF2BF022EF2CF001010251031104111C
:1057E80005110611071108110911D8A4FEEF2BF0B5
:1057F80000EF2CF06DEF2BF00001AEBF0EEF2CF098
:10580800AE5106E1AD05D8B00CEF2CF00EEF2CF040
:105818006DEF2BF0B0BF19EF2CF0B05108E1AF05D8
:10582800D8A019EF2CF01BEF2CF022EF2CF0CAB304
:1058380020EF2CF022EF2CF06DEF2BF000C1A4F03C
:1058480001C1A5F0400EB125A66F020EB221A76FC7
:10585800AFC0A8F0B0C0A9F075EC3AF0A4C000F150
:10586800A5C001F112000001C1BF3DEF2CF03FEFD0
:105878002CF040EF2CF0CA93C1BF47EF2CF045EF56
:105888002CF04DEF2CF00101136B010E126F51EF4C
:105898002CF0C0C012F1C1C013F1BEC015F1BFC0D9
:1058A80016F10101186B4F0E176F02018F6B010182
:1058B800146BA4EF2CF001011707D8A018070251A8
:1058C800070B146F400E1725D96E020E1821DA6ED9
:1058D8001451300FDF6E1207D8A013071507D8A090
:1058E800160702C10AF103C10BF104C10CF105C18D
:1058F8000DF106C10EF107C10FF108C110F109C180
:1059080011F1040E91EF2CF0D890113310330F33AE
:105918000E330D330C330B330A33E82E88EF2CF09B
:105928000AC102F10BC103F10CC104F10DC105F16B
:105938000EC106F10FC107F110C108F111C109F13B
:1059480018BFAFEF2CF0185108E11705D8A0AFEF3A
:105958002CF0B1EF2CF0E2EF2CF0025103110411FE
:1059680005110611071108110911D8A4BEEF2CF072
:10597800C0EF2CF05FEF2CF013BFCDEF2CF01351DC
:1059880006E11205D8B0CBEF2CF0CDEF2CF05FEF8D
:105998002CF016BFD8EF2CF0165108E11505D8A049
:1059A800D8EF2CF0DAEF2CF0E2EF2CF00001CAB3BC
:1059B800E0EF2CF0E2EF2CF05FEF2CF00101145136
:1059C800D8A4E9EF2CF0EBEF2CF0F5EF2CF0000168
:1059D800C051C111D8A4F3EF2CF0F5EF2CF00CEF67
:1059E8002DF00001CAA9FBEF2CF0FDEF2CF00CEF15
:1059F8002DF001011707D8A01807400E1725D96EFA
:105A0800020E1821DA6E300EDF6E1507D8A01607C1
:105A180000C1A4F001C1A5F0400E01011725000145
:105A2800A66F020E010118210001A76F15C1A8F089
:105A380016C1A9F075EC3AF0A4C000F1A5C001F1B7
:105A480012009FC0A7F0A0C0A8F00001A751A8119C
:105A5800D8A431EF2DF033EF2DF037EF2DF0DF0E16
:105A6800A76FFF0EA86FAA6B000EA96F3FEF2DF06E
:105A78000001A94BAA2BA951A725A16FAA51A821BA
:105A8800A26FA1C0F6FFA2C0F7FFF86A0F0EF76475
:105A980003D00800F55005D0F6CFE1FFF7CFE2FFBD
:105AA800E7500009D8A45BEF2DF05DEF2DF03CEF37
:105AB8002DF00001C1BF63EF2DF065EF2DF078EFF9
:105AC8002DF0A951C05DC151800AA16FAA51800A69
:105AD800A159D8B072EF2DF074EF2DF078EF2DF0BA
