:0400000068EF00F0B5
:0600080001828AEF15F0F1
:100018000180D8CF9AF0E8CF9BF0E0CF9CF0FACFE0
:100028009DF0FBCF9EF0E1CF9FF0E2CFA0F0D9CFBB
:10003800A1F0DACFA2F0F3CFA3F0F4CFA4F000013F
:10004800A66B000EA56F3EEF00F0A551020DF35010
:10005800BB0FD96EDA6A02D83BEF00F00500FA6EE2
:10006800DE50FD6EDE50FE6EFF6AFA50120000018F
:10007800A54BA62BD251976F986B9751A55DA651AA
:10008800800A996F9851800A9959D8A04EEF00F0CC
:1000980050EF00F029EF00F0A4C0F4FFA3C0F3FF75
:1000A800A2C0DAFFA1C0D9FFA0C0E2FF9FC0E1FF54
:1000B8009EC0FBFF9DC0FAFF9CC0E0FF9BC0E8FF0D
:0C00C8009AC0D8FF0190100093EF1FF0C9
:101000000054696D653A20252E32643A25322E321D
:10101000643A25322E32640A0D456E746572656439
:1010200020737472696E673A2025730A0D00486553
:101030006C6C6F2121210A0D54696D653A20256C75
:10104000640A0D456E74657220737472696E673A36
:10105000200A0D004144433A2025642025642025C0
:10106000640A0D00286E756C6C29000087C1D9FFD9
:1010700088C1DAFFDFCFF6FF100EF76E0800F550DB
:10108000250AD8A446EF08F048EF08F0BFEF09F0B2
:1010900087C1D9FF88C1DAFFDF2A0101356B000E55
:1010A000346F34C138F13669376987C15DF188C161
:1010B0005EF189C15FF18AC160F18DEC1AF05DC10A
:1010C00034F15EC135F1010135BF6BEF08F069EF16
:1010D00008F070EF08F03881346D351FD8B0352B2B
:1010E00087C1D9FF88C1DAFFDFCFF6FF100EF76E98
:1010F0000800F5502E0AD8A480EF08F082EF08F01F
:1011000095EF08F087C1D9FF88C1DAFFDF2A87C1D0
:101110005DF188C15EF189C15FF18AC160F18DEC3A
:101120001AF05DC136F15EC137F187C1D9FF88C1C0
:10113000DAFFDF500101936F93C1F6FF100EF76ED7
:101140000800F5CF92F1AFEF08F0932BBEEF08F057
:10115000690E926FBEEF08F0926BBEEF08F09251ED
:10116000640AD8B4A8EF08F00D0AD8B4A8EF08F0C4
:10117000050AD8B4A5EF08F0ACEF08F093C1F6FF6C
:10118000100EF76E0800F550640AD8B4CAEF08F0E4
:10119000CCEF08F011EF09F093C1F6FF100EF76ED7
:1011A0000800F550690AD8A4D8EF08F0DAEF08F083
:1011B00032EF09F011EF09F089C1D9FF8AC1DAFFD6
:1011C000DFCF8BF1020EDE26DFCF8CF1000EDD22A9
:1011D0008BC1D9FF8CC1DAFFDECF8DF1DDCF8EF16F
:1011E000000E8EBFFF0E8F6F906F1CEF09F089C14C
:1011F000D9FF8AC1DAFFDFCF8BF1040EDE26DFCF05
:101200008CF1000EDD228BC1D9FF8CC1DAFFDECF5D
:101210008DF1DECF8EF1DECF8FF1DECF90F11CEFBE
:1012200009F09251690AD8B4DCEF08F0050AD8B485
:10123000F7EF08F01CEF09F0932987C1D9FF88C1A7
:10124000DAFFDF6E85C176F186C177F18DC178F165
:101250008EC179F18FC17AF190C17BF1B9EC14F0B4
:10126000D4EF09F0916B87C1D9FF88C1DAFFDFCFD6
:10127000F6FF100EF76E0800F550730AD8A443EF7E
:1012800009F045EF09F04EEF09F087C1D9FF88C199
:10129000DAFFDF2A010E916F94EF09F087C1D9FFC1
:1012A00088C1DAFFDFCFF6FF100EF76E0800F550A9
:1012B0006C0AD8A45EEF09F060EF09F094EF09F032
:1012C00087C1D9FF88C1DAFFDF508B6F010E8B27F2
:1012D0008BC1F6FF100EF76E0800F5506C0AD8A40B
:1012E00074EF09F076EF09F094EF09F087C1D9FFA8
:1012F00088C1DAFFDF508B6F020E8B278BC1F6FFA0
:10130000100EF76E0800F550730AD8A48AEF09F0A2
:101310008CEF09F094EF09F087C1D9FF88C1DAFF9B
:10132000030EDF264AEF09F09151D8B49AEF09F085
:101330009CEF09F0B8EF09F085C166F186C167F14D
:1013400089C1D9FF8AC1DAFFDFCF8BF1020EDE2619
:10135000DFCF8CF1000EDD228BC1D9FF8CC1DAFF0B
:10136000DECF68F1DDCF69F1E6EC13F0D4EF09F0E0
:1013700087C1D9FF88C1DAFFDF2AD4EF09F087C11E
:10138000D9FF88C1DAFFDFCFF6FF100EF76E080035
:10139000F55001015D6F5E6B85C15FF186C160F143
:1013A000C2EC19F0B8EF09F0120001016E51D96ECC
:1013B000DA6ADE50DE10D8A4E0EF09F0E2EF09F0BF
:1013C000E4EF09F06BEF0BF06E51D96EDA6A060E9E
:1013D000D9266C51DE5C6D51DE58D8B0F2EF09F0C1
:1013E000F4EF09F0F6EF09F06BEF0BF06AC181F151
:1013F0006BC182F1846B000E836F6E51D96EDA6A15
:10140000040ED926DECF6FF1DDCF70F16E51D96EAB
:10141000DA6A060ED926DECF71F1DDCF72F16F5197
:10142000715D856F70517259866F886B000E876F82
:10143000870E5D6F010E5E6F6EC15FF10DEC17F0F0
:101440006CC17FF16DC180F101016C51855D6D5101
:101450008659D8B02EEF0AF030EF0AF08CEF0AF080
:101460006E51D96EDA6A080ED926DECF6FF1DDCF64
:1014700070F16E51D96EDA6A040ED926DECF71F1A1
:10148000DDCF72F16F517103F3CF73F1F4CF74F1CB
:101490007203F350742770517103F35074276E5127
:1014A000D96EDA6ADECF75F1DDCF76F1735175252D
:1014B0005D6F745176215E6F81C15FF182C160F111
:1014C0006E51D96EDA6A080ED926DECF77F1DDCFFC
:1014D00078F185517703F3CF79F1F4CF7AF178037E
:1014E000F3507A2786517703F3507A2779C161F157
:1014F0007AC162F1E9EC1FF001016E51D96EDA6A2E
:10150000040ED926DE6ADD6A85C183F186C184F1C5
:1015100085516C5F86516D5B6E51D96EDA6A080E2B
:10152000D926DECF6FF1DDCF70F16E51D96EDA6A58
:10153000040ED926DECF71F1DDCF72F16F51710348
:10154000F3CF73F1F4CF74F17203F3507427705139
:101550007103F35074276E51D96EDA6ADECF75F1DC
:10156000DDCF76F1735175255D6F745176215E6F15
:101570006E51D96EDA6A080ED926DECF77F1DDCF4B
:1015800078F183517703F3CF79F1F4CF7AF17803CF
:10159000F3507A2784517703F3507A2779518125C4
:1015A0005F6F7A518221606F6E51D96EDA6A080ED0
:1015B000D926DECF7BF1DDCF7CF16C517B03F3CFFD
:1015C0007DF1F4CF7EF17C03F3507E276D517B03D8
:1015D000F3507E277DC161F17EC162F1E9EC1FF01D
:1015E00001016E51D96EDA6A040ED9266C51DE26DD
:1015F0006D51DD226E51D96EDA6A060ED9266E5112
:10160000E16EE26A040EE126DE50E65CDE50E6584A
:10161000D8A00DEF0BF00FEF0BF021EF0BF06E5198
:10162000D96EDA6A060ED926DECF6FF1DDCF70F102
:101630006E51D96EDA6A040ED9266F51DE5E705192
:10164000DD5A6E51D96EDA6A060ED926DECF6FF1F9
:10165000DDCF70F187516F5F8851705B6F517F5D97
:1016600070518059D8A037EF0BF039EF0BF04FEFE6
:101670000BF06E51D96EDA6A040ED926DECF6FF107
:10168000DDCF70F1010E6F27000E70236E51D96E01
:10169000DA6A020ED9266FC1DEFF70C1DDFF6E511E
:1016A000D96EDA6A060ED9266E51E16EE26A020E32
:1016B000E126DE50E65CDE50E658D8A062EF0BF083
:1016C00064EF0BF06BEF0BF06E51D96EDA6A020E1D
:1016D000D926DE6ADD6A120000017151D96EDA6A1C
:1016E000DE50DE10D8A477EF0BF079EF0BF07BEF34
:1016F0000BF001EF0DF07151D96EDA6A060ED926A2
:101700006F51DE5C7051DE58D8B089EF0BF08BEF73
:101710000BF08DEF0BF001EF0DF06DC084F06EC09B
:1017200085F0876B000E866F7151D96EDA6A040EF0
:10173000D926DECF72F0DDCF73F07151D96EDA6A3F
:10174000060ED926DECF74F0DDCF75F07251745DD0
:101750008A6F735175598B6F896B000E886F880E75
:10176000606F616B71C062F083EC17F06FC082F044
:1017700070C083F000016F518A5D70518B59D8B0F1
:10178000C4EF0BF0C6EF0BF022EF0CF07151D96EE5
:10179000DA6A080ED926DECF72F0DDCF73F0715110
:1017A000D96EDA6A040ED926DECF74F0DDCF75F07B
:1017B00072517403F3CF76F0F4CF77F07503F350E2
:1017C000772773517403F35077277151D96EDA6A12
:1017D000DECF78F0DDCF79F076517825606F7751E4
:1017E0007921616F84C062F085C063F07151D96E58
:1017F000DA6A080ED926DECF7AF0DDCF7BF08A5187
:101800007A03F3CF7CF0F4CF7DF07B03F3507D2798
:101810008B517A03F3507D277CC064F07DC065F066
:101820003BEC20F000017151D96EDA6A040ED92622
:10183000DE6ADD6A8AC086F08BC087F08A516F5FEE
:101840008B51705B7151D96EDA6A080ED926DECFE2
:1018500072F0DDCF73F07151D96EDA6A040ED926B9
:10186000DECF74F0DDCF75F072517403F3CF76F0F4
:10187000F4CF77F07503F350772773517403F35067
:1018800077277151D96EDA6ADECF78F0DDCF79F043
:1018900076517825606F77517921616F7151D96EDA
:1018A000DA6A080ED926DECF7AF0DDCF7BF08651DA
:1018B0007A03F3CF7CF0F4CF7DF07B03F3507D27E8
:1018C00087517A03F3507D277C518425626F7D51C7
:1018D0008521636F7151D96EDA6A080ED926DECF81
:1018E0007EF0DDCF7FF06F517E03F3CF80F0F4CF39
:1018F00081F07F03F350812770517E03F3508127DD
:1019000080C064F081C065F03BEC20F000017151B3
:10191000D96EDA6A040ED9266F51DE267051DD22A7
:101920007151D96EDA6A060ED9267151E16EE26AFA
:10193000040EE126DE50E65CDE50E658D8A0A3EFA8
:101940000CF0A5EF0CF0B7EF0CF07151D96EDA6A1C
:10195000060ED926DECF72F0DDCF73F07151D96E4D
:10196000DA6A040ED9267251DE5E7351DD5A715166
:10197000D96EDA6A060ED926DECF72F0DDCF73F0AB
:101980008851725F8951735B7251825D73518359C3
:10199000D8A0CDEF0CF0CFEF0CF0E5EF0CF07151CB
:1019A000D96EDA6A040ED926DECF72F0DDCF73F07D
:1019B000010E7227000E73237151D96EDA6A020E7E
:1019C000D92672C0DEFF73C0DDFF7151D96EDA6AAD
:1019D000060ED9267151E16EE26A020EE126DE5052
:1019E000E65CDE50E658D8A0F8EF0CF0FAEF0CF009
:1019F00001EF0DF07151D96EDA6A020ED926DE6A56
:101A0000DD6A12001350D96EDA6ADE50DE10D8A4F7
:101A10000CEF0DF00EEF0DF010EF0DF093EF0EF058
:101A20001350D96EDA6A060ED9261150DE5C1250B8
:101A3000DE58D8B01EEF0DF020EF0DF022EF0DF0C4
:101A400093EF0EF00FC026F010C027F0296A000EA9
:101A5000286E1350D96EDA6A040ED926DECF14F040
:101A6000DDCF15F01350D96EDA6A060ED926DECF17
:101A700016F0DDCF17F01450165C2C6E1550175869
:101A80002D6E2B6A000E2A6E2A0E026E036A13C098
:101A900004F0F9EC17F011C024F012C025F0115039
:101AA0002C5C12502D58D8B058EF0DF05AEF0DF0B5
:101AB000B5EF0DF01350D96EDA6A080ED926DECFD5
:101AC00014F0DDCF15F01350D96EDA6A040ED92662
:101AD000DECF16F0DDCF17F014501602F3CF18F05A
:101AE000F4CF19F01702F350192615501602F350CF
:101AF00019261350D96EDA6ADECF1AF0DDCF1BF04B
:101B000018501A24026E19501B20036E26C004F0D0
:101B100027C005F01350D96EDA6A080ED926DECF39
:101B20001CF0DDCF1DF02C501C02F3CF1EF0F4CFC3
:101B30001FF01D02F3501F262D501C02F3501F26CC
:101B40001EC006F01FC007F064EC20F01350D96EE1
:101B5000DA6A040ED926DE6ADD6A2CC028F02DC0B0
:101B600029F02C50115E2D50125A1350D96EDA6A9A
:101B7000080ED926DECF14F0DDCF15F01350D96E44
:101B8000DA6A040ED926DECF16F0DDCF17F0145036
:101B90001602F3CF18F0F4CF19F01702F3501926FC
:101BA00015501602F35019261350D96EDA6ADECF9B
:101BB0001AF0DDCF1BF018501A24026E19501B20AA
:101BC000036E1350D96EDA6A080ED926DECF1CF0E8
:101BD000DDCF1DF028501C02F3CF1EF0F4CF1FF014
:101BE0001D02F3501F2629501C02F3501F261E50C1
:101BF0002624046E1F502720056E1350D96EDA6A12
:101C0000080ED926DECF20F0DDCF21F011502002C2
:101C1000F3CF22F0F4CF23F02102F3502326125009
:101C20002002F350232622C006F023C007F064EC04
:101C300020F01350D96EDA6A040ED9261150DE2630
:101C40001250DD221350D96EDA6A060ED9261350CF
:101C5000E16EE26A040EE126DE50E65CDE50E658F4
:101C6000D8A035EF0EF037EF0EF049EF0EF013501D
:101C7000D96EDA6A060ED926DECF14F0DDCF15F064
:101C80001350D96EDA6A040ED9261450DE5E155050
:101C9000DD5A1350D96EDA6A060ED926DECF14F05B
:101CA000DDCF15F02A50145E2B50155A1450245CC9
:101CB00015502558D8A05FEF0EF061EF0EF077EFCA
:101CC0000EF01350D96EDA6A040ED926DECF14F066
:101CD000DDCF15F0010E1426000E15221350D96E1B
:101CE000DA6A020ED92614C0DEFF15C0DDFF1350DC
:101CF000D96EDA6A060ED9261350E16EE26A020E38
:101D0000E126DE50E65CDE50E658D8A08AEF0EF001
:101D10008CEF0EF093EF0EF01350D96EDA6A020ECC
:101D2000D926DE6ADD6A120001016A516B11D8A45E
:101D30009CEF0EF09EEF0EF0A1EF0EF0020EC2EF40
:101D40000FF06E51D96EDA6A060ED9266C51DE5C40
:101D50006D51DE58D8B0AFEF0EF0B1EF0EF0B4EF2A
:101D60000EF0030EC2EF0FF06E51D96EDA6A020E5A
:101D7000D9266E51E16EE26A040EE126DE50E618C5
:101D800007E1DE50E618D8A4C8EF0EF0CAEF0EF057
:101D9000CDEF0EF0040EC2EF0FF0846B000E836FD8
:101DA000830E5D6F010E5E6F6EC15FF10DEC17F07B
:101DB00001016C51835D6D518459D8B0E2EF0EF092
:101DC000E4EF0EF0E8EF0EF083C16CF184C16DF129
:101DD0007E6B000E7D6F6E51D96EDA6A020ED926C7
:101DE000DECF6FF1DDCF70F16E51D96EDA6A060E7B
:101DF000D926DECF71F1DDCF72F16F51715D816F48
:101E000070517259826F6E51D96EDA6A020ED926FC
:101E1000DECF7FF1DDCF80F16C51815D6D51825954
:101E2000D8B015EF0FF017EF0FF066EF0FF06AC1A3
:101E30005DF16BC15EF16E51D96EDA6A080ED9267A
:101E4000DECF6FF1DDCF70F17F516F03F3CF71F112
:101E5000F4CF72F17003F350722780516F03F35087
:101E600072276E51D96EDA6ADECF73F1DDCF74F16D
:101E7000715173255F6F72517421606F6E51D96E0D
:101E8000DA6A080ED926DECF75F1DDCF76F1815101
:101E90007503F3CF77F1F4CF78F17603F350782719
:101EA00082517503F350782777C161F178C162F1EF
:101EB000E9EC1FF00101806B000E7F6F81C17DF1A5
:101EC00082C17EF181516C5F82516D5B6E51D96E22
:101ED000DA6A080ED926DECF6FF1DDCF70F17D51C1
:101EE0006F03F3CF71F1F4CF72F17003F3507227E7
:101EF0007E516F03F350722771516A255D6F7251E5
:101F00006B215E6F6E51D96EDA6A080ED926DECF6C
:101F100073F1DDCF74F17F517303F3CF75F1F4CF1B
:101F200076F17403F350762780517303F3507627CC
:101F30006E51D96EDA6ADECF77F1DDCF78F1755167
:101F400077255F6F76517821606F6E51D96EDA6AAE
:101F5000080ED926DECF79F1DDCF7AF16C51790305
:101F6000F3CF7BF1F4CF7CF17A03F3507C276D51F2
:101F70007903F3507C277BC161F17CC162F1E9EC0C
:101F80001FF0000E120000016D516E11D8A4CBEFAE
:101F90000FF0CDEF0FF0D0EF0FF0020EF0EF10F0DA
:101FA0007151D96EDA6A060ED9266F51DE5C705116
:101FB000DE58D8B0DEEF0FF0E0EF0FF0E3EF0FF0F8
:101FC000030EF0EF10F07151D96EDA6A020ED926C5
:101FD0007151E16EE26A040EE126DE50E61807E177
:101FE000DE50E618D8A4F7EF0FF0F9EF0FF0FCEF92
:101FF0000FF0040EF0EF10F0876B000E866F860E68
:10200000606F616B71C062F083EC17F000016F517B
:10201000865D70518759D8B010EF10F012EF10F0B4
:1020200016EF10F086C06FF087C070F0816B000E65
:10203000806F7151D96EDA6A020ED926DECF72F046
:10204000DDCF73F07151D96EDA6A060ED926DECF74
:1020500074F0DDCF75F07251745D846F73517559F2
:10206000856F7151D96EDA6A020ED926DECF82F001
:10207000DDCF83F06F51845D70518559D8B043EF47
:1020800010F045EF10F094EF10F06DC060F06EC0EE
:1020900061F07151D96EDA6A080ED926DECF72F07E
:1020A000DDCF73F082517203F3CF74F0F4CF75F08B
:1020B0007303F350752783517203F35075277151E1
:1020C000D96EDA6ADECF76F0DDCF77F074517625FF
:1020D000626F75517721636F7151D96EDA6A080E9C
:1020E000D926DECF78F0DDCF79F084517803F3CFB5
:1020F0007AF0F4CF7BF07903F3507B278551780396
:10210000F3507B277AC064F07BC065F03BEC20F095
:102110000001836B000E826F84C080F085C081F067
:1021200084516F5F8551705B7151D96EDA6A080E08
:10213000D926DECF72F0DDCF73F080517203F3CF7A
:1021400074F0F4CF75F07303F35075278151720367
:10215000F350752774516D25606F75516E21616F55
:102160007151D96EDA6A080ED926DECF76F0DDCF4E
:1021700077F082517603F3CF78F0F4CF79F07703DC
:10218000F350792783517603F35079277151D96E33
:10219000DA6ADECF7AF0DDCF7BF078517A25626F94
:1021A00079517B21636F7151D96EDA6A080ED92695
:1021B000DECF7CF0DDCF7DF06F517C03F3CF7EF07E
:1021C000F4CF7FF07D03F3507F2770517C03F350F1
:1021D0007F277EC064F07FC065F03BEC20F0000EEE
:1021E00012000F501010D8A4F8EF10F0FAEF10F012
:1021F000FDEF10F0020E1BEF12F01350D96EDA6AE9
:10220000060ED9261150DE5C1250DE58D8B00BEF06
:1022100011F00DEF11F010EF11F0030E1BEF12F0A3
:102220001350D96EDA6A020ED9261350E16EE26AB3
:10223000040EE126DE50E61807E1DE50E618D8A4C9
:1022400024EF11F026EF11F029EF11F0040E1BEF2F
:1022500012F0296A000E286E280E026E036A13C05F
:1022600004F0F9EC17F01150285C12502958D8B03E
:102270003CEF11F03EEF11F042EF11F028C011F0E9
:1022800029C012F0236A000E226E1350D96EDA6A4A
:10229000020ED926DECF14F0DDCF15F01350D96E23
:1022A000DA6A060ED926DECF16F0DDCF17F014500D
:1022B000165C266E15501758276E1350D96EDA6AC1
:1022C000020ED926DECF24F0DDCF25F01150265C9A
:1022D00012502758D8B06FEF11F071EF11F0BFEF27
:1022E00011F00FC002F010C003F01350D96EDA6A7B
:1022F000080ED926DECF14F0DDCF15F024501402DD
:10230000F3CF16F0F4CF17F01502F350172625502F
:102310001402F35017261350D96EDA6ADECF18F084
:10232000DDCF19F016501824046E17501920056ED1
:102330001350D96EDA6A080ED926DECF1AF0DDCF37
:102340001BF026501A02F3CF1CF0F4CF1DF01B0235
:10235000F3501D2627501A02F3501D261CC006F00C
:102360001DC007F064EC20F0256A000E246E26C024
:1023700022F027C023F02650115E2750125A135026
:10238000D96EDA6A080ED926DECF14F0DDCF15F04B
:1023900022501402F3CF16F0F4CF17F01502F350C9
:1023A000172623501402F350172616500F24026EDE
:1023B00017501020036E1350D96EDA6A080ED92612
:1023C000DECF18F0DDCF19F024501802F3CF1AF049
:1023D000F4CF1BF01902F3501B2625501802F350BE
:1023E0001B261350D96EDA6ADECF1CF0DDCF1DF04C
:1023F0001A501C24046E1B501D20056E1350D96EFC
:10240000DA6A080ED926DECF1EF0DDCF1FF011509C
:102410001E02F3CF20F0F4CF21F01F02F35021264B
:1024200012501E02F350212620C006F021C007F0F2
:1024300064EC20F0000E1200B2EC20F000EC1FF073
:102440009598940E01015D6F3B0E5E6FBBEC21F021
:10245000FEEC21F0010E0201CA6FC86B010EC96FBC
:10246000CB6BCC6BCD6BCE6BC80E01015D6F020EDA
:102470005E6F3AEC1DF086EC1DF0E9EC21F0640E85
:1024800001019A6F020E9B6F2E0E9C6F4DEC1EF099
:102490005DC19DF15EC19EF15FC19FF160C1A0F180
:1024A000FCEC20F0640E0101916F020E926F946BB0
:1024B000320E936F48EC1BF00F0E0101696F000E96
:1024C0006A6F000E6B6F000E6C6F12EC20F0C80E7E
:1024D00001015D6F020E5E6F4AEC1CF0640E01019B
:1024E0009A6F020E9B6F540E9C6F000ED3EC21F07E
:1024F0005DC19DF15EC19EF1010ED3EC21F05DC185
:102500009FF15EC1A0F1020ED3EC21F05DC1A1F1FB
:102510005EC1A2F1FCEC20F0640E0101916F020E8D
:10252000926F946B640E936F48EC1BF0000E0101E8
:10253000916F020E926F946B320E936F966B050E35
:10254000956F0FEC13F0010192BFAFEF12F09251B3
:1025500008E19105D8A0AFEF12F0B1EF12F000EF53
:1025600013F0640E9A6F020E9B6F010E9C6FCCC22B
:10257000B2F10F0EB217CCC2B3F1B33B0F0EB317CB
:102580000F0EB317B3510A0DB251F3249D6F000E15
:10259000F4209E6FCDC2B4F10F0EB417CDC2B5F1C9
:1025A000B53B0F0EB5170F0EB517B5510A0DB45147
:1025B000F3249F6F000EF420A06FCEC2B6F10F0E71
:1025C000B617CEC2B7F1B73B0F0EB7170F0EB7173E
:1025D000B7510A0DB651F324A16F000EF420A26F7B
:1025E000000EA36F020EA46FFCEC20F0640E01013C
:1025F000916F020E926F946B640E936F48EC1BF018
:10260000F40E0101696F010E6A6F000E6B6F000E10
:102610006C6F12EC20F067EF12F068EF00F0010130
:10262000945109E1C90E935DD8A019EF13F01BEF87
:1026300013F01FEF13F091699269E5EF13F0F29E2A
:102640005A0E5D6F5E6BDD0E5F6F0DEC17F0F28E54
:102650005A505B10D8B42FEF13F031EF13F0E0EFC6
:1026600013F05A50551809E15B505618D8B43BEF97
:1026700013F03DEF13F088EF13F0FF0E01019325E7
:10268000976FFF0E9421986F5A50975D5B50985941
:10269000D8B04DEF13F04FEF13F074EF13F0F29E3C
:1026A00091C185F192C186F193C187F194C188F1FE
:1026B000DD0E896F6EEC18F0F28E566A000E556EC4
:1026C000010193519125976F94519221986FFF0EBC
:1026D0009725D96EFF0E9821DA6EDF6A93C191F1CA
:1026E00094C192F1E5EF13F05AC055F05BC056F07B
:1026F0004DEC1EF05DC147F05EC148F05FC149F08E
:1027000060C14AF00101926B000E916FE5EF13F08A
:102710004DEC1EF0475001015D5D976F48505E59CA
:10272000986F49505F59996F4A5060599A6F955107
:102730009B6F96519C6F9D6B9E6B97519B5D9851C3
:102740009C5999519D599A519E59D8B0AAEF13F0AE
:10275000ACEF13F0E0EF13F05A50935D5B509459D7
:10276000D8A0B5EF13F0B7EF13F0BDEF13F05AC0D8
:102770005AF05BC05BF0C1EF13F093C15AF094C103
:102780005BF0F29E91C185F192C186F15AC087F14A
:102790005BC088F1DD0E896F6EEC18F0F28E5A5036
:1027A00001019125D96E5B509221DA6EDF6A566A7B
:1027B000000E556E5AC091F15BC092F1E5EF13F037
:1027C000FF0E0101926FFE0E916F120068C170F151
:1027D00069C171F1010170517111D8A4F2EF13F0C8
:1027E000F4EF13F0FAEF13F0640E706F7051D8A489
:1027F000100E716F736B000E726F02EF14F0010117
:10280000724B732B725170256A6F735171216B6F0C
:102810006AC1F6FF6BC1F7FFF86A0F0EF76403D0C9
:102820000800F55005D0F6CFE1FFF7CFE2FFE75003
:102830000009D8A41EEF14F020EF14F0FFEF13F0FE
:10284000010137BF26EF14F028EF14F03BEF14F02E
:102850007251365D3751800A6A6F7351800A6A5926
:10286000D8B035EF14F037EF14F03BEF14F036C169
:1028700072F137C173F172C16CF173C16DF134C182
:102880006EF135C16FF138B148EF14F04AEF14F032
:1028900087EF14F058EF14F05E6B200E5D6F66C189
:1028A0005FF167C160F1C2EC19F00101724B732B4B
:1028B0006E51725D7351800A6A6F6F51800A6A5956
:1028C000D8A065EF14F067EF14F04CEF14F087EF29
:1028D00014F070C1F6FF71C1F7FFF86A0F0EF764CC
:1028E00003D00800F55005D0F6CFE1FFF7CFE2FFA7
:1028F000E75001016A6F6A515D6F5E6B66C15FF1FF
:1029000067C160F1C2EC19F00101704B712B6C07CB
:10291000D8A06D076C2906E16D29D8A492EF14F0B8
:1029200094EF14F069EF14F038A199EF14F09BEFD5
:1029300014F0B8EF14F0A9EF14F05E6B200E5D6F89
:1029400066C15FF167C160F1C2EC19F00101724B21
:10295000732B6E51725D7351800A6A6F6F51800ADA
:102960006A59D8A0B6EF14F0B8EF14F09DEF14F048
:10297000120001017BBFBFEF14F0C2EF14F0010E93
:10298000C3EF14F0000E826F37BFCBEF14F0C9EF26
:1029900014F0D0EF14F0816B010E806FD4EF14F0BF
:1029A00036C180F137C181F134C17EF135C17FF18B
:1029B0008251D8B4DEEF14F0E0EF14F0F5EF14F02C
:1029C0007E07D8A07F078251D8A4E9EF14F0EBEF7F
:1029D00014F0F0EF14F07D6B2B0E7C6FF3EF14F01E
:1029E0007D6B2D0E7C6F7CC182F1846B1F0E836F1B
:1029F0005A6B40EF15F08307D8A084073B0E832560
:102A0000D96E010E8421DA6E78C15DF179C15EF173
:102A10007AC15FF17BC160F10A0E616F000E626FD7
:102A2000000E636F000E646F97EC16F05DC167F1E6
:102A30005EC168F186EC21F001016751300FDF6E55
:102A40008007D8A081077E07D8A07F0778C15DF1F5
:102A500079C15EF17AC15FF17BC160F10A0E616FED
:102A6000000E626F000E636F000E646F11EC16F0C3
:102A70005DC178F15EC179F15FC17AF160C17BF12E
:102A8000010184BF4CEF15F0845108E18305D8A003
:102A90004CEF15F04EEF15F066EF15F07851791107
:102AA0007A117B11D8A457EF15F059EF15F0FBEF11
:102AB00014F081BF66EF15F0815106E18005D8B0B2
:102AC00064EF15F066EF15F0FBEF14F08251D8B407
:102AD0006CEF15F06EEF15F079EF15F08307D8A0C5
:102AE00084073B0E8325D96E010E8421DA6E82C1E4
:102AF000DFFF76C16DF177C16EF13B0E83256F6FFD
:102B0000010E8421706F7EC171F17FC172F1EBEC17
:102B10001CF01200FACF3CF0FBCF3DF0E1CF3EF0CD
:102B2000E2CF3FF0D9CF40F0DACF41F0F3CF42F01F
:102B3000F4CF43F0F2AA9FEF15F0A1EF15F0D4EF18
:102B400015F0F2A4A6EF15F0A8EF15F0D4EF15F0EC
:102B5000F29439C1D7FF3AC1D6FF010E4B26000EC1
:102B60004C224D224E22466ACBEF15F04650020D04
:102B7000200EF324D96E010EF420DA6E02D8CAEFCB
:102B800015F00500FA6EDE50FD6EDE50FE6EFF6A37
:102B9000FA501200462A5850465CD8A0D2EF15F0E1
:102BA000D4EF15F0B6EF15F0456A000E446EEDEF68
:102BB00015F04450020DF350A70FD96EDA6A02D80F
:102BC000EBEF15F00500FA6EDE50FD6EDE50FE6E86
:102BD000FF6AFA501200444A452A5950396E3A6A3F
:102BE0003950445C4550800A3B6E3A50800A3B584D
:102BF000D8A0FDEF15F0FFEF15F0D9EF15F043C0A9
:102C0000F4FF42C0F3FF41C0DAFF40C0D9FF3FC02C
:102C1000E2FF3EC0E1FF3DC0FBFF3CC0FAFF019276
:102C200011000101666B64BF1AEF16F018EF16F081
:102C300024EF16F0641F631F621F616D000E622394
:102C400063236423010E666F60BF2BEF16F029EF3C
:102C500016F035EF16F0601F5F1F5E1F5D6D000EF2
:102C60005E235F236023010E661B000E676F000E5C
:102C7000686F000E696F000E6A6F61516211631117
:102C80006411D8B446EF16F048EF16F07EEF16F058
:102C9000010E656F52EF16F0D890613762376337D7
:102CA0006437652B64AF57EF16F059EF16F04CEF11
:102CB00016F0D8906737683769376A3761515D5DBC
:102CC00062515E5963515F5964516059D8A06BEFEE
:102CD00016F06DEF16F076EF16F061515D5F625100
:102CE0005E5B63515F5B6451605B6781D890643366
:102CF000633362336133652F59EF16F06651D8B4F0
:102D000084EF16F086EF16F08EEF16F06A1F691F3B
:102D1000681F676D000E682369236A2367C15DF130
:102D200068C15EF169C15FF16AC160F11200010121
:102D3000666B60BFA0EF16F09EEF16F0AAEF16F0DC
:102D4000601F5F1F5E1F5D6D000E5E235F236023AB
:102D5000010E666F64BFB1EF16F0AFEF16F0B9EF7A
:102D600016F0641F631F621F616D000E62236323F0
:102D700064236151621163116411D8B4C2EF16F07B
:102D8000C4EF16F0F4EF16F0010E656FCEEF16F0FB
:102D9000D8906137623763376437652B64AFD3EF00
:102DA00016F0D5EF16F0C8EF16F061515D5D625177
:102DB0005E5963515F5964516059D8A0E2EF16F033
:102DC000E4EF16F0ECEF16F061515D5F62515E5B6F
:102DD00063515F5B6451605BD890643363336233EB
:102DE0006133652FD5EF16F06651D8B4FAEF16F0BF
:102DF000FCEF16F004EF17F0601F5F1F5E1F5D6DA4
:102E0000000E5E235F2360235DC15DF15EC15EF154
:102E10005FC15FF160C160F1120001015F51D96EC5
:102E2000DA6ADE50DE10D8A418EF17F01AEF17F0A8
:102E30001CEF17F082EF17F05F51D96EDA6A020EBD
:102E4000D9265F51E16EE26A040EE126DE50E65CAF
:102E5000DE50E658D8B02FEF17F031EF17F062EFE1
:102E600017F05F51D96EDA6A040ED926DECF60F111
:102E7000DDCF61F15F51D96EDA6A020ED926DECF5D
:102E800062F1DDCF63F15F51D96EDA6A060ED926A1
:102E9000DECF64F1DDCF65F16251645D666F635131
:102EA0006559676F60516625686F61516721696F69
:102EB0005DC1D9FF5EC1DAFF68C1DEFF69C1DDFF18
:102EC00082EF17F05F51D96EDA6A020ED926DECF93
:102ED00060F1DDCF61F15F51D96EDA6A040ED92657
:102EE000DECF62F1DDCF63F16051625D646F6151ED
:102EF0006359656F5DC1D9FF5EC1DAFF64C1DEFF52
:102F000065C1DDFF120000016251D96EDA6ADE5040
:102F1000DE10D8A48EEF17F090EF17F092EF17F0B5
:102F2000F8EF17F06251D96EDA6A020ED9266251B3
:102F3000E16EE26A040EE126DE50E65CDE50E65801
:102F4000D8B0A5EF17F0A7EF17F0D8EF17F0625140
:102F5000D96EDA6A040ED926DECF63F0DDCF64F0D5
:102F60006251D96EDA6A020ED926DECF65F0DDCF66
:102F700066F06251D96EDA6A060ED926DECF67F0A6
:102F8000DDCF68F06551675D696F665168596A6F9A
:102F9000635169256B6F64516A216C6F60C0D9FF02
:102FA00061C0DAFF6BC0DEFF6CC0DDFFF8EF17F029
:102FB0006251D96EDA6A020ED926DECF63F0DDCF18
:102FC00064F06251D96EDA6A040ED926DECF65F05C
:102FD000DDCF66F06351655D676F64516659686F58
:102FE00060C0D9FF61C0DAFF67C0DEFF68C0DDFFE7
:102FF00012000450D96EDA6ADE50DE10D8A403EF56
:1030000018F005EF18F007EF18F06DEF18F0045006
:10301000D96EDA6A020ED9260450E16EE26A040E15
:10302000E126DE50E65CDE50E658D8B01AEF18F024
:103030001CEF18F04DEF18F00450D96EDA6A040E48
:10304000D926DECF05F0DDCF06F00450D96EDA6A5E
:10305000020ED926DECF07F0DDCF08F00450D96E7E
:10306000DA6A060ED926DECF09F0DDCF0AF0075066
:10307000095C0B6E08500A580C6E05500B240D6E3F
:1030800006500C200E6E02C0D9FF03C0DAFF0DC03F
:10309000DEFF0EC0DDFF6DEF18F00450D96EDA6A66
:1030A000020ED926DECF05F0DDCF06F00450D96E32
:1030B000DA6A040ED926DECF07F0DDCF08F005501E
:1030C000075C096E065008580A6E02C0D9FF03C09B
:1030D000DAFF09C0DEFF0AC0DDFF120001018951DD
:1030E000D96EDA6ADE50DE10D8A479EF18F07BEFE3
:1030F00018F07DEF18F0E0EF18F0906B000E8F6F76
:103100008F0E5D6F010E5E6F89C15FF10DEC17F0E0
:10311000010187518F5D88519059D8B092EF18F016
:1031200094EF18F098EF18F08FC187F190C188F1F3
:1031300085C16AF186C16BF187C16CF188C16DF1FF
:1031400089C16EF194EC0EF001018E6F8E51D8B4EE
:10315000ACEF18F0AEEF18F0B0EF18F0E0EF18F0A9
:103160008951D96EDA6A020ED9268751DE26885136
:10317000DD228951D96EDA6A060ED9268951E16EAF
:10318000E26A020EE126DE50E65CDE50E658D8A088
:10319000CCEF18F0CEEF18F0E0EF18F08951D96EAF
:1031A000DA6A060ED926DECF8AF1DDCF8BF189519E
:1031B000D96EDA6A020ED9268A51DE5E8B51DD5A4B
:1031C000120000018C51D96EDA6ADE50DE10D8A4EC
:1031D000ECEF18F0EEEF18F0F0EF18F052EF19F0F6
:1031E000936B000E926F920E606F616B8CC062F0F9
:1031F00083EC17F000018A51925D8B519359D8B03E
:1032000004EF19F006EF19F00AEF19F092C08AF0F6
:1032100093C08BF088C06DF089C06EF08AC06FF0EB
:103220008BC070F08CC071F0C3EC0FF00001916F97
:103230009151D8B41EEF19F020EF19F022EF19F0D8
:1032400052EF19F08C51D96EDA6A020ED9268A51E2
:10325000DE268B51DD228C51D96EDA6A060ED92614
:103260008C51E16EE26A020EE126DE50E65CDE5031
:10327000E658D8A03EEF19F040EF19F052EF19F0E0
:103280008C51D96EDA6A060ED926DECF8DF0DDCFED
:103290008EF08C51D96EDA6A020ED9268D51DE5E1F
:1032A0008E51DD5A12002E50D96EDA6ADE50DE10D1
:1032B000D8A45DEF19F05FEF19F061EF19F0C1EFDD
:1032C00019F0356A000E346E340E026E036A2EC099
:1032D00004F0F9EC17F02C50345C2D503558D8B070
:1032E00074EF19F076EF19F07AEF19F034C02CF082
:1032F00035C02DF02AC00FF02BC010F02CC011F0FB
:103300002DC012F02EC013F0F1EC10F0336E3350DC
:10331000D8B48DEF19F08FEF19F091EF19F0C1EFDC
:1033200019F02E50D96EDA6A020ED9262C50DE26FC
:103330002D50DD222E50D96EDA6A060ED9262E5077
:10334000E16EE26A020EE126DE50E65CDE50E658EF
:10335000D8A0ADEF19F0AFEF19F0C1EF19F02E5072
:10336000D96EDA6A060ED926DECF2FF0DDCF30F027
:103370002E50D96EDA6A020ED9262F50DE5E3050FA
:10338000DD5A120001015F516011D8B4CAEF19F083
:10339000CCEF19F0D5EF19F05F516011D8A4D3EF3D
:1033A00019F0D5EF19F0DAEF19F05D511BEC22F0AE
:1033B00027EF1AF020EE09F05F51D9266051DA228A
:1033C000DE50DE10D8B4E7EF19F0E9EF19F004EFA2
:1033D0001AF020EE09F05F51D9266051DA2210EE82
:1033E00002F05F51E1266051E222DE50E65CE650D9
:1033F000800A656FDE50800A6559D8B002EF1AF076
:1034000004EF1AF027EF1AF020EE02F05F51D926F0
:103410006051DA22DECF61F1DDCF62F15FC1D9FF09
:1034200060C1DAFFDECF63F1DDCF64F16151632566
:10343000D96E62516421DA6E5DC1DFFF20EE02F0C9
:103440005F51D9266051DA22DE2A000EDD221200F9
:10345000AC9EAD9A948E949CAC9CAC9AAD8EAD9C77
:10346000AD98AD847E907E9A7E987E86000E010196
:103470005D6F6C0E5E6FDC0E5F6F020E606F000E94
:10348000616F100E626F0E0E636F000E646F97EC2B
:1034900016F0010160BF5AEF1AF0605109E1080E01
:1034A0005E5D070E5F59D8B058EF1AF05AEF1AF068
:1034B00060EF1AF06B696C696D696E6968EF1AF0FC
:1034C000000E6B6F000E6C6F000E6D6F000E6E6F56
:1034D000000E5D6F6C0E5E6FDC0E5F6F020E606F34
:1034E000000E616F100E626F0E0E636F000E646F40
:1034F00011EC16F001016B515D256F6F6C515E216F
:10350000706F70517F6E6FC1B0FFAD8AAC889D98AF
:103510009D8A9F9A9F98AC8E12000101656B000EE8
:10352000646F5DC1D9FF5EC1DAFFDFCFF6FF100E19
:10353000F76E0800F5502A0AD8A4A1EF1AF0A3EFFD
:103540001AF0D2EF1AF05DC1D9FF5EC1DAFFDF2AAF
:103550005FC1D9FF60C1DAFFDFCF61F1020EDE2665
:10356000DFCF62F1000EDD2261C1D9FF62C1DAFF57
:10357000DECF64F1DDCF65F1E6EF1AF00A0E6403E9
:10358000F3CF61F1F4CF62F16503F3506227635129
:103590006125646F000E6221656F5DC1D9FF5EC158
:1035A000DAFFDF2A5DC1D9FF5EC1DAFFDFCFF6FFA8
:1035B000100EF76E0800F550D00F636F090E6365AB
:1035C000E4EF1AF0E6EF1AF0BEEF1AF064C15DF115
:1035D00065C15EF11200D59ED59CD550F80B03094C
:1035E000D56ED59AD596020E01016D6F000E6E6FE5
:1035F000000E6F6F000E706F726B000E716F08EF30
:103600001BF0D8906D376E376F377037714B722B58
:10361000D550070B6A6F6B6B6A51715D7251800AEE
:103620006C6F6B51800A6C59D8A019EF1BF01BEF1F
:103630001BF001EF1BF0E00E5D6F2E0E5E6F000EB3
:103640005F6F000E606F6DC161F16EC162F16FC19D
:1036500063F170C164F1F7EC1BF001015D510008EA
:10366000736F000E5E55746F010E5F55756F000E1F
:103670006055766F73C13AF174C139F139C1D7FF22
:103680003AC1D6FFF28EF28CF28AF294D58E1200F5
:10369000F29E5B0E01015D6F010E5E6FD30E5F6FD8
:1036A0000DEC17F0F28E010193515B25956F94514B
:1036B0005C21966F010E9527000E9623965109E125
:1036C000C90E955DD8A067EF1BF069EF1BF06BEF9B
:1036D0001BF0A0EF1BF091C15DF192C15EF193C1AF
:1036E0005FF194C160F165EC1FF05DC197F15EC1BF
:1036F00098F1F29E91C16AF192C16BF197C16CF1A0
:1037000098C16DF1D30E01016E6FD5EC09F0F28E08
:103710009EA88DEF1BF08FEF1BF0A0EF1BF0F29E29
:10372000990E0101856F010E866F886B010E876F00
:10373000D30E896F6EEC18F0F28E99C1AEFF9D88A2
:10374000120001A2A6EF1BF09BEF1CF09DACABEFAB
:103750001BF0ADEF1BF0F6EF1BF09EACB2EF1BF0D1
:10376000B4EF1BF0F6EF1BF09E9CC350C4CF60F08B
:103770000001616B60C061F0606B6013000E61134B
:103780005350CF0FD96EDA6ADF50626F6251020D6B
:10379000000EF324D96E010EF420DA6E60C0DEFF55
:1037A00061C0DDFF534A542A54BEE0EF1BF0545071
:1037B00009E1030E535CD8A0E0EF1BF0E2EF1BF031
:1037C000E8EF1BF09D9C546A000E536EF6EF1BF061
:1037D0005350CF0FD96EDA6ADF50606F6047604791
:1037E000C2506019C30B6019C26EC2821200000E73
:1037F0000101656F000E666F000E676F000E686F47
:103800006151621163116411D8B409EF1CF00BEF20
:103810001CF041EF1CF0010E696F15EF1CF0D89001
:103820006137623763376437692B64AF1AEF1CF076
:103830001CEF1CF00FEF1CF0D89065376637673728
:10384000683761515D5D62515E5963515F596451E2
:103850006059D8A02EEF1CF030EF1CF039EF1CF0AF
:1038600061515D5F62515E5B63515F5B6451605BA0
:103870006581D8906433633362336133692F1CEF01
:103880001CF065C15DF166C15EF167C15FF168C1A1
:1038900060F112000F013FB950EF1CF052EF1CF025
:1038A0004AEF1CF0F29E0DEC22F00F013F833F81A6
:1038B0005DC1D9FF5EC1DAFF98CFDFFF010120EEC5
:1038C00007F05D51D9265E51DA2299CFDFFF20EE55
:1038D00002F05D51D9265E51DA2298CFDFFF20EE4B
:1038E00001F05D51D9265E51DA2299CFDFFF20EE3B
:1038F00004F05D51D9265E51DA2298CFDFFF20EE29
:1039000003F05D51D9265E51DA2299CFDFFF20EE18
:1039100006F05D51D9265E51DA2298CFDFFF20EE06
:1039200005F05D51D9265E51DA2299CFDFFF0F01F4
:103930003F9BF28E12009DACA0EF1CF0A2EF1CF09A
:10394000EAEF1CF09EACA7EF1CF0A9EF1CF0EAEF29
:103950001CF09E9CC350C4CF02F0036A02C003F067
:10396000026A0212000E03125350CF0FD96EDA6AA8
:10397000DF50046E0450020D000EF324D96E010EC8
:10398000F420DA6E02C0DEFF03C0DDFF534A542A82
:1039900054BED4EF1CF0545009E1030E535CD8A080
:1039A000D4EF1CF0D6EF1CF0DCEF1CF09D9C546AA9
:1039B000000E536EEAEF1CF05350CF0FD96EDA6A47
:1039C000DF50026E02460246C2500218C30B0218B4
:1039D000C26EC2821200010138A1F1EF1CF0F3EFB8
:1039E0001CF0FDEF1CF06FC166F170C167F16DC195
:1039F00068F16EC169F120EC21F0010172BF05EFA1
:103A00001DF003EF1DF008EF1DF0726B000E716FDB
:103A1000756B000E746F19EF1DF05E6B200E5D6FFD
:103A20006DC15FF16EC160F1C2EC19F00101744B20
:103A3000752B7151745D7551800A736F7251800AD4
:103A40007359D8A026EF1DF028EF1DF00DEF1DF0E3
:103A500038B12DEF1DF02FEF1DF039EF1DF06FC1C4
:103A600066F170C167F16DC168F16EC169F120EC5A
:103A700021F01200F29E0DEC22F00F013F9F3F95C6
:103A80003F833F815DC1D9FF5EC1DAFFDF50986E91
:103A9000010120EE07F05D51D9265E51DA22DF5098
:103AA000996E20EE02F05D51D9265E51DA22DF5088
:103AB000986E20EE01F05D51D9265E51DA22DF507A
:103AC000996E20EE04F05D51D9265E51DA22DF5066
:103AD000986E20EE03F05D51D9265E51DA22DF5058
:103AE000996E20EE06F05D51D9265E51DA22DF5044
:103AF000986E20EE05F05D51D9265E51DA22DF5036
:103B0000996E0F013F8F3F9BF28E12000101616B96
:103B1000000E606F0F0148691F0E496F0001CF6BE7
:103B20000101604B612B92800F01489101016051AE
:103B3000CF0FD96EDA6A010EDF6E604B612B928275
:103B40000F01489301016051CF0FD96EDA6A020E5E
:103B5000DF6E604B612B92840F0148953F0EC216B9
:103B6000C18EC150F80B0609C16E380EC1129F9C60
:103B7000420E01015D6F370E5E6F000E5F6F0EEC3F
:103B80001EF0420E01015D6F430E5E6FBBEC21F033
:103B9000C28012008BEC1EF04F50025C0E6E505033
:103BA00003580F6E51500458106E52500558116E44
:103BB000115010100F1009E10B0E0E5CD8A0E3EFAE
:103BC0001DF0E5EF1DF00DEF1EF08C988BEC1EF054
:103BD0004F50025C0E6E505003580F6E51500458F7
:103BE000106E52500558116E115010100BE1E90E75
:103BF0000E5C030E0F58D8A000EF1EF002EF1EF06F
:103C00000DEF1EF08C888BEC1EF002C04FF003C04D
:103C100050F004C051F005C052F0120001015F5194
:103C2000D8A415EF1EF017EF1EF02FEF1EF0090EAF
:103C30000001D2651EEF1EF020EF1EF022EF1EF0F5
:103C40004CEF1EF0D251020DF350BB0FD96EDA6A61
:103C50005DC1DEFF5EC1DDFFD22B4CEF1EF05F05C4
:103C6000D8A435EF1EF037EF1EF04CEF1EF0090E12
:103C700059643DEF1EF03FEF1EF041EF1EF04CEF98
:103C80001EF05950020DF350A70FD96EDA6A5DC1CC
:103C9000DEFF5EC1DDFF592A12004BC061F14CC04E
:103CA00062F14DC063F14EC064F14BC065F14CC090
:103CB00066F14DC067F14EC068F16FEF1EF065C14F
:103CC00061F166C162F167C163F168C164F14BC023
:103CD00065F14CC066F14DC067F14EC068F101015D
:103CE000655161190DE1665162190AE16751631965
:103CF00007E168516419D8A480EF1EF082EF1EF02E
:103D00005FEF1EF065C15DF166C15EF167C15FF1F5
:103D100068C160F112004BC006F04CC007F04DC006
:103D200008F04EC009F04BC00AF04CC00BF04DC07B
:103D30000CF04EC00DF0ADEF1EF00AC006F00BC047
:103D400007F00CC008F00DC009F04BC00AF04CC0E1
:103D50000BF04DC00CF04EC00DF00A5006180DE1EE
:103D60000B5007180AE10C50081807E10D5009180C
:103D7000D8A4BDEF1EF0BFEF1EF09DEF1EF00AC0ED
:103D800002F00BC003F00CC004F00DC005F01200EF
:103D900001A2CDEF1EF034EF1FF09DA8D2EF1EF070
:103DA000D4EF1EF0FFEF1EF09EA8D9EF1EF0DBEF60
:103DB0001EF0FFEF1EF00001966B000E956F950E42
:103DC000606F616BD30E626F83EC17F00001955149
:103DD0009611D8B4EEEF1EF0F0EF1EF0FEEF1EF0DD
:103DE000940E886F896B8B6B010E8A6FD30E8C6F6C
:103DF000E1EC18F094C0AEFFFFEF1EF09D981200AA
:103E0000000E0101606F030E616F636BC80E626F7D
:103E1000656B010E646FDD0E666F43EC21F0000EE2
:103E20000101606F040E616F636BC80E626F656B9A
:103E3000010E646FD30E666F43EC21F07C0E01011E
:103E40005D6F3F0E5E6F000E5F6F0EEC1EF0900E0A
:103E500001015D6F3D0E5E6F000E5F6F0EEC1EF098
:103E600028EC1AF09D8A12009DA839EF1FF03BEF55
:103E70001FF064EF1FF09EA840EF1FF042EF1FF00D
:103E800064EF1FF0386A000E376E370E026E036A59
:103E9000D30E046EF9EC17F037503810D8B453EF46
:103EA0001FF055EF1FF063EF1FF0360E2A6E2B6ADE
:103EB0002D6A010E2C6ED30E2E6E53EC19F036C007
:103EC000AEFF64EF1FF09D9812000101626B000EBF
:103ED000616F83EF1FF061515D25D96E62515E21E4
:103EE000DA6EDF50D8B477EF1FF079EF1FF07BEF79
:103EF0001FF081EF1FF061C15DF162C15EF192EFD1
:103F00001FF0614B622B5F51615D60516259D8A017
:103F10008CEF1FF08EEF1FF06BEF1FF05FC15DF1B4
:103F200060C15EF1120004EE00F0C80EEE6AE80611
:103F3000FDE103EE00F0C80EEE6AE806FDE102EED8
:103F4000C8F0080EEE6AE806FDE101EE00F05D0E35
:103F5000EE6AE806FDE100EEA7F0400EEE6AE80624
:103F6000FDE100EE47F0150EEE6AE806FDE1019076
:103F70000192000EF86E00011CEF12F001A2C3EFD7
:103F80001FF0D7EF20F09DAAC8EF1FF0CAEF1FF077
:103F9000E8EF1FF09EAACFEF1FF0D1EF1FF0E8EF80
:103FA0001FF0ACA2D6EF1FF0D8EF1FF0DBEF1FF031
:103FB000AC98AC88572AAFCF8CF08C0E00016D6F97
:103FC0006E6B706B010E6F6FDD0E716F6CEC0BF032
:103FD00012005FC166F160C167F15DC164F15EC14D
:103FE00065F103EF20F066C1D9FF67C1DAFFDF504A
:103FF000636F664B672B64C1D9FF65C1DAFF63C18C
:10400000DFFF644B652B01016107D8A062076129BE
:1040100006E16229D8A40FEF20F011EF20F0F3EFB2
:104020001FF012004DEC1EF05DC171F15EC172F126
:104030005FC173F160C174F14DEC1EF0010171516B
:104040005D5D6D6F72515E596E6F73515F596F6F29
:1040500074516059706F69516D5D6A516E596B5141
:104060006F596C517059D8A038EF20F03AEF20F01A
:104070001CEF20F0120062C068F063C069F060C0FD
:1040800066F061C067F055EF20F068C0D9FF69C0E5
:10409000DAFFDF506A6F684B692B66C0D9FF67C0D3
:1040A000DAFF6AC0DFFF664B672B00016407D8A008
:1040B0006507642906E16529D8A461EF20F063EF64
:1040C00020F045EF20F0120004C00AF005C00BF00C
:1040D00002C008F003C009F07EEF20F00AC0D9FF4B
:1040E0000BC0DAFFDF500C6E0A4A0B2A08C0D9FF5A
:1040F00009C0DAFF0CC0DFFF084A092A0606D8A06B
:104100000706062806E10728D8A489EF20F08BEFE0
:1041100020F06EEF20F0120096C199F19FEF20F091
:1041200094C185F195C186F1990E0101876F010E49
:10413000886F97C189F198C18AF136EC08F099C16E
:10414000F6FF100EF76E0800F5500009D8A4ABEF8B
:1041500020F0ADEF20F090EF20F00101956B000E04
:10416000946F12009B8CD08EC00E0101776FD40E1D
:10417000786F010E796F000E7A6F7707000E785B0B
:10418000795B7A5B77290AE1782908E1792906E1E8
:104190007A29D8A4CEEF20F0D0EF20F0BDEF20F0A8
:1041A0000F0148691F0E496FEBEC1AF012009DAA2F
:1041B000DCEF20F0DEEF20F0FBEF20F09EAAE3EF33
:1041C00020F0E5EF20F0FBEF20F0ACA2EAEF20F0CA
:1041D000ECEF20F0EFEF20F0AC98AC88572AAFCF8F
:1041E0002EF02E0E0F6E106A126A010E116EDD0E89
:1041F000136E02EC0DF012009D0E0101A56F010E71
:10420000A66F9AC1A7F19BC1A8F1AA6B000EA96F76
:10421000B16B000EB06FA70E946F010E956F9CC12D
:1042200096F1A50E976F010E986F8CEC20F00101AE
:10423000A9519A25D96EAA519B21DA6EDF6A120024
:1042400001016C6B000E6B6F32EF21F06AC15DF102
:104250005E6B68C15FF169C160F1C2EC19F00101E8
:104260006B4B6C2B6B516625D96E6C516721DA6EE6
:10427000DF506A6F6A51D8A440EF21F042EF21F07D
:1042800026EF21F0120001016651D96EDA6A060E9E
:10429000D92662C1DEFF63C1DDFF6651D96EDA6ADD
:1042A000080ED92664C1DEFF65C1DDFF6651D96EF7
:1042B000DA6A60C1DEFF61C1DDFF66C15DF166ECF7
:1042C00021F001016651D96EDA6A120001015D51D7
:1042D000D96EDA6ADE50DE10D8A471EF21F073EFE8
:1042E00021F075EF21F085EF21F05D51D96EDA6A8A
:1042F000020ED926DE6ADD6A5D51E16EE26A040EC5
:10430000E126DECFE6FFDDCFE5FF1200010168BF49
:104310008CEF21F08EEF21F094EF21F067C167F16F
:1043200068C168F1A0EF21F067C169F168C16AF165
:10433000691F6A1F694B6A2B69C167F16AC168F11D
:10434000120053505410D8A4A8EF21F0AAEF21F086
:10435000BAEF21F05350CF0FD96EDA6ADF50026EF8
:1043600002460246C2500218C30B0218C26E9E9C3F
:104370009D8CC2821200090E5864C1EF21F0C3EF78
:1043800021F0C5EF21F0D2EF21F05850020D200EA0
:10439000F324D96E010EF420DA6E5DC1DEFF5EC13A
:1043A000DDFF582A120001015F6FF29E01015F518B
:1043B000020D000EF324D96E010EF420DA6EDECF6A
:1043C00060F1DDCF61F1F28E60C15DF161C15EF13E
:1043D0001200546A000E536E5350CF0FD96EDA6A32
:1043E000DF5001015D6F5D475D47C2505D19C30B32
:1043F0005D19C26E9E9C9D8CC28212009480948234
:10440000CD86320E0101696F000E6A6F000E6B6F70
:10441000000E6C6F12EC20F012000F01550EA76E0B
:10442000AA0EA76E3F8B1200546A000E536EC29004
:084430009E9C9D9C12001200ED
:08FFF800AEF74DFFF3F9FFF134
:00000001FF
