:04000000B2EF00F06B
:06000800018239EF13F044
:100018000180D8CF96F0E8CF97F0E0CF98F0FACFEC
:1000280099F0FBCF9AF0E1CF9BF0E2CF9CF0D9CFCB
:100038009DF0DACF9EF0F3CF9FF0F4CFA0F0F2AAB4
:1000480028EF00F02AEF00F052EF00F0F2A42FEFB3
:1000580000F031EF00F052EF00F00001C951D62650
:10006800C8C0D7FF010E4426000E4522462247226B
:10007800C551C611D8B443EF00F045EF00F051EF79
:1000880000F002D851EF00F00500FA6EC551FD6E80
:10009800C651FE6EFF6AFA501200F2949DAA57EFFD
:1000A80000F059EF00F076EF00F09EAA5EEF00F046
:1000B80060EF00F076EF00F09E9A50505110D8B4DF
:1000C80068EF00F06AEF00F076EF00F002D876EF04
:1000D80000F00500FA6E5050FD6E5150FE6EFF6A3A
:1000E800FA5012009DA87BEF00F07DEF00F09AEF28
:1000F80000F09EA882EF00F084EF00F09AEF00F085
:100108009E984E504F10D8B48CEF00F08EEF00F050
:100118009AEF00F002D89AEF00F00500FA6E4E5000
:10012800FD6E4F50FE6EFF6AFA501200A0C0F4FF39
:100138009FC0F3FF9EC0DAFF9DC0D9FF9CC0E2FFBD
:100148009BC0E1FF9AC0FBFF99C0FAFF98C0E0FF8F
:1001580097C0E8FF96C0D8FF0190100029EF1AF069
:101000000048656C6C6F2121210A0D54696D653AA9
:1010100020256C640A0D456E7465722073747269C4
:101020006E673A200A0D000A0D54696D653A202555
:101030006C640A0D456E7465726564207374726920
:101040006E673A2025730A0D000010C1D9FF11C147
:10105000DAFFDFCFF6FF100EF76E0800F550250A15
:10106000D8A435EF08F037EF08F008EF0AF010C108
:10107000D9FF11C1DAFFDF2A0001C26B000EC16F78
:10108000C1C0C7F0C369C46910C1D9FF11C1DAFF7B
:10109000DF500101196F19C1F6FF100EF76E08003D
:1010A000F5CF1EF15EEF08F0192B6DEF08F0690E19
:1010B0001E6F6DEF08F01E6B6DEF08F01E51640A95
:1010C000D8B457EF08F00D0AD8B457EF08F0050A66
:1010D000D8B454EF08F05BEF08F019C1F6FF100E1A
:1010E000F76E0800F550640AD8B479EF08F07BEF8A
:1010F00008F0C0EF08F019C1F6FF100EF76E0800F7
:10110000F550690AD8A487EF08F089EF08F061EF7D
:1011100009F0C0EF08F012C1D9FF13C1DAFFDFCF29
:1011200014F1020EDE26DFCF15F1000EDD2214C110
:10113000D9FF15C1DAFFDECF1AF1DDCF1BF1000EAA
:101140001BBFFF0E1C6F1D6FCBEF08F012C1D9FF44
:1011500013C1DAFFDFCF14F1040EDE26DFCF15F165
:10116000000EDD2214C1D9FF15C1DAFFDECF1AF15E
:10117000DECF1BF1DECF1CF1DECF1DF1CBEF08F08F
:101180001E51690AD8B48BEF08F0050AD8B4A6EF4F
:1011900008F0CBEF08F0192910C1D9FF11C1DAFF0F
:1011A000DF6E200E1E6F1DBFD8EF08F0DBEF08F0DA
:1011B000010EDCEF08F0000E186F1E071E51A10F84
:1011C000D96EDA6A1AC100F11BC101F11CC102F12A
:1011D0001DC103F10A0E046F000E056F000E066FAD
:1011E000000E076FDEEC14F000C10AF101C10BF133
:1011F000F3EC1BF001010A51300FDF6E1AC100F150
:101200001BC101F11CC102F11DC103F10A0E046FE3
:10121000000E056F000E066F000E076F58EC14F0FD
:1012200000C11AF101C11BF102C11CF103C11DF182
:1012300001011A511B111C111D11D8B422EF09F024
:1012400024EF09F02CEF09F01E51D8A42AEF09F081
:101250002CEF09F0DDEF08F01E51D8B432EF09F0A1
:1012600034EF09F056EF09F01851D8B43AEF09F00D
:101270003CEF09F056EF09F01E071E51A10FD96E81
:10128000DA6A2D0EDF6E56EF09F01E51A10FD96EEE
:10129000DA6ADF50146F1451006F016B0EC102F156
:1012A0000FC103F109EC18F001011E2B200E1E19CD
:1012B000D8A45DEF09F05FEF09F045EF09F01DEFED
:1012C0000AF0186B10C1D9FF11C1DAFFDFCFF6FFAA
:1012D000100EF76E0800F550730AD8A472EF09F0EB
:1012E00074EF09F07DEF09F010C1D9FF11C1DAFFE9
:1012F000DF2A010E186FC3EF09F010C1D9FF11C129
:10130000DAFFDFCFF6FF100EF76E0800F5506C0A1B
:10131000D8A48DEF09F08FEF09F0C3EF09F010C1E9
:10132000D9FF11C1DAFFDF50146F010E142714C169
:10133000F6FF100EF76E0800F5506C0AD8A4A3EF64
:1013400009F0A5EF09F0C3EF09F010C1D9FF11C1F1
:10135000DAFFDF50146F020E142714C1F6FF100ECF
:10136000F76E0800F550730AD8A4B9EF09F0BBEF87
:1013700009F0C3EF09F010C1D9FF11C1DAFF030E64
:10138000DF2679EF09F01851D8B4C9EF09F0CBEF97
:1013900009F001EF0AF012C1D9FF13C1DAFFDFCF64
:1013A00014F1020EDE26DFCF15F1000EDD2214C18E
:1013B000D9FF15C1DAFFDECF16F1DDCF17F1F3EF5C
:1013C00009F016C1D9FF17C1DAFFDF50146F1451AD
:1013D000006F016B0EC102F10FC103F109EC18F0AF
:1013E0000101164B172B16C1D9FF17C1DAFFDF50C9
:1013F000D8A4FDEF09F0FFEF09F0E1EF09F01DEFD0
:101400000AF010C1D9FF11C1DAFFDF2A1DEF0AF07F
:1014100010C1D9FF11C1DAFFDFCFF6FF100EF76E52
:101420000800F5500101006F016B0EC102F10FC100
:1014300003F109EC18F001EF0AF01200010111515B
:10144000D96EDA6ADE50DE10D8A429EF0AF02BEF4D
:101450000AF02DEF0AF0B4EF0BF01151D96EDA6AF1
:10146000060ED9260F51DE5C1051DE58D8B03BEF86
:101470000AF03DEF0AF03FEF0AF0B4EF0BF00DC1B8
:1014800024F10EC125F1276B000E266F1151D96E84
:10149000DA6A040ED926DECF12F1DDCF13F1115135
:1014A000D96EDA6A060ED926DECF14F1DDCF15F13A
:1014B0001251145D286F13511559296F2B6B000EB3
:1014C0002A6F2A0E006F010E016F11C102F154EC58
:1014D00015F00FC122F110C123F101010F51285D58
:1014E00010512959D8B077EF0AF079EF0AF0D5EF0B
:1014F0000AF01151D96EDA6A080ED926DECF12F140
:10150000DDCF13F11151D96EDA6A040ED926DECF80
:1015100014F1DDCF15F112511403F3CF16F1F4CF0E
:1015200017F11503F350172713511403F35017271E
:101530001151D96EDA6ADECF18F1DDCF19F11651EB
:101540001825006F17511921016F24C102F125C11F
:1015500003F11151D96EDA6A080ED926DECF1AF1DD
:10156000DDCF1BF128511A03F3CF1CF1F4CF1DF18D
:101570001B03F3501D2729511A03F3501D271CC1CB
:1015800004F11DC105F17EEC1AF001011151D96E73
:10159000DA6A040ED926DE6ADD6A28C126F129C17D
:1015A00027F128510F5F2951105B1151D96EDA6A6A
:1015B000080ED926DECF12F1DDCF13F11151D96E0D
:1015C000DA6A040ED926DECF14F1DDCF15F11251FF
:1015D0001403F3CF16F1F4CF17F11503F3501727C7
:1015E00013511403F35017271151D96EDA6ADECF65
:1015F00018F1DDCF19F116511825006F1751192177
:10160000016F1151D96EDA6A080ED926DECF1AF1B0
:10161000DDCF1BF126511A03F3CF1CF1F4CF1DF1DE
:101620001B03F3501D2727511A03F3501D271C518C
:101630002425026F1D512521036F1151D96EDA6ADD
:10164000080ED926DECF1EF1DDCF1FF10F511E038C
:10165000F3CF20F1F4CF21F11F03F35021271051D4
:101660001E03F350212720C104F121C105F17EECB6
:101670001AF001011151D96EDA6A040ED9260F5100
:10168000DE261051DD221151D96EDA6A060ED926F6
:101690001151E16EE26A040EE126DE50E65CDE5096
:1016A000E658D8A056EF0BF058EF0BF06AEF0BF0AE
:1016B0001151D96EDA6A060ED926DECF12F1DDCFCE
:1016C00013F11151D96EDA6A040ED9261251DE5E79
:1016D0001351DD5A1151D96EDA6A060ED926DECFC2
:1016E00012F1DDCF13F12A51125F2B51135B12510E
:1016F000225D13512359D8A080EF0BF082EF0BF03D
:1017000098EF0BF01151D96EDA6A040ED926DECFAC
:1017100012F1DDCF13F1010E1227000E1323115128
:10172000D96EDA6A020ED92612C1DEFF13C1DDFFBF
:101730001151D96EDA6A060ED9261151E16EE26AAC
:10174000020EE126DE50E65CDE50E658D8A0ABEF94
:101750000BF0ADEF0BF0B4EF0BF01151D96EDA6A6C
:10176000020ED926DE6ADD6A120000017151D96EBF
:10177000DA6ADE50DE10D8A4C0EF0BF0C2EF0BF037
:10178000C4EF0BF04AEF0DF07151D96EDA6A060E14
:10179000D9266F51DE5C7051DE58D8B0D2EF0BF015
:1017A000D4EF0BF0D6EF0BF04AEF0DF06DC084F0E4
:1017B0006EC085F0876B000E866F7151D96EDA6A44
:1017C000040ED926DECF72F0DDCF73F07151D96EE1
:1017D000DA6A060ED926DECF74F0DDCF75F07251CD
:1017E000745D8A6F735175598B6F896B000E886FAA
:1017F000880E606F616B71C062F0CAEC15F06FC04B
:1018000082F070C083F000016F518A5D70518B5976
:10181000D8B00DEF0CF00FEF0CF06BEF0CF0715136
:10182000D96EDA6A080ED926DECF72F0DDCF73F0FA
:101830007151D96EDA6A040ED926DECF74F0DDCF8D
:1018400075F072517403F3CF76F0F4CF77F075032F
:10185000F350772773517403F35077277151D96E82
:10186000DA6ADECF78F0DDCF79F076517825606FD7
:1018700077517921616F84C062F085C063F0715146
:10188000D96EDA6A080ED926DECF7AF0DDCF7BF08A
:101890008A517A03F3CF7CF0F4CF7DF07B03F350D1
:1018A0007D278B517A03F3507D277CC064F07DC087
:1018B00065F0D0EC1AF000017151D96EDA6A040EAD
:1018C000D926DE6ADD6A8AC086F08BC087F08A512D
:1018D0006F5F8B51705B7151D96EDA6A080ED92631
:1018E000DECF72F0DDCF73F07151D96EDA6A040E7B
:1018F000D926DECF74F0DDCF75F072517403F3CFCB
:1019000076F0F4CF77F07503F350772773517403B3
:10191000F35077277151D96EDA6ADECF78F0DDCFD8
:1019200079F076517825606F77517921616F715127
:10193000D96EDA6A080ED926DECF7AF0DDCF7BF0D9
:1019400086517A03F3CF7CF0F4CF7DF07B03F35024
:101950007D2787517A03F3507D277C518425626F60
:101960007D518521636F7151D96EDA6A080ED926CF
:10197000DECF7EF0DDCF7FF06F517E03F3CF80F0BE
:10198000F4CF81F07F03F350812770517E03F35031
:10199000812780C064F081C065F0D0EC1AF00001AE
:1019A0007151D96EDA6A040ED9266F51DE26705154
:1019B000DD227151D96EDA6A060ED9267151E16EB7
:1019C000E26A040EE126DE50E65CDE50E658D8A05E
:1019D000ECEF0CF0EEEF0CF000EF0DF07151D96E62
:1019E000DA6A060ED926DECF72F0DDCF73F07151C0
:1019F000D96EDA6A040ED9267251DE5E7351DD5A51
:101A00007151D96EDA6A060ED926DECF72F0DDCFBB
:101A100073F08851725F8951735B7251825D7351AB
:101A20008359D8A016EF0DF018EF0DF02EEF0DF042
:101A30007151D96EDA6A040ED926DECF72F0DDCF8D
:101A400073F0010E7227000E73237151D96EDA6A9A
:101A5000020ED92672C0DEFF73C0DDFF7151D96E50
:101A6000DA6A060ED9267151E16EE26A020EE126AB
:101A7000DE50E65CDE50E658D8A041EF0DF043EFB3
:101A80000DF04AEF0DF07151D96EDA6A020ED926C7
:101A9000DE6ADD6A12001350D96EDA6ADE50DE109B
:101AA000D8A455EF0DF057EF0DF059EF0DF0DCEF26
:101AB0000EF01350D96EDA6A060ED9261150DE5C8C
:101AC0001250DE58D8B067EF0DF069EF0DF06BEFF4
:101AD0000DF0DCEF0EF00FC026F010C027F0296AE1
:101AE000000E286E1350D96EDA6A040ED926DECFA6
:101AF00014F0DDCF15F01350D96EDA6A060ED92630
:101B0000DECF16F0DDCF17F01450165C2C6E15509A
:101B100017582D6E2B6A000E2A6E2A0E026E036A6B
:101B200013C004F040EC16F011C024F012C025F0F0
:101B300011502C5C12502D58D8B0A1EF0DF0A3EF2E
:101B40000DF0FEEF0DF01350D96EDA6A080ED926AB
:101B5000DECF14F0DDCF15F01350D96EDA6A040E23
:101B6000D926DECF16F0DDCF17F014501602F3CFD2
:101B700018F0F4CF19F01702F35019261550160279
:101B8000F35019261350D96EDA6ADECF1AF0DDCF82
:101B90001BF018501A24026E19501B20036E26C029
:101BA00004F027C005F01350D96EDA6A080ED92662
:101BB000DECF1CF0DDCF1DF02C501C02F3CF1EF049
:101BC000F4CF1FF01D02F3501F262D501C02F350BE
:101BD0001F261EC006F01FC007F0F9EC1AF01350C4
:101BE000D96EDA6A040ED926DE6ADD6A2CC028F0C6
:101BF0002DC029F02C50115E2D50125A1350D96E61
:101C0000DA6A080ED926DECF14F0DDCF15F01350B6
:101C1000D96EDA6A040ED926DECF16F0DDCF17F0C2
:101C200014501602F3CF18F0F4CF19F01702F35046
:101C3000192615501602F35019261350D96EDA6A78
:101C4000DECF1AF0DDCF1BF018501A24026E1950A7
:101C50001B20036E1350D96EDA6A080ED926DECF28
:101C60001CF0DDCF1DF028501C02F3CF1EF0F4CF86
:101C70001FF01D02F3501F2629501C02F3501F268F
:101C80001E502624046E1F502720056E1350D96E57
:101C9000DA6A080ED926DECF20F0DDCF21F0115010
:101CA0002002F3CF22F0F4CF23F02102F3502326B9
:101CB00012502002F350232622C006F023C007F062
:101CC000F9EC1AF01350D96EDA6A040ED9261150C5
:101CD000DE261250DD221350D96EDA6A060ED9269E
:101CE0001350E16EE26A040EE126DE50E65CDE503F
:101CF000E658D8A07EEF0EF080EF0EF092EF0EF0D7
:101D00001350D96EDA6A060ED926DECF14F0DDCF75
:101D100015F01350D96EDA6A040ED9261450DE5E1F
:101D20001550DD5A1350D96EDA6A060ED926DECF69
:101D300014F0DDCF15F02A50145E2B50155A1450B4
:101D4000245C15502558D8A0A8EF0EF0AAEF0EF08D
:101D5000C0EF0EF01350D96EDA6A040ED926DECF2A
:101D600014F0DDCF15F0010E1426000E15221350CD
:101D7000D96EDA6A020ED92614C0DEFF15C0DDFF67
:101D80001350D96EDA6A060ED9261350E16EE26A54
:101D9000020EE126DE50E65CDE50E658D8A0D3EF16
:101DA0000EF0D5EF0EF0DCEF0EF01350D96EDA6ABC
:101DB000020ED926DE6ADD6A120001010D510E11F4
:101DC000D8A4E5EF0EF0E7EF0EF0EAEF0EF0020E0A
:101DD0000BEF10F01151D96EDA6A060ED9260F51A9
:101DE000DE5C1051DE58D8B0F8EF0EF0FAEF0EF0CE
:101DF000FDEF0EF0030E0BEF10F01151D96EDA6A01
:101E0000020ED9261151E16EE26A040EE126DE507F
:101E1000E61807E1DE50E618D8A411EF0FF013EF33
:101E20000FF016EF0FF0040E0BEF10F0276B000E03
:101E3000266F260E006F010E016F11C102F154ECE6
:101E400015F001010F51265D10512759D8B02BEF25
:101E50000FF02DEF0FF031EF0FF026C10FF127C17A
:101E600010F1216B000E206F1151D96EDA6A020E4B
:101E7000D926DECF12F1DDCF13F11151D96EDA6A16
:101E8000060ED926DECF14F1DDCF15F11251145D07
:101E9000246F13511559256F1151D96EDA6A020E4C
:101EA000D926DECF22F1DDCF23F10F51245D105171
:101EB0002559D8B05EEF0FF060EF0FF0AFEF0FF0E5
:101EC0000DC100F10EC101F11151D96EDA6A080E8F
:101ED000D926DECF12F1DDCF13F122511203F3CF59
:101EE00014F1F4CF15F11303F35015272351120306
:101EF000F35015271151D96EDA6ADECF16F1DDCF16
:101F000017F114511625026F15511721036F115146
:101F1000D96EDA6A080ED926DECF18F1DDCF19F1B5
:101F200024511803F3CF1AF1F4CF1BF11903F35026
:101F30001B2725511803F3501B271AC104F11BC19D
:101F400005F17EEC1AF00101236B000E226F24C113
:101F500020F125C121F124510F5F2551105B115152
:101F6000D96EDA6A080ED926DECF12F1DDCF13F171
:101F700020511203F3CF14F1F4CF15F11303F350F2
:101F8000152721511203F350152714510D25006F09
:101F900015510E21016F1151D96EDA6A080ED9263A
:101FA000DECF16F1DDCF17F122511603F3CF18F172
:101FB000F4CF19F11703F350192723511603F350E7
:101FC00019271151D96EDA6ADECF1AF1DDCF1BF174
:101FD00018511A25026F19511B21036F1151D96E27
:101FE000DA6A080ED926DECF1CF1DDCF1DF10F51C4
:101FF0001C03F3CF1EF1F4CF1FF11D03F3501F2775
:1020000010511C03F3501F271EC104F11FC105F11D
:102010007EEC1AF0000E120000016D516E11D8A472
:1020200014EF10F016EF10F019EF10F0020E39EF68
:1020300011F07151D96EDA6A060ED9266F51DE5C45
:102040007051DE58D8B027EF10F029EF10F02CEFC8
:1020500010F0030E39EF11F07151D96EDA6A020EE9
:10206000D9267151E16EE26A040EE126DE50E618CF
:1020700007E1DE50E618D8A440EF10F042EF10F070
:1020800045EF10F0040E39EF11F0876B000E866FEC
:10209000860E606F616B71C062F0CAEC15F00001D2
:1020A0006F51865D70518759D8B059EF10F05BEFD2
:1020B00010F05FEF10F086C06FF087C070F0816B9A
:1020C000000E806F7151D96EDA6A020ED926DECF0A
:1020D00072F0DDCF73F07151D96EDA6A060ED9262F
:1020E000DECF74F0DDCF75F07251745D846F735183
:1020F0007559856F7151D96EDA6A020ED926DECF15
:1021000082F0DDCF83F06F51845D70518559D8B076
:102110008CEF10F08EEF10F0DDEF10F06DC060F07E
:102120006EC061F07151D96EDA6A080ED926DECF21
:1021300072F0DDCF73F082517203F3CF74F0F4CFFD
:1021400075F07303F350752783517203F3507527AD
:102150007151D96EDA6ADECF76F0DDCF77F0745147
:102160007625626F75517721636F7151D96EDA6A86
:10217000080ED926DECF78F0DDCF79F084517803D0
:10218000F3CF7AF0F4CF7BF07903F3507B278551BE
:102190007803F3507B277AC064F07BC065F0D0EC05
:1021A0001AF00001836B000E826F84C080F085C03E
:1021B00081F084516F5F8551705B7151D96EDA6A1D
:1021C000080ED926DECF72F0DDCF73F08051720396
:1021D000F3CF74F0F4CF75F07303F350752781518A
:1021E0007203F350752774516D25606F75516E2120
:1021F000616F7151D96EDA6A080ED926DECF76F09A
:10220000DDCF77F082517603F3CF78F0F4CF79F019
:102210007703F350792783517603F350792771516F
:10222000D96EDA6ADECF7AF0DDCF7BF078517A258D
:10223000626F79517B21636F7151D96EDA6A080E32
:10224000D926DECF7CF0DDCF7DF06F517C03F3CF5C
:102250007EF0F4CF7FF07D03F3507F2770517C0335
:10226000F3507F277EC064F07FC065F0D0EC1AF099
:10227000000E12000F501010D8A441EF11F043EFE0
:1022800011F046EF11F0020E64EF12F01350D96E08
:10229000DA6A060ED9261150DE5C1250DE58D8B02C
:1022A00054EF11F056EF11F059EF11F0030E64EFF7
:1022B00012F01350D96EDA6A020ED9261350E16E6D
:1022C000E26A040EE126DE50E61807E1DE50E61869
:1022D000D8A46DEF11F06FEF11F072EF11F0040E52
:1022E00064EF12F0296A000E286E280E026E036A4F
:1022F00013C004F040EC16F01150285C125029581D
:10230000D8B085EF11F087EF11F08BEF11F028C0F6
:1023100011F029C012F0236A000E226E1350D96EFC
:10232000DA6A020ED926DECF14F0DDCF15F0135095
:10233000D96EDA6A060ED926DECF16F0DDCF17F099
:102340001450165C266E15501758276E1350D96E10
:10235000DA6A020ED926DECF24F0DDCF25F0115047
:10236000265C12502758D8B0B8EF11F0BAEF11F030
:1023700008EF12F00FC002F010C003F01350D96E36
:10238000DA6A080ED926DECF14F0DDCF15F024501E
:102390001402F3CF16F0F4CF17F01502F3501726FE
:1023A00025501402F35017261350D96EDA6ADECF87
:1023B00018F0DDCF19F016501824046E17501920AC
:1023C000056E1350D96EDA6A080ED926DECF1AF0E0
:1023D000DDCF1BF026501A02F3CF1CF0F4CF1DF016
:1023E0001B02F3501D2627501A02F3501D261CC055
:1023F00006F01DC007F0F9EC1AF0256A000E246EF5
:1024000026C022F027C023F02650115E2750125A12
:102410001350D96EDA6A080ED926DECF14F0DDCF5C
:1024200015F022501402F3CF16F0F4CF17F0150276
:10243000F350172623501402F350172616500F247A
:10244000026E17501020036E1350D96EDA6A080E10
:10245000D926DECF18F0DDCF19F024501802F3CFC3
:102460001AF0F4CF1BF01902F3501B262550180266
:10247000F3501B261350D96EDA6ADECF1CF0DDCF85
:102480001DF01A501C24046E1B501D20056E1350A5
:10249000D96EDA6A080ED926DECF1EF0DDCF1FF026
:1024A00011501E02F3CF20F0F4CF21F01F02F350A1
:1024B000212612501E02F350212620C006F021C012
:1024C00007F0F9EC1AF0000E1200010E010136259A
:1024D0003A6F000E37213B6F3B5109E1C90E3A5D5F
:1024E000D8A075EF12F077EF12F07BEF12F034699D
:1024F000356938EF13F0520E006F016BD40E026F86
:1025000054EC15F052505310D8B489EF12F08BEF01
:1025100012F033EF13F052504C1809E153504D189C
:10252000D8B495EF12F097EF12F0DAEF12F0010144
:102530003651525C37515358D8A0A1EF12F0A3EF97
:1025400012F0C6EF12F034C128F135C129F136C1BD
:102550002AF137C12BF1D40E2C6FB5EC16F04D6A71
:10256000000E4C6E0101365134253A6F375135213A
:102570003B6F010E3A25D96E000E3B21DA6EDF6A01
:1025800036C134F137C135F138EF13F052C04CF099
:1025900053C04DF02CEC1CF000C140F001C141F0E3
:1025A00002C142F003C143F00101356B000E346FEC
:1025B00038EF13F02CEC1CF040500101005D3A6F35
:1025C000415001593B6F425002593C6F43500359EF
:1025D0003D6F38513E6F39513F6F406B416B3A51FF
:1025E0003E5D3B513F593C5140593D514159D8B056
:1025F000FCEF12F0FEEF12F033EF13F05250365DA5
:1026000053503759D8A007EF13F009EF13F00FEF2D
:1026100013F052C052F053C053F013EF13F036C111
:1026200052F037C153F034C128F135C129F152C0FD
:102630002AF153C02BF1D40E2C6FB5EC16F052508A
:10264000010134253A6F535035213B6F010E3A2575
:10265000D96E000E3B21DA6EDF6A52C034F153C0EE
:1026600035F138EF13F0FF0E0101356FFE0E346FB8
:102670001200FACF38F0FBCF39F0E1CF3AF0E2CFD9
:102680003BF0D9CF3CF0DACF3DF0F3CF3EF0F4CFC2
:102690003FF0F2AA4EEF13F050EF13F078EF13F083
:1026A000F2A455EF13F057EF13F078EF13F0000199
:1026B000C951D626C8C0D7FF010E4426000E4522B8
:1026C00046224722C551C611D8B469EF13F06BEF0B
:1026D00013F077EF13F002D877EF13F00500FA6EDE
:1026E000C551FD6EC651FE6EFF6AFA501200F2949B
:1026F0009DAA7DEF13F07FEF13F09CEF13F09EAADD
:1027000084EF13F086EF13F09CEF13F09E9A505075
:102710005110D8B48EEF13F090EF13F09CEF13F03C
:1027200002D89CEF13F00500FA6E5050FD6E515028
:10273000FE6EFF6AFA5012009DA8A1EF13F0A3EFFE
:1027400013F0C0EF13F09EA8A8EF13F0AAEF13F058
:10275000C0EF13F09E984E504F10D8B4B2EF13F064
:10276000B4EF13F0C0EF13F002D8C0EF13F0050080
:10277000FA6E4E50FD6E4F50FE6EFF6AFA50120018
:102780003FC0F4FF3EC0F3FF3DC0DAFF3CC0D9FFBD
:102790003BC0E2FF3AC0E1FF39C0FBFF38C0FAFF9F
:1027A000019211004FEC1CF08E0E01010D6F380EDE
:1027B0000E6F6FEC18F054EC1AF09598640E01014E
:1027C000256F040E266F010E276F2CEC1CF000C144
:1027D00028F101C129F102C12AF103C12BF147EC13
:1027E0001BF0640E0101346F040E356F376B320E2F
:1027F000366F23EC19F0000E0101346F040E356FB3
:10280000376B320E366F396B050E386F65EC12F090
:10281000010135BF14EF14F0355108E13405D8A09B
:1028200014EF14F016EF14F0FBEF13F0640E256FA5
:10283000040E266F270E276F2CEC1CF000C128F128
:1028400001C129F102C12AF103C12BF1000E0101DE
:102850002C6F040E2D6F47EC1BF0640E0101346FDA
:10286000040E356F376B320E366F23EC19F0640EA1
:102870000101256F040E266F010E276F2CEC1CF052
:1028800000C128F101C129F102C12AF103C12BF1D4
:1028900047EC1BF0640E0101346F040E356F376B8B
:1028A000320E366F23EC19F0FBEF13F0B2EF00F0AD
:1028B0000101096B07BF61EF14F05FEF14F06BEFDC
:1028C00014F0071F061F051F046D000E05230623C5
:1028D0000723010E096F03BF72EF14F070EF14F0BD
:1028E0007CEF14F0031F021F011F006D000E012377
:1028F00002230323010E091B000E0A6F000E0B6F4B
:10290000000E0C6F000E0D6F04510511061107111A
:10291000D8B48DEF14F08FEF14F0C5EF14F0010E62
:10292000086F99EF14F0D89004370537063707374A
:10293000082B07AF9EEF14F0A0EF14F093EF14F004
:10294000D8900A370B370C370D370451005D05510D
:1029500001590651025907510359D8A0B2EF14F09A
:10296000B4EF14F0BDEF14F00451005F0551015BAA
:102970000651025B0751035B0A81D8900733063387
:1029800005330433082FA0EF14F00951D8B4CBEF6E
:1029900014F0CDEF14F0D5EF14F00D1F0C1F0B1F2A
:1029A0000A6D000E0B230C230D230AC100F10BC18D
:1029B00001F10CC102F10DC103F112000101096B1B
:1029C00003BFE7EF14F0E5EF14F0F1EF14F0031F8D
:1029D000021F011F006D000E012302230323010EBD
:1029E000096F07BFF8EF14F0F6EF14F000EF15F0E1
:1029F000071F061F051F046D000E0523062307236E
:102A00000451051106110711D8B409EF15F00BEFA9
:102A100015F03BEF15F0010E086F15EF15F0D8908B
:102A20000437053706370737082B07AF1AEF15F0BD
:102A30001CEF15F00FEF15F00451005D0551015921
:102A40000651025907510359D8A029EF15F02BEF71
:102A500015F033EF15F00451005F0551015B06518D
:102A6000025B0751035BD890073306330533043309
:102A7000082F1CEF15F00951D8B441EF15F043EFC2
:102A800015F04BEF15F0031F021F011F006D000E24
:102A900001230223032300C100F101C101F102C19E
:102AA00002F103C103F1120001010251D96EDA6A89
:102AB000DE50DE10D8A45FEF15F061EF15F063EF84
:102AC00015F0C9EF15F00251D96EDA6A020ED92657
:102AD0000251E16EE26A040EE126DE50E65CDE5051
:102AE000E658D8B076EF15F078EF15F0A9EF15F0AD
:102AF0000251D96EDA6A040ED926DECF03F1DDCF9A
:102B000004F10251D96EDA6A020ED926DECF05F140
:102B1000DDCF06F10251D96EDA6A060ED926DECF74
:102B200007F1DDCF08F10551075D096F065108591E
:102B30000A6F035109250B6F04510A210C6F00C164
:102B4000D9FF01C1DAFF0BC1DEFF0CC1DDFFC9EF08
:102B500015F00251D96EDA6A020ED926DECF03F1E2
:102B6000DDCF04F10251D96EDA6A040ED926DECF28
:102B700005F1DDCF06F10351055D076F04510659DC
:102B8000086F00C1D9FF01C1DAFF07C1DEFF08C12C
:102B9000DDFF120000016251D96EDA6ADE50DE10EC
:102BA000D8A4D5EF15F0D7EF15F0D9EF15F03FEF1A
:102BB00016F06251D96EDA6A020ED9266251E16EC0
:102BC000E26A040EE126DE50E65CDE50E658D8B03C
:102BD000ECEF15F0EEEF15F01FEF16F06251D96E25
:102BE000DA6A040ED926DECF63F0DDCF64F06251DD
:102BF000D96EDA6A020ED926DECF65F0DDCF66F037
:102C00006251D96EDA6A060ED926DECF67F0DDCFC3
:102C100068F06551675D696F665168596A6F635105
:102C200069256B6F64516A216C6F60C0D9FF61C008
:102C3000DAFF6BC0DEFF6CC0DDFF3FEF16F06251C4
:102C4000D96EDA6A020ED926DECF63F0DDCF64F0EA
:102C50006251D96EDA6A040ED926DECF65F0DDCF77
:102C600066F06351655D676F64516659686F60C057
:102C7000D9FF61C0DAFF67C0DEFF68C0DDFF120068
:102C80000450D96EDA6ADE50DE10D8A44AEF16F08E
:102C90004CEF16F04EEF16F0B4EF16F00450D96E6C
:102CA000DA6A020ED9260450E16EE26A040EE126C9
:102CB000DE50E65CDE50E658D8B061EF16F063EF08
:102CC00016F094EF16F00450D96EDA6A040ED92685
:102CD000DECF05F0DDCF06F00450D96EDA6A020EC1
:102CE000D926DECF07F0DDCF08F00450D96EDA6ABE
:102CF000060ED926DECF09F0DDCF0AF00750095CB9
:102D00000B6E08500A580C6E05500B240D6E0650C1
:102D10000C200E6E02C0D9FF03C0DAFF0DC0DEFF2B
:102D20000EC0DDFFB4EF16F00450D96EDA6A020E61
:102D3000D926DECF05F0DDCF06F00450D96EDA6A71
:102D4000040ED926DECF07F0DDCF08F00550075C72
:102D5000096E065008580A6E02C0D9FF03C0DAFF98
:102D600009C0DEFF0AC0DDFF120001012C51D96E3F
:102D7000DA6ADE50DE10D8A4C0EF16F0C2EF16F00B
:102D8000C4EF16F027EF17F0336B000E326F320EE0
:102D9000006F010E016F2CC102F154EC15F001011E
:102DA0002A51325D2B513359D8B0D9EF16F0DBEFF1
:102DB00016F0DFEF16F032C12AF133C12BF128C132
:102DC0000DF129C10EF12AC10FF12BC110F12CC157
:102DD00011F1DDEC0EF00101316F3151D8B4F3EF98
:102DE00016F0F5EF16F0F7EF16F027EF17F02C516D
:102DF000D96EDA6A020ED9262A51DE262B51DD223F
:102E00002C51D96EDA6A060ED9262C51E16EE26A8F
:102E1000020EE126DE50E65CDE50E658D8A013EF45
:102E200017F015EF17F027EF17F02C51D96EDA6A6B
:102E3000060ED926DECF2DF1DDCF2EF12C51D96E25
:102E4000DA6A020ED9262D51DE5E2E51DD5A1200AD
:102E500000018C51D96EDA6ADE50DE10D8A433EF4F
:102E600017F035EF17F037EF17F099EF17F0936B76
:102E7000000E926F920E606F616B8CC062F0CAECB4
:102E800015F000018A51925D8B519359D8B04BEFE8
:102E900017F04DEF17F051EF17F092C08AF093C082
:102EA0008BF088C06DF089C06EF08AC06FF08BC067
:102EB00070F08CC071F00CEC10F00001916F91512A
:102EC000D8B465EF17F067EF17F069EF17F099EFD7
:102ED00017F08C51D96EDA6A020ED9268A51DE2695
:102EE0008B51DD228C51D96EDA6A060ED9268C51AF
:102EF000E16EE26A020EE126DE50E65CDE50E65844
:102F0000D8A085EF17F087EF17F099EF17F08C51E5
:102F1000D96EDA6A060ED926DECF8DF0DDCF8EF0BF
:102F20008C51D96EDA6A020ED9268D51DE5E8E5131
:102F3000DD5A12002E50D96EDA6ADE50DE10D8A4A7
:102F4000A4EF17F0A6EF17F0A8EF17F008EF18F0AE
:102F5000356A000E346E340E026E036A2EC004F021
:102F600040EC16F02C50345C2D503558D8B0BBEFE7
:102F700017F0BDEF17F0C1EF17F034C02CF035C0DB
:102F80002DF02AC00FF02BC010F02CC011F02DC076
:102F900012F02EC013F03AEC11F0336E3350D8B467
:102FA000D4EF17F0D6EF17F0D8EF17F008EF18F0BE
:102FB0002E50D96EDA6A020ED9262C50DE262D50FC
:102FC000DD222E50D96EDA6A060ED9262E50E16E19
:102FD000E26A020EE126DE50E65CDE50E658D8A03A
:102FE000F4EF17F0F6EF17F008EF18F02E50D96E47
:102FF000DA6A060ED926DECF2FF0DDCF30F02E5064
:10300000D96EDA6A020ED9262F50DE5E3050DD5AB4
:103010001200010102510311D8B411EF18F013EF9F
:1030200018F01CEF18F002510311D8A41AEF18F091
:103030001CEF18F021EF18F0005155EC1CF06EEF6A
:1030400018F020EE09F00251D9260351DA22DE50A1
:10305000DE10D8B42EEF18F030EF18F04BEF18F068
:1030600020EE09F00251D9260351DA2210EE02F0C7
:103070000251E1260351E222DE50E65CE650800A6E
:10308000086FDE50800A0859D8B049EF18F04BEFAE
:1030900018F06EEF18F020EE02F00251D92603511D
:1030A000DA22DECF04F1DDCF05F102C1D9FF03C181
:1030B000DAFFDECF06F1DDCF07F104510625D96E28
:1030C00005510721DA6E00C1DFFF20EE02F0025148
:1030D000D9260351DA22DE2A000EDD221200D59E07
:1030E000D59CD550F80B0309D56ED59AD596020E0E
:1030F0000101126F000E136F000E146F000E156F9A
:10310000176B000E166F8CEF18F0D890123713372C
:1031100014371537164B172BD550070B0F6F106B45
:103120000F51165D1751800A116F1051800A115905
:10313000D8A09DEF18F09FEF18F085EF18F0E00E83
:10314000006F2E0E016F000E026F000E036F12C192
:1031500004F113C105F114C106F115C107F1D0EC5A
:1031600018F0010100510108186F000E0155196F88
:10317000010E02551A6F000E03551B6F18C1C9F0DE
:1031800019C1C8F0C9C0D6FFC8C0D7FF0DC1C5F06E
:103190000EC1C6F0F28EF28CF28AF294D58E120035
:1031A000000E0101086F000E096F000E0A6F000E7D
:1031B0000B6F0451051106110711D8B4E2EF18F096
:1031C000E4EF18F01AEF19F0010E0C6FEEEF18F0A3
:1031D000D89004370537063707370C2B07AFF3EFC6
:1031E00018F0F5EF18F0E8EF18F0D8900837093725
:1031F0000A370B370451005D055101590651025938
:1032000007510359D8A007EF19F009EF19F012EF91
:1032100019F00451005F0551015B0651025B075133
:10322000035B0881D89007330633053304330C2F32
:10323000F5EF18F008C100F109C101F10AC102F16E
:103240000BC103F11200420E0101006F010E016F6C
:10325000CA0E026F54EC15F0010136514225386F49
:1032600037514321396F010E3827000E3923395168
:1032700009E1C90E385DD8A040EF19F042EF19F00E
:1032800044EF19F06EEF19F034C100F135C101F1CE
:1032900036C102F137C103F1F9EC19F000C13AF17E
:1032A00001C13BF134C10DF135C10EF13AC10FF14D
:1032B0003BC110F1CA0E0101116F1EEC0AF0AE0EF7
:1032C0000101286F0F0E296F2B6B010E2A6FCA0E9A
:1032D0002C6FB5EC16F00101446B9D88120035ECA3
:1032E0001CF048500001605D646F49506159656F82
:1032F0004A506259666F4B506359676F6751661148
:10330000651109E10B0E645DD8A089EF19F08BEF10
:1033100019F0B4EF19F08C9835EC1CF0485000010E
:10332000605D646F49506159656F4A506259666FBC
:103330004B506359676F675166110BE1E90E645D8D
:10334000030E6559D8A0A7EF19F0A9EF19F0B4EF53
:1033500019F08C8835EC1CF060C048F061C049F071
:1033600062C04AF063C04BF012003EEC1CF04850C3
:10337000025C066E49500358076E4A500458086EA6
:103380004B500558096E09500810071009E10B0E43
:10339000065CD8A0CEEF19F0D0EF19F0F8EF19F0D5
:1033A0008C983EEC1CF04850025C066E4950035865
:1033B000076E4A500458086E4B500558096E095064
:1033C00008100BE1E90E065C030E0758D8A0EBEFDE
:1033D00019F0EDEF19F0F8EF19F08C883EEC1CF0C5
:1033E00002C048F003C049F004C04AF005C04BF0E9
:1033F00012000101056B000E046F19EF1AF0045161
:103400000025D96E05510121DA6EDF50D8B40BEFDB
:103410001AF00DEF1AF00FEF1AF017EF1AF0044B35
:10342000052B04C100F105C101F128EF1AF0044B8E
:10343000052B0251045D03510559D8A022EF1AF063
:1034400024EF1AF0FFEF19F002C100F103C101F1FE
:103450001200AC0EF66E380EF76E000EF86E090014
:10346000F5CF44F103EE00F0C80EEE6AE806FDE188
:1034700002EE00F0C80EEE6AE806FDE10101436BC2
:10348000426B00EEA1F03D0EEE6AE806FDE100EEB3
:1034900040F0140EEE6AE806FDE101900192000E84
:1034A000F86E0001D2EF13F01C0E0101006F380E10
:1034B000016F4E0E026F350E036F6BEC1BF0000EAA
:1034C0000101036F020E046F066BC80E056F086BD7
:1034D000010E076FD40E096F8EEC1BF0000E010178
:1034E000036F030E046F066BC80E056F086B010EA9
:1034F000076FCA0E096F8EEC1BF0120002C109F1B2
:1035000003C10AF100C107F101C108F198EF1AF0F7
:1035100009C1D9FF0AC1DAFFDF50066F094B0A2B38
:1035200007C1D9FF08C1DAFF06C1DFFF074B082B2F
:1035300001010407D8A00507042906E10529D8A43C
:10354000A4EF1AF0A6EF1AF088EF1AF0120001A209
:10355000ACEF1AF0B1EF1BF00001956B000E946F09
:10356000940E606F616BCA0E626FCAEC15F00001B9
:1035700094519511D8B4BFEF1AF0C1EF1AF0CEEF05
:103580001AF0AE0E886F0F0E896F8B6B010E8A6F6B
:10359000CA0E8C6F28EC17F0CFEF1AF09D9812002E
:1035A00062C069F063C06AF060C067F061C068F033
:1035B000EAEF1AF069C0D9FF6AC0DAFFDF50666F20
:1035C000694B6A2B67C0D9FF68C0DAFF66C0DFFFAE
:1035D000674B682B00016407D8A06507642906E1E2
:1035E0006529D8A4F6EF1AF0F8EF1AF0DAEF1AF01E
:1035F000120004C00BF005C00CF002C009F003C0BB
:103600000AF013EF1BF00BC0D9FF0CC0DAFFDF503C
:10361000086E0B4A0C2A09C0D9FF0AC0DAFF08C09D
:10362000DFFF094A0A2A0606D8A00706062806E18F
:103630000728D8A41EEF1BF020EF1BF003EF1BF0B0
:10364000120021C124F134EF1BF01FC10EF120C183
:103650000FF1240E0101106F010E116F22C112F142
:1036600023C113F125EC08F024C1F6FF100EF76E0C
:103670000800F5500009D8A440EF1BF042EF1BF002
:1036800025EF1BF00101206B000E1F6F1200280EAA
:1036900001012E6F010E2F6F25C130F126C131F1CE
:1036A000336B000E326F3A6B000E396F300E1F6FA6
:1036B000010E206F27C121F12E0E226F010E236F04
:1036C00021EC1BF0010132512525D96E3351262101
:1036D000DA6EDF6A1200AC9EAD9A948E949CAC9C1C
:1036E000AC9AAD8EAD9CAD98AD847E907E9A7E985E
:1036F0007E867F6A330EB06EAD8AAC8800C150F012
:1037000001C151F002C14EF003C14FF09D989D8A56
:103710009F9A9F989E9A9E98AC8E12000101095123
:10372000D96EDA6A060ED92605C1DEFF06C1DDFFB5
:103730000951D96EDA6A080ED92607C1DEFF08C121
:10374000DDFF0951D96EDA6A03C1DEFF04C1DDFF76
:1037500009C100F1D3EC1BF001010951D96EDA6AFD
:103760001200376A000E366E360E026E036ACA0EFB
:10377000046E40EC16F036503710D8B4C2EF1BF090
:10378000C4EF1BF0D1EF1BF0AE0E2A6E0F0E2B6EA6
:103790002D6A010E2C6ECA0E2E6E9AEC17F0D2EF27
:1037A0001BF09D98120001010051D96EDA6ADE50BB
:1037B000DE10D8A4DEEF1BF0E0EF1BF0E2EF1BF011
:1037C000F2EF1BF00051D96EDA6A020ED926DE6ADA
:1037D000DD6A0051E16EE26A040EE126DECFE6FF0B
:1037E000DDCFE5FF120001010BBFF9EF1BF0FBEF8E
:1037F0001BF001EF1CF00AC10AF10BC10BF10DEF38
:103800001CF00AC10CF10BC10DF10C1F0D1F0C4B6C
:103810000D2B0CC10AF10DC10BF1120001A213EF27
:103820001CF020EF1CF0AF0E00016D6F0F0E6E6FDD
:10383000706B010E6F6FD40E716FB5EC0BF0120050
:10384000AF0E0F6E0F0E106E126A010E116ED40EB7
:10385000136E4BEC0DF0120044C000F145C001F1B5
:1038600046C002F147C003F1120044C060F045C0F9
:1038700061F046C062F047C063F0120044C002F03D
:1038800045C003F046C004F047C005F0120001A295
:103890004CEF1CF052EF1CF06FEC19F012009B8CF7
:0D38A000D08E1200B5EC19F01200120001DC
:08FFF800AEF755FFF3F9FFF12C
:00000001FF
