:04000000A6EF00F077
:0600080001821FEF19F058
:100018000180D8CFADF0E8CFAEF0E0CFAFF0FACFA7
:10002800B0F0FBCFB1F0E1CFB2F0E2CFB3F0D9CF6F
:10003800B4F0DACFB5F0F3CFB6F0F4CFB7F09DAAAD
:1000480028EF00F02AEF00F047EF00F09EAA2FEF0C
:1000580000F031EF00F047EF00F09E9A4E504F103D
:10006800D8B439EF00F03BEF00F047EF00F002D8CA
:1000780047EF00F00500FA6E4E50FD6E4F50FE6ED1
:10008800FF6AFA5012009DA84CEF00F04EEF00F006
:100098006AEF00F09EA853EF00F055EF00F06AEF0A
:1000A80000F04C504D10D8B45CEF00F05EEF00F05B
:1000B8006AEF00F002D86AEF00F00500FA6E4C50C3
:1000C800FD6E4D50FE6EFF6AFA5012009EAC6FEF47
:1000D80000F071EF00F08EEF00F09DAC76EF00F0CD
:1000E80078EF00F08EEF00F09E9C4A504B10D8B489
:1000F80080EF00F082EF00F08EEF00F002D88EEF74
:1001080000F00500FA6E4A50FD6E4B50FE6EFF6A15
:10011800FA501200B7C0F4FFB6C0F3FFB5C0DAFF5B
:10012800B4C0D9FFB3C0E2FFB2C0E1FFB1C0FBFF6A
:10013800B0C0FAFFAFC0E0FFAEC0E8FFADC0D8FF67
:080148000190100004EF1AF011
:101000000054696D653A20252E32643A25322E321D
:10101000643A25322E32640A0D456E746572656439
:1010200020737472696E673A2025730A0D000A0DE9
:1010300048656C6C6F2121210A0D54696D653A2059
:10104000256C640A0D456E74657220737472696E46
:10105000673A200A0D0A0D0048656C6C6F2121214A
:101060000A0D54696D653A20256C640A0D456E744D
:10107000657220737472696E673A200A0D004144EC
:10108000433A2025642025642025640A0D00286E3B
:10109000756C6C2900000001C851D96EDA6ADE5007
:1010A000DE10D8A456EF08F058EF08F05AEF08F019
:1010B000DFEF09F0C851D96EDA6A060ED926C6519B
:1010C000DE5CC751DE58D8B068EF08F06AEF08F070
:1010D0006CEF08F0DFEF09F0C4C0DBF0C5C0DCF056
:1010E000DE6B000EDD6FC851D96EDA6A040ED926A8
:1010F000DECFC9F0DDCFCAF0C851D96EDA6A060E6C
:10110000D926DECFCBF0DDCFCCF0C951CB5DDF6F80
:10111000CA51CC59E06FE26B000EE16FE10EB86F7F
:10112000C8C0B9F0E1EC13F0C6C0D9F0C7C0DAF01E
:101130000001C651DF5DC751E059D8B0A2EF08F0F9
:10114000A4EF08F000EF09F0C851D96EDA6A080E72
:10115000D926DECFC9F0DDCFCAF0C851D96EDA6A20
:10116000040ED926DECFCBF0DDCFCCF0C951CB03B6
:10117000F3CFCDF0F4CFCEF0CC03F350CE27CA514D
:10118000CB03F350CE27C851D96EDA6ADECFCFF049
:10119000DDCFD0F0CD51CF25B86FCE51D021B96F72
:1011A000DBC0BAF0DCC0BBF0C851D96EDA6A080EF9
:1011B000D926DECFD1F0DDCFD2F0DF51D103F3CF8E
:1011C000D3F0F4CFD4F0D203F350D427E051D103BD
:1011D000F350D427D3C0BCF0D4C0BDF0B3EC19F0A9
:1011E0000001C851D96EDA6A040ED926DE6ADD6ABA
:1011F000DFC0DDF0E0C0DEF0DF51C65FE051C75B6D
:10120000C851D96EDA6A080ED926DECFC9F0DDCF13
:10121000CAF0C851D96EDA6A040ED926DECFCBF0F7
:10122000DDCFCCF0C951CB03F3CFCDF0F4CFCEF06E
:10123000CC03F350CE27CA51CB03F350CE27C8516D
:10124000D96EDA6ADECFCFF0DDCFD0F0CD51CF2529
:10125000B86FCE51D021B96FC851D96EDA6A080E75
:10126000D926DECFD1F0DDCFD2F0DD51D103F3CFDF
:10127000D3F0F4CFD4F0D203F350D427DE51D1030E
:10128000F350D427D351DB25BA6FD451DC21BB6F87
:10129000C851D96EDA6A080ED926DECFD5F0DDCF77
:1012A000D6F0C651D503F3CFD7F0F4CFD8F0D6039C
:1012B000F350D827C751D503F350D827D7C0BCF077
:1012C000D8C0BDF0B3EC19F00001C851D96EDA6A8C
:1012D000040ED926C651DE26C751DD22C851D96E6B
:1012E000DA6A060ED926C851E16EE26A040EE126DA
:1012F000DE50E65CDE50E658D8A081EF09F083EFBF
:1013000009F095EF09F0C851D96EDA6A060ED926B0
:10131000DECFC9F0DDCFCAF0C851D96EDA6A040E4B
:10132000D926C951DE5ECA51DD5AC851D96EDA6A72
:10133000060ED926DECFC9F0DDCFCAF0E151C95F74
:10134000E251CA5BC951D95DCA51DA59D8A0ABEF95
:1013500009F0ADEF09F0C3EF09F0C851D96EDA6AB0
:10136000040ED926DECFC9F0DDCFCAF0010EC927A1
:10137000000ECA23C851D96EDA6A020ED926C9C036
:10138000DEFFCAC0DDFFC851D96EDA6A060ED92663
:10139000C851E16EE26A020EE126DE50E65CDE50E4
:1013A000E658D8A0D6EF09F0D8EF09F0DFEF09F042
:1013B000C851D96EDA6A020ED926DE6ADD6A1200D9
:1013C0001C50D96EDA6ADE50DE10D8A4EAEF09F0BC
:1013D000ECEF09F0EEEF09F070EF0BF01C50D96E56
:1013E000DA6A060ED9261A50DE5C1B50DE58D8B0D9
:1013F000FCEF09F0FEEF09F000EF0AF070EF0BF0E0
:1014000018C02FF019C030F0326A000E316E1C5037
:10141000D96EDA6A040ED926DECF1DF0DDCF1EF0BC
:101420001C50D96EDA6A060ED926DECF1FF0DDCF4A
:1014300020F01D501F5C356E1E502058366E346AE9
:10144000000E336E330E0C6E1CC00DF055EC14F014
:101450001AC02DF01BC02EF01A50355C1B503658A8
:10146000D8B035EF0AF037EF0AF092EF0AF01C50CF
:10147000D96EDA6A080ED926DECF1DF0DDCF1EF058
:101480001C50D96EDA6A040ED926DECF1FF0DDCFEC
:1014900020F01D501F02F3CF21F0F4CF22F02002E4
:1014A000F35022261E501F02F35022261C50D96EE4
:1014B000DA6ADECF23F0DDCF24F0215023240C6E36
:1014C000225024200D6E2FC00EF030C00FF01C50A3
:1014D000D96EDA6A080ED926DECF25F0DDCF26F0E8
:1014E00035502502F3CF27F0F4CF28F02602F35031
:1014F000282636502502F350282627C010F028C091
:1015000011F0DCEC19F01C50D96EDA6A040ED92601
:10151000DE6ADD6A35C031F036C032F035501A5E11
:1015200036501B5A1C50D96EDA6A080ED926DECF07
:101530001DF0DDCF1EF01C50D96EDA6A040ED926DC
:10154000DECF1FF0DDCF20F01D501F02F3CF21F0C2
:10155000F4CF22F02002F35022261E501F02F35037
:1015600022261C50D96EDA6ADECF23F0DDCF24F0BC
:10157000215023240C6E225024200D6E1C50D96E55
:10158000DA6A080ED926DECF25F0DDCF26F03150FD
:101590002502F3CF27F0F4CF28F02602F3502826B7
:1015A00032502502F350282627502F240E6E285043
:1015B00030200F6E1C50D96EDA6A080ED926DECFA5
:1015C00029F0DDCF2AF01A502902F3CF2BF0F4CF07
:1015D0002CF02A02F3502C261B502902F3502C2603
:1015E0002BC010F02CC011F0DCEC19F01C50D96E9F
:1015F000DA6A040ED9261A50DE261B50DD221C5052
:10160000D96EDA6A060ED9261C50E16EE26A040E23
:10161000E126DE50E65CDE50E658D8A012EF0BF073
:1016200014EF0BF026EF0BF01C50D96EDA6A060EA1
:10163000D926DECF1DF0DDCF1EF01C50D96EDA6A40
:10164000040ED9261D50DE5E1E50DD5A1C50D96E88
:10165000DA6A060ED926DECF1DF0DDCF1EF033503C
:101660001D5E34501E5A1D502D5C1E502E58D8A0A1
:101670003CEF0BF03EEF0BF054EF0BF01C50D96E2B
:10168000DA6A040ED926DECF1DF0DDCF1EF0010E82
:101690001D26000E1E221C50D96EDA6A020ED926B3
:1016A0001DC0DEFF1EC0DDFF1C50D96EDA6A060EBB
:1016B000D9261C50E16EE26A020EE126DE50E65C9D
:1016C000DE50E658D8A067EF0BF069EF0BF070EF33
:1016D0000BF01C50D96EDA6A020ED926DE6ADD6A7A
:1016E00012000001E251D96EDA6ADFCFF6FF100E68
:1016F000F76E0800F550250AD8A481EF0BF083EFB0
:101700000BF0EAEF0CF0E251D96EDA6ADF2A8F6B48
:10171000000E8E6F8EC094F090699169E2C0B8F0AF
:10172000E3C0B9F0E4C0BAF06EEC16F0B8C08EF0C9
:10173000B9C08FF000018FBFA2EF0BF0A0EF0BF04C
:10174000A7EF0BF094818E6D8F1FD8B08F2BE251D5
:10175000D96EDA6ADFCFF6FF100EF76E0800F5508B
:101760002E0AD8A4B6EF0BF0B8EF0BF0C8EF0BF0D1
:10177000E251D96EDA6ADF2AE2C0B8F0E3C0B9F00C
:10178000E4C0BAF06EEC16F0B8C090F0B9C091F0B9
:101790000001E251D96EDA6ADF50ED6FEDC0F6FF5D
:1017A000100EF76E0800F5CFECF0E1EF0BF0ED2B2B
:1017B000F0EF0BF0690EEC6FF0EF0BF0EC6BF0EF6D
:1017C0000BF0EC51640AD8B4DAEF0BF00D0AD8B480
:1017D000DAEF0BF0050AD8B4D7EF0BF0DEEF0BF021
:1017E000EDC0F6FF100EF76E0800F550640AD8B48D
:1017F000FCEF0BF0FEEF0BF043EF0CF0EDC0F6FF4B
:10180000100EF76E0800F550690AD8A40AEF0CF024
:101810000CEF0CF063EF0CF043EF0CF0E3C0D9FFDA
:10182000E4C0DAFFDFCFE5F0020EDE26DFCFE6F020
:10183000000EDD22E5C0D9FFE6C0DAFFDECFE7F01B
:10184000DDCFE8F0000EE8BFFF0EE96FEA6F4EEF64
:101850000CF0E3C0D9FFE4C0DAFFDFCFE5F0040EFF
:10186000DE26DFCFE6F0000EDD22E5C0D9FFE6C0C0
:10187000DAFFDECFE7F0DECFE8F0DECFE9F0DECF53
:10188000EAF04EEF0CF0EC51690AD8B40EEF0CF010
:10189000050AD8B429EF0CF04EEF0CF0E251D96EE6
:1018A000DA6AED29DF6EE0C0D1F0E1C0D2F0E7C026
:1018B000D3F0E8C0D4F0E9C0D5F0EAC0D6F013EC1C
:1018C00012F0FDEF0CF0EB6BE251D96EDA6ADFCF6C
:1018D000F6FF100EF76E0800F550730AD8A473EFE8
:1018E0000CF075EF0CF07DEF0CF0E251D96EDA6A76
:1018F000DF2A010EEB6FBFEF0CF0E251D96EDA6A0E
:10190000DFCFF6FF100EF76E0800F5506C0AD8A472
:101910008CEF0CF08EEF0CF0BFEF0CF0E251D96EB3
:10192000DA6ADF50E56F010EE527E5C0F6FF100E1D
:10193000F76E0800F5506C0AD8A4A1EF0CF0A3EFE5
:101940000CF0BFEF0CF0E251D96EDA6ADF50E56FB0
:10195000020EE527E5C0F6FF100EF76E0800F55001
:10196000730AD8A4B6EF0CF0B8EF0CF0BFEF0CF090
:10197000E251D96EDA6A030EDF2679EF0CF0EB51F3
:10198000D8B4C5EF0CF0C7EF0CF0E3EF0CF0E0C0FB
:10199000C1F0E1C0C2F0E3C0D9FFE4C0DAFFDFCF9D
:1019A000E5F0020EDE26DFCFE6F0000EDD22E5C018
:1019B000D9FFE6C0DAFFDECFC3F0DDCFC4F040ECE4
:1019C00011F0FDEF0CF00001E251D96EDA6ADF2A66
:1019D000FDEF0CF0E251D96EDA6ADFCFF6FF100EA0
:1019E000F76E0800F550B86FB96BE0C0BAF0E1C00F
:1019F000BBF0A7EC15F0E3EF0CF012000001C451AE
:101A0000C511D8A406EF0DF008EF0DF00BEF0DF0A7
:101A1000020E2AEF0EF0C851D96EDA6A060ED926E8
:101A2000C651DE5CC751DE58D8B019EF0DF01BEF80
:101A30000DF01EEF0DF0030E2AEF0EF0C851D96E17
:101A4000DA6A020ED926C851E16EE26A040EE12676
:101A5000DE50E61807E1DE50E618D8A432EF0DF0AC
:101A600034EF0DF037EF0DF0040E2AEF0EF0DE6BC1
:101A7000000EDD6FDD0EB86FC8C0B9F0E1EC13F0F9
:101A80000001C651DD5DC751DE59D8B04AEF0DF0F7
:101A90004CEF0DF050EF0DF0DDC0C6F0DEC0C7F02A
:101AA000D86B000ED76FC851D96EDA6A020ED926EC
:101AB000DECFC9F0DDCFCAF0C851D96EDA6A060EA2
:101AC000D926DECFCBF0DDCFCCF0C951CB5DDB6FBB
:101AD000CA51CC59DC6FC851D96EDA6A020ED926C8
:101AE000DECFD9F0DDCFDAF0C651DB5DC751DC596E
:101AF000D8B07DEF0DF07FEF0DF0CEEF0DF0C4C04C
:101B0000B8F0C5C0B9F0C851D96EDA6A080ED92646
:101B1000DECFC9F0DDCFCAF0D951C903F3CFCBF086
:101B2000F4CFCCF0CA03F350CC27DA51C903F350F9
:101B3000CC27C851D96EDA6ADECFCDF0DDCFCEF03A
:101B4000CB51CD25BA6FCC51CE21BB6FC851D96EC8
:101B5000DA6A080ED926DECFCFF0DDCFD0F0DB5128
:101B6000CF03F3CFD1F0F4CFD2F0D003F350D2278C
:101B7000DC51CF03F350D227D1C0BCF0D2C0BDF0AE
:101B8000B3EC19F00001DA6B000ED96FDBC0D7F0AF
:101B9000DCC0D8F0DB51C65FDC51C75BC851D96EE1
:101BA000DA6A080ED926DECFC9F0DDCFCAF0D751E8
:101BB000C903F3CFCBF0F4CFCCF0CA03F350CC275A
:101BC000D851C903F350CC27CB51C425B86FCC51A1
:101BD000C521B96FC851D96EDA6A080ED926DECF91
:101BE000CDF0DDCFCEF0D951CD03F3CFCFF0F4CF90
:101BF000D0F0CE03F350D027DA51CD03F350D027E5
:101C0000C851D96EDA6ADECFD1F0DDCFD2F0CF5134
:101C1000D125BA6FD051D221BB6FC851D96EDA6AC3
:101C2000080ED926DECFD3F0DDCFD4F0C651D303D2
:101C3000F3CFD5F0F4CFD6F0D403F350D627C75165
:101C4000D303F350D627D5C0BCF0D6C0BDF0B3EC5B
:101C500019F0000E120018501910D8A432EF0EF02F
:101C600034EF0EF037EF0EF0020E54EF0FF01C5071
:101C7000D96EDA6A060ED9261A50DE5C1B50DE5881
:101C8000D8B045EF0EF047EF0EF04AEF0EF0030E1E
:101C900054EF0FF01C50D96EDA6A020ED9261C5090
:101CA000E16EE26A040EE126DE50E61807E1DE503E
:101CB000E618D8A45EEF0EF060EF0EF063EF0EF0C2
:101CC000040E54EF0FF0306A000E2F6E2F0E0C6EC4
:101CD0001CC00DF055EC14F01A502F5C1B503058FE
:101CE000D8B075EF0EF077EF0EF07BEF0EF02FC04F
:101CF0001AF030C01BF02C6A000E2B6E1C50D96EEF
:101D0000DA6A020ED926DECF1DF0DDCF1EF01C50A0
:101D1000D96EDA6A060ED926DECF1FF0DDCF20F0AD
:101D20001D501F5C316E1E502058326E1C50D96EF3
:101D3000DA6A020ED926DECF2DF0DDCF2EF01A5052
:101D4000315C1B503258D8B0A8EF0EF0AAEF0EF05D
:101D5000F8EF0EF018C00CF019C00DF01C50D96E41
:101D6000DA6A080ED926DECF1DF0DDCF1EF02D5029
:101D70001D02F3CF1FF0F4CF20F01E02F3502026F7
:101D80002E501D02F35020261C50D96EDA6ADECF89
:101D900021F0DDCF22F01F5021240E6E2050222092
:101DA0000F6E1C50D96EDA6A080ED926DECF23F0EA
:101DB000DDCF24F031502302F3CF25F0F4CF26F00D
:101DC0002402F350262632502302F350262625C043
:101DD00010F026C011F0DCEC19F02E6A000E2D6E0A
:101DE00031C02BF032C02CF031501A5E32501B5AE9
:101DF0001C50D96EDA6A080ED926DECF1DF0DDCF71
:101E00001EF02B501D02F3CF1FF0F4CF20F01E0266
:101E1000F35020262C501D02F35020261F5018246A
:101E20000C6E205019200D6E1C50D96EDA6A080E07
:101E3000D926DECF21F0DDCF22F02D502102F3CFC5
:101E400023F0F4CF24F02202F35024262E50210256
:101E5000F35024261C50D96EDA6ADECF25F0DDCF90
:101E600026F0235025240E6E245026200F6E1C5081
:101E7000D96EDA6A080ED926DECF27F0DDCF28F03A
:101E80001A502702F3CF29F0F4CF2AF02802F3509A
:101E90002A261B502702F3502A2629C010F02AC0F8
:101EA00011F0DCEC19F0000E1200B9EC1BF0360E4C
:101EB0000001C56F310EC66F0DEC16F088EC19F0FD
:101EC00076EC1BF0010E0101226F206B010E216FD9
:101ED000246B256B266B200E0001B86F010EB96FC5
:101EE0000BEC18F057EC18F05DEC1BF09598640EB5
:101EF0000101286F040E296F580E2A6FA0EC1BF009
:101F0000B8C02BF1B9C02CF1BAC02DF1BBC02EF175
:101F100029EC1AF0640E0001EB6F040EEC6FEE6B0F
:101F2000320EED6F6CEC17F00F0E0001B86F000E63
:101F3000B96F000EBA6F000EBB6F4EEC1AF0200E98
:101F40000001B86F010EB96F1BEC17F0640E0101B0
:101F5000286F040E296F7E0E2A6F000E85EC1BF091
:101F6000B8C02BF1B9C02CF1010E85EC1BF0B8C044
:101F70002DF1B9C02EF1020E85EC1BF0B8C02FF187
:101F8000B9C030F129EC1AF0640E0001EB6F040EB9
:101F9000EC6FEE6B640EED6F6CEC17F0640E0101EC
:101FA000286F040E296F010E2A6F24C140F10F0E15
:101FB000401724C141F1413B0F0E41170F0E41174D
:101FC00041510A0D4051F3242B6F000EF4202C6F69
:101FD00025C142F10F0E421725C143F1433B0F0EBD
:101FE00043170F0E431743510A0D4251F3242D6F2F
:101FF000000EF4202E6F26C144F10F0E441726C1A7
:1020000045F1453B0F0E45170F0E451745510A0D7B
:102010004451F3242F6F000EF420306F000E316F07
:10202000040E326F29EC1AF0640E0001EB6F040EFF
:10203000EC6FEE6B640EED6F6CEC17F0000E0001B0
:10204000EB6F040EEC6FEE6B320EED6FF06B050E66
:10205000EF6F65EC10F00001ECBF37EF10F0EC51C2
:1020600008E1EB05D8A037EF10F039EF10F056EF8C
:1020700010F0640E0101286F040E296F2E0E2A6FD6
:10208000A0EC1BF0B8C02BF1B9C02CF1BAC02DF1F7
:10209000BBC02EF129EC1AF0640E0001EB6F040EA8
:1020A000EC6FEE6B640EED6F6CEC17F0F40E00014C
:1020B000B86F010EB96F000EBA6F000EBB6F4EEC19
:1020C0001AF09FEF0FF0A6EF00F0510E0001B86F6D
:1020D000A10EB96FE1EC13F051500001ED250101A3
:1020E000286F52500001EE210101296F295109E1A9
:1020F000C90E285DD8A07FEF10F081EF10F086EFB9
:1021000010F00001EB69EC693FEF11F051505210F3
:10211000D8B48DEF10F08FEF10F03AEF11F051506E
:10212000481809E152504918D8B499EF10F09BEFC4
:1021300010F0D8EF10F00001ED51515CEE51525803
:10214000D8A0A5EF10F0A7EF10F0C4EF10F0EBC08F
:10215000DFF0ECC0E0F0EDC0E1F0EEC0E2F0A10E87
:10216000E36FC8EC14F0496A000E486E0001ED51AF
:10217000EB25D96EEE51EC21DA6EDF6AEDC0EBF0A3
:10218000EEC0ECF03FEF11F051C048F052C049F002
:10219000A0EC1BF0B8C086F0B9C087F0BAC088F0D8
:1021A000BBC089F00001EC6B000EEB6F3FEF11F04C
:1021B000A0EC1BF000018651B85D0101286F000101
:1021C0008751B9590101296F00018851BA5901019C
:1021D0002A6F00018951BB5901012B6F0001EF519A
:1021E00001012C6F0001F05101012D6F2E6B2F6B3F
:1021F00028512C5D29512D592A512E592B512F59D7
:10220000D8B005EF11F007EF11F03AEF11F051508F
:102210000001ED5D5250EE59D8A011EF11F013EF0F
:1022200011F019EF11F051C051F052C052F01DEFF2
:1022300011F0EDC051F0EEC052F0EBC0DFF0ECC099
:10224000E0F051C0E1F052C0E2F0A10EE36FC8EC43
:1022500014F051500001EB25D96E5250EC21DA6E8A
:10226000DF6A496A000E486E51C0EBF052C0ECF0D4
:102270003FEF11F0FF0E0001EC6FFE0EEB6F12004E
:10228000C3C0CBF0C4C0CCF00001CB51CC11D8A45A
:102290004CEF11F04EEF11F054EF11F08E0ECB6FAA
:1022A000CB51D8A4100ECC6FCE6B000ECD6F5CEF6F
:1022B00011F00001CD4BCE2BCD51CB25C56FCE51AA
:1022C000CC21C66FC5C0F6FFC6C0F7FFF86A0F0E77
:1022D000F76403D00800F55005D0F6CFE1FFF7CF43
:1022E000E2FFE7500009D8A478EF11F07AEF11F07F
:1022F00059EF11F0000191BF80EF11F082EF11F062
:1023000095EF11F0CD51905D9151800AC56FCE517E
:10231000800AC559D8B08FEF11F091EF11F095EF09
:1023200011F090C0CDF091C0CEF0CDC0C7F0CEC0BE
:10233000C8F08EC0C9F08FC0CAF094B1A2EF11F0FE
:10234000A4EF11F0E1EF11F0B2EF11F0B96B200E34
:10235000B86FC1C0BAF0C2C0BBF0A7EC15F0000165
:10236000CD4BCE2BC951CD5DCE51800AC56FCA5120
:10237000800AC559D8A0BFEF11F0C1EF11F0A6EF48
:1023800011F0E1EF11F0CBC0F6FFCCC0F7FFF86A17
:102390000F0EF76403D00800F55005D0F6CFE1FF2B
:1023A000F7CFE2FFE7500001C56FC551B86FB96BB9
:1023B000C1C0BAF0C2C0BBF0A7EC15F00001CB4B16
:1023C000CC2BC707D8A0C807C72906E1C829D8A4BD
:1023D000ECEF11F0EEEF11F0C3EF11F094A1F3EF79
:1023E00011F0F5EF11F012EF12F003EF12F0B96BEC
:1023F000200EB86FC1C0BAF0C2C0BBF0A7EC15F098
:102400000001CD4BCE2BC951CD5DCE51800AC56F99
:10241000CA51800AC559D8A010EF12F012EF12F07D
:10242000F7EF11F012000001D6BF19EF12F01CEF08
:1024300012F0010E1DEF12F0000EDD6F91BF25EFBF
:1024400012F023EF12F02AEF12F0DC6B010EDB6FBB
:102450002EEF12F090C0DBF091C0DCF08EC0D9F00E
:102460008FC0DAF0DD51D8B438EF12F03AEF12F045
:102470004FEF12F0D907D8A0DA07DD51D8A443EF07
:1024800012F045EF12F04AEF12F0D86B2B0ED76F17
:102490004DEF12F0D86B2D0ED76FD7C0DDF0DF6B8C
:1024A0001F0EDE6F01011F6B9BEF12F0DE07D8A03D
:1024B000DF07000EDE25D96E010EDF21DA6ED3C0F4
:1024C000B8F0D4C0B9F0D5C0BAF0D6C0BBF00A0E8F
:1024D000BC6F000EBD6F000EBE6F000EBF6F6BECC9
:1024E00013F0B8C0C2F0B9C0C3F042EC1BF0000159
:1024F000C251300FDF6EDB07D8A0DC07D907D8A0A8
:10250000DA07D3C0B8F0D4C0B9F0D5C0BAF0D6C09D
:10251000BBF00A0EBC6F000EBD6F000EBE6F000E4A
:10252000BF6FE5EC12F0B8C0D3F0B9C0D4F0BAC0B8
:10253000D5F0BBC0D6F00001DFBFA7EF12F0DF512E
:1025400008E1DE05D8A0A7EF12F0A9EF12F0C1EF65
:1025500012F0D351D411D511D611D8A4B2EF12F084
:10256000B4EF12F056EF12F0DCBFC1EF12F0DC5105
:1025700006E1DB05D8B0BFEF12F0C1EF12F056EF65
:1025800012F0DD51D8B4C7EF12F0C9EF12F0D4EF5A
:1025900012F0DE07D8A0DF07000EDE25D96E010E8F
:1025A000DF21DA6EDDC0DFFFD1C0C8F0D2C0C9F0D4
:1025B000000EDE25CA6F010EDF21CB6FD9C0CCF033
:1025C000DAC0CDF0BCEC17F012000001C16BBFBF48
:1025D000EEEF12F0ECEF12F0F8EF12F0BF1FBE1F9B
:1025E000BD1FBC6D000EBD23BE23BF23010EC16FF6
:1025F000BBBFFFEF12F0FDEF12F009EF13F0BB1FAE
:10260000BA1FB91FB86D000EB923BA23BB23010E40
:10261000C11B000EC26F000EC36F000EC46F000E10
:10262000C56FBC51BD11BE11BF11D8B41AEF13F064
:102630001CEF13F052EF13F0010EC06F26EF13F0F2
:10264000D890BC37BD37BE37BF37C02BBFAF2BEFDD
:1026500013F02DEF13F020EF13F0D890C237C337EB
:10266000C437C537BC51B85DBD51B959BE51BA590F
:10267000BF51BB59D8A03FEF13F041EF13F04AEF21
:1026800013F0BC51B85FBD51B95BBE51BA5BBF51CD
:10269000BB5BC281D890BF33BE33BD33BC33C02FC8
:1026A0002DEF13F0C151D8B458EF13F05AEF13F0D7
:1026B00062EF13F0C51FC41FC31FC26D000EC323FA
:1026C000C423C523C2C0B8F0C3C0B9F0C4C0BAF0B7
:1026D000C5C0BBF012000001C16BBBBF74EF13F0AB
:1026E00072EF13F07EEF13F0BB1FBA1FB91FB86D66
:1026F000000EB923BA23BB23010EC16FBFBF85EF04
:1027000013F083EF13F08DEF13F0BF1FBE1FBD1F3B
:10271000BC6D000EBD23BE23BF23BC51BD11BE1135
:10272000BF11D8B496EF13F098EF13F0C8EF13F081
:10273000010EC06FA2EF13F0D890BC37BD37BE3783
:10274000BF37C02BBFAFA7EF13F0A9EF13F09CEF7B
:1027500013F0BC51B85DBD51B959BE51BA59BF5102
:10276000BB59D8A0B6EF13F0B8EF13F0C0EF13F0D9
:10277000BC51B85FBD51B95BBE51BA5BBF51BB5BC9
:10278000D890BF33BE33BD33BC33C02FA9EF13F095
:10279000C151D8B4CEEF13F0D0EF13F0D8EF13F04F
:1027A000BB1FBA1FB91FB86D000EB923BA23BB23D4
:1027B000B8C0B8F0B9C0B9F0BAC0BAF0BBC0BBF08D
:1027C00012000001B951D96EDA6ADE50DE10D8A4C9
:1027D000ECEF13F0EEEF13F0F0EF13F054EF14F012
:1027E000B951D96EDA6A020ED926B951E16EE26AA0
:1027F000040EE126DE50E65CDE50E658D8B003EF6A
:1028000014F005EF14F035EF14F0B951D96EDA6A0F
:10281000040ED926DECFBAF0DDCFBBF0B951D96EA8
:10282000DA6A020ED926DECFBCF0DDCFBDF0B95199
:10283000D96EDA6A060ED926DECFBEF0DDCFBFF044
:10284000BC51BE5DC06FBD51BF59C16FBA51C025EB
:10285000C26FBB51C121C36FB851D96EDA6AC2C011
:10286000DEFFC3C0DDFF54EF14F0B951D96EDA6A50
:10287000020ED926DECFBAF0DDCFBBF0B951D96E4A
:10288000DA6A040ED926DECFBCF0DDCFBDF0BA5136
:10289000BC5DBE6FBB51BD59BF6FB851D96EDA6A0E
:1028A000BEC0DEFFBFC0DDFF12000D50D96EDA6A78
:1028B000DE50DE10D8A45FEF14F061EF14F063EF88
:1028C00014F0C7EF14F00D50D96EDA6A020ED92653
:1028D0000D50E16EE26A040EE126DE50E65CDE5049
:1028E000E658D8B076EF14F078EF14F0A8EF14F0B3
:1028F0000D50D96EDA6A040ED926DECF0EF0DDCF88
:102900000FF00D50D96EDA6A020ED926DECF10F024
:10291000DDCF11F00D50D96EDA6A060ED926DECF62
:1029200012F0DDCF13F01050125C146E11501358DA
:10293000156E0E501424166E0F501520176E0C5085
:10294000D96EDA6A16C0DEFF17C0DDFFC7EF14F0DC
:102950000D50D96EDA6A020ED926DECF0EF0DDCF29
:102960000FF00D50D96EDA6A040ED926DECF10F0C2
:10297000DDCF11F00E50105C126E0F501158136E17
:102980000C50D96EDA6A12C0DEFF13C0DDFF1200F0
:102990000001E351D96EDA6ADE50DE10D8A4D3EF1D
:1029A00014F0D5EF14F0D7EF14F038EF15F0EA6B10
:1029B000000EE96FE90EB86FE3C0B9F0E1EC13F077
:1029C0000001E151E95DE251EA59D8B0EAEF14F0B3
:1029D000ECEF14F0F0EF14F0E9C0E1F0EAC0E2F03F
:1029E000DFC0C4F0E0C0C5F0E1C0C6F0E2C0C7F08F
:1029F000E3C0C8F0FEEC0CF00001E86FE851D8B479
:102A000004EF15F006EF15F008EF15F038EF15F0AC
:102A1000E351D96EDA6A020ED926E151DE26E2517F
:102A2000DD22E351D96EDA6A060ED926E351E16E52
:102A3000E26A020EE126DE50E65CDE50E658D8A0DF
:102A400024EF15F026EF15F038EF15F0E351D96EAD
:102A5000DA6A060ED926DECFE4F0DDCFE5F0E351E9
:102A6000D96EDA6A020ED926E451DE5EE551DD5AEE
:102A700012003750D96EDA6ADE50DE10D8A443EF68
:102A800015F045EF15F047EF15F0A6EF15F03E6A8B
:102A9000000E3D6E3D0E0C6E37C00DF055EC14F07F
:102AA00035503D5C36503E58D8B059EF15F05BEFCD
:102AB00015F05FEF15F03DC035F03EC036F033C085
:102AC00018F034C019F035C01AF036C01BF037C00A
:102AD0001CF02BEC0EF03C6E3C50D8B472EF15F0AD
:102AE00074EF15F076EF15F0A6EF15F03750D96EAC
:102AF000DA6A020ED9263550DE263650DD223750EE
:102B0000D96EDA6A060ED9263750E16EE26A020EF5
:102B1000E126DE50E65CDE50E658D8A092EF15F0D4
:102B200094EF15F0A6EF15F03750D96EDA6A060E5D
:102B3000D926DECF38F0DDCF39F03750D96EDA6ADA
:102B4000020ED9263850DE5E3950DD5A12000001DF
:102B5000BA51BB11D8B4AFEF15F0B1EF15F0BAEF21
:102B600015F0BA51BB11D8A4B8EF15F0BAEF15F0B3
:102B7000BFEF15F0B851C5EC1BF00CEF16F020EECE
:102B800009F0BA51D926BB51DA22DE50DE10D8B492
:102B9000CCEF15F0CEEF15F0E9EF15F020EE09F0CF
:102BA000BA51D926BB51DA2210EE02F0BA51E12611
:102BB000BB51E222DE50E65CE650800AC06FDE5078
:102BC000800AC059D8B0E7EF15F0E9EF15F00CEF27
:102BD00016F020EE02F0BA51D926BB51DA22DECF30
:102BE000BCF0DDCFBDF0BAC0D9FFBBC0DAFFDECF8D
:102BF000BEF0DDCFBFF0BC51BE25D96EBD51BF21A7
:102C0000DA6EB8C0DFFF20EE02F0BA51D926BB5110
:102C1000DA22DE2A000EDD221200D59ED59CD55088
:102C2000F80B0309D56ED59AD596020E0001CA6F2E
:102C3000000ECB6F000ECC6F000ECD6FCF6B000E71
:102C4000CE6F2AEF16F0D890CA37CB37CC37CD37B6
:102C5000CE4BCF2BD550070BC76FC86BC751CE5D7E
:102C6000CF51800AC96FC851800AC959D8A03BEF1B
:102C700016F03DEF16F023EF16F0E00EB86F2E0EB3
:102C8000B96F000EBA6F000EBB6FCAC0BCF0CBC0EC
:102C9000BDF0CCC0BEF0CDC0BFF0C8EC16F0000156
:102CA000B8510108D06F000EB955D16F010EBA5559
:102CB000D26F000EBB55D36FD0C096F0D1C095F047
:102CC00096C0D6FF95C0D7FFC5C092F0C6C093F09E
:102CD000F28EF28CF28AF294D58E12000001BF6B54
:102CE000000EBE6FB851D96EDA6ADFCFF6FF100E54
:102CF000F76E0800F5502A0AD8A481EF16F083EF8A
:102D000016F0B0EF16F0B851D96EDA6ADF2AB9C002
:102D1000D9FFBAC0DAFFDFCFBBF0020EDE26DFCF6D
:102D2000BCF0000EDD22BBC0D9FFBCC0DAFFDECF95
:102D3000BEF0DDCFBFF0C3EF16F00A0EBE03F3CF37
:102D4000BBF0F4CFBCF0BF03F350BC27BD51BB2593
:102D5000BE6F000EBC21BF6FB851D96EDA6ADF2A90
:102D6000B851D96EDA6ADFCFF6FF100EF76E0800A1
:102D7000F550D00FBD6F090EBD65C1EF16F0C3EF62
:102D800016F09DEF16F0BEC0B8F0BFC0B9F012004B
:102D9000000E0001C06F000EC16F000EC26F000E6A
:102DA000C36FBC51BD11BE11BF11D8B4DAEF16F01C
:102DB000DCEF16F012EF17F0010EC46FE6EF16F01D
:102DC000D890BC37BD37BE37BF37C42BBFAFEBEF92
:102DD00016F0EDEF16F0E0EF16F0D890C037C137DF
:102DE000C237C337BC51B85DBD51B959BE51BA598C
:102DF000BF51BB59D8A0FFEF16F001EF17F00AEF53
:102E000017F0BC51B85FBD51B95BBE51BA5BBF5141
:102E1000BB5BC081D890BF33BE33BD33BC33C42F3E
:102E2000EDEF16F0C0C0B8F0C1C0B9F0C2C0BAF042
:102E3000C3C0BBF012000F013FB921EF17F023EF21
:102E400017F01BEF17F0F29EB2EC1BF00F013F835F
:102E50003F81B8C0D9FFB9C0DAFF98CFDFFF0001CA
:102E600020EE07F0B851D926B951DA2299CFDFFF09
:102E700020EE02F0B851D926B951DA2298CFDFFFFF
:102E800020EE01F0B851D926B951DA2299CFDFFFEF
:102E900020EE04F0B851D926B951DA2298CFDFFFDD
:102EA00020EE03F0B851D926B951DA2299CFDFFFCD
:102EB00020EE06F0B851D926B951DA2298CFDFFFBB
:102EC00020EE05F0B851D926B951DA2299CFDFFFAB
:102ED0000F013F9BF28E1200AB0E0001B86F970EF0
:102EE000B96FE1EC13F00001ED51AB25EF6FEE513E
:102EF000AC21F06F010EEF27000EF023F05109E135
:102F0000C90EEF5DD8A087EF17F089EF17F08BEFB0
:102F100017F0BBEF17F0EBC0B8F0ECC0B9F0EDC0A4
:102F2000BAF0EEC0BBF058EC19F0B8C0F1F0B9C07F
:102F3000F2F0EBC0C4F0ECC0C5F0F1C0C6F0F2C0D6
:102F4000C7F0970E0001C86F4BEC08F09EA8ABEFDE
:102F500017F0ADEF17F0BBEF17F0F30E0001DF6FC6
:102F6000E06BE26B010EE16F970EE36FC8EC14F0BB
:102F7000F3C0AEFF9D881200000194A1C2EF17F0CC
:102F8000C4EF17F0CEEF17F0CAC0C1F0CBC0C2F04B
:102F9000C8C0C3F0C9C0C4F097EC1AF00001CDBF9F
:102FA000D6EF17F0D4EF17F0D9EF17F0CD6B000E76
:102FB000CC6FD06B000ECF6FEAEF17F0B96B200E1D
:102FC000B86FC8C0BAF0C9C0BBF0A7EC15F00001DB
:102FD000CF4BD02BCC51CF5DD051800ACE6FCD518D
:102FE000800ACE59D8A0F7EF17F0F9EF17F0DEEF0F
:102FF00017F094B1FEEF17F000EF18F00AEF18F099
:10300000CAC0C1F0CBC0C2F0C8C0C3F0C9C0C4F0D0
:1030100097EC1AF01200F29EB2EC1BF00F013F9FEA
:103020003F953F833F81B8C0D9FFB9C0DAFFDF5079
:10303000986E000120EE07F0B851D926B951DA2276
:10304000DF50996E20EE02F0B851D926B951DA223C
:10305000DF50986E20EE01F0B851D926B951DA222E
:10306000DF50996E20EE04F0B851D926B951DA221A
:10307000DF50986E20EE03F0B851D926B951DA220C
:10308000DF50996E20EE06F0B851D926B951DA22F8
:10309000DF50986E20EE05F0B851D926B951DA22EA
:1030A000DF50996E0F013F8F3F9BF28E120000019F
:1030B000BB6B000EBA6F0F0148691F0E496F00010C
:1030C000816B000E806FBA4BBB2B92800F01489131
:1030D0000001BA51020DF350800FD96EDA6A010E69
:1030E000DE6E000EDD6EBA4BBB2B92820F01489351
:1030F0000001BA51020DF350800FD96EDA6A020E48
:10310000DE6E000EDD6EBA4BBB2B92840F0148952C
:103110003F0EC216C18EC150F80B0609C16E380EA3
:10312000C1129F9CBE0E0001B86F310EB96FC0EC8A
:103130001BF0C2801200A9EC1BF04250025C066E2C
:1031400043500358076E44500458086E45500558C4
:10315000096E09500810071009E10B0E065CD8A093
:10316000B4EF18F0B6EF18F0DEEF18F08C98A9EC79
:103170001BF04250025C066E43500358076E4450E9
:103180000458086E45500558096E095008100BE1A7
:10319000E90E065C030E0758D8A0D1EF18F0D3EF64
:1031A00018F0DEEF18F08C88A9EC1BF002C042F09A
:1031B00003C043F004C044F005C045F01200000015
:1031C000C350C4CF0CF00D6A0CC00DF00C6A0C1289
:1031D000000E0D124650020DF350800FD96EDA6AC0
:1031E000DF50020DF350600FD96EDA6A0CC0DEFFBB
:1031F0000DC0DDFF464A472A47BE08EF19F0475089
:1032000009E1030E465CD8A008EF19F00AEF19F0A7
:103210000DEF19F0476A000E466E4650020DF3504E
:10322000800FD96EDA6ADF500C6E0C460C46C25025
:103230000C18C30B0C18C26EC28200001200FACF29
:103240000AF0FBCF0BF0F2AA28EF19F02AEF19F0E1
:1032500052EF19F0F2A42FEF19F031EF19F052EFFD
:1032600019F000019651D62695C0D7FF010E8A2786
:10327000000E8B238C238D2392519311D8B443EFEE
:1032800019F045EF19F051EF19F002D851EF19F08C
:103290000500FA6E9251FD6E9351FE6EFF6AFA5070
:1032A0001200F2940BC0FBFF0AC0FAFF019211005A
:1032B0000001BD6B000EBC6F78EF19F0BC51B82552
:1032C000D96EBD51B921DA6EDF50D8B46AEF19F06A
:1032D0006CEF19F06EEF19F076EF19F0BC4BBD2BC7
:1032E000BCC0B8F0BDC0B9F087EF19F0BC4BBD2B26
:1032F000BA51BC5DBB51BD59D8A081EF19F083EF25
:1033000019F05EEF19F0BAC0B8F0BBC0B9F0120006
:10331000260E0001B86F370EB96F000EBA6F360E69
:10332000BB6FBAEC1AF09D8A000E0001BB6F020E53
:10333000BC6FBE6BC80EBD6FC06B010EBF6FA10E20
:10334000C16FDDEC1AF0000E0001BB6F030EBC6F05
:10335000BE6BC80EBD6FC06B010EBF6F970EC16F05
:10336000DDEC1AF01200BAC0C1F0BBC0C2F0B8C0A8
:10337000BFF0B9C0C0F0CDEF19F0C1C0D9FFC2C0D5
:10338000DAFFDF50BE6FC14BC22BBFC0D9FFC0C038
:10339000DAFFBEC0DFFFBF4BC02B0001BC07D8A0C7
:1033A000BD07BC2906E1BD29D8A4D9EF19F0DBEF90
:1033B00019F0BDEF19F012000EC015F00FC016F095
:1033C0000CC013F00DC014F0F6EF19F015C0D9FFC2
:1033D00016C0DAFFDF50126E154A162A13C0D9FF45
:1033E00014C0DAFF12C0DFFF134A142A1006D8A057
:1033F0001106102806E11128D8A401EF1AF003EFF6
:103400001AF0E6EF19F0120003EE00F0C80EEE6AB3
:10341000E806FDE102EE00F0C80EEE6AE806FDE106
:1034200001EE00F0280EEE6AE806FDE100EE60F025
:103430004D0EEE6AE806FDE100EE42F0110EEE6A76
:10344000E806FDE101900192000EF86E000155EFD3
:103450000FF02B0E0101336F010E346F28C135F1CF
:1034600029C136F1386B000E376F3F6B000E3E6F8F
:10347000350E0001EE6F010EEF6F2AC1F0F0330E32
:10348000F16F010EF26F73EC1AF00101375128252C
:10349000D96E38512921DA6EDF6A12008AC0C0F075
:1034A0008BC0C1F08CC0C2F08DC0C3F00001C05110
:1034B0008A5DBC6FC1518B59BD6FC2518C59BE6FB3
:1034C000C3518D59BF6FB851BC5DB951BD59BA5187
:1034D000BE59BB51BF59D8A070EF1AF072EF1AF065
:1034E00056EF1AF01200F0C0F3F084EF1AF0EEC0BD
:1034F000E0F0EFC0E1F0F30E0001E26FF1C0E3F0A5
:10350000F2C0E4F071EC0BF0F3C0F6FF100EF76EB2
:103510000800F5500009D8A490EF1AF092EF1AF0C5
:1035200077EF1AF00001EF6B000EEE6F1200000152
:10353000C76B000EC66FA9EF1AF0C5C0B8F0B96B23
:10354000C3C0BAF0C4C0BBF0A7EC15F00001C64B75
:10355000C72BC651C125D96EC751C221DA6EDF50C3
:10356000C56FC551D8A4B7EF1AF0B9EF1AF09DEFA7
:103570001AF01200AC9EAD9A948E949CAC9CAC9ABE
:10358000AD8EAD9CAD98AD847E907E9A7E987E8601
:103590007F6A330EB06EAD8AAC88B8C04EF0B9C049
:1035A0004FF0BAC04CF0BBC04DF09D989D8A9F9AD9
:1035B0009F989E9A9E98AC8E12000001C151D96EC0
:1035C000DA6A060ED926BDC0DEFFBEC0DDFFC151DE
:1035D000D96EDA6A080ED926BFC0DEFFC0C0DDFF93
:1035E000C151D96EDA6ABBC0DEFFBCC0DDFFC1C00D
:1035F000B8F022EC1BF00001C151D96EDA6A12005A
:10360000416A000E406E400E0C6E970E0D6E55EC2A
:1036100014F040504110D8B410EF1BF012EF1BF023
:1036200020EF1BF03F0E336E346A366A010E356EA2
:10363000970E376E39EC15F03FC0AEFF21EF1BF04F
:103640009D9812000001B851D96EDA6ADE50DE1082
:10365000D8A42DEF1BF02FEF1BF031EF1BF041EF43
:103660001BF0B851D96EDA6A020ED926DE6ADD6A1D
:10367000B851E16EE26A040EE126DECFE6FFDDCF4F
:10368000E5FF12000001C3BF48EF1BF04AEF1BF03B
:1036900050EF1BF0C2C0C2F0C3C0C3F05CEF1BF020
:1036A000C2C0C4F0C3C0C5F0C41FC51FC44BC52BE6
:1036B000C4C0C2F0C5C0C3F01200476A000E466E17
:1036C0004650020DF350800FD96EDA6ADF500001C8
:1036D000B86FB847B847C250B819C30BB819C26E13
:1036E0009E9C9D8C010E506EC2821200948094822A
:1036F000CD86320E0001B86F000EB96F000EBA6FA2
:10370000000EBB6F4EEC1AF012000001BA6F000100
:10371000BA51020DF350600FD96EDA6ADECFB8F0FD
:10372000DDCFB9F01200AFCF37F0370E186E196A3F
:103730001B6A010E1A6EA10E1C6EE0EC09F012005D
:103740008AC0B8F08BC0B9F08CC0BAF08DC0BBF0A5
:1037500012008AC002F08BC003F08CC004F08DC050
:1037600005F012000F01550EA76EAA0EA76E3F8B33
:1037700012009B8CD08E0F0148691F0E496F1200FA
:0C378000B8C04AF0B9C04BF012001200B3
:08FFF800AEF74DFFF3F9FFF134
:00000001FF
