:0400000083EF00F09A
:060008000182E0EF15F09B
:100018000180D8CF83F0E8CF84F0E0CF85F0E1CF3E
:1000280086F0E2CF87F0D9CF88F0DACF89F0F3CF26
:100038008AF0F4CF8BF0F6CF8CF0F7CF8DF0F8CFB5
:100048008EF0F5CF8FF09DAA2CEF00F02EEF00F088
:1000580037EF00F09EAA33EF00F035EF00F037EFEE
:1000680000F00FEC17F09DA83CEF00F03EEF00F019
:1000780047EF00F09EA843EF00F045EF00F047EF90
:1000880000F09BEC1AF09DAC4CEF00F04EEF00F046
:1000980057EF00F09EAC53EF00F055EF00F057EF2C
:1000A80000F002EC19F0A0A85CEF00F05EEF00F0A1
:1000B80067EF00F0A1A863EF00F065EF00F067EFCD
:1000C80000F0D7EC0DF08FC0F5FF8EC0F8FF8DC0A3
:1000D800F7FF8CC0F6FF8BC0F4FF8AC0F3FF89C01E
:1000E800DAFF88C0D9FF87C0E2FF86C0E1FF85C07C
:1000F800E0FF84C0E8FF83C0D8FF01901000A5EF9F
:1001080019F01CC1D9FF1DC1DAFFDECFF6FFDDCF24
:10011800F7FF0800F550250AD8A495EF00F097EFEF
:1001280000F02BEF02F01CC1D9FF1DC1DAFFDE2A57
:10013800000EDD220001A76B000EA66FA6C0B0F06E
:10014800A869A9691CC190F01DC191F01EC192F067
:100158001FC193F079EC14F090C0A6F091C0A7F0FD
:100168000001A7BFBCEF00F0BAEF00F0C1EF00F04C
:10017800B081A66DA71FD8B0A72B1CC1D9FF1DC180
:10018800DAFFDECFF6FFDDCFF7FF0800F5502E0AC5
:10019800D8A4D1EF00F0D3EF00F0E8EF00F01CC1D5
:1001A800D9FF1DC1DAFFDE2A000EDD221CC190F046
:1001B8001DC191F01EC192F01FC193F079EC14F0AB
:1001C80090C0A8F091C0A9F01CC1D9FF1DC1DAFFE9
:1001D800DECF28F1DDCF29F128C1F6FF29C1F7FFCD
:1001E8000800F5CF27F104EF01F0284B292B14EF75
:1001F80001F0690E276F14EF01F0276B14EF01F07F
:1002080001012751640AD8B4FDEF00F00D0AD8B4F3
:10021800FDEF00F0050AD8B4F9EF00F001EF01F0A6
:1002280028C1F6FF29C1F7FF0800F550640AD8B4C1
:1002380020EF01F022EF01F067EF01F028C1F6FF8F
:1002480029C1F7FF0800F550690AD8A42EEF01F07C
:1002580030EF01F090EF01F067EF01F01EC1D9FF18
:100268001FC1DAFFDFCF20F1020EDE26DFCF21F13A
:10027800000EDD2220C1D9FF21C1DAFFDECF22F135
:10028800DDCF23F1000E23BFFF0E246F256F72EF21
:1002980001F01EC1D9FF1FC1DAFFDFCF20F1040E24
:1002A800DE26DFCF21F1000EDD2220C1D9FF21C1DA
:1002B800DAFFDECF22F1DECF23F1DECF24F1DECF6D
:1002C80025F172EF01F02751690AD8B432EF01F035
:1002D800050AD8B44DEF01F072EF01F0010E2825A0
:1002E800206F000E2921216F1CC1D9FF1DC1DAFF23
:1002F80020C1DEFF21C1DDFF1AC10BF11BC10CF1CA
:1003080022C10DF123C10EF124C10FF125C110F155
:10031800FFEC0CF040EF02F0266B1CC1D9FF1DC1A9
:10032800DAFFDECFF6FFDDCFF7FF0800F550730ADE
:10033800D8A4A1EF01F0A3EF01F0AEEF01F01CC1CA
:10034800D9FF1DC1DAFFDE2A000EDD22010E266F5D
:10035800FEEF01F01CC1D9FF1DC1DAFFDECFF6FFA9
:10036800DDCFF7FF0800F5506C0AD8A4BEEF01F006
:10037800C0EF01F0FEEF01F01CC1D9FF1DC1DAFF8B
:10038800DECF20F1DDCF21F1010E2027000E212341
:1003980020C1F6FF21C1F7FF0800F5506C0AD8A468
:1003A800D8EF01F0DAEF01F0FEEF01F01CC1D9FF40
:1003B8001DC1DAFFDECF20F1DDCF21F1020E2027AB
:1003C800000E212320C1F6FF21C1F7FF0800F550D8
:1003D800730AD8A4F2EF01F0F4EF01F0FEEF01F098
:1003E800030E1CC1D9FF1DC1DAFFDE26000EDD2277
:1003F800AAEF01F02651D8B404EF02F006EF02F09C
:1004080022EF02F01AC199F01BC19AF01EC1D9FF60
:100418001FC1DAFFDFCF20F1020EDE26DFCF21F188
:10042800000EDD2220C1D9FF21C1DAFFDECF9BF00B
:10043800DDCF9CF01DEC0CF040EF02F01CC1D9FFA1
:100448001DC1DAFFDE2A000EDD2240EF02F01CC1DA
:10045800D9FF1DC1DAFFDECFF6FFDDCFF7FF0800B9
:10046800F5500001906F916B1AC192F01BC193F087
:10047800B0EC13F022EF02F0120001010451D96E22
:10048800DA6ADE50DE10D8B44CEF02F04EEF02F01C
:10049800EDEF03F000510111D8A455EF02F057EF2A
:1004A80002F059EF02F0EDEF03F00451D96EDA6A69
:1004B800060ED926DE50025DDE500359D8A067EF3C
:1004C80002F069EF02F06BEF02F0EDEF03F000C10C
:1004D80017F101C118F11A6B000E196F0451D96E8A
:1004E800DA6A040ED926DECF05F1DDCF06F1045114
:1004F800D96EDA6A060ED926DECF07F1DDCF08F10C
:100508000551075D1B6F065108591C6F1E6B000EC5
:100518001D6F1D0E0001906F010E916F04C192F0C6
:1005280076EC11F002C115F103C116F10101025177
:100538001B5D03511C59D8B0A4EF02F0A6EF02F0DE
:1005480006EF03F00451D96EDA6A080ED926DECF19
:1005580005F1DDCF06F10451D96EDA6A040ED92609
:10056800DECF07F1DDCF08F105510703F3CF09F11D
:10057800F4CF0AF10803F3500A2706510703F35092
:100588000A270451D96EDA6ADECF0BF1DDCF0CF100
:1005980009510B250001906F01010A510C2100013E
:1005A800916F17C192F018C193F001010451D96EEF
:1005B800DA6A080ED926DECF0DF1DDCF0EF11B5118
:1005C8000D03F3CF0FF1F4CF10F10E03F350102702
:1005D8001C510D03F35010270FC194F010C195F072
:1005E80070EC19F001010451D96EDA6A040ED926AB
:1005F800DE6ADD6A1BC119F11CC11AF11B51025FC9
:100608001C51035B0451D96EDA6A080ED926DECF75
:1006180005F1DDCF06F10451D96EDA6A040ED92648
:10062800DECF07F1DDCF08F105510703F3CF09F15C
:10063800F4CF0AF10803F3500A2706510703F350D1
:100648000A270451D96EDA6ADECF0BF1DDCF0CF13F
:1006580009510B250001906F01010A510C2100017D
:10066800916F01010451D96EDA6A080ED926DECFDE
:100678000DF1DDCF0EF119510D03F3CF0FF1F4CFCA
:1006880010F10E03F35010271A510D03F3501027E1
:100698000F5117250001926F010110511821000117
:1006A800936F01010451D96EDA6A080ED926DECF9C
:1006B80011F1DDCF12F102511103F3CF13F1F4CF91
:1006C80014F11203F350142703511103F3501427A4
:1006D80013C194F014C195F070EC19F001010451A4
:1006E800D96EDA6A040ED9260251DE260351DD22BC
:1006F8000451D96EDA6A060ED9260451E16EE26A0F
:10070800040EE126DE50E65CDE50E658D8A08FEFF6
:1007180003F091EF03F0A3EF03F00451D96EDA6A06
:10072800060ED926DECF05F1DDCF06F10451D96ECC
:10073800DA6A040ED9260551DE5E0651DD5A0451E7
:10074800D96EDA6A060ED926DECF05F1DDCF06F1BD
:100758001D51055F1E51065B0551155D0651165961
:10076800D8A0B9EF03F0BBEF03F0D1EF03F00451C9
:10077800D96EDA6A040ED926DECF05F1DDCF06F18F
:10078800010E0527000E06230451D96EDA6A020EFF
:10079800D92605C1DEFF06C1DDFF0451D96EDA6A2C
:1007A800060ED9260451E16EE26A020EE126DE50F9
:1007B800E65CDE50E658D8A0E4EF03F0E6EF03F07D
:1007C800EDEF03F00451D96EDA6A020ED926DE6A1B
:1007D800DD6A120010C463F011C464F012C466F03C
:1007E80013C462F0040117510001606F040116512F
:1007F8000001676F60C068F00401006B046B436A16
:10080800376A000E366E0001AB6B000EAA6F416AA4
:10081800010E486E659863C060F0600E6017D8A43A
:1008280018EF04F01AEF04F02EEF05F007EF05F0CB
:10083800460E296EFF0E2A6E2C6A120E2B6E67C0AA
:100848002DF068C02EF07FEC16F092EF05F00C0E3C
:10085800296EFF0E2A6E2C6A220E2B6E67C02DF0B1
:1008680068C02EF07FEC16F092EF05F01E0E296E90
:10087800FF0E2A6E2C6A090E2B6E67C02DF068C019
:100888002EF07FEC16F092EF05F0AB0E296EFE0EFF
:100898002A6E2C6A3F0E2B6E67C02DF068C02EF0B2
:1008A8007FEC16F092EF05F06651D8A45EEF04F0E5
:1008B80060EF04F06FEF04F0580E296EFF0E2A6EF9
:1008C8002C6A040E2B6E67C02DF068C02EF07FECEA
:1008D80016F092EF05F06605D8A475EF04F077EFEF
:1008E80004F086EF04F02E0E296EFF0E2A6E2C6A95
:1008F800180E2B6E67C02DF068C02EF07FEC16F036
:1009080092EF05F0020E6619D8A48DEF04F08FEF70
:1009180004F090EF05F0EA0E296EFE0E2A6E2C6A9E
:10092800220E2B6E67C02DF068C02EF07FEC16F0FB
:1009380092EF05F06251010AD8B41CEF04F0030AE3
:10094800D8B42BEF04F0010AD8B458EF04F0220A07
:10095800D8B43AEF04F0030AD8B449EF04F090EFA2
:1009680005F066C040F0C1EC1CF092EF05F066514E
:10097800D8A4C1EF04F0C3EF04F0C9EF04F0020EED
:10098800B16F0F01276BB7EF04F01A0E0F01276F35
:1009980004010C6B0D6B200E196E040E1A6E030EFB
:1009A8007FEC1CF03E6A3F6A030E0001B16FB7EF9F
:1009B80004F0030EB119D8B4E4EF04F0E7EF04F043
:1009C800010EE8EF04F0000E0101656F2A6A010EBE
:1009D800296E67C02BF068C02CF02CEC1CF092EF4D
:1009E80005F00101656B666B2A6A020E296E67C005
:1009F8002BF068C02CF02CEC1CF092EF05F00101F4
:100A0800656BEAEF04F06451000AD8B4F5EF04F01E
:100A1800010AD8B4B7EF04F0020AD8B4B7EF04F06B
:100A2800060AD8B4B5EF04F0030AD8B49EEF04F070
:100A38000E0AD8B4DDEF04F0010AD8B4BBEF04F015
:100A4800030AD8B403EF05F0010AD8B4B7EF04F0ED
:100A580090EF05F06351600B200AD8A436EF05F03B
:100A680038EF05F090EF05F075EF05F0010E010184
:100A7800656FEAEF04F0656B650E6525D96EDA6A75
:100A8800010EDA22DF6A652B070E65654EEF05F069
:100A980050EF05F040EF05F02A6A080E296E67C08E
:100AA8002BF068C02CF02CEC1CF092EF05F067518D
:100AB8006811D8B462EF05F064EF05F0B7EF04F001
:100AC800020E436E080E0401016F100E196E040E1B
:100AD8001A6E000E7FEC1CF0C80E0401006F92EF36
:100AE80005F06451010AD8B43FEF05F0030AD8B401
:100AF80003EF05F0010AD8B43AEF05F00A0AD8B4B2
:100B08005BEF05F0030AD8B4B7EF04F0010AD8B4D4
:100B1800B7EF04F090EF05F0AFEC1CF012002A508C
:100B2800D96EDA6ADE50DE10D8B49DEF05F09FEF7B
:100B380005F032EF07F026502710D8A4A6EF05F0ED
:100B4800A8EF05F0AAEF05F032EF07F02A50D96EAA
:100B5800DA6A060ED926DE50285CDE502958D8A05D
:100B6800B8EF05F0BAEF05F0BCEF05F032EF07F08B
:100B780026C072F027C073F00001756B000E746F09
:100B88002A50D96EDA6A040ED926DECF60F0DDCF9E
:100B980061F02A50D96EDA6A060ED926DECF62F0E5
:100BA800DDCF63F06051625D786F61516359796F91
:100BB800776B000E766F760E196E1A6A2AC01BF0D4
:100BC80062EC12F028C070F029C071F028500001C2
:100BD800785D29507959D8B0F4EF05F0F6EF05F0B3
:100BE80052EF06F02A50D96EDA6A080ED926DECFFF
:100BF80060F0DDCF61F02A50D96EDA6A040ED9268A
:100C0800DECF62F0DDCF63F060516203F3CF64F0B2
:100C1800F4CF65F06303F350652761516203F35025
:100C280065272A50D96EDA6ADECF66F0DDCF67F025
:100C380064516625196E655167211A6E72C01BF0E2
:100C480073C01CF02A50D96EDA6A080ED926DECF96
:100C580068F0DDCF69F078516803F3CF6AF0F4CF1C
:100C68006BF06903F3506B2779516803F3506B27D6
:100C78006AC01DF06BC01EF0D9EC19F02A50D96E6D
:100C8800DA6A040ED926DE6ADD6A78C074F079C0A3
:100C980075F000017851285E7951295A2A50D96E89
:100CA800DA6A080ED926DECF60F0DDCF61F02A506F
:100CB800D96EDA6A040ED926DECF62F0DDCF63F092
:100CC80060516203F3CF64F0F4CF65F06303F3502F
:100CD800652761516203F35065272A50D96EDA6A95
:100CE800DECF66F0DDCF67F064516625196E655179
:100CF80067211A6E2A50D96EDA6A080ED926DECF15
:100D080068F0DDCF69F074516803F3CF6AF0F4CF6F
:100D18006BF06903F3506B2775516803F3506B2729
:100D28006A5172251B6E6B5173211C6E2A50D96E45
:100D3800DA6A080ED926DECF6CF0DDCF6DF02850C8
:100D48006C03F3CF6EF0F4CF6FF06D03F3506F27A1
:100D580029506C03F3506F276EC01DF06FC01EF052
:100D6800D9EC19F02A50D96EDA6A040ED92628501F
:100D7800DE262950DD222A50D96EDA6A060ED926D7
:100D88002A50E16EE26A040EE126DE50E65CDE508F
:100D9800E658D8A0D2EF06F0D4EF06F0E7EF06F059
:100DA8002A50D96EDA6A060ED926DECF60F0DDCF7A
:100DB80061F02A50D96EDA6A040ED9260001605112
:100DC800DE5E6151DD5A2A50D96EDA6A060ED926DE
:100DD800DECF60F0DDCF61F000017651605F7751C2
:100DE800615B6051705D61517159D8A0FEEF06F0EA
:100DF80000EF07F016EF07F02A50D96EDA6A040EF2
:100E0800D926DECF60F0DDCF61F0010E6027000E3D
:100E180061232A50D96EDA6A020ED92660C0DEFF35
:100E280061C0DDFF2A50D96EDA6A060ED9262A502B
:100E3800E16EE26A020EE126DE50E65CDE50E6581C
:100E4800D8A029EF07F02BEF07F032EF07F02A5070
:100E5800D96EDA6A020ED926DE6ADD6A120064ECFF
:100E68001BF03BEC19F09598920E0001906F2D0E37
:100E7800916F65EC1CF0E4EC1CF0010E0101736F3E
:100E8800716B010E726F746B756B766B776B710E8D
:100E98000001906F010E916FDBEC14F08FEC17F0EE
:100EA80089EC1BF00DEC10F00401F26B8C0E0101C3
:100EB800326F040E336F890E346FFF0E356F0DECF1
:100EC80018F090C036F191C037F192C038F193C054
:100ED80039F118EC1BF08C0E01011F6F040E206F06
:100EE800226B320E216F8FEC0FF00F0E0101006F95
:100EF800000E016F000E026F000E036F0CEC1AF06B
:100F0800710E0001906F010E916F35EC15F08C0E8B
:100F18000101326F040E336FDF0E346FFF0E356F31
:100F2800000E6DEC1AF090C036F191C037F1010E49
:100F38006DEC1AF090C038F191C039F1020E6DECE9
:100F48001AF090C03AF191C03BF118EC1BF08C0EEE
:100F580001011F6F040E206F226B640E216F8FEC4E
:100F68000FF099EC1CF00401F219D8B4BEEF07F0A9
:100F7800C0EF07F0E0EF07F099EC1CF00401F26F06
:100F8800F251D8A4CAEF07F0CCEF07F0D2EF07F080
:100F9800AF0EF06FFF0EF16FD6EF07F0C90EF06FCE
:100FA800FF0EF16FF0C41FF1F1C420F10101226BB3
:100FB8001E0E216F8FEC0FF0280E0101276F040E13
:100FC800286F2A6B320E296F2C6B050E2B6F75EC70
:100FD80008F0010128BFF9EF07F0285108E12705BB
:100FE800D8A0F9EF07F0FBEF07F066EF08F08C0EDA
:100FF800326F040E336F5C0E346FFF0E356F75C1A0
:101008004BF10F0E4B1775C14CF14C3B0F0E4C17A3
:101018000F0E4C174C510A0D4B51F324366F000E2E
:10102800F420376F76C14DF10F0E4D1776C14EF192
:101038004E3B0F0E4E170F0E4E174E510A0D4D51C7
:10104800F324386F000EF420396F77C14FF10F0E7B
:101058004F1777C150F1503B0F0E50170F0E501716
:1010680050510A0D4F51F3243A6F000EF4203B6F94
:10107800280E3C6F040E3D6F18EC1BF08C0E01011E
:101088001F6F040E206F226B640E216F8FEC0FF020
:1010980099EC1CF00009D8B454EF08F056EF08F0AA
:1010A80066EF08F0280E01012D6F040E2E6F306BCD
:1010B800320E2F6F30EC16F0000E01011F6F280E54
:1010C80016EC14F0F40E0101006F010E016F000E12
:1010D800026F000E036F0CEC1AF084EF07F083EF39
:1010E80000F00101386B000E376F27512811D8B472
:1010F80080EF08F082EF08F098EF08F02A5109E134
:10110800020E295DD8A08BEF08F08DEF08F098EF5C
:1011180008F02A5109E1C90E295DD8A096EF08F018
:1011280098EF08F09CEF08F027692869B2EF09F0FA
:10113800000EF2BE010E366FF29E370E0001906F60
:10114800010E916FC60E926F76EC11F001013651C7
:10115800D8B4B1EF08F0B3EF08F0B4EF08F0F28EAE
:1011680037513811D8A4BBEF08F0BDEF08F0C3EF32
:1011780008F0FF0E286FFE0E276FB2EF09F0375107
:101188000001AE190BE1010138510001AF19D8B4C3
:10119800D0EF08F0D2EF08F03AEF09F0FF0E0101A6
:1011A80029252D6FFF0E2A212E6F37512D5D3851BD
:1011B8002E59D8B0E2EF08F0E4EF08F026EF09F076
:1011C800000EF2BE010E366FF29E27C11BF128C138
:1011D8001CF1FF0E29251D6FFF0E2A211E6FC60E5A
:1011E8001F6F88EC10F00101356F3651D8B4FFEF4E
:1011F80008F001EF09F002EF09F0F28E3551D8B48A
:1012080008EF09F00AEF09F00CEF09F0BDEF08F05C
:10121800295127252D6F2A5128212E6FFF0E2D25A4
:10122800D96EFF0E2E21DA6EDF6A0001AF6B000E59
:10123800AE6FFF0E01012925276FFF0E2A21286FA7
:10124800B2EF09F037C1AEF038C1AFF00DEC18F0CD
:1012580090C06DF191C06EF192C06FF193C070F1C2
:101268000101286B000E276FB2EF09F00DEC18F0A2
:1012780001016D510001905D01012D6F6E5100015A
:10128800915901012E6F6F510001925901012F6F81
:101298007051000193590101306F2B51316F2C515E
:1012A800326F336B346B2D51315D2E5132592F51C2
:1012B800335930513459D8B064EF09F066EF09F06A
:1012C80034EF09F0FF0E29252D6FFF0E2A212E6F0E
:1012D80037512D5D38512E59D8B075EF09F077EF99
:1012E80009F07DEF09F0FF0E2925376FFF0E2A213F
:1012F800386F000EF2BE010E366FF29E27C11BF149
:1013080028C11CF137C11DF138C11EF1C60E1F6F6F
:1013180088EC10F00101356F3651D8B496EF09F01A
:1013280098EF09F099EF09F0F28E3551D8B49FEF94
:1013380009F0A1EF09F0A3EF09F0BDEF08F037516C
:101348002725D96E38512821DA6EDF6A0001AF6B84
:10135800000EAE6F37C127F138C128F11200010124
:1013680000510111D8A4BBEF09F0BDEF09F0C0EF9F
:1013780009F0020EEEEF0AF00451D96EDA6A060E91
:10138800D9260251DE5C0351DE58D8B0CEEF09F001
:10139800D0EF09F0D3EF09F0030EEEEF0AF0045195
:1013A800D96EDA6A020ED9260451E16EE26A040E99
:1013B800E126DE50E61807E1DE50E618D8A4E7EF8C
:1013C80009F0E9EF09F0ECEF09F0040EEEEF0AF08E
:1013D8001A6B000E196F190E0001906F010E916FB4
:1013E80004C192F076EC11F001010251195D03512C
:1013F8001A59D8B002EF0AF004EF0AF008EF0AF021
:1014080019C102F11AC103F1146B000E136F0451D4
:10141800D96EDA6A020ED926DECF05F1DDCF06F1E4
:101428000451D96EDA6A060ED926DECF07F1DDCF70
:1014380008F10551075D176F06510859186F0451D7
:10144800D96EDA6A020ED926DECF15F1DDCF16F194
:101458000251175D03511859D8B035EF0AF037EF2C
:101468000AF08AEF0AF000C190F001C191F004512E
:10147800D96EDA6A080ED926DECF05F1DDCF06F17E
:1014880015510503F3CF07F1F4CF08F10603F35024
:10149800082716510503F35008270451D96EDA6A54
:1014A800DECF09F1DDCF0AF1075109250001926F5E
:1014B800010108510A210001936F01010451D96EFD
:1014C800DA6A080ED926DECF0BF1DDCF0CF1175101
:1014D8000B03F3CF0DF1F4CF0EF10C03F3500E27ED
:1014E80018510B03F3500E270DC194F00EC195F05F
:1014F80070EC19F00101166B000E156F17C113F18E
:1015080018C114F11751025F1851035B0451D96EC9
:10151800DA6A080ED926DECF05F1DDCF06F11351C0
:101528000503F3CF07F1F4CF08F10603F3500827BA
:1015380014510503F3500827075100250001906F47
:101548000101085101210001916F01010451D96E77
:10155800DA6A080ED926DECF09F1DDCF0AF1155176
:101568000903F3CF0BF1F4CF0CF10A03F3500C2766
:1015780016510903F3500C270451D96EDA6ADECFED
:101588000DF1DDCF0EF10B510D250001926F010118
:101598000C510E210001936F01010451D96EDA6AD2
:1015A800080ED926DECF0FF1DDCF10F102510F035F
:1015B800F3CF11F1F4CF12F11003F35012270351B6
:1015C8000F03F350122711C194F012C195F070EC7B
:1015D80019F0000E120026502710D8A4F6EF0AF0D2
:1015E800F8EF0AF0FBEF0AF0020E1CEF0CF02A509D
:1015F800D96EDA6A060ED9262850DE5C2950DE58E4
:10160800D8B009EF0BF00BEF0BF00EEF0BF0030E59
:101618001CEF0CF02A50D96EDA6A020ED9262A502D
:10162800E16EE26A040EE126DE50E61807E1DE50BC
:10163800E618D8A422EF0BF024EF0BF027EF0BF0FD
:10164800040E1CEF0CF00001756B000E746F740E25
:10165800196E1A6A2AC01BF062EC12F028500001B9
:10166800745D29507559D8B03CEF0BF03EEF0BF084
:1016780042EF0BF074C028F075C029F06F6B000EB4
:101688006E6F2A50D96EDA6A020ED926DECF60F064
:10169800DDCF61F02A50D96EDA6A060ED926DECF80
:1016A80062F0DDCF63F06051625D726F6151635922
:1016B800736F2A50D96EDA6A020ED926DECF70F01F
:1016C800DDCF71F02850725D29507359D8B06FEF93
:1016D8000BF071EF0BF0C0EF0BF026C019F027C02C
:1016E8001AF02A50D96EDA6A080ED926DECF60F0D1
:1016F800DDCF61F070516003F3CF62F0F4CF63F097
:101708006103F350632771516003F35063272A5034
:10171800D96EDA6ADECF64F0DDCF65F062516425F8
:101728001B6E635165211C6E2A50D96EDA6A080E49
:10173800D926DECF66F0DDCF67F072516603F3CFAE
:1017480068F0F4CF69F06703F350692773516603B3
:10175800F350692768C01DF069C01EF0D9EC19F074
:101768000001716B000E706F72C06EF073C06FF085
:101778007251285E7351295A2A50D96EDA6A080EB6
:10178800D926DECF60F0DDCF61F06E516003F3CF74
:1017980062F0F4CF63F06103F35063276F51600385
:1017A800F350632762512624196E635127201A6E5D
:1017B8002A50D96EDA6A080ED926DECF64F0DDCF5A
:1017C80065F070516403F3CF66F0F4CF67F06503FA
:1017D800F350672771516403F35067272A50D96E75
:1017E800DA6ADECF68F0DDCF69F0665168251B6ED6
:1017F800675169211C6E2A50D96EDA6A080ED926FB
:10180800DECF6AF0DDCF6BF028506A03F3CF6CF0BF
:10181800F4CF6DF06B03F3506D2729506A03F35032
:101828006D276CC01DF06DC01EF0D9EC19F0000ECC
:1018380012009BC004F19CC005F10101045105117F
:10184800D8A429EF0CF02BEF0CF02FEF0CF0EF0ED3
:10185800046FFF0E056F076B000E066F37EF0CF075
:101868000101064B072B0651042500019D6F01015C
:101878000751052100019E6F9DC0F6FF9EC0F7FF2E
:10188800F86A0F0EF76403D00800F55005D0F6CFBC
:10189800E1FFF7CFE2FFE7500009D8A456EF0CF0BC
:1018A80058EF0CF034EF0CF00001A9BF5EEF0CF01C
:1018B80060EF0CF077EF0CF0010106510001A85D14
:1018C800A951800A9D6F01010751800A00019D59A5
:1018D800D8B071EF0CF073EF0CF077EF0CF0A8C0F4
:1018E80006F1A9C007F106C100F107C101F1A6C0C0
:1018F80002F1A7C003F1B0B184EF0CF086EF0CF051
:10190800C7EF0CF094EF0CF0916B200E906F99C01C
:1019180092F09AC093F0B0EC13F00101064B072B3C
:1019280001010251065D0751800A00019D6F010106
:101938000351800A00019D59D8A0A5EF0CF0A7EF2C
:101948000CF088EF0CF0C7EF0CF004C1F6FF05C1EE
:10195800F7FFF86A0F0EF76403D00800F55005D0BA
:10196800F6CFE1FFF7CFE2FFE75000019D6F9D51F1
:10197800906F916B99C092F09AC093F0B0EC13F00D
:101988000101044B052B01010007D8A0010700291C
:1019980006E10129D8A4D3EF0CF0D5EF0CF0A9EF9C
:1019A8000CF00001B0A1DBEF0CF0DDEF0CF0FEEF66
:1019B8000CF0EBEF0CF0916B200E906F99C092F049
:1019C8009AC093F0B0EC13F00101064B072B01010C
:1019D8000251065D0751800A00019D6F0101035104
:1019E800800A00019D59D8A0FCEF0CF0FEEF0CF026
:1019F800DFEF0CF01200010110BF05EF0DF008EF4A
:101A08000DF0010E09EF0DF0000E176F0001A9BFD0
:101A180012EF0DF010EF0DF018EF0DF00101166B3D
:101A2800010E156F1CEF0DF0A8C015F1A9C016F135
:101A3800A6C013F1A7C014F101011751D8B427EFBC
:101A48000DF029EF0DF03EEF0DF01307D8A01407A5
:101A58001751D8A432EF0DF034EF0DF039EF0DF037
:101A6800126B2B0E116F3CEF0DF0126B2D0E116FD8
:101A780011C117F1196B1F0E186F0201BF6B8DEFA3
:101A88000DF01807D8A01907A00E1825D96E020E58
:101A98001921DA6E0DC190F00EC191F00FC192F0CC
:101AA80010C193F00A0E0001946F000E956F000E9E
:101AB800966F000E976F00EC11F090C09AF091C0ED
:101AC8009BF04AEC1CF000019A51300FDF6E0101C7
:101AD8001507D8A016071307D8A014070DC190F052
:101AE8000EC191F00FC192F010C193F00A0E0001DF
:101AF800946F000E956F000E966F000E976F87EC2F
:101B08000EF090C00DF191C00EF192C00FF193C08C
:101B180010F1010119BF99EF0DF0195108E11805ED
:101B2800D8A099EF0DF09BEF0DF0B3EF0DF00D512C
:101B38000E110F111011D8A4A4EF0DF0A6EF0DF09F
:101B480045EF0DF016BFB3EF0DF0165106E1150580
:101B5800D8B0B1EF0DF0B3EF0DF045EF0DF0175120
:101B6800D8B4B9EF0DF0BBEF0DF0C6EF0DF01807C4
:101B7800D8A01907A00E1825D96E020E1921DA6E01
:101B880017C1DFFF0BC103F10CC104F1A00E18252A
:101B9800056F020E1921066F13C107F114C108F170
:101BA8008EEC15F01200A19862A4DDEF0DF0DFEFC6
:101BB8000DF0F4EF0DF00F0136A5E5EF0DF0E7EFAE
:101BC8000DF0F4EF0DF06592EBEF0DF0629462B456
:101BD800F0EF0DF0F2EF0DF0EAEF0DF00F01369592
:101BE80065A2F9EF0DF0FBEF0DF0FDEF0DF086EFBC
:101BF8000EF062A002EF0EF004EF0EF007EF0EF009
:101C08003EEC1BF0629062A80CEF0EF00EEF0EF0A7
:101C180014EF0EF062980F013685658286EF0EF09C
:101C280062A219EF0EF01BEF0EF01DEF0EF0636AC3
:101C3800629262AA22EF0EF024EF0EF03BEF0EF054
:101C48000F0126A12AEF0EF02CEF0EF03AEF0EF05E
:101C58004350D8A432EF0EF034EF0EF038EF0EF008
:101C68000401046BF3EC1CF00F012691629A62AC3C
:101C780040EF0EF042EF0EF07FEF0EF0629CD7ECD3
:101C880012F07FEF0EF064CF80F062960001803989
:101C9800E8461F0B0F0B816F8041E8423F0B010B99
:101CA800826F8151D8A45BEF0EF05DEF0EF06DEFFF
:101CB8000EF08251D8B463EF0EF065EF0EF069EFC5
:101CC8000EF088EC18F07FEF0EF0CEEC17F07FEFF7
:101CD8000EF08105D8A473EF0EF075EF0EF07FEFCC
:101CE8000EF08251D8B47BEF0EF07DEF0EF07FEF4F
:101CF8000EF043EF0EF062B684EF0EF086EF0EF0B2
:101D080047EF0EF012000001996B97BF90EF0EF0AD
:101D18008EEF0EF09AEF0EF0971F961F951F946D99
:101D2800000E952396239723010E996F93BFA1EF79
:101D38000EF09FEF0EF0ABEF0EF0931F921F911F66
:101D4800906D000E912392239323010E991B000E90
:101D58009A6F000E9B6F000E9C6F000E9D6F945142
:101D6800951196119711D8B4BCEF0EF0BEEF0EF096
:101D7800F4EF0EF0010E986FC8EF0EF0D89094377C
:101D8800953796379737982B97AFCDEF0EF0CFEF63
:101D98000EF0C2EF0EF0D8909A379B379C379D37DC
:101DA8009451905D955191599651925997519359E3
:101DB800D8A0E1EF0EF0E3EF0EF0ECEF0EF0945147
:101DC800905F9551915B9651925B9751935B9A8185
:101DD800D8909733963395339433982FCFEF0EF0EE
:101DE8009951D8B4FAEF0EF0FCEF0EF004EF0FF0B3
:101DF8009D1F9C1F9B1F9A6D000E9B239C239D2358
:101E08009AC090F09BC091F09CC092F09DC093F056
:101E18001200375007E1090E365CD8B016EF0FF004
:101E280018EF0FF01DEF0FF036C021F0226A20EFF7
:101E38000FF0226A080E216E21C027F0286A5FEF92
:101E48000FF04250D8A42BEF0FF02DEF0FF043EF17
:101E58000FF0650E1E6E010E1F6E28501E26000E16
:101E68001F220001AA511E24D96EAB511F20DA6E21
:101E7800DF50206E2050236E246A56EF0FF0285052
:101E88000001AC251E6E000EAD211F6EAA511E2644
:101E9800AB511F221EC0F6FF1FC0F7FF0800F55008
:101EA800236E246A180E2824D96EDA6A040EDA2200
:101EB80023C0DFFF282A2750285CD8A066EF0FF040
:101EC80068EF0FF025EF0FF027500001AA27000E4A
:101ED800AB232750365E000E375A27C005F4180E7C
:101EE800196E040E1A6E010E7FEC1CF04850D8A42F
:101EF80080EF0FF082EF0FF087EF0FF0266A880E61
:101F0800256E8AEF0FF0266AC80E256E25C004F4E8
:101F1800010E481A12000101276B000E266F1F518F
:101F28002011D8A49AEF0FF09CEF0FF09EEF0FF05E
:101F38000CEF10F01FC190F020C191F021C192F078
:101F480022C193F050EC17F090C024F191C025F114
:101F5800010124512511D8A4B4EF0FF0B6EF0FF00A
:101F6800B8EF0FF00CEF10F0255109E1C80E245D11
:101F7800D8A0C1EF0FF0C3EF0FF0C5EF0FF00CEFD3
:101F880010F0000EF2BE010E236FF29E260E000125
:101F9800906F010E916FBC0E926F76EC11F00101FB
:101FA8002451262500019D6F01012551272100019B
:101FB8009E6F9E5109E1C80E9D5DD8A0E6EF0FF017
:101FC800E8EF0FF0F4EF0FF001012351D8B4EFEF71
:101FD8000FF0F1EF0FF00CEF10F0F28E0CEF10F0A5
:101FE8001FC100F120C101F124C102F125C103F193
:101FF800BC0E0101046F41EC02F001012351D8B479
:1020080008EF10F00AEF10F00BEF10F0F28E9D8839
:102018001200200E0001936F020E946F966B400E13
:10202800956F986B020E976FB20E996F3DEC1AF090
:102038000001B16B656A0F01366B376B140E396F8F
:10204800266B276B0101086B0851040D000EF32461
:10205800D96E040EF420DA6EDF6A0851040D010E01
:10206800F324D96E040EF420DA6EDF6A082B030E0F
:10207800086541EF10F043EF10F028EF10F0658687
:102088000DEC18F090C004F191C005F192C006F172
:1020980093C007F165AA53EF10F055EF10F079EFF0
:1020A80010F00DEC18F0010104510001905D0101E0
:1020B800006F0551000191590101016F065100019E
:1020C80092590101026F0751000193590101036FF1
:1020D80003510211011109E1640E005DD8A077EFE8
:1020E80010F079EF10F04EEF10F0626A0F013681B0
:1020F80036873689368B3683368DA298A198A08884
:10210800010E0001B16F120001011F51D96EDA6A88
:10211800DE50DE10D8A493EF10F095EF10F098EF92
:1021280010F0020EFFEF10F0266B000E256F250E43
:102138000001906F010E916F1FC192F076EC11F0C3
:1021480001011D51255D1E512659D8B0AEEF10F082
:10215800B0EF10F0B4EF10F025C11DF126C11EF14B
:102168001BC100F11CC101F11DC102F11EC103F127
:102178001FC104F1B3EC09F00101246F2451D8B454
:10218800C8EF10F0CAEF10F0CDEF10F02451FFEFB8
:1021980010F01F51D96EDA6A020ED9261D51DE26BB
:1021A8001E51DD221F51D96EDA6A060ED9261F513B
:1021B800E16EE26A020EE126DE50E65CDE50E65889
:1021C800D8A0E9EF10F0EBEF10F0CAEF10F01F51B4
:1021D800D96EDA6A060ED926DECF20F1DDCF21F1DD
:1021E8001F51D96EDA6A020ED9262051DE5E2151BE
:1021F800DD5ACAEF10F012000001996B93BF09EF86
:1022080011F007EF11F013EF11F0931F921F911FB8
:10221800906D000E912392239323010E996F97BF1F
:102228001AEF11F018EF11F022EF11F0971F961F17
:10223800951F946D000E952396239723945195111D
:1022480096119711D8B42BEF11F02DEF11F05DEF27
:1022580011F0010E986F37EF11F0D8909437953739
:1022680096379737982B97AF3CEF11F03EEF11F068
:1022780031EF11F09451905D9551915996519259C1
:1022880097519359D8A04BEF11F04DEF11F055EF3E
:1022980011F09451905F9551915B9651925B9751D3
:1022A800935BD8909733963395339433982F3EEFBA
:1022B80011F09951D8B463EF11F065EF11F06DEF9B
:1022C80011F0931F921F911F906D000E912392237E
:1022D800932390C090F091C091F092C092F093C077
:1022E80093F0120000019251D96EDA6ADE50DE10C6
:1022F800D8A481EF11F083EF11F085EF11F0EBEF27
:1023080011F09251D96EDA6A020ED9269251E16E15
:10231800E26A040EE126DE50E65CDE50E658D8B0EC
:1023280098EF11F09AEF11F0CBEF11F09251D96EAE
:10233800DA6A040ED926DECF93F0DDCF94F09251FD
:10234800D96EDA6A020ED926DECF95F0DDCF96F087
:102358009251D96EDA6A060ED926DECF97F0DDCF14
:1023680098F09551975D996F965198599A6F935136
:1023780099259B6F94519A219C6F90C0D9FF91C069
:10238800DAFF9BC0DEFF9CC0DDFFEBEF11F092513E
:10239800D96EDA6A020ED926DECF93F0DDCF94F03B
:1023A8009251D96EDA6A040ED926DECF95F0DDCFC8
:1023B80096F09351955D976F94519659986F90C088
:1023C800D9FF91C0DAFF97C0DEFF98C0DDFF120089
:1023D80000017A51D96EDA6ADE50DE10D8A4F7EF20
:1023E80011F0F9EF11F0FCEF11F0020E61EF12F0AD
:1023F800316A000E306E300E196E1A6A7AC01BF000
:1024080062EC12F000017851305C79513158D8B043
:1024180010EF12F012EF12F016EF12F030C078F051
:1024280031C079F076C026F077C027F078C028F060
:1024380079C029F07AC02AF0EFEC0AF02F6E2F50FD
:10244800D8B429EF12F02BEF12F02EEF12F02F5024
:1024580061EF12F000017A51D96EDA6A020ED926BC
:102468007851DE267951DD227A51D96EDA6A060E64
:10247800D9267A51E16EE26A020EE126DE50E65C68
:10248800DE50E658D8A04BEF12F04DEF12F02BEFCC
:1024980012F07A51D96EDA6A060ED926DECF2BF001
:1024A800DDCF2CF07A51D96EDA6A020ED9262B507C
:1024B800DE5E2C50DD5A2BEF12F012001B50D96E45
:1024C800DA6ADE50DE10D8A46CEF12F06EEF12F06C
:1024D80070EF12F0D6EF12F01B50D96EDA6A020EC6
:1024E800D9261B50E16EE26A040EE126DE50E65C56
:1024F800DE50E658D8B083EF12F085EF12F0B6EF51
:1025080012F01B50D96EDA6A040ED926DECF1CF001
:10251800DDCF1DF01B50D96EDA6A020ED926DECF48
:102528001EF0DDCF1FF01B50D96EDA6A060ED926D1
:10253800DECF20F0DDCF21F01E50205C226E1F5030
:102548002158236E1C502224246E1D502320256EF2
:1025580019C0D9FF1AC0DAFF24C0DEFF25C0DDFF8D
:10256800D6EF12F01B50D96EDA6A020ED926DECFEA
:102578001CF0DDCF1DF01B50D96EDA6A040ED92687
:10258800DECF1EF0DDCF1FF01C501E5C206E1D50EC
:102598001F58216E19C0D9FF1AC0DAFF20C0DEFF0C
:1025A80021C0DDFF120000017F6B000E7E6F7D6B86
:1025B800000E7C6F030EB119D8B4E5EF12F0E7EF07
:1025C80012F0E9EF12F043EF13F004010CAFEFEF54
:1025D80012F0F1EF12F0F3EF12F043EF13F00001F5
:1025E8007B6B200E7B25D96EDA6A040EDA22DF6A4D
:1025F8007B2B070E7B6503EF13F005EF13F0F5EF68
:1026080012F03F50D8B40BEF13F00DEF13F012EFA8
:1026180013F03F6A0DEC1CF043EF13F07E0E196EB9
:102628001A6AB20E1B6E62EC12F000017E517F1125
:10263800D8A421EF13F023EF13F025EF13F043EFA5
:1026480013F07C0E766F776B796B010E786FB20E94
:102658007A6FECEC11F00009D8B435EF13F037EFCE
:1026680013F039EF13F043EF13F000017D5104012B
:10267800206F7CC022F4010E3F6E0EEF13F01200A3
:10268800AC9EAD9A948E949CAC9CAC9AAD8EAD9C4D
:10269800AD98AD847E907E9A7E987E86000E00016D
:1026A800906F6C0E916FDC0E926F020E936F000E9E
:1026B800946F100E956F0E0E966F000E976F00ECCC
:1026C80011F0000193BF76EF13F0935109E1080E62
:1026D800915D070E9259D8B074EF13F076EF13F0AE
:1026E8007DEF13F00101006901690269036986EF52
:1026F80013F0000E0101006F000E016F000E026F53
:10270800000E036F000E0001906F6C0E916FDC0ECF
:10271800926F020E936F000E946F100E956F0E0E4F
:10272800966F000E976F87EC0EF0010100510001C3
:1027380090250101046F0151000191210101056FEC
:1027480005517F6E04C1B0FFAD8AAC889D989D8A03
:102758009F9A9F98AC8E1200000192519311D8B4A1
:10276800B8EF13F0BAEF13F0C3EF13F092519311CF
:10277800D8A4C1EF13F0C3EF13F0C8EF13F09051D2
:1027880008EC1DF015EF14F020EE09F09251D9264F
:102798009351DA22DE50DE10D8B4D5EF13F0D7EF1C
:1027A80013F0F2EF13F020EE09F09251D92693516D
:1027B800DA2210EE02F09251E1269351E222DE5025
:1027C800E65CE650800A986FDE50800A9859D8B0C7
:1027D800F0EF13F0F2EF13F015EF14F020EE02F023
:1027E8009251D9269351DA22DECF94F0DDCF95F0BD
:1027F80092C0D9FF93C0DAFFDECF96F0DDCF97F015
:1028080094519625D96E95519721DA6E90C0DFFFC5
:1028180020EE02F09251D9269351DA22DE2A000ED8
:10282800DD2212000101236F01011F5100019D6F7C
:1028380001012351216F9DC022F1266B000E256FE7
:102848002351D8A42AEF14F02CEF14F032EF14F02F
:102858000101206B000E1F6F78EF14F0030E0001CA
:10286800B119D8B43AEF14F03CEF14F041EF14F07A
:1028780001011F69206978EF14F0000EA0B8010E5D
:102888000101246FA098250E0001906F010E916F31
:10289800B20E926F76EC11F00101265109E13F0E5C
:1028A800255DD8A05AEF14F05CEF14F063EF14F034
:1028B80024B102D0A09801D0A0882CEF14F0210EEA
:1028C800006F010E016F036B010E026FB20E046FF1
:1028D80041EC02F0010124B102D0A09801D0A088F7
:1028E8000101206B010E1F6F12000001986B000E92
:1028F800976F90C0D9FF91C0DAFFDECFF6FFDDCF2A
:10290800F7FF0800F5502A0AD8A48DEF14F08FEFCE
:1029180014F0C2EF14F090C0D9FF91C0DAFFDE2A9C
:10292800000EDD2292C0D9FF93C0DAFFDFCF94F00A
:10293800020EDE26DFCF95F0000EDD2294C0D9FF0F
:1029480095C0DAFFDECF97F0DDCF98F0D6EF14F020
:102958000A0E9703F3CF94F0F4CF95F09803F35051
:10296800952796519425976F000E9521986F90C0E2
:10297800D9FF91C0DAFFDE2A000EDD2290C0D9FF10
:1029880091C0DAFFDECFF6FFDDCFF7FF0800F55084
:10299800D00F966F090E9665D4EF14F0D6EF14F0A9
:1029A800ACEF14F097C090F098C091F01200000EB0
:1029B800F2BE010E0001926FF29E01EC1DF00F01B4
:1029C8003F9F3F953F833F8190C0D9FF91C0DAFF79
:1029D800DF50986E000120EE07F09051D9269151F2
:1029E800DA22DF50996E20EE02F09051D9269151EB
:1029F800DA22DF50986E20EE01F09051D9269151DD
:102A0800DA22DF50996E20EE04F09051D9269151C8
:102A1800DA22DF50986E20EE03F09051D9269151BA
:102A2800DA22DF50996E20EE06F09051D9269151A6
:102A3800DA22DF50986E20EE05F09051D926915198
:102A4800DA22DF50996E0F013F8F3F9B00019251B0
:102A5800D8B431EF15F033EF15F034EF15F0F28EEE
:102A68001200000EF2BE010E0001926FF29E0F01DD
:102A78003FB941EF15F043EF15F03BEF15F03F83F9
:102A88003F8190C0D9FF91C0DAFF98CFDFFF0001E6
:102A980020EE07F09051D9269151DA2299CFDFFF25
:102AA80020EE02F09051D9269151DA2298CFDFFF1B
:102AB80020EE01F09051D9269151DA2299CFDFFF0B
:102AC80020EE04F09051D9269151DA2298CFDFFFF9
:102AD80020EE03F09051D9269151DA2299CFDFFFE9
:102AE80020EE06F09051D9269151DA2298CFDFFFD7
:102AF80020EE05F09051D9269151DA2299CFDFFFC7
:102B08009251D8B48AEF15F08CEF15F08DEF15F0CF
:102B1800F28E12000001B0A194EF15F096EF15F0B7
:102B2800A0EF15F005C199F006C19AF003C19BF01A
:102B380004C19CF0F0EC1AF0010108BFA8EF15F0F1
:102B4800A6EF15F0ABEF15F0086B000E076F0A6BD8
:102B5800000E096FBCEF15F0916B200E906F03C14A
:102B680092F004C193F0B0EC13F00101094B0A2B69
:102B78000751095D0A51800A00019D6F0101085142
:102B8800800A00019D59D8A0CCEF15F0CEEF15F0C2
:102B9800B0EF15F0B0B1D3EF15F0D5EF15F0DFEFCA
:102BA80015F005C199F006C19AF003C19BF004C164
:102BB8009CF0F0EC1AF01200FACF12F0FBCF13F0F1
:102BC800D9CF14F0DACF15F0F3CF16F0F4CF17F011
:102BD8009DA2F1EF15F0F3EF15F022EF16F09EA28B
:102BE800F8EF15F0FAEF15F022EF16F09E92010EAD
:102BF8003226000E332234223522186A19EF16F0D5
:102C08001850020D510EF324D96E010EF420DA6E1D
:102C180002D818EF16F00500FA6EDE50FD6EDE5091
:102C2800FE6EFF6AFA501200182A4750185CD8A0A6
:102C380020EF16F022EF16F004EF16F017C0F4FF9D
:102C480016C0F3FF15C0DAFF14C0D9FF13C0FBFF8D
:102C580012C0FAFF019211000101326B000E316FB0
:102C6800030E0001B119D8B43CEF16F03EEF16F090
:102C780040EF16F07EEF16F00101346B000E336F53
:102C880073EF16F033512D25D96E34512E21DA6E9B
:102C9800DF50D8A452EF16F054EF16F056EF16F0A6
:102CA8007EEF16F033512D25D96E34512E21DA6E70
:102CB800DF504BEC18F0010128BF6DEF16F02851DA
:102CC80006E12705D8B06BEF16F06DEF16F06FEF41
:102CD80016F07EEF16F0314B322B334B342B2F513D
:102CE800335D30513459D8A07CEF16F07EEF16F0E2
:102CF80046EF16F012002B502D5C2C502E58D8B0F1
:102D080088EF16F08AEF16F08EEF16F02DC02BF034
:102D18002EC02CF029C0ACF02AC0ADF0010E426ED6
:102D28000001AB6B000EAA6F2BC036F02CC037F039
:102D3800316A2D502B5C2E502C58D8B0A6EF16F0C7
:102D4800A8EF16F0C2EF16F02B502C10D8B4AFEF46
:102D580016F0B1EF16F0C2EF16F0070E2B142F6E17
:102D6800000E2C14306E2F503010D8A4BEEF16F081
:102D7800C0EF16F0C2EF16F0010E316E31C041F00F
:102D8800010E436E0DEC0FF01200C5EC18F00001B7
:102D98009F51025C0E6EA05103580F6EA15104584A
:102DA800106EA2510558116E115010100F1009E144
:102DB8000B0E0E5CD8A0E3EF16F0E5EF16F00EEF61
:102DC80017F08C98C5EC18F000019F51025C0E6E4C
:102DD800A05103580F6EA1510458106EA251055806
:102DE800116E115010100BE1E90E0E5C030E0F5816
:102DF800D8A001EF17F003EF17F00EEF17F08C884B
:102E0800C5EC18F002C09FF003C0A0F004C0A1F008
:102E180005C0A2F012002D6A000E2C6EACA217EFAE
:102E280017F019EF17F021EF17F0AF50AF50AC982B
:102E3800AC883C4A3D2A4FEF17F0ACA426EF17F0B8
:102E480028EF17F02DEF17F0AF503A4A3B2A4FEF13
:102E580017F0AFCF2BF02C0E196E1A6AC60E1B6E28
:102E680062EC12F02D5009E1C70E2C5CD8A03FEFA0
:102E780017F041EF17F045EF17F0384A392A4FEFAE
:102E880017F02B0E266E276A296A010E286EC60EC9
:102E98002A6E93EC05F012000001976B000E966FF6
:102EA8007FEF17F096519025946F97519121956F68
:102EB80094C0F6FF95C0F7FFF86A0F0EF76403D0C9
:102EC8000800F55005D0F6CFE1FFF7CFE2FFE75055
:102ED8000009D8B472EF17F074EF17F076EF17F017
:102EE8007CEF17F096C090F097C091F08EEF17F036
:102EF8000001964B972B9251965D93519759D8A004
:102F080088EF17F08AEF17F056EF17F092C090F09D
:102F180093C091F012000001926B0F0148691F0ED7
:102F2800496F0001A36B922B92800F014891000119
:102F38009251A30FD96EDA6A010EDF6E922B92823C
:102F48000F01489300019251A30FD96EDA6A020E5D
:102F5800DF6E922B92840F0148953F0EC216C18EE8
:102F6800C150F80B0609C16E380EC1129F9C5A0E4B
:102F78000001906F370E916F65EC1CF00009D8B412
:102F8800C8EF17F0CAEF17F0CCEF17F0CDEF17F036
:102F9800C280120004010041E8423F0B0F0B0D0AEA
:102FA800D8A4D9EF17F0DBEF17F0F2EF17F0EEEC3B
:102FB80003F04304D8B4E3EF17F0E5EF17F0EEEFB2
:102FC80017F0030E4318D8A4ECEF17F0EEEF17F044
:102FD8000CEF18F0F3EC1CF00CEF18F0020E43188D
:102FE800D8A4F9EF17F0FBEF17F009EF18F001512B
:102FF800D8B401EF18F003EF18F005EF18F010C47B
:1030080044F0C1EC1CF0EEEF17F0436AEEEF17F056
:10301800120032C094F033C095F034C096F035C039
:1030280097F032C098F033C099F034C09AF035C0A8
:103038009BF02FEF18F098C094F099C095F09AC0C3
:1030480096F09BC097F032C098F033C099F034C026
:103058009AF035C09BF00001985194190DE19951EF
:1030680095190AE19A51961907E19B519719D8A425
:1030780040EF18F042EF18F01FEF18F098C090F0EA
:1030880099C091F09AC092F09BC093F01200010190
:103098002B6F7F0E01012B6554EF18F056EF18F0D7
:1030A8005BEF18F0286B000E276F87EF18F02B0ED8
:1030B8002B25F66EF76AFE0EF7220800F5CF2CF1E5
:1030C8002C51D8A46AEF18F06CEF18F06EEF18F0D6
:1030D80056EF18F02CBF73EF18F075EF18F07AEF71
:1030E80018F02A6B000E296F7DEF18F02A6B020E7C
:1030F800296F29C11FF12C517F0B16EC14F01FC149
:1031080027F120C128F112004304D8A48EEF18F04B
:1031180090EF18F0ACEF18F036503710D8B497EF9E
:1031280018F099EF18F09DEF18F00DEC0FF0C4EFC0
:1031380018F04150D8B4A3EF18F0A5EF18F0A8EF95
:1031480018F0416A99EF18F0040E436EC4EF18F0B6
:10315800030E4318D8A4B3EF18F0B5EF18F0C4EF76
:1031680018F04050D8B4BBEF18F0BDEF18F0C3EF1B
:1031780018F040C038FF020E0001B16F406A436A80
:10318800120032C006F033C007F034C008F035C072
:1031980009F032C00AF033C00BF034C00CF035C06F
:1031A8000DF0E7EF18F00AC006F00BC007F00CC0EE
:1031B80008F00DC009F032C00AF033C00BF034C07B
:1031C8000CF035C00DF00A5006180DE10B50071829
:1031D8000AE10C50081807E10D500918D8A4F7EFB8
:1031E80018F0F9EF18F0D7EF18F00AC002F00BC08A
:1031F80003F00CC004F00DC005F012009E9CC350F3
:10320800C4CF19F01A6A19C01AF0196A1912000EF7
:103218001A124650A30FD96EDA6ADF501B6E1B5084
:10322800020D000EF324D96E020EF420DA6E19C0D6
:10323800DEFF1AC0DDFF462A020E466426EF19F0AB
:1032480028EF19F02CEF19F09D9C466A3AEF19F017
:103258004650A30FD96EDA6ADF50196E194619461F
:10326800C2501918C30B1918C26EC2821200000E80
:103278000001936F030E946F966BC80E956F986B51
:10328800010E976FC60E996F3DEC1AF00009D8B47D
:1032980050EF19F052EF19F054EF19F06FEF19F0E1
:1032A800000E0001936F050E946F966BC80E956F14
:1032B800986B010E976FBC0E996F3DEC1AF00009E0
:1032C800D8B469EF19F06BEF19F06DEF19F06FEFE3
:1032D80019F044EC13F0120092C099F093C09AF0E0
:1032E80090C097F091C098F096EF19F099C0F6FF4A
:1032F8009AC0F7FFF86A0F0EF76403D00800F5507C
:1033080005D0F6CFE1FFF7CFE2FFE7500001966F57
:10331800994B9A2B97C0D9FF98C0DAFF96C0DFFF68
:10332800974B982B00019407D8A09507942906E19C
:103338009529D8A4A2EF19F0A4EF19F07AEF19F0A3
:103348001200120EF66E3A0EF76E000EF86E0900B5
:10335800F5CF48F005EE00F0C80EEE6AE806FDE18C
:1033680003EE00F0C80EEE6AE806FDE102EE00F09A
:10337800C00EEE6AE806FDE101EE51F0280EEE6A95
:10338800E806FDE100EE9FF0310EEE6AE806FDE189
:1033980000EE32F0160EEE6AE806FDE101900192A9
:1033A800000EF86E000133EF07F01BC022F01CC0BE
:1033B80023F019C020F01AC021F0FEEF19F022C046
:1033C800F6FF23C0F7FFF86A0F0EF76403D0080072
:1033D800F55005D0F6CFE1FFF7CFE2FFE7501F6EBB
:1033E800224A232A20C0D9FF21C0DAFF1FC0DFFFED
:1033F800204A212A1D06D8A01E061D2806E11E28DF
:10340800D8A409EF1AF00BEF1AF0E3EF19F0120045
:103418000DEC18F090C008F191C009F192C00AF1C2
:1034280093C00BF10DEC18F0010108510001905DFB
:103438000101046F0951000191590101056F0A51F9
:10344800000192590101066F0B51000193590101C6
:10345800076F0051045D0151055902510659035186
:103468000759D8A03AEF1AF03CEF1AF016EF1AF005
:10347800120000019951D96EDA6A060ED92695C054
:10348800DEFF96C0DDFF9951D96EDA6A080ED9269B
:1034980097C0DEFF98C0DDFF9951D96EDA6A93C0F4
:1034A800DEFF94C0DDFF99C090F0CEEC1BF0000168
:1034B8009951D96EDA6ADE50DE10D8A466EF1AF098
:1034C80068EF1AF06BEF1AF0020E6CEF1AF0000EAC
:1034D80012000001956F0F0E0001956576EF1AF046
:1034E80078EF1AF07CEF1AF0906991699AEF1AF068
:1034F800000EF2BE010E946FF29E9551020D000E61
:10350800F324D96E020EF420DA6EDECF92F0DDCF0E
:1035180093F09451D8B493EF1AF095EF1AF096EF10
:103528001AF0F28E92C090F093C091F01200000150
:103538007D6B000E7C6F7C0E196E1A6ABC0E1B6EBA
:1035480062EC12F000017C517D11D8B4AEEF1AF094
:10355800B0EF1AF0C6EF1AF07B0E766F776B796BC7
:10356800010E786FBC0E7A6FECEC11F00009D8A44C
:10357800C0EF1AF0C2EF1AF0C6EF1AF07BC0AEFF28
:10358800C7EF1AF09D9812002CC130F12DC131F10E
:10359800DDEF1AF02AC11AF12BC11BF1300E01011F
:1035A8001C6F010E1D6F2EC11EF12FC11FF185EC7E
:1035B80000F030C1F6FF31C1F7FF0800F5500009EF
:1035C800D8A4E9EF1AF0EBEF1AF0CEEF1AF00101E8
:1035D8002B6B000E2A6F12000101026B000E016FA7
:1035E80003EF1BF000C190F00001916B9BC092F0BB
:1035F8009CC093F0B0EC13F00101014B022B015178
:1036080000019925D96E0101025100019A21DA6E53
:10361800DF500101006F0051D8A415EF1BF017EF20
:103628001BF0F6EF1AF01200360E01013E6F010E84
:103638003F6F32C140F133C141F1436B000E426F1D
:103648004A6B000E496F400E2A6F010E2B6F34C172
:103658002CF135C12DF13E0E2E6F010E2F6FC8ECE7
:103668001AF0010142513225D96E43513321DA6EE5
:10367800DF6A120041EF1BF0629662B646EF1BF05C
:1036880048EF1BF040EF1BF00F01276B386B626AA5
:10369800636A658C659C6598160E266F0401046B39
:1036A8000C6BF3EC1CF0436A406A3F6A3E6A446A5A
:1036B800B20E196EEEEC1BF0010E0001B16F120094
:1036C8009B8CD08EC00E0001906FD40E916F010EAE
:1036D800926F000E936F9007000E915B925B935B65
:1036E80090290AE1912908E1922906E19329D8A4B1
:1036F80080EF1BF082EF1BF06FEF1BF00F014869A2
:103708001F0E496FD3EC1CF01200000EF2BE010E22
:103718000001916FF29E466A010E456EC2804650C6
:10372800A30FD96EDA6ADF50906F90479047C25066
:103738009019C30B9019C26E9E9C9D8CC2829151A8
:10374800D8B4A9EF1BF0ABEF1BF0ACEF1BF0F28E77
:1037580012004550D8B4B3EF1BF0B5EF1BF0CDEF16
:103768001BF04650D8A4BBEF1BF0BDEF1BF0CDEF0C
:103778001BF04650A30FD96EDA6ADF50026E02467C
:103788000246C2500218C30B0218C26E9E9C9D8C42
:10379800C282120000019051D96EDA6ADE50DE1042
:1037A800D8A4D9EF1BF0DBEF1BF0DDEF1BF0EDEF3A
:1037B8001BF09051D96EDA6A020ED926DE6ADD6AEC
:1037C8009051E16EE26A040EE126DECFE6FFDDCF1E
:1037D800E5FF12001950D96EDA6ADE50DE10D8A45F
:1037E800F8EF1BF0FAEF1BF0FCEF1BF00CEF1CF0EE
:1037F8001950D96EDA6A020ED926DE6ADD6A1950C6
:10380800E16EE26A040EE126DECFE6FFDDCFE5FFDA
:103818001200080E04010D6F200E196E040E1A6EA8
:10382800030E7FEC1CF03E50D8A41DEF1CF01FEFD8
:103838001CF024EF1CF01F6A880E1E6E27EF1CF088
:103848001F6AC80E1E6E1EC00CF4010E3E1A12002E
:1038580029502B5C2A502C58D8B035EF1CF037EF84
:103868001CF03BEF1CF02BC029F02CC02AF0426A58
:103878000001AB6B000EAA6F29C036F02AC037F0E2
:10388800416A010E436E0DEC0FF0120000019BBF60
:1038980050EF1CF052EF1CF058EF1CF09AC09AF051
:1038A8009BC09BF064EF1CF09AC09CF09BC09DF0FD
:1038B8009C1F9D1F9C4B9D2B9CC09AF09DC09BF00C
:1038C8001200090E47646BEF1CF06DEF1CF070EFEF
:1038D8001CF0010E7EEF1CF04750020D510EF32430
:1038E800D96E010EF420DA6E90C0DEFF91C0DDFFC4
:1038F800472A000E12001B6E19C01CF01AC01DF0DA
:103908001B50040D020EF324D96E040EF420DA6E57
:103918001CC0DFFF1B50040D030EF324D96E040EE8
:10392800F420DA6E1D50DF6E12000001906B030E5A
:10393800B119D8A4A2EF1CF0A4EF1CF0ADEF1CF055
:1039480065B2A9EF1CF0ABEF1CF0ADEF1CF0010E57
:10395800906F90511200436A080E0401016F100E17
:10396800196E040E1A6E000E7FEC1CF0840E040112
:10397800006F056B840E046F1200030E436E376AE6
:10398800000E366E0401056B180E196E040E1A6EC1
:10399800010E7FEC1CF0C80E0401046F1200CA94DB
:1039A800310ECB6E030ECA12CA50870B7009CA6E4D
:1039B800CC6A9E929F829D82F28EF28CCA841200FB
:1039C80094809482CD86320E0101006F000E016F43
:1039D800000E026F000E036F0CEC1AF01200080EB6
:1039E8000401016F100E196E040E1A6E000E7FECA2
:1039F8001CF0800E0401006F12000F01550EA76E17
:0B3A0800AA0EA76E3F8B1200120001F7
:10FE2A000000000000000000002A2B280000280023
:10FE3A00000000000000000000000000290000008F
:10FE4A00002C9EB4A0A1A2A434A6A7A5AE362D3735
:10FE5A0038271E1F20212223242526B333B62EB786
:10FE6A00B89F8485868788898A8B8C8D8E8F90919E
:10FE7A0092939495969798999A9B9C9D2F3130A32B
:10FE8A00AD350405060708090A0B0C0D0E0F1011F3
:10FE9A0012131415161718191A1B1C1DAFB1B0B579
:10FEAA004C05010906A101050719E029E7150025F6
:10FEBA0001750195088102950175088101950575FD
:10FECA00010508190129059102950175039101950A
:10FEDA00067508150025650507190029658100C002
:10FEEA002203500049004300200048004900440012
:10FEFA0020004B006500790062006F00610072000B
:10FF0A006400090222000101008032090400000194
:10FF1A0003010100092111010001223F00070581A7
:10FF2A000308000A18035000490043003100380052
:10FF3A004600340036004A00350030001201000243
:10FF4A0000000008D8043F00000101020001040378
:10FF5A00090454696D653A20252E32643A25322EF9
:10FF6A0032643A25322E32640A0D456E7465726522
:10FF7A006420737472696E673A2025730A0D00480B
:10FF8A00656C6C6F2121210A0D54696D653A202533
:10FF9A006C640A0D456E74657220737472696E67BB
:10FFAA003A200A0D00555342206B6579626F6172DF
:10FFBA00643A206E6F742072656164790A0D005587
:10FFCA005342206B6579626F6172643A207265618F
:10FFDA0064790A0D004144433A20256420256420AF
:0DFFEA0025640A0D00286E756C6C2900005E
:08FFF800AEF74DFFF3F9FFF134
:00000001FF
